{
  "contractName": "MarketPlace",
  "abi": [
    {
      "inputs": [
        {
          "components": [
            {
              "internalType": "string",
              "name": "id",
              "type": "string"
            },
            {
              "internalType": "string",
              "name": "password",
              "type": "string"
            }
          ],
          "internalType": "struct MarketPlace.CreateOrgRequest",
          "name": "request",
          "type": "tuple"
        }
      ],
      "name": "createOrganization",
      "outputs": [],
      "stateMutability": "nonpayable",
      "type": "function"
    },
    {
      "inputs": [
        {
          "components": [
            {
              "internalType": "string",
              "name": "id",
              "type": "string"
            },
            {
              "internalType": "string",
              "name": "password",
              "type": "string"
            }
          ],
          "internalType": "struct MarketPlace.CreateOrgRequest",
          "name": "request",
          "type": "tuple"
        }
      ],
      "name": "getOrganization",
      "outputs": [
        {
          "components": [
            {
              "internalType": "string",
              "name": "id",
              "type": "string"
            },
            {
              "internalType": "string",
              "name": "status",
              "type": "string"
            },
            {
              "components": [
                {
                  "internalType": "string",
                  "name": "id",
                  "type": "string"
                },
                {
                  "internalType": "uint256",
                  "name": "pricePerUnit",
                  "type": "uint256"
                },
                {
                  "components": [
                    {
                      "internalType": "string",
                      "name": "userID",
                      "type": "string"
                    },
                    {
                      "components": [
                        {
                          "internalType": "string",
                          "name": "name",
                          "type": "string"
                        },
                        {
                          "internalType": "string",
                          "name": "value",
                          "type": "string"
                        }
                      ],
                      "internalType": "struct MarketPlace.Attribute[]",
                      "name": "attributes",
                      "type": "tuple[]"
                    }
                  ],
                  "internalType": "struct MarketPlace.DataPackReceivedRequest[]",
                  "name": "received",
                  "type": "tuple[]"
                }
              ],
              "internalType": "struct MarketPlace.DataPackResponse[]",
              "name": "packs",
              "type": "tuple[]"
            }
          ],
          "internalType": "struct MarketPlace.OrganizationResponse",
          "name": "",
          "type": "tuple"
        }
      ],
      "stateMutability": "view",
      "type": "function",
      "constant": true
    },
    {
      "inputs": [
        {
          "components": [
            {
              "internalType": "string",
              "name": "organization",
              "type": "string"
            },
            {
              "internalType": "string",
              "name": "id",
              "type": "string"
            },
            {
              "internalType": "uint256",
              "name": "pricePerUnit",
              "type": "uint256"
            },
            {
              "internalType": "string[]",
              "name": "requestedAttributes",
              "type": "string[]"
            }
          ],
          "internalType": "struct MarketPlace.AddDataPackRequest",
          "name": "request",
          "type": "tuple"
        }
      ],
      "name": "addDataPack",
      "outputs": [],
      "stateMutability": "nonpayable",
      "type": "function"
    },
    {
      "inputs": [
        {
          "components": [
            {
              "internalType": "string",
              "name": "userID",
              "type": "string"
            },
            {
              "internalType": "string",
              "name": "organization",
              "type": "string"
            },
            {
              "internalType": "string",
              "name": "dataPackID",
              "type": "string"
            },
            {
              "components": [
                {
                  "internalType": "string",
                  "name": "name",
                  "type": "string"
                },
                {
                  "internalType": "string",
                  "name": "value",
                  "type": "string"
                }
              ],
              "internalType": "struct MarketPlace.Attribute[]",
              "name": "attributes",
              "type": "tuple[]"
            }
          ],
          "internalType": "struct MarketPlace.BuyDataRequest",
          "name": "request",
          "type": "tuple"
        }
      ],
      "name": "buyData",
      "outputs": [],
      "stateMutability": "nonpayable",
      "type": "function"
    }
  ],
  "bytecode": "0x608060405234801561001057600080fd5b50611fa3806100206000396000f3fe608060405234801561001057600080fd5b506004361061004c5760003560e01c806317d104f81461005157806373001f801461006d578063804a18b81461009d5780638d0f9c68146100b9575b600080fd5b61006b600480360381019061006691906113a6565b6100d5565b005b61008760048036038101906100829190611477565b6102be565b60405161009491906118da565b60405180910390f35b6100b760048036038101906100b29190611b4d565b610ba4565b005b6100d360048036038101906100ce9190611477565b610f1e565b005b60008082600001516040516100ea9190611bd2565b9081526020016040518091039020600201600081548092919061010c90611c18565b91905055905081602001516000836000015160405161012b9190611bd2565b90815260200160405180910390206003016000838152602001908152602001600020600001908161015c9190611e6c565b508160400151600083600001516040516101769190611bd2565b9081526020016040518091039020600301600083815260200190815260200160002060010181905550816060015151600083600001516040516101b99190611bd2565b908152602001604051809103902060030160008381526020019081526020016000206002018190555060008083600001516040516101f79190611bd2565b908152602001604051809103902060030160008381526020019081526020016000206004018190555060005b8260600151518110156102b9578260600151818151811061024757610246611f3e565b5b6020026020010151600084600001516040516102639190611bd2565b90815260200160405180910390206003016000848152602001908152602001600020600301600083815260200190815260200160002090816102a59190611e6c565b5080806102b190611c18565b915050610223565b505050565b6102c6610fe4565b6102ce610fe4565b6103898360200151600085600001516040516102ea9190611bd2565b9081526020016040518091039020600101805461030690611c8f565b80601f016020809104026020016040519081016040528092919081815260200182805461033290611c8f565b801561037f5780601f106103545761010080835404028352916020019161037f565b820191906000526020600020905b81548152906001019060200180831161036257829003601f168201915b5050505050610fb9565b6103d4576040518060400160405280600681526020017f6661696c65640000000000000000000000000000000000000000000000000000815250816020018190525080915050610b9f565b826000015181600001819052506040518060400160405280600781526020017f7375636365737300000000000000000000000000000000000000000000000000815250816020018190525060008084600001516040516104349190611bd2565b90815260200160405180910390206002015490508067ffffffffffffffff81111561046257610461611084565b5b60405190808252806020026020018201604052801561049b57816020015b610488611005565b8152602001906001900390816104805790505b50826040018190525060005b81811015610b9857600085600001516040516104c39190611bd2565b9081526020016040518091039020600301600082815260200190815260200160002060000180546104f390611c8f565b80601f016020809104026020016040519081016040528092919081815260200182805461051f90611c8f565b801561056c5780601f106105415761010080835404028352916020019161056c565b820191906000526020600020905b81548152906001019060200180831161054f57829003601f168201915b50505050508360400151828151811061058857610587611f3e565b5b602002602001015160000181905250600085600001516040516105ab9190611bd2565b9081526020016040518091039020600301600082815260200190815260200160002060010154836040015182815181106105e8576105e7611f3e565b5b602002602001015160200181815250508167ffffffffffffffff81111561061257610611611084565b5b60405190808252806020026020018201604052801561064b57816020015b610638611026565b8152602001906001900390816106305790505b508360400151828151811061066357610662611f3e565b5b60200260200101516040018190525060005b600086600001516040516106899190611bd2565b9081526020016040518091039020600301600083815260200190815260200160002060040154811015610b8457600086600001516040516106ca9190611bd2565b908152602001604051809103902060030160008381526020019081526020016000206005016000828152602001908152602001600020600001805461070e90611c8f565b80601f016020809104026020016040519081016040528092919081815260200182805461073a90611c8f565b80156107875780601f1061075c57610100808354040283529160200191610787565b820191906000526020600020905b81548152906001019060200180831161076a57829003601f168201915b5050505050846040015183815181106107a3576107a2611f3e565b5b60200260200101516040015182815181106107c1576107c0611f3e565b5b60200260200101516000018190525060008087600001516040516107e59190611bd2565b9081526020016040518091039020600301600084815260200190815260200160002060050160008381526020019081526020016000206001015490508067ffffffffffffffff81111561083b5761083a611084565b5b60405190808252806020026020018201604052801561087457816020015b610861611040565b8152602001906001900390816108595790505b508560400151848151811061088c5761088b611f3e565b5b60200260200101516040015183815181106108aa576108a9611f3e565b5b60200260200101516020018190525060005b81811015610b6f57600088600001516040516108d89190611bd2565b9081526020016040518091039020600301600085815260200190815260200160002060050160008481526020019081526020016000206002016000828152602001908152602001600020600001805461093090611c8f565b80601f016020809104026020016040519081016040528092919081815260200182805461095c90611c8f565b80156109a95780601f1061097e576101008083540402835291602001916109a9565b820191906000526020600020905b81548152906001019060200180831161098c57829003601f168201915b5050505050866040015185815181106109c5576109c4611f3e565b5b60200260200101516040015184815181106109e3576109e2611f3e565b5b6020026020010151602001518281518110610a0157610a00611f3e565b5b60200260200101516000018190525060008860000151604051610a249190611bd2565b90815260200160405180910390206003016000858152602001908152602001600020600501600084815260200190815260200160002060020160008281526020019081526020016000206001018054610a7c90611c8f565b80601f0160208091040260200160405190810160405280929190818152602001828054610aa890611c8f565b8015610af55780601f10610aca57610100808354040283529160200191610af5565b820191906000526020600020905b815481529060010190602001808311610ad857829003601f168201915b505050505086604001518581518110610b1157610b10611f3e565b5b6020026020010151604001518481518110610b2f57610b2e611f3e565b5b6020026020010151602001518281518110610b4d57610b4c611f3e565b5b6020026020010151602001819052508080610b6790611c18565b9150506108bc565b50508080610b7c90611c18565b915050610675565b508080610b9090611c18565b9150506104a7565b5081925050505b919050565b60005b60008260200151604051610bbb9190611bd2565b908152602001604051809103902060020154811015610f1a57610ca360008360200151604051610beb9190611bd2565b908152602001604051809103902060030160008381526020019081526020016000206000018054610c1b90611c8f565b80601f0160208091040260200160405190810160405280929190818152602001828054610c4790611c8f565b8015610c945780601f10610c6957610100808354040283529160200191610c94565b820191906000526020600020905b815481529060010190602001808311610c7757829003601f168201915b50505050508360400151610fb9565b15610f07576000808360200151604051610cbd9190611bd2565b908152602001604051809103902060030160008381526020019081526020016000206004016000815480929190610cf390611c18565b919050559050826000015160008460200151604051610d129190611bd2565b9081526020016040518091039020600301600084815260200190815260200160002060050160008381526020019081526020016000206000019081610d579190611e6c565b5060005b836060015151811015610f005783606001518181518110610d7f57610d7e611f3e565b5b60200260200101516000015160008560200151604051610d9f9190611bd2565b90815260200160405180910390206003016000858152602001908152602001600020600501600084815260200190815260200160002060020160008381526020019081526020016000206000019081610df89190611e6c565b5083606001518181518110610e1057610e0f611f3e565b5b60200260200101516020015160008560200151604051610e309190611bd2565b90815260200160405180910390206003016000858152602001908152602001600020600501600084815260200190815260200160002060020160008381526020019081526020016000206001019081610e899190611e6c565b5060008460200151604051610e9e9190611bd2565b9081526020016040518091039020600301600084815260200190815260200160002060050160008381526020019081526020016000206001016000815480929190610ee890611c18565b91905055508080610ef890611c18565b915050610d5b565b5050610f1a565b8080610f1290611c18565b915050610ba7565b5050565b806000015160008260000151604051610f379190611bd2565b90815260200160405180910390206000019081610f549190611e6c565b50806020015160008260000151604051610f6e9190611bd2565b90815260200160405180910390206001019081610f8b9190611e6c565b506000808260000151604051610fa19190611bd2565b90815260200160405180910390206002018190555050565b60008180519060200120838051906020012003610fd95760019050610fde565b600090505b92915050565b60405180606001604052806060815260200160608152602001606081525090565b60405180606001604052806060815260200160008152602001606081525090565b604051806040016040528060608152602001606081525090565b604051806040016040528060608152602001606081525090565b6000604051905090565b600080fd5b600080fd5b600080fd5b6000601f19601f8301169050919050565b7f4e487b7100000000000000000000000000000000000000000000000000000000600052604160045260246000fd5b6110bc82611073565b810181811067ffffffffffffffff821117156110db576110da611084565b5b80604052505050565b60006110ee61105a565b90506110fa82826110b3565b919050565b600080fd5b600080fd5b600080fd5b600067ffffffffffffffff82111561112957611128611084565b5b61113282611073565b9050602081019050919050565b82818337600083830152505050565b600061116161115c8461110e565b6110e4565b90508281526020810184848401111561117d5761117c611109565b5b61118884828561113f565b509392505050565b600082601f8301126111a5576111a4611104565b5b81356111b584826020860161114e565b91505092915050565b6000819050919050565b6111d1816111be565b81146111dc57600080fd5b50565b6000813590506111ee816111c8565b92915050565b600067ffffffffffffffff82111561120f5761120e611084565b5b602082029050602081019050919050565b600080fd5b6000611238611233846111f4565b6110e4565b9050808382526020820190506020840283018581111561125b5761125a611220565b5b835b818110156112a257803567ffffffffffffffff8111156112805761127f611104565b5b80860161128d8982611190565b8552602085019450505060208101905061125d565b5050509392505050565b600082601f8301126112c1576112c0611104565b5b81356112d1848260208601611225565b91505092915050565b6000608082840312156112f0576112ef61106e565b5b6112fa60806110e4565b9050600082013567ffffffffffffffff81111561131a576113196110ff565b5b61132684828501611190565b600083015250602082013567ffffffffffffffff81111561134a576113496110ff565b5b61135684828501611190565b602083015250604061136a848285016111df565b604083015250606082013567ffffffffffffffff81111561138e5761138d6110ff565b5b61139a848285016112ac565b60608301525092915050565b6000602082840312156113bc576113bb611064565b5b600082013567ffffffffffffffff8111156113da576113d9611069565b5b6113e6848285016112da565b91505092915050565b6000604082840312156114055761140461106e565b5b61140f60406110e4565b9050600082013567ffffffffffffffff81111561142f5761142e6110ff565b5b61143b84828501611190565b600083015250602082013567ffffffffffffffff81111561145f5761145e6110ff565b5b61146b84828501611190565b60208301525092915050565b60006020828403121561148d5761148c611064565b5b600082013567ffffffffffffffff8111156114ab576114aa611069565b5b6114b7848285016113ef565b91505092915050565b600081519050919050565b600082825260208201905092915050565b60005b838110156114fa5780820151818401526020810190506114df565b83811115611509576000848401525b50505050565b600061151a826114c0565b61152481856114cb565b93506115348185602086016114dc565b61153d81611073565b840191505092915050565b600081519050919050565b600082825260208201905092915050565b6000819050602082019050919050565b61157d816111be565b82525050565b600081519050919050565b600082825260208201905092915050565b6000819050602082019050919050565b600081519050919050565b600082825260208201905092915050565b6000819050602082019050919050565b600060408301600083015184820360008601526115f8828261150f565b91505060208301518482036020860152611612828261150f565b9150508091505092915050565b600061162b83836115db565b905092915050565b6000602082019050919050565b600061164b826115af565b61165581856115ba565b935083602082028501611667856115cb565b8060005b858110156116a35784840389528151611684858261161f565b945061168f83611633565b925060208a0199505060018101905061166b565b50829750879550505050505092915050565b600060408301600083015184820360008601526116d2828261150f565b915050602083015184820360208601526116ec8282611640565b9150508091505092915050565b600061170583836116b5565b905092915050565b6000602082019050919050565b600061172582611583565b61172f818561158e565b9350836020820285016117418561159f565b8060005b8581101561177d578484038952815161175e85826116f9565b94506117698361170d565b925060208a01995050600181019050611745565b50829750879550505050505092915050565b600060608301600083015184820360008601526117ac828261150f565b91505060208301516117c16020860182611574565b50604083015184820360408601526117d9828261171a565b9150508091505092915050565b60006117f2838361178f565b905092915050565b6000602082019050919050565b600061181282611548565b61181c8185611553565b93508360208202850161182e85611564565b8060005b8581101561186a578484038952815161184b85826117e6565b9450611856836117fa565b925060208a01995050600181019050611832565b50829750879550505050505092915050565b60006060830160008301518482036000860152611899828261150f565b915050602083015184820360208601526118b3828261150f565b915050604083015184820360408601526118cd8282611807565b9150508091505092915050565b600060208201905081810360008301526118f4818461187c565b905092915050565b600067ffffffffffffffff82111561191757611916611084565b5b602082029050602081019050919050565b60006040828403121561193e5761193d61106e565b5b61194860406110e4565b9050600082013567ffffffffffffffff811115611968576119676110ff565b5b61197484828501611190565b600083015250602082013567ffffffffffffffff811115611998576119976110ff565b5b6119a484828501611190565b60208301525092915050565b60006119c36119be846118fc565b6110e4565b905080838252602082019050602084028301858111156119e6576119e5611220565b5b835b81811015611a2d57803567ffffffffffffffff811115611a0b57611a0a611104565b5b808601611a188982611928565b855260208501945050506020810190506119e8565b5050509392505050565b600082601f830112611a4c57611a4b611104565b5b8135611a5c8482602086016119b0565b91505092915050565b600060808284031215611a7b57611a7a61106e565b5b611a8560806110e4565b9050600082013567ffffffffffffffff811115611aa557611aa46110ff565b5b611ab184828501611190565b600083015250602082013567ffffffffffffffff811115611ad557611ad46110ff565b5b611ae184828501611190565b602083015250604082013567ffffffffffffffff811115611b0557611b046110ff565b5b611b1184828501611190565b604083015250606082013567ffffffffffffffff811115611b3557611b346110ff565b5b611b4184828501611a37565b60608301525092915050565b600060208284031215611b6357611b62611064565b5b600082013567ffffffffffffffff811115611b8157611b80611069565b5b611b8d84828501611a65565b91505092915050565b600081905092915050565b6000611bac826114c0565b611bb68185611b96565b9350611bc68185602086016114dc565b80840191505092915050565b6000611bde8284611ba1565b915081905092915050565b7f4e487b7100000000000000000000000000000000000000000000000000000000600052601160045260246000fd5b6000611c23826111be565b91507fffffffffffffffffffffffffffffffffffffffffffffffffffffffffffffffff8203611c5557611c54611be9565b5b600182019050919050565b7f4e487b7100000000000000000000000000000000000000000000000000000000600052602260045260246000fd5b60006002820490506001821680611ca757607f821691505b602082108103611cba57611cb9611c60565b5b50919050565b60008190508160005260206000209050919050565b60006020601f8301049050919050565b600082821b905092915050565b600060088302611d227fffffffffffffffffffffffffffffffffffffffffffffffffffffffffffffffff82611ce5565b611d2c8683611ce5565b95508019841693508086168417925050509392505050565b6000819050919050565b6000611d69611d64611d5f846111be565b611d44565b6111be565b9050919050565b6000819050919050565b611d8383611d4e565b611d97611d8f82611d70565b848454611cf2565b825550505050565b600090565b611dac611d9f565b611db7818484611d7a565b505050565b5b81811015611ddb57611dd0600082611da4565b600181019050611dbd565b5050565b601f821115611e2057611df181611cc0565b611dfa84611cd5565b81016020851015611e09578190505b611e1d611e1585611cd5565b830182611dbc565b50505b505050565b600082821c905092915050565b6000611e4360001984600802611e25565b1980831691505092915050565b6000611e5c8383611e32565b9150826002028217905092915050565b611e75826114c0565b67ffffffffffffffff811115611e8e57611e8d611084565b5b611e988254611c8f565b611ea3828285611ddf565b600060209050601f831160018114611ed65760008415611ec4578287015190505b611ece8582611e50565b865550611f36565b601f198416611ee486611cc0565b60005b82811015611f0c57848901518255600182019150602085019450602081019050611ee7565b86831015611f295784890151611f25601f891682611e32565b8355505b6001600288020188555050505b505050505050565b7f4e487b7100000000000000000000000000000000000000000000000000000000600052603260045260246000fdfea264697066735822122032b6d2304f26791d46beee3f7401a60a5db5e56e38bf22f20368d7f32b4f445064736f6c634300080f0033",
  "immutableReferences": {},
  "source": "pragma solidity >=0.8.9;\r\n\r\n//SPDX-License-Identifier: UNLICENSED\r\n\r\ncontract MarketPlace {\r\n       /*\r\n    * ============================================== MARKET PLACE SUBSECTION ==============================================\r\n    */\r\n\r\n    /* Attributes stored in UserData and Credential. */\r\n    struct Attribute {\r\n        string name;\r\n        string value;\r\n    }\r\n\r\n    struct Organization {\r\n        string id;\r\n        string hashedPassword;\r\n\r\n        //uint balance;\r\n\r\n        uint packCount;\r\n        mapping (uint => DataPack) packs;\r\n    }\r\n\r\n    struct OrganizationResponse {\r\n        string id;\r\n        //uint balance;\r\n\r\n        string status;\r\n\r\n        DataPackResponse[] packs;\r\n    }\r\n\r\n    struct DataPackReceivedRequest {\r\n        string userID;\r\n        Attribute[] attributes;\r\n    }\r\n\r\n    struct DataPackReceived {\r\n        string userID;\r\n        uint attributeCount;\r\n        mapping (uint => Attribute) attributes;\r\n    }\r\n\r\n    struct DataPack {\r\n        string id;\r\n\r\n        uint pricePerUnit;\r\n\r\n        uint requestedAttributeCount;\r\n        mapping (uint => string) requestedAttributes;\r\n\r\n        uint receivedAttributeCount;\r\n        mapping (uint => DataPackReceived) receivedAttributes;\r\n    }\r\n\r\n    struct DataPackResponse {\r\n        string id;\r\n        uint pricePerUnit;\r\n        DataPackReceivedRequest[] received;\r\n    }\r\n\r\n    struct CreateOrgRequest {\r\n        string id;\r\n        string password;\r\n    }\r\n\r\n    struct AddDataPackRequest {\r\n        string organization;\r\n        string id;\r\n        uint256 pricePerUnit;\r\n        string[] requestedAttributes;\r\n    }\r\n\r\n    struct BuyDataRequest {\r\n        string userID;\r\n        string organization;\r\n        string dataPackID;\r\n        Attribute[] attributes;\r\n    }\r\n\r\n    mapping (string => Organization) allOrganizations;\r\n\r\n    function createOrganization(CreateOrgRequest memory request) public {\r\n        allOrganizations[request.id].id = request.id;\r\n        allOrganizations[request.id].hashedPassword = request.password;\r\n        allOrganizations[request.id].packCount = 0;\r\n        //allOrganizations[request.id].balance = 100;\r\n    }\r\n\r\n    function getOrganization(CreateOrgRequest memory request) public view returns (OrganizationResponse memory) {\r\n        OrganizationResponse memory ret;\r\n        \r\n        if (!stringCompare(request.password, allOrganizations[request.id].hashedPassword)) {\r\n            ret.status = \"failed\";\r\n            return ret;\r\n        }\r\n\r\n        ret.id = request.id;\r\n        ret.status = \"success\";\r\n        //ret.balance = allOrganizations[request.id].balance;\r\n\r\n        uint size = allOrganizations[request.id].packCount;\r\n\r\n        ret.packs = new DataPackResponse[](size);\r\n\r\n        for (uint i=0; i < size; i++) {\r\n            ret.packs[i].id = allOrganizations[request.id].packs[i].id;\r\n            ret.packs[i].pricePerUnit = allOrganizations[request.id].packs[i].pricePerUnit;\r\n            ret.packs[i].received = new DataPackReceivedRequest[](size);\r\n\r\n            for (uint k=0; k<allOrganizations[request.id].packs[i].receivedAttributeCount; k++) {\r\n                ret.packs[i].received[k].userID = allOrganizations[request.id].packs[i].receivedAttributes[k].userID;\r\n\r\n                uint aSize = allOrganizations[request.id].packs[i].receivedAttributes[k].attributeCount;\r\n                ret.packs[i].received[k].attributes = new Attribute[](aSize);\r\n\r\n                for (uint n=0; n<aSize; n++) {\r\n                    ret.packs[i].received[k].attributes[n].name = allOrganizations[request.id].packs[i].receivedAttributes[k].attributes[n].name;\r\n                    ret.packs[i].received[k].attributes[n].value = allOrganizations[request.id].packs[i].receivedAttributes[k].attributes[n].value;\r\n                }\r\n\r\n                \r\n            }\r\n        }\r\n\r\n        return ret;\r\n\r\n    }\r\n\r\n    function addDataPack(AddDataPackRequest memory request) public {\r\n        uint index = allOrganizations[request.organization].packCount++;\r\n\r\n        allOrganizations[request.organization].packs[index].id = request.id;\r\n        allOrganizations[request.organization].packs[index].pricePerUnit = request.pricePerUnit;\r\n\r\n        allOrganizations[request.organization].packs[index].requestedAttributeCount = request.requestedAttributes.length;\r\n        allOrganizations[request.organization].packs[index].receivedAttributeCount = 0;\r\n\r\n        for (uint i=0; i<request.requestedAttributes.length; i++) {\r\n            allOrganizations[request.organization].packs[index].requestedAttributes[i] = request.requestedAttributes[i];\r\n        }\r\n        \r\n    }\r\n\r\n    function buyData(BuyDataRequest memory request) public {\r\n        \r\n        for (uint i=0; i<allOrganizations[request.organization].packCount; i++) {\r\n            \r\n            if (stringCompare(allOrganizations[request.organization].packs[i].id, request.dataPackID)) {\r\n               uint index = allOrganizations[request.organization].packs[i].receivedAttributeCount++;\r\n               \r\n               allOrganizations[request.organization].packs[i].receivedAttributes[index].userID = request.userID;\r\n               //allOrganizations[request.organization].packs[i].receivedAttributes[index].attributeCount = request.attributes.length;\r\n\r\n               for (uint k=0; k<request.attributes.length; k++) {\r\n                    allOrganizations[request.organization].packs[i].receivedAttributes[index].attributes[k].name = request.attributes[k].name;\r\n                    allOrganizations[request.organization].packs[i].receivedAttributes[index].attributes[k].value = request.attributes[k].value;\r\n                    allOrganizations[request.organization].packs[i].receivedAttributes[index].attributeCount++;\r\n               }\r\n               break;\r\n            }\r\n        }\r\n    }\r\n\r\n    /*\r\n    * ============================================== GENERAL SUBSECTION ==============================================\r\n    */ \r\n\r\n    /* Compares two strings to see if they're equal or not. */\r\n    function stringCompare(string memory a, string memory b) private pure returns (bool) {\r\n        if (keccak256(bytes(a)) == keccak256(bytes(b)))\r\n            return true;\r\n        return false;\r\n    }\r\n}",
  "sourcePath": "C:\\Users\\bbdnet2552\\Desktop\\University\\Capstone\\Repo\\Exploring-Self-Sovereign-Identity\\LocalBlockchain\\contracts\\MarketPlace.sol",
  "compiler": {
    "name": "solc",
    "version": "0.8.15+commit.e14f2714.Emscripten.clang"
  },
  "schemaVersion": "3.4.8",
  "updatedAt": "2022-09-19T12:18:34.755Z",
  "networkType": "ethereum",
  "devdoc": {
    "kind": "dev",
    "methods": {},
    "version": 1
  },
  "userdoc": {
    "kind": "user",
    "methods": {},
    "version": 1
  }
}