{
  "contractName": "UserDataContract",
  "abi": [
    {
      "inputs": [],
      "stateMutability": "nonpayable",
      "type": "constructor"
    },
    {
      "inputs": [
        {
          "internalType": "string",
          "name": "_id",
          "type": "string"
        }
      ],
      "name": "createUser",
      "outputs": [],
      "stateMutability": "nonpayable",
      "type": "function"
    },
    {
      "inputs": [
        {
          "internalType": "string",
          "name": "_id",
          "type": "string"
        },
        {
          "internalType": "uint256",
          "name": "index",
          "type": "uint256"
        },
        {
          "internalType": "string",
          "name": "name",
          "type": "string"
        },
        {
          "internalType": "string",
          "name": "value",
          "type": "string"
        }
      ],
      "name": "updateAttribute",
      "outputs": [],
      "stateMutability": "nonpayable",
      "type": "function"
    },
    {
      "inputs": [
        {
          "components": [
            {
              "internalType": "string",
              "name": "id",
              "type": "string"
            },
            {
              "internalType": "string",
              "name": "name",
              "type": "string"
            },
            {
              "internalType": "string",
              "name": "value",
              "type": "string"
            }
          ],
          "internalType": "struct UserDataContract.UpdateAttribute",
          "name": "attribute",
          "type": "tuple"
        }
      ],
      "name": "createAttribute",
      "outputs": [],
      "stateMutability": "nonpayable",
      "type": "function"
    },
    {
      "inputs": [],
      "name": "createAttributeX",
      "outputs": [],
      "stateMutability": "nonpayable",
      "type": "function"
    },
    {
      "inputs": [],
      "name": "createAttributeY",
      "outputs": [],
      "stateMutability": "nonpayable",
      "type": "function"
    },
    {
      "inputs": [
        {
          "internalType": "string",
          "name": "_id",
          "type": "string"
        },
        {
          "components": [
            {
              "internalType": "string",
              "name": "name",
              "type": "string"
            },
            {
              "internalType": "string",
              "name": "value",
              "type": "string"
            }
          ],
          "internalType": "struct UserDataContract.Attribute[]",
          "name": "attributes",
          "type": "tuple[]"
        }
      ],
      "name": "getAttributesTransaction",
      "outputs": [
        {
          "components": [
            {
              "internalType": "string",
              "name": "name",
              "type": "string"
            },
            {
              "internalType": "string",
              "name": "value",
              "type": "string"
            }
          ],
          "internalType": "struct UserDataContract.Attribute[]",
          "name": "",
          "type": "tuple[]"
        }
      ],
      "stateMutability": "view",
      "type": "function",
      "constant": true
    },
    {
      "inputs": [
        {
          "internalType": "string",
          "name": "_id",
          "type": "string"
        },
        {
          "internalType": "string",
          "name": "organization",
          "type": "string"
        }
      ],
      "name": "getCredentialTransaction",
      "outputs": [
        {
          "components": [
            {
              "internalType": "string",
              "name": "organization",
              "type": "string"
            },
            {
              "components": [
                {
                  "internalType": "string",
                  "name": "name",
                  "type": "string"
                },
                {
                  "internalType": "string",
                  "name": "value",
                  "type": "string"
                }
              ],
              "internalType": "struct UserDataContract.Attribute[]",
              "name": "attributes",
              "type": "tuple[]"
            }
          ],
          "internalType": "struct UserDataContract.CredentialResponse",
          "name": "",
          "type": "tuple"
        }
      ],
      "stateMutability": "view",
      "type": "function",
      "constant": true
    },
    {
      "inputs": [
        {
          "components": [
            {
              "internalType": "string",
              "name": "id",
              "type": "string"
            },
            {
              "components": [
                {
                  "components": [
                    {
                      "internalType": "string",
                      "name": "name",
                      "type": "string"
                    },
                    {
                      "internalType": "string",
                      "name": "value",
                      "type": "string"
                    }
                  ],
                  "internalType": "struct UserDataContract.Attribute",
                  "name": "attribute",
                  "type": "tuple"
                },
                {
                  "internalType": "bool",
                  "name": "isUpdate",
                  "type": "bool"
                }
              ],
              "internalType": "struct UserDataContract.AttributeUpdate[]",
              "name": "attributes",
              "type": "tuple[]"
            },
            {
              "components": [
                {
                  "internalType": "string",
                  "name": "organization",
                  "type": "string"
                },
                {
                  "internalType": "bool",
                  "name": "isUpdate",
                  "type": "bool"
                },
                {
                  "components": [
                    {
                      "internalType": "string",
                      "name": "name",
                      "type": "string"
                    },
                    {
                      "internalType": "string",
                      "name": "value",
                      "type": "string"
                    }
                  ],
                  "internalType": "struct UserDataContract.Attribute[]",
                  "name": "attributes",
                  "type": "tuple[]"
                }
              ],
              "internalType": "struct UserDataContract.CredentialUpdate[]",
              "name": "credentials",
              "type": "tuple[]"
            }
          ],
          "internalType": "struct UserDataContract.Update",
          "name": "update",
          "type": "tuple"
        }
      ],
      "name": "updateUser",
      "outputs": [],
      "stateMutability": "nonpayable",
      "type": "function"
    },
    {
      "inputs": [
        {
          "internalType": "string",
          "name": "_id",
          "type": "string"
        }
      ],
      "name": "getUserData",
      "outputs": [
        {
          "components": [
            {
              "internalType": "string",
              "name": "id",
              "type": "string"
            },
            {
              "components": [
                {
                  "internalType": "string",
                  "name": "name",
                  "type": "string"
                },
                {
                  "internalType": "string",
                  "name": "value",
                  "type": "string"
                }
              ],
              "internalType": "struct UserDataContract.Attribute[]",
              "name": "attributes",
              "type": "tuple[]"
            },
            {
              "components": [
                {
                  "internalType": "string",
                  "name": "organization",
                  "type": "string"
                },
                {
                  "components": [
                    {
                      "internalType": "string",
                      "name": "name",
                      "type": "string"
                    },
                    {
                      "internalType": "string",
                      "name": "value",
                      "type": "string"
                    }
                  ],
                  "internalType": "struct UserDataContract.Attribute[]",
                  "name": "attributes",
                  "type": "tuple[]"
                }
              ],
              "internalType": "struct UserDataContract.CredentialResponse[]",
              "name": "credentials",
              "type": "tuple[]"
            }
          ],
          "internalType": "struct UserDataContract.UserDataResponse",
          "name": "",
          "type": "tuple"
        }
      ],
      "stateMutability": "view",
      "type": "function",
      "constant": true
    }
  ],
  "bytecode": "0x60806040523480156200001157600080fd5b506040518060400160405280600481526020017f6e616d6500000000000000000000000000000000000000000000000000000000815250600060405162000058906200018e565b9081526020016040518091039020600201600080815260200190815260200160002060000190816200008b91906200041f565b506040518060400160405280600581526020017f4a6f68616e0000000000000000000000000000000000000000000000000000008152506000604051620000d2906200018e565b9081526020016040518091039020600201600080815260200190815260200160002060010190816200010591906200041f565b506001600060405162000118906200018e565b90815260200160405180910390206001018190555062000506565b600081905092915050565b7f6161610000000000000000000000000000000000000000000000000000000000600082015250565b60006200017660038362000133565b915062000183826200013e565b600382019050919050565b60006200019b8262000167565b9150819050919050565b600081519050919050565b7f4e487b7100000000000000000000000000000000000000000000000000000000600052604160045260246000fd5b7f4e487b7100000000000000000000000000000000000000000000000000000000600052602260045260246000fd5b600060028204905060018216806200022757607f821691505b6020821081036200023d576200023c620001df565b5b50919050565b60008190508160005260206000209050919050565b60006020601f8301049050919050565b600082821b905092915050565b600060088302620002a77fffffffffffffffffffffffffffffffffffffffffffffffffffffffffffffffff8262000268565b620002b3868362000268565b95508019841693508086168417925050509392505050565b6000819050919050565b6000819050919050565b600062000300620002fa620002f484620002cb565b620002d5565b620002cb565b9050919050565b6000819050919050565b6200031c83620002df565b620003346200032b8262000307565b84845462000275565b825550505050565b600090565b6200034b6200033c565b6200035881848462000311565b505050565b5b8181101562000380576200037460008262000341565b6001810190506200035e565b5050565b601f821115620003cf57620003998162000243565b620003a48462000258565b81016020851015620003b4578190505b620003cc620003c38562000258565b8301826200035d565b50505b505050565b600082821c905092915050565b6000620003f460001984600802620003d4565b1980831691505092915050565b60006200040f8383620003e1565b9150826002028217905092915050565b6200042a82620001a5565b67ffffffffffffffff811115620004465762000445620001b0565b5b6200045282546200020e565b6200045f82828562000384565b600060209050601f83116001811462000497576000841562000482578287015190505b6200048e858262000401565b865550620004fe565b601f198416620004a78662000243565b60005b82811015620004d157848901518255600182019150602085019450602081019050620004aa565b86831015620004f15784890151620004ed601f891682620003e1565b8355505b6001600288020188555050505b505050505050565b61307180620005166000396000f3fe608060405234801561001057600080fd5b50600436106100935760003560e01c806354ab24031161006657806354ab2403146100e45780636cea9ba214610114578063b957297514610130578063d04287a814610160578063fa1868ff1461017c57610093565b80631a38bd151461009857806322fea673146100a25780634ea5b286146100ac578063507ffba5146100c8575b600080fd5b6100a06101ac565b005b6100aa6101ae565b005b6100c660048036038101906100c1919061246d565b61029c565b005b6100e260048036038101906100dd91906124b6565b6102e1565b005b6100fe60048036038101906100f991906124b6565b61035f565b60405161010b91906127f1565b60405180910390f35b61012e600480360381019061012991906128cb565b610ac8565b005b61014a60048036038101906101459190612914565b610b9f565b60405161015791906129d0565b60405180910390f35b61017a60048036038101906101759190612a28565b61107c565b005b61019660048036038101906101919190612ae3565b611108565b6040516101a39190612be1565b60405180910390f35b565b6040518060400160405280600881526020017f746573746e616d6500000000000000000000000000000000000000000000000081525060006040516101f290612c5a565b9081526020016040518091039020600201600080815260200190815260200160002060000190816102239190612e7b565b506040518060400160405280600981526020017f7465737476616c75650000000000000000000000000000000000000000000000815250600060405161026890612c5a565b9081526020016040518091039020600201600080815260200190815260200160002060010190816102999190612e7b565b50565b600081602001515111156102bd576102bc8160000151826020015161147d565b5b600081604001515111156102de576102dd8160000151826040015161178a565b5b50565b806000826040516102f29190612f7e565b9081526020016040518091039020600001908161030f9190612e7b565b50600080826040516103219190612f7e565b908152602001604051809103902060010181905550600080826040516103479190612f7e565b90815260200160405180910390206003018190555050565b610367611d8c565b600080836040516103789190612f7e565b908152602001604051809103902060010154905060008167ffffffffffffffff8111156103a8576103a7611e0b565b5b6040519080825280602002602001820160405280156103e157816020015b6103ce611dad565b8152602001906001900390816103c65790505b50905060005b6000856040516103f79190612f7e565b9081526020016040518091039020600101548110156105e3576000856040516104209190612f7e565b90815260200160405180910390206002016000828152602001908152602001600020600001805461045090612c9e565b80601f016020809104026020016040519081016040528092919081815260200182805461047c90612c9e565b80156104c95780601f1061049e576101008083540402835291602001916104c9565b820191906000526020600020905b8154815290600101906020018083116104ac57829003601f168201915b50505050508282815181106104e1576104e0612f95565b5b6020026020010151600001819052506000856040516105009190612f7e565b90815260200160405180910390206002016000828152602001908152602001600020600101805461053090612c9e565b80601f016020809104026020016040519081016040528092919081815260200182805461055c90612c9e565b80156105a95780601f1061057e576101008083540402835291602001916105a9565b820191906000526020600020905b81548152906001019060200180831161058c57829003601f168201915b50505050508282815181106105c1576105c0612f95565b5b60200260200101516020018190525080806105db90612ff3565b9150506103e7565b506000846040516105f49190612f7e565b908152602001604051809103902060030154915060008267ffffffffffffffff81111561062457610623611e0b565b5b60405190808252806020026020018201604052801561065d57816020015b61064a611dc7565b8152602001906001900390816106425790505b50905060005b6000866040516106739190612f7e565b908152602001604051809103902060030154811015610aa25760008660405161069c9190612f7e565b9081526020016040518091039020600401600082815260200190815260200160002060000180546106cc90612c9e565b80601f01602080910402602001604051908101604052809291908181526020018280546106f890612c9e565b80156107455780601f1061071a57610100808354040283529160200191610745565b820191906000526020600020905b81548152906001019060200180831161072857829003601f168201915b505050505082828151811061075d5761075c612f95565b5b60200260200101516000018190525060008660405161077c9190612f7e565b908152602001604051809103902060040160008281526020019081526020016000206001015467ffffffffffffffff8111156107bb576107ba611e0b565b5b6040519080825280602002602001820160405280156107f457816020015b6107e1611dad565b8152602001906001900390816107d95790505b5082828151811061080857610807612f95565b5b60200260200101516020018190525060005b60008760405161082a9190612f7e565b9081526020016040518091039020600401600083815260200190815260200160002060010154811015610a8e576000876040516108679190612f7e565b90815260200160405180910390206004016000838152602001908152602001600020600201600082815260200190815260200160002060000180546108ab90612c9e565b80601f01602080910402602001604051908101604052809291908181526020018280546108d790612c9e565b80156109245780601f106108f957610100808354040283529160200191610924565b820191906000526020600020905b81548152906001019060200180831161090757829003601f168201915b505050505083838151811061093c5761093b612f95565b5b602002602001015160200151828151811061095a57610959612f95565b5b6020026020010151600001819052506000876040516109799190612f7e565b90815260200160405180910390206004016000838152602001908152602001600020600201600082815260200190815260200160002060010180546109bd90612c9e565b80601f01602080910402602001604051908101604052809291908181526020018280546109e990612c9e565b8015610a365780601f10610a0b57610100808354040283529160200191610a36565b820191906000526020600020905b815481529060010190602001808311610a1957829003601f168201915b5050505050838381518110610a4e57610a4d612f95565b5b6020026020010151602001518281518110610a6c57610a6b612f95565b5b6020026020010151602001819052508080610a8690612ff3565b91505061081a565b508080610a9a90612ff3565b915050610663565b506040518060600160405280868152602001838152602001828152509350505050919050565b6000808260000151604051610add9190612f7e565b90815260200160405180910390206001016000815480929190610aff90612ff3565b919050559050816020015160008360000151604051610b1e9190612f7e565b908152602001604051809103902060020160008381526020019081526020016000206000019081610b4f9190612e7b565b50816040015160008360000151604051610b699190612f7e565b908152602001604051809103902060020160008381526020019081526020016000206001019081610b9a9190612e7b565b505050565b610ba7611dc7565b6000600167ffffffffffffffff811115610bc457610bc3611e0b565b5b604051908082528060200260200182016040528015610bfd57816020015b610bea611dc7565b815260200190600190039081610be25790505b50905060005b600085604051610c139190612f7e565b90815260200160405180910390206003015481101561105657610cf3600086604051610c3f9190612f7e565b908152602001604051809103902060040160008381526020019081526020016000206000018054610c6f90612c9e565b80601f0160208091040260200160405190810160405280929190818152602001828054610c9b90612c9e565b8015610ce85780601f10610cbd57610100808354040283529160200191610ce8565b820191906000526020600020905b815481529060010190602001808311610ccb57829003601f168201915b505050505085611b88565b15611043578382600081518110610d0d57610d0c612f95565b5b602002602001015160000181905250600085604051610d2c9190612f7e565b908152602001604051809103902060040160008281526020019081526020016000206001015467ffffffffffffffff811115610d6b57610d6a611e0b565b5b604051908082528060200260200182016040528015610da457816020015b610d91611dad565b815260200190600190039081610d895790505b5082600081518110610db957610db8612f95565b5b60200260200101516020018190525060005b600086604051610ddb9190612f7e565b908152602001604051809103902060040160008381526020019081526020016000206001015481101561104157600086604051610e189190612f7e565b9081526020016040518091039020600401600083815260200190815260200160002060020160008281526020019081526020016000206000018054610e5c90612c9e565b80601f0160208091040260200160405190810160405280929190818152602001828054610e8890612c9e565b8015610ed55780601f10610eaa57610100808354040283529160200191610ed5565b820191906000526020600020905b815481529060010190602001808311610eb857829003601f168201915b505050505083600081518110610eee57610eed612f95565b5b6020026020010151602001518281518110610f0c57610f0b612f95565b5b602002602001015160000181905250600086604051610f2b9190612f7e565b9081526020016040518091039020600401600083815260200190815260200160002060020160008281526020019081526020016000206001018054610f6f90612c9e565b80601f0160208091040260200160405190810160405280929190818152602001828054610f9b90612c9e565b8015610fe85780601f10610fbd57610100808354040283529160200191610fe8565b820191906000526020600020905b815481529060010190602001808311610fcb57829003601f168201915b50505050508360008151811061100157611000612f95565b5b602002602001015160200151828151811061101f5761101e612f95565b5b602002602001015160200181905250808061103990612ff3565b915050610dcb565b505b808061104e90612ff3565b915050610c03565b508060008151811061106b5761106a612f95565b5b602002602001015191505092915050565b8160008560405161108d9190612f7e565b9081526020016040518091039020600201600085815260200190815260200160002060000190816110be9190612e7b565b50806000856040516110d09190612f7e565b9081526020016040518091039020600201600085815260200190815260200160002060010190816111019190612e7b565b5050505050565b60606000825167ffffffffffffffff81111561112757611126611e0b565b5b60405190808252806020026020018201604052801561116057816020015b61114d611dad565b8152602001906001900390816111455790505b50905060005b83518110156114725760005b6000866040516111829190612f7e565b90815260200160405180910390206001015481101561145e576112806000876040516111ae9190612f7e565b9081526020016040518091039020600201600083815260200190815260200160002060000180546111de90612c9e565b80601f016020809104026020016040519081016040528092919081815260200182805461120a90612c9e565b80156112575780601f1061122c57610100808354040283529160200191611257565b820191906000526020600020905b81548152906001019060200180831161123a57829003601f168201915b505050505086848151811061126f5761126e612f95565b5b602002602001015160000151611b88565b1561144a576000866040516112959190612f7e565b9081526020016040518091039020600201600082815260200190815260200160002060000180546112c590612c9e565b80601f01602080910402602001604051908101604052809291908181526020018280546112f190612c9e565b801561133e5780601f106113135761010080835404028352916020019161133e565b820191906000526020600020905b81548152906001019060200180831161132157829003601f168201915b505050505083838151811061135657611355612f95565b5b6020026020010151600001819052506000866040516113759190612f7e565b9081526020016040518091039020600201600082815260200190815260200160002060010180546113a590612c9e565b80601f01602080910402602001604051908101604052809291908181526020018280546113d190612c9e565b801561141e5780601f106113f35761010080835404028352916020019161141e565b820191906000526020600020905b81548152906001019060200180831161140157829003601f168201915b505050505083838151811061143657611435612f95565b5b60200260200101516020018190525061144b565b5b808061145690612ff3565b915050611172565b50808061146a90612ff3565b915050611166565b508091505092915050565b60005b81518110156117855781818151811061149c5761149b612f95565b5b6020026020010151602001511561164a5760005b6000846040516114c09190612f7e565b908152602001604051809103902060010154811015611644576115c26000856040516114ec9190612f7e565b90815260200160405180910390206002016000838152602001908152602001600020600001805461151c90612c9e565b80601f016020809104026020016040519081016040528092919081815260200182805461154890612c9e565b80156115955780601f1061156a57610100808354040283529160200191611595565b820191906000526020600020905b81548152906001019060200180831161157857829003601f168201915b50505050508484815181106115ad576115ac612f95565b5b60200260200101516000015160000151611b88565b15611631578282815181106115da576115d9612f95565b5b602002602001015160000151602001516000856040516115fa9190612f7e565b90815260200160405180910390206002016000838152602001908152602001600020600101908161162b9190612e7b565b50611644565b808061163c90612ff3565b9150506114b0565b50611772565b6000808460405161165b9190612f7e565b908152602001604051809103902060010154905060008460405161167f9190612f7e565b908152602001604051809103902060010160008154809291906116a190612ff3565b91905055508282815181106116b9576116b8612f95565b5b602002602001015160000151600001516000856040516116d99190612f7e565b90815260200160405180910390206002016000838152602001908152602001600020600001908161170a9190612e7b565b5082828151811061171e5761171d612f95565b5b6020026020010151600001516020015160008560405161173e9190612f7e565b90815260200160405180910390206002016000838152602001908152602001600020600101908161176f9190612e7b565b50505b808061177d90612ff3565b915050611480565b505050565b60005b8151811015611b83578181815181106117a9576117a8612f95565b5b602002602001015160200151156119175760005b6000846040516117cd9190612f7e565b908152602001604051809103902060030154811015611911576118cb6000856040516117f99190612f7e565b90815260200160405180910390206004016000838152602001908152602001600020600001805461182990612c9e565b80601f016020809104026020016040519081016040528092919081815260200182805461185590612c9e565b80156118a25780601f10611877576101008083540402835291602001916118a2565b820191906000526020600020905b81548152906001019060200180831161188557829003601f168201915b50505050508484815181106118ba576118b9612f95565b5b602002602001015160000151611b88565b156118fe576118f984828585815181106118e8576118e7612f95565b5b602002602001015160400151611bb3565b611911565b808061190990612ff3565b9150506117bd565b50611b70565b600080846040516119289190612f7e565b9081526020016040518091039020600301600081548092919061194a90612ff3565b91905055905082828151811061196357611962612f95565b5b60200260200101516000015160008560405161197f9190612f7e565b9081526020016040518091039020600401600083815260200190815260200160002060000190816119b09190612e7b565b508282815181106119c4576119c3612f95565b5b602002602001015160400151516000856040516119e19190612f7e565b908152602001604051809103902060040160008381526020019081526020016000206001018190555060005b838381518110611a2057611a1f612f95565b5b60200260200101516040015151811015611b6d57838381518110611a4757611a46612f95565b5b6020026020010151604001518181518110611a6557611a64612f95565b5b602002602001015160000151600086604051611a819190612f7e565b9081526020016040518091039020600401600084815260200190815260200160002060020160008381526020019081526020016000206000019081611ac69190612e7b565b50838381518110611ada57611ad9612f95565b5b6020026020010151604001518181518110611af857611af7612f95565b5b602002602001015160200151600086604051611b149190612f7e565b9081526020016040518091039020600401600084815260200190815260200160002060020160008381526020019081526020016000206001019081611b599190612e7b565b508080611b6590612ff3565b915050611a0d565b50505b8080611b7b90612ff3565b91505061178d565b505050565b60008180519060200120838051906020012003611ba85760019050611bad565b600090505b92915050565b60005b8151811015611d865760005b600085604051611bd29190612f7e565b908152602001604051809103902060010154811015611d7257611ce4600086604051611bfe9190612f7e565b9081526020016040518091039020600401600086815260200190815260200160002060020160008381526020019081526020016000206000018054611c4290612c9e565b80601f0160208091040260200160405190810160405280929190818152602001828054611c6e90612c9e565b8015611cbb5780601f10611c9057610100808354040283529160200191611cbb565b820191906000526020600020905b815481529060010190602001808311611c9e57829003601f168201915b5050505050848481518110611cd357611cd2612f95565b5b602002602001015160000151611b88565b15611d5f57828281518110611cfc57611cfb612f95565b5b602002602001015160200151600086604051611d189190612f7e565b9081526020016040518091039020600401600086815260200190815260200160002060020160008381526020019081526020016000206001019081611d5d9190612e7b565b505b8080611d6a90612ff3565b915050611bc2565b508080611d7e90612ff3565b915050611bb6565b50505050565b60405180606001604052806060815260200160608152602001606081525090565b604051806040016040528060608152602001606081525090565b604051806040016040528060608152602001606081525090565b6000604051905090565b600080fd5b600080fd5b600080fd5b6000601f19601f8301169050919050565b7f4e487b7100000000000000000000000000000000000000000000000000000000600052604160045260246000fd5b611e4382611dfa565b810181811067ffffffffffffffff82111715611e6257611e61611e0b565b5b80604052505050565b6000611e75611de1565b9050611e818282611e3a565b919050565b600080fd5b600080fd5b600080fd5b600067ffffffffffffffff821115611eb057611eaf611e0b565b5b611eb982611dfa565b9050602081019050919050565b82818337600083830152505050565b6000611ee8611ee384611e95565b611e6b565b905082815260208101848484011115611f0457611f03611e90565b5b611f0f848285611ec6565b509392505050565b600082601f830112611f2c57611f2b611e8b565b5b8135611f3c848260208601611ed5565b91505092915050565b600067ffffffffffffffff821115611f6057611f5f611e0b565b5b602082029050602081019050919050565b600080fd5b600060408284031215611f8c57611f8b611df5565b5b611f966040611e6b565b9050600082013567ffffffffffffffff811115611fb657611fb5611e86565b5b611fc284828501611f17565b600083015250602082013567ffffffffffffffff811115611fe657611fe5611e86565b5b611ff284828501611f17565b60208301525092915050565b60008115159050919050565b61201381611ffe565b811461201e57600080fd5b50565b6000813590506120308161200a565b92915050565b60006040828403121561204c5761204b611df5565b5b6120566040611e6b565b9050600082013567ffffffffffffffff81111561207657612075611e86565b5b61208284828501611f76565b600083015250602061209684828501612021565b60208301525092915050565b60006120b56120b084611f45565b611e6b565b905080838252602082019050602084028301858111156120d8576120d7611f71565b5b835b8181101561211f57803567ffffffffffffffff8111156120fd576120fc611e8b565b5b80860161210a8982612036565b855260208501945050506020810190506120da565b5050509392505050565b600082601f83011261213e5761213d611e8b565b5b813561214e8482602086016120a2565b91505092915050565b600067ffffffffffffffff82111561217257612171611e0b565b5b602082029050602081019050919050565b600067ffffffffffffffff82111561219e5761219d611e0b565b5b602082029050602081019050919050565b60006121c26121bd84612183565b611e6b565b905080838252602082019050602084028301858111156121e5576121e4611f71565b5b835b8181101561222c57803567ffffffffffffffff81111561220a57612209611e8b565b5b8086016122178982611f76565b855260208501945050506020810190506121e7565b5050509392505050565b600082601f83011261224b5761224a611e8b565b5b813561225b8482602086016121af565b91505092915050565b60006060828403121561227a57612279611df5565b5b6122846060611e6b565b9050600082013567ffffffffffffffff8111156122a4576122a3611e86565b5b6122b084828501611f17565b60008301525060206122c484828501612021565b602083015250604082013567ffffffffffffffff8111156122e8576122e7611e86565b5b6122f484828501612236565b60408301525092915050565b600061231361230e84612157565b611e6b565b9050808382526020820190506020840283018581111561233657612335611f71565b5b835b8181101561237d57803567ffffffffffffffff81111561235b5761235a611e8b565b5b8086016123688982612264565b85526020850194505050602081019050612338565b5050509392505050565b600082601f83011261239c5761239b611e8b565b5b81356123ac848260208601612300565b91505092915050565b6000606082840312156123cb576123ca611df5565b5b6123d56060611e6b565b9050600082013567ffffffffffffffff8111156123f5576123f4611e86565b5b61240184828501611f17565b600083015250602082013567ffffffffffffffff81111561242557612424611e86565b5b61243184828501612129565b602083015250604082013567ffffffffffffffff81111561245557612454611e86565b5b61246184828501612387565b60408301525092915050565b60006020828403121561248357612482611deb565b5b600082013567ffffffffffffffff8111156124a1576124a0611df0565b5b6124ad848285016123b5565b91505092915050565b6000602082840312156124cc576124cb611deb565b5b600082013567ffffffffffffffff8111156124ea576124e9611df0565b5b6124f684828501611f17565b91505092915050565b600081519050919050565b600082825260208201905092915050565b60005b8381101561253957808201518184015260208101905061251e565b83811115612548576000848401525b50505050565b6000612559826124ff565b612563818561250a565b935061257381856020860161251b565b61257c81611dfa565b840191505092915050565b600081519050919050565b600082825260208201905092915050565b6000819050602082019050919050565b600060408301600083015184820360008601526125d0828261254e565b915050602083015184820360208601526125ea828261254e565b9150508091505092915050565b600061260383836125b3565b905092915050565b6000602082019050919050565b600061262382612587565b61262d8185612592565b93508360208202850161263f856125a3565b8060005b8581101561267b578484038952815161265c85826125f7565b94506126678361260b565b925060208a01995050600181019050612643565b50829750879550505050505092915050565b600081519050919050565b600082825260208201905092915050565b6000819050602082019050919050565b600060408301600083015184820360008601526126d6828261254e565b915050602083015184820360208601526126f08282612618565b9150508091505092915050565b600061270983836126b9565b905092915050565b6000602082019050919050565b60006127298261268d565b6127338185612698565b935083602082028501612745856126a9565b8060005b85811015612781578484038952815161276285826126fd565b945061276d83612711565b925060208a01995050600181019050612749565b50829750879550505050505092915050565b600060608301600083015184820360008601526127b0828261254e565b915050602083015184820360208601526127ca8282612618565b915050604083015184820360408601526127e4828261271e565b9150508091505092915050565b6000602082019050818103600083015261280b8184612793565b905092915050565b60006060828403121561282957612828611df5565b5b6128336060611e6b565b9050600082013567ffffffffffffffff81111561285357612852611e86565b5b61285f84828501611f17565b600083015250602082013567ffffffffffffffff81111561288357612882611e86565b5b61288f84828501611f17565b602083015250604082013567ffffffffffffffff8111156128b3576128b2611e86565b5b6128bf84828501611f17565b60408301525092915050565b6000602082840312156128e1576128e0611deb565b5b600082013567ffffffffffffffff8111156128ff576128fe611df0565b5b61290b84828501612813565b91505092915050565b6000806040838503121561292b5761292a611deb565b5b600083013567ffffffffffffffff81111561294957612948611df0565b5b61295585828601611f17565b925050602083013567ffffffffffffffff81111561297657612975611df0565b5b61298285828601611f17565b9150509250929050565b600060408301600083015184820360008601526129a9828261254e565b915050602083015184820360208601526129c38282612618565b9150508091505092915050565b600060208201905081810360008301526129ea818461298c565b905092915050565b6000819050919050565b612a05816129f2565b8114612a1057600080fd5b50565b600081359050612a22816129fc565b92915050565b60008060008060808587031215612a4257612a41611deb565b5b600085013567ffffffffffffffff811115612a6057612a5f611df0565b5b612a6c87828801611f17565b9450506020612a7d87828801612a13565b935050604085013567ffffffffffffffff811115612a9e57612a9d611df0565b5b612aaa87828801611f17565b925050606085013567ffffffffffffffff811115612acb57612aca611df0565b5b612ad787828801611f17565b91505092959194509250565b60008060408385031215612afa57612af9611deb565b5b600083013567ffffffffffffffff811115612b1857612b17611df0565b5b612b2485828601611f17565b925050602083013567ffffffffffffffff811115612b4557612b44611df0565b5b612b5185828601612236565b9150509250929050565b600082825260208201905092915050565b6000612b7782612587565b612b818185612b5b565b935083602082028501612b93856125a3565b8060005b85811015612bcf5784840389528151612bb085826125f7565b9450612bbb8361260b565b925060208a01995050600181019050612b97565b50829750879550505050505092915050565b60006020820190508181036000830152612bfb8184612b6c565b905092915050565b600081905092915050565b7f7465737400000000000000000000000000000000000000000000000000000000600082015250565b6000612c44600483612c03565b9150612c4f82612c0e565b600482019050919050565b6000612c6582612c37565b9150819050919050565b7f4e487b7100000000000000000000000000000000000000000000000000000000600052602260045260246000fd5b60006002820490506001821680612cb657607f821691505b602082108103612cc957612cc8612c6f565b5b50919050565b60008190508160005260206000209050919050565b60006020601f8301049050919050565b600082821b905092915050565b600060088302612d317fffffffffffffffffffffffffffffffffffffffffffffffffffffffffffffffff82612cf4565b612d3b8683612cf4565b95508019841693508086168417925050509392505050565b6000819050919050565b6000612d78612d73612d6e846129f2565b612d53565b6129f2565b9050919050565b6000819050919050565b612d9283612d5d565b612da6612d9e82612d7f565b848454612d01565b825550505050565b600090565b612dbb612dae565b612dc6818484612d89565b505050565b5b81811015612dea57612ddf600082612db3565b600181019050612dcc565b5050565b601f821115612e2f57612e0081612ccf565b612e0984612ce4565b81016020851015612e18578190505b612e2c612e2485612ce4565b830182612dcb565b50505b505050565b600082821c905092915050565b6000612e5260001984600802612e34565b1980831691505092915050565b6000612e6b8383612e41565b9150826002028217905092915050565b612e84826124ff565b67ffffffffffffffff811115612e9d57612e9c611e0b565b5b612ea78254612c9e565b612eb2828285612dee565b600060209050601f831160018114612ee55760008415612ed3578287015190505b612edd8582612e5f565b865550612f45565b601f198416612ef386612ccf565b60005b82811015612f1b57848901518255600182019150602085019450602081019050612ef6565b86831015612f385784890151612f34601f891682612e41565b8355505b6001600288020188555050505b505050505050565b6000612f58826124ff565b612f628185612c03565b9350612f7281856020860161251b565b80840191505092915050565b6000612f8a8284612f4d565b915081905092915050565b7f4e487b7100000000000000000000000000000000000000000000000000000000600052603260045260246000fd5b7f4e487b7100000000000000000000000000000000000000000000000000000000600052601160045260246000fd5b6000612ffe826129f2565b91507fffffffffffffffffffffffffffffffffffffffffffffffffffffffffffffffff82036130305761302f612fc4565b5b60018201905091905056fea2646970667358221220732cd30370440d4a5767ab1f91ec509590d271bcd60f3020789118a55e1b0a1564736f6c634300080f0033",
  "immutableReferences": {},
  "source": "pragma solidity >=0.8.9;\r\n\r\n//SPDX-License-Identifier: UNLICENSED\r\n\r\ncontract UserDataContract {\r\n\r\n    /* Attributes stored in UserData and Credential. */\r\n    struct Attribute {\r\n        string name;\r\n        string value;\r\n    }\r\n\r\n    /* Credential consisting of attributes and an organization name. */\r\n    struct Credential {\r\n        string organization;\r\n        uint attributeCount;\r\n        mapping (uint => Attribute) attributes;\r\n    }\r\n\r\n    /* UserData is where the bulk of user's data will be stored using Credential and Attribute. */\r\n    struct UserData {\r\n        string id;\r\n\r\n        uint attributeCount;\r\n        mapping (uint => Attribute) attributes;\r\n\r\n        uint credentialCount;\r\n        mapping (uint => Credential) credentials;\r\n    }\r\n\r\n    /* What will be returned in place of a Credential struct. */\r\n    struct CredentialResponse {\r\n        string organization;\r\n        Attribute[] attributes;\r\n    }\r\n\r\n    /* What will be returned in place of a UserData struct. */\r\n    struct UserDataResponse{\r\n        string id;\r\n        Attribute[] attributes;\r\n        CredentialResponse[] credentials;\r\n    }\r\n\r\n    /* Received in paramets to update attributes, this improves gas usage by knowing when to insert and when to update. */\r\n    struct AttributeUpdate {\r\n        Attribute attribute;\r\n        bool isUpdate;\r\n    }\r\n\r\n    /* Received in paramets to update credentials, this improves gas usage by knowing when to insert and when to update */\r\n    struct CredentialUpdate {\r\n        string organization;\r\n        bool isUpdate;\r\n        Attribute[] attributes;\r\n    }\r\n\r\n    /* Single functions for update to test integration methods */\r\n    struct Update {\r\n        string id;\r\n        AttributeUpdate[] attributes;\r\n        CredentialUpdate[] credentials;\r\n    }\r\n\r\n    /* Single parameter to update an attribute */\r\n    struct UpdateAttribute {\r\n        string id;\r\n        string name;\r\n        string value;\r\n    }\r\n\r\n    /* All stored user's data can be accessed through the allUserData attribute. */\r\n    mapping (string => UserData) allUserData;\r\n\r\n    constructor() {\r\n        allUserData[\"aaa\"].attributes[0].name = \"name\";\r\n        allUserData[\"aaa\"].attributes[0].value = \"Johan\";\r\n        allUserData[\"aaa\"].attributeCount= 1;\r\n    }\r\n\r\n    /* Create and return a new user's data. */\r\n    function createUser(string memory _id) public {\r\n        allUserData[_id].id = _id;\r\n        allUserData[_id].attributeCount = 0;\r\n        allUserData[_id].credentialCount = 0;\r\n    }\r\n\r\n    function updateAttribute(string memory _id, uint index, string memory name, string memory value) public {\r\n        allUserData[_id].attributes[index].name = name;\r\n        allUserData[_id].attributes[index].value = value;\r\n    }\r\n\r\n    function createAttribute(UpdateAttribute memory attribute) public {\r\n        uint index = allUserData[attribute.id].attributeCount++;\r\n        allUserData[attribute.id].attributes[index].name = attribute.name;\r\n        allUserData[attribute.id].attributes[index].value = attribute.value;\r\n    }\r\n\r\n    function createAttributeX() public {\r\n        //uint index = allUserData[\"test\"].attributeCount++;\r\n        allUserData[\"test\"].attributes[0].name = \"testname\";\r\n        allUserData[\"test\"].attributes[0].value = \"testvalue\";\r\n    }\r\n\r\n    function createAttributeY() public {\r\n        \r\n    }\r\n\r\n    /* Returns the desired attributes for requested data. */\r\n    function getAttributesTransaction(string memory _id, Attribute[] memory attributes) public view returns (Attribute[] memory) {\r\n\r\n        Attribute[] memory res = new Attribute[](attributes.length);\r\n\r\n        for (uint i=0; i<attributes.length; i++) {\r\n            for (uint k=0; k<allUserData[_id].attributeCount; k++) {\r\n                if (stringCompare(allUserData[_id].attributes[k].name, attributes[i].name)) {\r\n                    res[i].name = allUserData[_id].attributes[k].name;\r\n                    res[i].value = allUserData[_id].attributes[k].value;\r\n                    continue;\r\n                }\r\n            }\r\n        }\r\n\r\n        return res;\r\n    }\r\n\r\n    /* Returns the desired Credential and its associated attributes. */\r\n    function getCredentialTransaction(string memory _id, string memory organization) public view returns (CredentialResponse memory) {\r\n\r\n        CredentialResponse[] memory cred = new CredentialResponse[](1);\r\n\r\n        for (uint i=0; i<allUserData[_id].credentialCount; i++) {\r\n            if (stringCompare(allUserData[_id].credentials[i].organization, organization)) {\r\n                cred[0].organization = organization;\r\n\r\n                cred[0].attributes = new Attribute[](allUserData[_id].credentials[i].attributeCount);\r\n\r\n                for (uint k=0; k<allUserData[_id].credentials[i].attributeCount; k++) {\r\n                    cred[0].attributes[k].name = allUserData[_id].credentials[i].attributes[k].name;\r\n                    cred[0].attributes[k].value = allUserData[_id].credentials[i].attributes[k].value;\r\n                }\r\n            }\r\n        }\r\n\r\n        return cred[0];\r\n    }\r\n\r\n    /* Add and Update UserData by id. */\r\n    //function updateUser(string memory _id, AttributeUpdate[] memory attributes, CredentialUpdate[] memory credentials) public {\r\n    function updateUser(Update memory update) public {\r\n        \r\n        //add/update all new attributes\r\n        if (update.attributes.length > 0) updateAttributes(update.id, update.attributes);\r\n\r\n        //add and update all new credentials\r\n        if (update.credentials.length > 0) updateCredentials(update.id, update.credentials);\r\n\r\n    }\r\n\r\n    /* Updates the relevant attributes for the appropriate credentials. */\r\n    function updateCredentials(string memory _id, CredentialUpdate[] memory credentials) private {\r\n\r\n        for (uint i=0; i<credentials.length; i++) {\r\n\r\n            //update existing credentials\r\n            if (credentials[i].isUpdate) {\r\n\r\n                //find right credential by organization\r\n                for (uint k=0; k<allUserData[_id].credentialCount; k++) {\r\n                    if (stringCompare(allUserData[_id].credentials[k].organization, credentials[i].organization)) {\r\n                        //update credential's attributes\r\n                        updateCredentialAttributes(_id, k, credentials[i].attributes);\r\n                        break;\r\n                    }  \r\n                }\r\n\r\n                continue;\r\n            }\r\n\r\n            //insert new credentials\r\n            uint index = allUserData[_id].credentialCount++;\r\n            allUserData[_id].credentials[index].organization = credentials[i].organization;\r\n            allUserData[_id].credentials[index].attributeCount = credentials[i].attributes.length;\r\n\r\n            for (uint k=0; k<credentials[i].attributes.length; k++) {\r\n                allUserData[_id].credentials[index].attributes[k].name = credentials[i].attributes[k].name;\r\n                allUserData[_id].credentials[index].attributes[k].value = credentials[i].attributes[k].value;\r\n            }\r\n        }   \r\n\r\n    }\r\n\r\n    /* Updates relevant Attributes for specified credential and organization in storage. */\r\n    function updateCredentialAttributes(string memory _id, uint org, Attribute[] memory attributes) private {\r\n        \r\n        for (uint i=0; i<attributes.length; i++) {\r\n            for (uint k=0; k<allUserData[_id].attributeCount; k++) {\r\n                if (stringCompare(allUserData[_id].credentials[org].attributes[k].name, attributes[i].name)) {\r\n                    allUserData[_id].credentials[org].attributes[k].value = attributes[i].value;\r\n                }\r\n            }\r\n        }\r\n    }\r\n\r\n    /* Updates relevant Attribute values in storage. */\r\n    function updateAttributes(string memory _id, AttributeUpdate[] memory attributes) private {\r\n        \r\n        for (uint i=0; i<attributes.length; i++) {\r\n\r\n            //update existing attribute\r\n            if (attributes[i].isUpdate) {\r\n\r\n                for (uint k=0; k<allUserData[_id].attributeCount; k++) {\r\n                    if (stringCompare(allUserData[_id].attributes[k].name, attributes[i].attribute.name)) {\r\n                        allUserData[_id].attributes[k].value = attributes[i].attribute.value;\r\n                        break;\r\n                    }\r\n                }\r\n                continue;\r\n            }\r\n\r\n            //add new attribute\r\n            uint index = allUserData[_id].attributeCount;\r\n            allUserData[_id].attributeCount++;\r\n            allUserData[_id].attributes[index].name = attributes[i].attribute.name;\r\n            allUserData[_id].attributes[index].value = attributes[i].attribute.value;\r\n        }\r\n\r\n    }\r\n\r\n    /* Returns the enitre UserData for the specified id. */\r\n    function getUserData(string memory _id) public view returns (UserDataResponse memory) {\r\n        \r\n        //Create Attribute array\r\n        uint size = allUserData[_id].attributeCount;\r\n        Attribute[] memory attrs = new Attribute[](size);\r\n        \r\n        for (uint i=0; i<allUserData[_id].attributeCount; i++) {\r\n            attrs[i].name = allUserData[_id].attributes[i].name;\r\n            attrs[i].value = allUserData[_id].attributes[i].value;\r\n        }\r\n\r\n        //Create Attribute arrays for Credential arrays\r\n        size = allUserData[_id].credentialCount;\r\n        CredentialResponse[] memory creds = new CredentialResponse[](size);\r\n\r\n        for (uint i=0; i<allUserData[_id].credentialCount; i++) {\r\n\r\n            creds[i].organization = allUserData[_id].credentials[i].organization;\r\n            creds[i].attributes = new Attribute[](allUserData[_id].credentials[i].attributeCount);\r\n\r\n            for (uint k=0; k<allUserData[_id].credentials[i].attributeCount; k++) {\r\n                creds[i].attributes[k].name = allUserData[_id].credentials[i].attributes[k].name;\r\n                creds[i].attributes[k].value = allUserData[_id].credentials[i].attributes[k].value;\r\n            }\r\n        }\r\n\r\n        //Create UserDataResponse\r\n        return (UserDataResponse({\r\n            id: _id,\r\n            attributes: attrs,\r\n            credentials: creds\r\n        }));\r\n    }\r\n\r\n    /* Compares two strings to see if they're equal or not. */\r\n    function stringCompare(string memory a, string memory b) private pure returns (bool) {\r\n        if (keccak256(bytes(a)) == keccak256(bytes(b)))\r\n            return true;\r\n        return false;\r\n    }\r\n\r\n    /* Returns a set of desired Attributes. */\r\n    /*function getAttributes(string memory _id, string[] memory attributes) public view returns (Attribute[] memory) {\r\n\r\n    }*/\r\n\r\n    /* Returns a set of desired Credentials. */\r\n    //function getCredentials(string memory _id, string memory organization) public view returns (CredentialResponse memory) {\r\n\r\n    //}\r\n}",
  "sourcePath": "C:\\Users\\bbdnet2552\\Desktop\\University\\Capstone\\Repo\\Exploring-Self-Sovereign-Identity\\LocalBlockchain\\contracts\\UserDataContract.sol",
  "compiler": {
    "name": "solc",
    "version": "0.8.15+commit.e14f2714.Emscripten.clang"
  },
  "schemaVersion": "3.4.8",
  "updatedAt": "2022-07-28T18:32:25.169Z",
  "networkType": "ethereum",
  "devdoc": {
    "kind": "dev",
    "methods": {},
    "version": 1
  },
  "userdoc": {
    "kind": "user",
    "methods": {},
    "version": 1
  }
}