{
  "contractName": "UserDataContract",
  "abi": [
    {
      "inputs": [
        {
          "internalType": "string",
          "name": "_id",
          "type": "string"
        }
      ],
      "name": "createUser",
      "outputs": [],
      "stateMutability": "nonpayable",
      "type": "function"
    },
    {
      "inputs": [
        {
          "components": [
            {
              "internalType": "string",
              "name": "id",
              "type": "string"
            },
            {
              "components": [
                {
                  "components": [
                    {
                      "internalType": "string",
                      "name": "name",
                      "type": "string"
                    },
                    {
                      "internalType": "string",
                      "name": "value",
                      "type": "string"
                    }
                  ],
                  "internalType": "struct UserDataContract.Attribute",
                  "name": "attribute",
                  "type": "tuple"
                },
                {
                  "internalType": "int256",
                  "name": "index",
                  "type": "int256"
                }
              ],
              "internalType": "struct UserDataContract.AttributeUpdate[]",
              "name": "attributes",
              "type": "tuple[]"
            },
            {
              "components": [
                {
                  "internalType": "string",
                  "name": "organization",
                  "type": "string"
                },
                {
                  "internalType": "int256",
                  "name": "index",
                  "type": "int256"
                },
                {
                  "components": [
                    {
                      "internalType": "string",
                      "name": "name",
                      "type": "string"
                    },
                    {
                      "internalType": "string",
                      "name": "value",
                      "type": "string"
                    }
                  ],
                  "internalType": "struct UserDataContract.Attribute[]",
                  "name": "attributes",
                  "type": "tuple[]"
                }
              ],
              "internalType": "struct UserDataContract.CredentialUpdate[]",
              "name": "credentials",
              "type": "tuple[]"
            }
          ],
          "internalType": "struct UserDataContract.Update",
          "name": "update",
          "type": "tuple"
        }
      ],
      "name": "updateUser",
      "outputs": [],
      "stateMutability": "nonpayable",
      "type": "function"
    },
    {
      "inputs": [
        {
          "internalType": "string",
          "name": "_id",
          "type": "string"
        }
      ],
      "name": "getUserData",
      "outputs": [
        {
          "components": [
            {
              "internalType": "string",
              "name": "id",
              "type": "string"
            },
            {
              "components": [
                {
                  "internalType": "string",
                  "name": "name",
                  "type": "string"
                },
                {
                  "internalType": "string",
                  "name": "value",
                  "type": "string"
                }
              ],
              "internalType": "struct UserDataContract.Attribute[]",
              "name": "attributes",
              "type": "tuple[]"
            },
            {
              "components": [
                {
                  "internalType": "string",
                  "name": "organization",
                  "type": "string"
                },
                {
                  "components": [
                    {
                      "internalType": "string",
                      "name": "name",
                      "type": "string"
                    },
                    {
                      "internalType": "string",
                      "name": "value",
                      "type": "string"
                    }
                  ],
                  "internalType": "struct UserDataContract.Attribute[]",
                  "name": "attributes",
                  "type": "tuple[]"
                }
              ],
              "internalType": "struct UserDataContract.CredentialResponse[]",
              "name": "credentials",
              "type": "tuple[]"
            },
            {
              "components": [
                {
                  "internalType": "string[]",
                  "name": "attributes",
                  "type": "string[]"
                },
                {
                  "components": [
                    {
                      "internalType": "string",
                      "name": "fromID",
                      "type": "string"
                    },
                    {
                      "internalType": "string",
                      "name": "toID",
                      "type": "string"
                    },
                    {
                      "internalType": "string",
                      "name": "date",
                      "type": "string"
                    },
                    {
                      "internalType": "string",
                      "name": "message",
                      "type": "string"
                    },
                    {
                      "internalType": "string",
                      "name": "status",
                      "type": "string"
                    }
                  ],
                  "internalType": "struct UserDataContract.TransactionStamp",
                  "name": "stamp",
                  "type": "tuple"
                }
              ],
              "internalType": "struct UserDataContract.TransactionRequest[]",
              "name": "transactionRequests",
              "type": "tuple[]"
            },
            {
              "components": [
                {
                  "components": [
                    {
                      "internalType": "string",
                      "name": "name",
                      "type": "string"
                    },
                    {
                      "internalType": "string",
                      "name": "value",
                      "type": "string"
                    }
                  ],
                  "internalType": "struct UserDataContract.Attribute[]",
                  "name": "attributes",
                  "type": "tuple[]"
                },
                {
                  "components": [
                    {
                      "internalType": "string",
                      "name": "fromID",
                      "type": "string"
                    },
                    {
                      "internalType": "string",
                      "name": "toID",
                      "type": "string"
                    },
                    {
                      "internalType": "string",
                      "name": "date",
                      "type": "string"
                    },
                    {
                      "internalType": "string",
                      "name": "message",
                      "type": "string"
                    },
                    {
                      "internalType": "string",
                      "name": "status",
                      "type": "string"
                    }
                  ],
                  "internalType": "struct UserDataContract.TransactionStamp",
                  "name": "stamp",
                  "type": "tuple"
                }
              ],
              "internalType": "struct UserDataContract.TransactionResponse[]",
              "name": "approvedTransactions",
              "type": "tuple[]"
            }
          ],
          "internalType": "struct UserDataContract.UserDataResponse",
          "name": "",
          "type": "tuple"
        }
      ],
      "stateMutability": "view",
      "type": "function",
      "constant": true
    },
    {
      "inputs": [
        {
          "internalType": "string",
          "name": "id",
          "type": "string"
        },
        {
          "internalType": "string",
          "name": "organization",
          "type": "string"
        }
      ],
      "name": "getCredential",
      "outputs": [
        {
          "components": [
            {
              "internalType": "string",
              "name": "organization",
              "type": "string"
            },
            {
              "components": [
                {
                  "internalType": "string",
                  "name": "name",
                  "type": "string"
                },
                {
                  "internalType": "string",
                  "name": "value",
                  "type": "string"
                }
              ],
              "internalType": "struct UserDataContract.Attribute[]",
              "name": "attributes",
              "type": "tuple[]"
            }
          ],
          "internalType": "struct UserDataContract.CredentialResponse",
          "name": "",
          "type": "tuple"
        }
      ],
      "stateMutability": "view",
      "type": "function",
      "constant": true
    },
    {
      "inputs": [
        {
          "components": [
            {
              "internalType": "string[]",
              "name": "attributes",
              "type": "string[]"
            },
            {
              "components": [
                {
                  "internalType": "string",
                  "name": "fromID",
                  "type": "string"
                },
                {
                  "internalType": "string",
                  "name": "toID",
                  "type": "string"
                },
                {
                  "internalType": "string",
                  "name": "date",
                  "type": "string"
                },
                {
                  "internalType": "string",
                  "name": "message",
                  "type": "string"
                },
                {
                  "internalType": "string",
                  "name": "status",
                  "type": "string"
                }
              ],
              "internalType": "struct UserDataContract.TransactionStamp",
              "name": "stamp",
              "type": "tuple"
            }
          ],
          "internalType": "struct UserDataContract.TransactionRequest",
          "name": "request",
          "type": "tuple"
        }
      ],
      "name": "newTransactionRequest",
      "outputs": [],
      "stateMutability": "nonpayable",
      "type": "function"
    },
    {
      "inputs": [
        {
          "internalType": "string",
          "name": "_id",
          "type": "string"
        },
        {
          "internalType": "uint256",
          "name": "index",
          "type": "uint256"
        }
      ],
      "name": "approveTransactionStageA",
      "outputs": [],
      "stateMutability": "nonpayable",
      "type": "function"
    },
    {
      "inputs": [
        {
          "internalType": "string",
          "name": "_id",
          "type": "string"
        },
        {
          "internalType": "uint256",
          "name": "index",
          "type": "uint256"
        }
      ],
      "name": "approveTransactionStageB",
      "outputs": [
        {
          "components": [
            {
              "components": [
                {
                  "internalType": "string",
                  "name": "name",
                  "type": "string"
                },
                {
                  "internalType": "string",
                  "name": "value",
                  "type": "string"
                }
              ],
              "internalType": "struct UserDataContract.Attribute[]",
              "name": "attributes",
              "type": "tuple[]"
            },
            {
              "components": [
                {
                  "internalType": "string",
                  "name": "fromID",
                  "type": "string"
                },
                {
                  "internalType": "string",
                  "name": "toID",
                  "type": "string"
                },
                {
                  "internalType": "string",
                  "name": "date",
                  "type": "string"
                },
                {
                  "internalType": "string",
                  "name": "message",
                  "type": "string"
                },
                {
                  "internalType": "string",
                  "name": "status",
                  "type": "string"
                }
              ],
              "internalType": "struct UserDataContract.TransactionStamp",
              "name": "stamp",
              "type": "tuple"
            }
          ],
          "internalType": "struct UserDataContract.TransactionResponse",
          "name": "",
          "type": "tuple"
        }
      ],
      "stateMutability": "view",
      "type": "function",
      "constant": true
    },
    {
      "inputs": [
        {
          "internalType": "string",
          "name": "_id",
          "type": "string"
        },
        {
          "components": [
            {
              "components": [
                {
                  "internalType": "string",
                  "name": "name",
                  "type": "string"
                },
                {
                  "internalType": "string",
                  "name": "value",
                  "type": "string"
                }
              ],
              "internalType": "struct UserDataContract.Attribute[]",
              "name": "attributes",
              "type": "tuple[]"
            },
            {
              "components": [
                {
                  "internalType": "string",
                  "name": "fromID",
                  "type": "string"
                },
                {
                  "internalType": "string",
                  "name": "toID",
                  "type": "string"
                },
                {
                  "internalType": "string",
                  "name": "date",
                  "type": "string"
                },
                {
                  "internalType": "string",
                  "name": "message",
                  "type": "string"
                },
                {
                  "internalType": "string",
                  "name": "status",
                  "type": "string"
                }
              ],
              "internalType": "struct UserDataContract.TransactionStamp",
              "name": "stamp",
              "type": "tuple"
            }
          ],
          "internalType": "struct UserDataContract.TransactionResponse",
          "name": "transaction",
          "type": "tuple"
        }
      ],
      "name": "approveTransactionStageC",
      "outputs": [],
      "stateMutability": "nonpayable",
      "type": "function"
    },
    {
      "inputs": [
        {
          "internalType": "string",
          "name": "_id",
          "type": "string"
        },
        {
          "components": [
            {
              "internalType": "string",
              "name": "name",
              "type": "string"
            },
            {
              "internalType": "string",
              "name": "value",
              "type": "string"
            }
          ],
          "internalType": "struct UserDataContract.Attribute[]",
          "name": "attributes",
          "type": "tuple[]"
        }
      ],
      "name": "getAttributesTransaction",
      "outputs": [
        {
          "components": [
            {
              "internalType": "string",
              "name": "name",
              "type": "string"
            },
            {
              "internalType": "string",
              "name": "value",
              "type": "string"
            }
          ],
          "internalType": "struct UserDataContract.Attribute[]",
          "name": "",
          "type": "tuple[]"
        }
      ],
      "stateMutability": "view",
      "type": "function",
      "constant": true
    },
    {
      "inputs": [
        {
          "internalType": "string",
          "name": "_id",
          "type": "string"
        },
        {
          "internalType": "string",
          "name": "organization",
          "type": "string"
        }
      ],
      "name": "getCredentialTransaction",
      "outputs": [
        {
          "components": [
            {
              "internalType": "string",
              "name": "organization",
              "type": "string"
            },
            {
              "components": [
                {
                  "internalType": "string",
                  "name": "name",
                  "type": "string"
                },
                {
                  "internalType": "string",
                  "name": "value",
                  "type": "string"
                }
              ],
              "internalType": "struct UserDataContract.Attribute[]",
              "name": "attributes",
              "type": "tuple[]"
            }
          ],
          "internalType": "struct UserDataContract.CredentialResponse",
          "name": "",
          "type": "tuple"
        }
      ],
      "stateMutability": "view",
      "type": "function",
      "constant": true
    }
  ],
  "bytecode": "0x608060405234801561001057600080fd5b506155e980620000216000396000f3fe608060405234801561001057600080fd5b506004361061009e5760003560e01c8063af1a404f11610066578063af1a404f14610157578063b957297514610173578063d4b94b0e146101a3578063d78ab46f146101bf578063fa1868ff146101ef5761009e565b806301760669146100a357806333d46c87146100bf578063438e644e146100ef578063507ffba51461010b57806354ab240314610127575b600080fd5b6100bd60048036038101906100b891906143e2565b61021f565b005b6100d960048036038101906100d4919061442b565b610264565b6040516100e69190614675565b60405180910390f35b61010960048036038101906101049190614918565b610641565b005b61012560048036038101906101209190614961565b61064d565b005b610141600480360381019061013c9190614961565b61073d565b60405161014e9190614ea2565b60405180910390f35b610171600480360381019061016c9190614f4c565b611dd7565b005b61018d6004803603810190610188919061442b565b6120f1565b60405161019a9190614675565b60405180910390f35b6101bd60048036038101906101b89190614ffa565b6125ce565b005b6101d960048036038101906101d49190614ffa565b61264d565b6040516101e6919061509a565b60405180910390f35b610209600480360381019061020491906150bc565b612d10565b60405161021691906151ba565b60405180910390f35b600081602001515111156102405761023f81600001518260200151613085565b5b600081604001515111156102615761026081600001518260400151613309565b5b50565b61026c613c86565b610274613c86565b60005b6000856040516102879190615218565b908152602001604051809103902060030154811015610635576103676000866040516102b39190615218565b9081526020016040518091039020600401600083815260200190815260200160002060000180546102e39061525e565b80601f016020809104026020016040519081016040528092919081815260200182805461030f9061525e565b801561035c5780601f106103315761010080835404028352916020019161035c565b820191906000526020600020905b81548152906001019060200180831161033f57829003601f168201915b505050505085613617565b1561062257838260000181905250600080866040516103869190615218565b9081526020016040518091039020600401600083815260200190815260200160002060010154905060008167ffffffffffffffff8111156103ca576103c9613d82565b5b60405190808252806020026020018201604052801561040357816020015b6103f0613ca0565b8152602001906001900390816103e85790505b50905060005b8281101561060c576000886040516104219190615218565b90815260200160405180910390206004016000858152602001908152602001600020600201600082815260200190815260200160002060000180546104659061525e565b80601f01602080910402602001604051908101604052809291908181526020018280546104919061525e565b80156104de5780601f106104b3576101008083540402835291602001916104de565b820191906000526020600020905b8154815290600101906020018083116104c157829003601f168201915b50505050508282815181106104f6576104f561528f565b5b6020026020010151600001819052506000886040516105159190615218565b90815260200160405180910390206004016000858152602001908152602001600020600201600082815260200190815260200160002060010180546105599061525e565b80601f01602080910402602001604051908101604052809291908181526020018280546105859061525e565b80156105d25780601f106105a7576101008083540402835291602001916105d2565b820191906000526020600020905b8154815290600101906020018083116105b557829003601f168201915b50505050508282815181106105ea576105e961528f565b5b6020026020010151602001819052508080610604906152ed565b915050610409565b508084602001819052508394505050505061063b565b808061062d906152ed565b915050610277565b50809150505b92915050565b61064a81613642565b50565b8060008260405161065e9190615218565b9081526020016040518091039020600001908161067b91906154e1565b506000808260405161068d9190615218565b908152602001604051809103902060010181905550600080826040516106b39190615218565b908152602001604051809103902060030181905550600080826040516106d99190615218565b908152602001604051809103902060050181905550600080826040516106ff9190615218565b908152602001604051809103902060070181905550600080826040516107259190615218565b90815260200160405180910390206009018190555050565b610745613cba565b600080836040516107569190615218565b908152602001604051809103902060010154905060008167ffffffffffffffff81111561078657610785613d82565b5b6040519080825280602002602001820160405280156107bf57816020015b6107ac613ca0565b8152602001906001900390816107a45790505b50905060005b6000856040516107d59190615218565b9081526020016040518091039020600101548110156109c1576000856040516107fe9190615218565b90815260200160405180910390206002016000828152602001908152602001600020600001805461082e9061525e565b80601f016020809104026020016040519081016040528092919081815260200182805461085a9061525e565b80156108a75780601f1061087c576101008083540402835291602001916108a7565b820191906000526020600020905b81548152906001019060200180831161088a57829003601f168201915b50505050508282815181106108bf576108be61528f565b5b6020026020010151600001819052506000856040516108de9190615218565b90815260200160405180910390206002016000828152602001908152602001600020600101805461090e9061525e565b80601f016020809104026020016040519081016040528092919081815260200182805461093a9061525e565b80156109875780601f1061095c57610100808354040283529160200191610987565b820191906000526020600020905b81548152906001019060200180831161096a57829003601f168201915b505050505082828151811061099f5761099e61528f565b5b60200260200101516020018190525080806109b9906152ed565b9150506107c5565b506000846040516109d29190615218565b908152602001604051809103902060030154915060008267ffffffffffffffff811115610a0257610a01613d82565b5b604051908082528060200260200182016040528015610a3b57816020015b610a28613c86565b815260200190600190039081610a205790505b50905060005b600086604051610a519190615218565b908152602001604051809103902060030154811015610e8057600086604051610a7a9190615218565b908152602001604051809103902060040160008281526020019081526020016000206000018054610aaa9061525e565b80601f0160208091040260200160405190810160405280929190818152602001828054610ad69061525e565b8015610b235780601f10610af857610100808354040283529160200191610b23565b820191906000526020600020905b815481529060010190602001808311610b0657829003601f168201915b5050505050828281518110610b3b57610b3a61528f565b5b602002602001015160000181905250600086604051610b5a9190615218565b908152602001604051809103902060040160008281526020019081526020016000206001015467ffffffffffffffff811115610b9957610b98613d82565b5b604051908082528060200260200182016040528015610bd257816020015b610bbf613ca0565b815260200190600190039081610bb75790505b50828281518110610be657610be561528f565b5b60200260200101516020018190525060005b600087604051610c089190615218565b9081526020016040518091039020600401600083815260200190815260200160002060010154811015610e6c57600087604051610c459190615218565b9081526020016040518091039020600401600083815260200190815260200160002060020160008281526020019081526020016000206000018054610c899061525e565b80601f0160208091040260200160405190810160405280929190818152602001828054610cb59061525e565b8015610d025780601f10610cd757610100808354040283529160200191610d02565b820191906000526020600020905b815481529060010190602001808311610ce557829003601f168201915b5050505050838381518110610d1a57610d1961528f565b5b6020026020010151602001518281518110610d3857610d3761528f565b5b602002602001015160000181905250600087604051610d579190615218565b9081526020016040518091039020600401600083815260200190815260200160002060020160008281526020019081526020016000206001018054610d9b9061525e565b80601f0160208091040260200160405190810160405280929190818152602001828054610dc79061525e565b8015610e145780601f10610de957610100808354040283529160200191610e14565b820191906000526020600020905b815481529060010190602001808311610df757829003601f168201915b5050505050838381518110610e2c57610e2b61528f565b5b6020026020010151602001518281518110610e4a57610e4961528f565b5b6020026020010151602001819052508080610e64906152ed565b915050610bf8565b508080610e78906152ed565b915050610a41565b50600085604051610e919190615218565b908152602001604051809103902060050154925060008086604051610eb69190615218565b90815260200160405180910390206005015467ffffffffffffffff811115610ee157610ee0613d82565b5b604051908082528060200260200182016040528015610f1a57816020015b610f07613ce9565b815260200190600190039081610eff5790505b50905060005b8481101561159257600087604051610f389190615218565b908152602001604051809103902060060160008281526020019081526020016000206002016001018054610f6b9061525e565b80601f0160208091040260200160405190810160405280929190818152602001828054610f979061525e565b8015610fe45780601f10610fb957610100808354040283529160200191610fe4565b820191906000526020600020905b815481529060010190602001808311610fc757829003601f168201915b5050505050828281518110610ffc57610ffb61528f565b5b6020026020010151602001516020018190525060008760405161101f9190615218565b9081526020016040518091039020600601600082815260200190815260200160002060020160000180546110529061525e565b80601f016020809104026020016040519081016040528092919081815260200182805461107e9061525e565b80156110cb5780601f106110a0576101008083540402835291602001916110cb565b820191906000526020600020905b8154815290600101906020018083116110ae57829003601f168201915b50505050508282815181106110e3576110e261528f565b5b602002602001015160200151600001819052506000876040516111069190615218565b9081526020016040518091039020600601600082815260200190815260200160002060020160030180546111399061525e565b80601f01602080910402602001604051908101604052809291908181526020018280546111659061525e565b80156111b25780601f10611187576101008083540402835291602001916111b2565b820191906000526020600020905b81548152906001019060200180831161119557829003601f168201915b50505050508282815181106111ca576111c961528f565b5b602002602001015160200151606001819052506000876040516111ed9190615218565b9081526020016040518091039020600601600082815260200190815260200160002060020160020180546112209061525e565b80601f016020809104026020016040519081016040528092919081815260200182805461124c9061525e565b80156112995780601f1061126e57610100808354040283529160200191611299565b820191906000526020600020905b81548152906001019060200180831161127c57829003601f168201915b50505050508282815181106112b1576112b061528f565b5b602002602001015160200151604001819052506000876040516112d49190615218565b9081526020016040518091039020600601600082815260200190815260200160002060020160040180546113079061525e565b80601f01602080910402602001604051908101604052809291908181526020018280546113339061525e565b80156113805780601f1061135557610100808354040283529160200191611380565b820191906000526020600020905b81548152906001019060200180831161136357829003601f168201915b50505050508282815181106113985761139761528f565b5b60200260200101516020015160800181905250600080886040516113bc9190615218565b908152602001604051809103902060060160008381526020019081526020016000206000015490508067ffffffffffffffff8111156113fe576113fd613d82565b5b60405190808252806020026020018201604052801561143157816020015b606081526020019060019003908161141c5790505b508383815181106114455761144461528f565b5b60200260200101516000018190525060005b8181101561157d5760008960405161146f9190615218565b90815260200160405180910390206006016000848152602001908152602001600020600101600082815260200190815260200160002080546114b09061525e565b80601f01602080910402602001604051908101604052809291908181526020018280546114dc9061525e565b80156115295780601f106114fe57610100808354040283529160200191611529565b820191906000526020600020905b81548152906001019060200180831161150c57829003601f168201915b50505050508484815181106115415761154061528f565b5b602002602001015160000151828151811061155f5761155e61528f565b5b60200260200101819052508080611575906152ed565b915050611457565b5050808061158a906152ed565b915050610f20565b506000866040516115a39190615218565b908152602001604051809103902060070154935060008467ffffffffffffffff8111156115d3576115d2613d82565b5b60405190808252806020026020018201604052801561160c57816020015b6115f9613d09565b8152602001906001900390816115f15790505b50905060005b85811015611da35760008860405161162a9190615218565b90815260200160405180910390206008016000828152602001908152602001600020600201600101805461165d9061525e565b80601f01602080910402602001604051908101604052809291908181526020018280546116899061525e565b80156116d65780601f106116ab576101008083540402835291602001916116d6565b820191906000526020600020905b8154815290600101906020018083116116b957829003601f168201915b50505050508282815181106116ee576116ed61528f565b5b602002602001015160200151602001819052506000886040516117119190615218565b9081526020016040518091039020600801600082815260200190815260200160002060020160000180546117449061525e565b80601f01602080910402602001604051908101604052809291908181526020018280546117709061525e565b80156117bd5780601f10611792576101008083540402835291602001916117bd565b820191906000526020600020905b8154815290600101906020018083116117a057829003601f168201915b50505050508282815181106117d5576117d461528f565b5b602002602001015160200151600001819052506000886040516117f89190615218565b90815260200160405180910390206008016000828152602001908152602001600020600201600301805461182b9061525e565b80601f01602080910402602001604051908101604052809291908181526020018280546118579061525e565b80156118a45780601f10611879576101008083540402835291602001916118a4565b820191906000526020600020905b81548152906001019060200180831161188757829003601f168201915b50505050508282815181106118bc576118bb61528f565b5b602002602001015160200151606001819052506000886040516118df9190615218565b9081526020016040518091039020600801600082815260200190815260200160002060020160020180546119129061525e565b80601f016020809104026020016040519081016040528092919081815260200182805461193e9061525e565b801561198b5780601f106119605761010080835404028352916020019161198b565b820191906000526020600020905b81548152906001019060200180831161196e57829003601f168201915b50505050508282815181106119a3576119a261528f565b5b602002602001015160200151604001819052506000886040516119c69190615218565b9081526020016040518091039020600801600082815260200190815260200160002060020160040180546119f99061525e565b80601f0160208091040260200160405190810160405280929190818152602001828054611a259061525e565b8015611a725780601f10611a4757610100808354040283529160200191611a72565b820191906000526020600020905b815481529060010190602001808311611a5557829003601f168201915b5050505050828281518110611a8a57611a8961528f565b5b6020026020010151602001516080018190525060008089604051611aae9190615218565b908152602001604051809103902060080160008381526020019081526020016000206000015490508067ffffffffffffffff811115611af057611aef613d82565b5b604051908082528060200260200182016040528015611b2957816020015b611b16613ca0565b815260200190600190039081611b0e5790505b50838381518110611b3d57611b3c61528f565b5b60200260200101516000018190525060005b81811015611d8e5760008a604051611b679190615218565b9081526020016040518091039020600801600084815260200190815260200160002060010160008281526020019081526020016000206000018054611bab9061525e565b80601f0160208091040260200160405190810160405280929190818152602001828054611bd79061525e565b8015611c245780601f10611bf957610100808354040283529160200191611c24565b820191906000526020600020905b815481529060010190602001808311611c0757829003601f168201915b5050505050848481518110611c3c57611c3b61528f565b5b6020026020010151600001518281518110611c5a57611c5961528f565b5b60200260200101516000018190525060008a604051611c799190615218565b9081526020016040518091039020600801600084815260200190815260200160002060010160008281526020019081526020016000206001018054611cbd9061525e565b80601f0160208091040260200160405190810160405280929190818152602001828054611ce99061525e565b8015611d365780601f10611d0b57610100808354040283529160200191611d36565b820191906000526020600020905b815481529060010190602001808311611d1957829003601f168201915b5050505050848481518110611d4e57611d4d61528f565b5b6020026020010151600001518281518110611d6c57611d6b61528f565b5b6020026020010151602001819052508080611d86906152ed565b915050611b4f565b50508080611d9b906152ed565b915050611612565b506040518060a001604052808881526020018581526020018481526020018381526020018281525095505050505050919050565b60008083604051611de89190615218565b90815260200160405180910390206007016000815480929190611e0a906152ed565b91905055905060008260000151519050826020015160000151600085604051611e339190615218565b908152602001604051809103902060080160008481526020019081526020016000206002016000019081611e6791906154e1565b50826020015160200151600085604051611e819190615218565b908152602001604051809103902060080160008481526020019081526020016000206002016001019081611eb591906154e1565b50826020015160400151600085604051611ecf9190615218565b908152602001604051809103902060080160008481526020019081526020016000206002016002019081611f0391906154e1565b50826020015160600151600085604051611f1d9190615218565b908152602001604051809103902060080160008481526020019081526020016000206002016003019081611f5191906154e1565b50826020015160800151600085604051611f6b9190615218565b908152602001604051809103902060080160008481526020019081526020016000206002016004019081611f9f91906154e1565b5080600085604051611fb19190615218565b908152602001604051809103902060080160008481526020019081526020016000206000018190555060005b818110156120ea5783600001518181518110611ffc57611ffb61528f565b5b6020026020010151600001516000866040516120189190615218565b908152602001604051809103902060080160008581526020019081526020016000206001016000838152602001908152602001600020600001908161205d91906154e1565b50836000015181815181106120755761207461528f565b5b6020026020010151602001516000866040516120919190615218565b90815260200160405180910390206008016000858152602001908152602001600020600101600083815260200190815260200160002060010190816120d691906154e1565b5080806120e2906152ed565b915050611fdd565b5050505050565b6120f9613c86565b6000600167ffffffffffffffff81111561211657612115613d82565b5b60405190808252806020026020018201604052801561214f57816020015b61213c613c86565b8152602001906001900390816121345790505b50905060005b6000856040516121659190615218565b9081526020016040518091039020600301548110156125a8576122456000866040516121919190615218565b9081526020016040518091039020600401600083815260200190815260200160002060000180546121c19061525e565b80601f01602080910402602001604051908101604052809291908181526020018280546121ed9061525e565b801561223a5780601f1061220f5761010080835404028352916020019161223a565b820191906000526020600020905b81548152906001019060200180831161221d57829003601f168201915b505050505085613617565b1561259557838260008151811061225f5761225e61528f565b5b60200260200101516000018190525060008560405161227e9190615218565b908152602001604051809103902060040160008281526020019081526020016000206001015467ffffffffffffffff8111156122bd576122bc613d82565b5b6040519080825280602002602001820160405280156122f657816020015b6122e3613ca0565b8152602001906001900390816122db5790505b508260008151811061230b5761230a61528f565b5b60200260200101516020018190525060005b60008660405161232d9190615218565b90815260200160405180910390206004016000838152602001908152602001600020600101548110156125935760008660405161236a9190615218565b90815260200160405180910390206004016000838152602001908152602001600020600201600082815260200190815260200160002060000180546123ae9061525e565b80601f01602080910402602001604051908101604052809291908181526020018280546123da9061525e565b80156124275780601f106123fc57610100808354040283529160200191612427565b820191906000526020600020905b81548152906001019060200180831161240a57829003601f168201915b5050505050836000815181106124405761243f61528f565b5b602002602001015160200151828151811061245e5761245d61528f565b5b60200260200101516000018190525060008660405161247d9190615218565b90815260200160405180910390206004016000838152602001908152602001600020600201600082815260200190815260200160002060010180546124c19061525e565b80601f01602080910402602001604051908101604052809291908181526020018280546124ed9061525e565b801561253a5780601f1061250f5761010080835404028352916020019161253a565b820191906000526020600020905b81548152906001019060200180831161251d57829003601f168201915b5050505050836000815181106125535761255261528f565b5b60200260200101516020015182815181106125715761257061528f565b5b602002602001015160200181905250808061258b906152ed565b91505061231d565b505b80806125a0906152ed565b915050612155565b50806000815181106125bd576125bc61528f565b5b602002602001015191505092915050565b6040518060400160405280600881526020017f617070726f7665640000000000000000000000000000000000000000000000008152506000836040516126149190615218565b90815260200160405180910390206006016000838152602001908152602001600020600201600401908161264891906154e1565b505050565b612655613d09565b61265d613d09565b60008460405161266d9190615218565b9081526020016040518091039020600601600084815260200190815260200160002060020160010180546126a09061525e565b80601f01602080910402602001604051908101604052809291908181526020018280546126cc9061525e565b80156127195780601f106126ee57610100808354040283529160200191612719565b820191906000526020600020905b8154815290600101906020018083116126fc57829003601f168201915b505050505081602001516020018190525060008460405161273a9190615218565b90815260200160405180910390206006016000848152602001908152602001600020600201600001805461276d9061525e565b80601f01602080910402602001604051908101604052809291908181526020018280546127999061525e565b80156127e65780601f106127bb576101008083540402835291602001916127e6565b820191906000526020600020905b8154815290600101906020018083116127c957829003601f168201915b50505050508160200151600001819052506000846040516128079190615218565b90815260200160405180910390206006016000848152602001908152602001600020600201600301805461283a9061525e565b80601f01602080910402602001604051908101604052809291908181526020018280546128669061525e565b80156128b35780601f10612888576101008083540402835291602001916128b3565b820191906000526020600020905b81548152906001019060200180831161289657829003601f168201915b50505050508160200151606001819052506000846040516128d49190615218565b9081526020016040518091039020600601600084815260200190815260200160002060020160020180546129079061525e565b80601f01602080910402602001604051908101604052809291908181526020018280546129339061525e565b80156129805780601f1061295557610100808354040283529160200191612980565b820191906000526020600020905b81548152906001019060200180831161296357829003601f168201915b50505050508160200151604001819052506000846040516129a19190615218565b9081526020016040518091039020600601600084815260200190815260200160002060020160040180546129d49061525e565b80601f0160208091040260200160405190810160405280929190818152602001828054612a009061525e565b8015612a4d5780601f10612a2257610100808354040283529160200191612a4d565b820191906000526020600020905b815481529060010190602001808311612a3057829003601f168201915b505050505081602001516080018190525060008085604051612a6f9190615218565b908152602001604051809103902060060160008581526020019081526020016000206000015490508067ffffffffffffffff811115612ab157612ab0613d82565b5b604051908082528060200260200182016040528015612aea57816020015b612ad7613ca0565b815260200190600190039081612acf5790505b50826000018190525060005b81811015612d0457600086604051612b0e9190615218565b9081526020016040518091039020600601600086815260200190815260200160002060010160008281526020019081526020016000208054612b4f9061525e565b80601f0160208091040260200160405190810160405280929190818152602001828054612b7b9061525e565b8015612bc85780601f10612b9d57610100808354040283529160200191612bc8565b820191906000526020600020905b815481529060010190602001808311612bab57829003601f168201915b505050505083600001518281518110612be457612be361528f565b5b602002602001015160000181905250612ccb86600088604051612c079190615218565b9081526020016040518091039020600601600088815260200190815260200160002060010160008481526020019081526020016000208054612c489061525e565b80601f0160208091040260200160405190810160405280929190818152602001828054612c749061525e565b8015612cc15780601f10612c9657610100808354040283529160200191612cc1565b820191906000526020600020905b815481529060010190602001808311612ca457829003601f168201915b505050505061389a565b83600001518281518110612ce257612ce161528f565b5b6020026020010151602001819052508080612cfc906152ed565b915050612af6565b50819250505092915050565b60606000825167ffffffffffffffff811115612d2f57612d2e613d82565b5b604051908082528060200260200182016040528015612d6857816020015b612d55613ca0565b815260200190600190039081612d4d5790505b50905060005b835181101561307a5760005b600086604051612d8a9190615218565b90815260200160405180910390206001015481101561306657612e88600087604051612db69190615218565b908152602001604051809103902060020160008381526020019081526020016000206000018054612de69061525e565b80601f0160208091040260200160405190810160405280929190818152602001828054612e129061525e565b8015612e5f5780601f10612e3457610100808354040283529160200191612e5f565b820191906000526020600020905b815481529060010190602001808311612e4257829003601f168201915b5050505050868481518110612e7757612e7661528f565b5b602002602001015160000151613617565b1561305257600086604051612e9d9190615218565b908152602001604051809103902060020160008281526020019081526020016000206000018054612ecd9061525e565b80601f0160208091040260200160405190810160405280929190818152602001828054612ef99061525e565b8015612f465780601f10612f1b57610100808354040283529160200191612f46565b820191906000526020600020905b815481529060010190602001808311612f2957829003601f168201915b5050505050838381518110612f5e57612f5d61528f565b5b602002602001015160000181905250600086604051612f7d9190615218565b908152602001604051809103902060020160008281526020019081526020016000206001018054612fad9061525e565b80601f0160208091040260200160405190810160405280929190818152602001828054612fd99061525e565b80156130265780601f10612ffb57610100808354040283529160200191613026565b820191906000526020600020905b81548152906001019060200180831161300957829003601f168201915b505050505083838151811061303e5761303d61528f565b5b602002602001015160200181905250613053565b5b808061305e906152ed565b915050612d7a565b508080613072906152ed565b915050612d6e565b508091505092915050565b60005b8151811015613304577fffffffffffffffffffffffffffffffffffffffffffffffffffffffffffffffff8282815181106130c5576130c461528f565b5b602002602001015160200151146131c95760008282815181106130eb576130ea61528f565b5b602002602001015160200151905082828151811061310c5761310b61528f565b5b6020026020010151600001516000015160008560405161312c9190615218565b90815260200160405180910390206002016000838152602001908152602001600020600001908161315d91906154e1565b508282815181106131715761317061528f565b5b602002602001015160000151602001516000856040516131919190615218565b9081526020016040518091039020600201600083815260200190815260200160002060010190816131c291906154e1565b50506132f1565b600080846040516131da9190615218565b90815260200160405180910390206001015490506000846040516131fe9190615218565b90815260200160405180910390206001016000815480929190613220906152ed565b91905055508282815181106132385761323761528f565b5b602002602001015160000151600001516000856040516132589190615218565b90815260200160405180910390206002016000838152602001908152602001600020600001908161328991906154e1565b5082828151811061329d5761329c61528f565b5b602002602001015160000151602001516000856040516132bd9190615218565b9081526020016040518091039020600201600083815260200190815260200160002060010190816132ee91906154e1565b50505b80806132fc906152ed565b915050613088565b505050565b60005b8151811015613612577fffffffffffffffffffffffffffffffffffffffffffffffffffffffffffffffff8282815181106133495761334861528f565b5b602002602001015160200151146133a6576133a1838383815181106133715761337061528f565b5b6020026020010151602001518484815181106133905761338f61528f565b5b602002602001015160400151613aad565b6135ff565b600080846040516133b79190615218565b908152602001604051809103902060030160008154809291906133d9906152ed565b9190505590508282815181106133f2576133f161528f565b5b60200260200101516000015160008560405161340e9190615218565b90815260200160405180910390206004016000838152602001908152602001600020600001908161343f91906154e1565b508282815181106134535761345261528f565b5b602002602001015160400151516000856040516134709190615218565b908152602001604051809103902060040160008381526020019081526020016000206001018190555060005b8383815181106134af576134ae61528f565b5b602002602001015160400151518110156135fc578383815181106134d6576134d561528f565b5b60200260200101516040015181815181106134f4576134f361528f565b5b6020026020010151600001516000866040516135109190615218565b908152602001604051809103902060040160008481526020019081526020016000206002016000838152602001908152602001600020600001908161355591906154e1565b508383815181106135695761356861528f565b5b60200260200101516040015181815181106135875761358661528f565b5b6020026020010151602001516000866040516135a39190615218565b90815260200160405180910390206004016000848152602001908152602001600020600201600083815260200190815260200160002060010190816135e891906154e1565b5080806135f4906152ed565b91505061349c565b50505b808061360a906152ed565b91505061330c565b505050565b60008180519060200120838051906020012003613637576001905061363c565b600090505b92915050565b60008160200151602001519050600080826040516136609190615218565b90815260200160405180910390206005016000815480929190613682906152ed565b9190505590508260200151600001516000836040516136a19190615218565b9081526020016040518091039020600601600083815260200190815260200160002060020160000190816136d591906154e1565b508260200151602001516000836040516136ef9190615218565b90815260200160405180910390206006016000838152602001908152602001600020600201600101908161372391906154e1565b5082602001516040015160008360405161373d9190615218565b90815260200160405180910390206006016000838152602001908152602001600020600201600201908161377191906154e1565b5082602001516060015160008360405161378b9190615218565b9081526020016040518091039020600601600083815260200190815260200160002060020160030190816137bf91906154e1565b508260000151516000836040516137d69190615218565b908152602001604051809103902060060160008381526020019081526020016000206000018190555060005b83600001515181101561389457836000015181815181106138265761382561528f565b5b602002602001015160008460405161383e9190615218565b908152602001604051809103902060060160008481526020019081526020016000206001016000838152602001908152602001600020908161388091906154e1565b50808061388c906152ed565b915050613802565b50505050565b606060005b6000846040516138af9190615218565b908152602001604051809103902060010154811015613a6d5761398f6000856040516138db9190615218565b90815260200160405180910390206002016000838152602001908152602001600020600001805461390b9061525e565b80601f01602080910402602001604051908101604052809291908181526020018280546139379061525e565b80156139845780601f1061395957610100808354040283529160200191613984565b820191906000526020600020905b81548152906001019060200180831161396757829003601f168201915b505050505084613617565b15613a5a576000846040516139a49190615218565b9081526020016040518091039020600201600082815260200190815260200160002060010180546139d49061525e565b80601f0160208091040260200160405190810160405280929190818152602001828054613a009061525e565b8015613a4d5780601f10613a2257610100808354040283529160200191613a4d565b820191906000526020600020905b815481529060010190602001808311613a3057829003601f168201915b5050505050915050613aa7565b8080613a65906152ed565b91505061389f565b506040518060400160405280600381526020017f4e2f41000000000000000000000000000000000000000000000000000000000081525090505b92915050565b60005b8151811015613c805760005b600085604051613acc9190615218565b908152602001604051809103902060010154811015613c6c57613bde600086604051613af89190615218565b9081526020016040518091039020600401600086815260200190815260200160002060020160008381526020019081526020016000206000018054613b3c9061525e565b80601f0160208091040260200160405190810160405280929190818152602001828054613b689061525e565b8015613bb55780601f10613b8a57610100808354040283529160200191613bb5565b820191906000526020600020905b815481529060010190602001808311613b9857829003601f168201915b5050505050848481518110613bcd57613bcc61528f565b5b602002602001015160000151613617565b15613c5957828281518110613bf657613bf561528f565b5b602002602001015160200151600086604051613c129190615218565b9081526020016040518091039020600401600086815260200190815260200160002060020160008381526020019081526020016000206001019081613c5791906154e1565b505b8080613c64906152ed565b915050613abc565b508080613c78906152ed565b915050613ab0565b50505050565b604051806040016040528060608152602001606081525090565b604051806040016040528060608152602001606081525090565b6040518060a0016040528060608152602001606081526020016060815260200160608152602001606081525090565b604051806040016040528060608152602001613d03613d29565b81525090565b604051806040016040528060608152602001613d23613d29565b81525090565b6040518060a0016040528060608152602001606081526020016060815260200160608152602001606081525090565b6000604051905090565b600080fd5b600080fd5b600080fd5b6000601f19601f8301169050919050565b7f4e487b7100000000000000000000000000000000000000000000000000000000600052604160045260246000fd5b613dba82613d71565b810181811067ffffffffffffffff82111715613dd957613dd8613d82565b5b80604052505050565b6000613dec613d58565b9050613df88282613db1565b919050565b600080fd5b600080fd5b600080fd5b600067ffffffffffffffff821115613e2757613e26613d82565b5b613e3082613d71565b9050602081019050919050565b82818337600083830152505050565b6000613e5f613e5a84613e0c565b613de2565b905082815260208101848484011115613e7b57613e7a613e07565b5b613e86848285613e3d565b509392505050565b600082601f830112613ea357613ea2613e02565b5b8135613eb3848260208601613e4c565b91505092915050565b600067ffffffffffffffff821115613ed757613ed6613d82565b5b602082029050602081019050919050565b600080fd5b600060408284031215613f0357613f02613d6c565b5b613f0d6040613de2565b9050600082013567ffffffffffffffff811115613f2d57613f2c613dfd565b5b613f3984828501613e8e565b600083015250602082013567ffffffffffffffff811115613f5d57613f5c613dfd565b5b613f6984828501613e8e565b60208301525092915050565b6000819050919050565b613f8881613f75565b8114613f9357600080fd5b50565b600081359050613fa581613f7f565b92915050565b600060408284031215613fc157613fc0613d6c565b5b613fcb6040613de2565b9050600082013567ffffffffffffffff811115613feb57613fea613dfd565b5b613ff784828501613eed565b600083015250602061400b84828501613f96565b60208301525092915050565b600061402a61402584613ebc565b613de2565b9050808382526020820190506020840283018581111561404d5761404c613ee8565b5b835b8181101561409457803567ffffffffffffffff81111561407257614071613e02565b5b80860161407f8982613fab565b8552602085019450505060208101905061404f565b5050509392505050565b600082601f8301126140b3576140b2613e02565b5b81356140c3848260208601614017565b91505092915050565b600067ffffffffffffffff8211156140e7576140e6613d82565b5b602082029050602081019050919050565b600067ffffffffffffffff82111561411357614112613d82565b5b602082029050602081019050919050565b6000614137614132846140f8565b613de2565b9050808382526020820190506020840283018581111561415a57614159613ee8565b5b835b818110156141a157803567ffffffffffffffff81111561417f5761417e613e02565b5b80860161418c8982613eed565b8552602085019450505060208101905061415c565b5050509392505050565b600082601f8301126141c0576141bf613e02565b5b81356141d0848260208601614124565b91505092915050565b6000606082840312156141ef576141ee613d6c565b5b6141f96060613de2565b9050600082013567ffffffffffffffff81111561421957614218613dfd565b5b61422584828501613e8e565b600083015250602061423984828501613f96565b602083015250604082013567ffffffffffffffff81111561425d5761425c613dfd565b5b614269848285016141ab565b60408301525092915050565b6000614288614283846140cc565b613de2565b905080838252602082019050602084028301858111156142ab576142aa613ee8565b5b835b818110156142f257803567ffffffffffffffff8111156142d0576142cf613e02565b5b8086016142dd89826141d9565b855260208501945050506020810190506142ad565b5050509392505050565b600082601f83011261431157614310613e02565b5b8135614321848260208601614275565b91505092915050565b6000606082840312156143405761433f613d6c565b5b61434a6060613de2565b9050600082013567ffffffffffffffff81111561436a57614369613dfd565b5b61437684828501613e8e565b600083015250602082013567ffffffffffffffff81111561439a57614399613dfd565b5b6143a68482850161409e565b602083015250604082013567ffffffffffffffff8111156143ca576143c9613dfd565b5b6143d6848285016142fc565b60408301525092915050565b6000602082840312156143f8576143f7613d62565b5b600082013567ffffffffffffffff81111561441657614415613d67565b5b6144228482850161432a565b91505092915050565b6000806040838503121561444257614441613d62565b5b600083013567ffffffffffffffff8111156144605761445f613d67565b5b61446c85828601613e8e565b925050602083013567ffffffffffffffff81111561448d5761448c613d67565b5b61449985828601613e8e565b9150509250929050565b600081519050919050565b600082825260208201905092915050565b60005b838110156144dd5780820151818401526020810190506144c2565b838111156144ec576000848401525b50505050565b60006144fd826144a3565b61450781856144ae565b93506145178185602086016144bf565b61452081613d71565b840191505092915050565b600081519050919050565b600082825260208201905092915050565b6000819050602082019050919050565b6000604083016000830151848203600086015261457482826144f2565b9150506020830151848203602086015261458e82826144f2565b9150508091505092915050565b60006145a78383614557565b905092915050565b6000602082019050919050565b60006145c78261452b565b6145d18185614536565b9350836020820285016145e385614547565b8060005b8581101561461f5784840389528151614600858261459b565b945061460b836145af565b925060208a019950506001810190506145e7565b50829750879550505050505092915050565b6000604083016000830151848203600086015261464e82826144f2565b9150506020830151848203602086015261466882826145bc565b9150508091505092915050565b6000602082019050818103600083015261468f8184614631565b905092915050565b600067ffffffffffffffff8211156146b2576146b1613d82565b5b602082029050602081019050919050565b60006146d66146d184614697565b613de2565b905080838252602082019050602084028301858111156146f9576146f8613ee8565b5b835b8181101561474057803567ffffffffffffffff81111561471e5761471d613e02565b5b80860161472b8982613e8e565b855260208501945050506020810190506146fb565b5050509392505050565b600082601f83011261475f5761475e613e02565b5b813561476f8482602086016146c3565b91505092915050565b600060a0828403121561478e5761478d613d6c565b5b61479860a0613de2565b9050600082013567ffffffffffffffff8111156147b8576147b7613dfd565b5b6147c484828501613e8e565b600083015250602082013567ffffffffffffffff8111156147e8576147e7613dfd565b5b6147f484828501613e8e565b602083015250604082013567ffffffffffffffff81111561481857614817613dfd565b5b61482484828501613e8e565b604083015250606082013567ffffffffffffffff81111561484857614847613dfd565b5b61485484828501613e8e565b606083015250608082013567ffffffffffffffff81111561487857614877613dfd565b5b61488484828501613e8e565b60808301525092915050565b6000604082840312156148a6576148a5613d6c565b5b6148b06040613de2565b9050600082013567ffffffffffffffff8111156148d0576148cf613dfd565b5b6148dc8482850161474a565b600083015250602082013567ffffffffffffffff811115614900576148ff613dfd565b5b61490c84828501614778565b60208301525092915050565b60006020828403121561492e5761492d613d62565b5b600082013567ffffffffffffffff81111561494c5761494b613d67565b5b61495884828501614890565b91505092915050565b60006020828403121561497757614976613d62565b5b600082013567ffffffffffffffff81111561499557614994613d67565b5b6149a184828501613e8e565b91505092915050565b600081519050919050565b600082825260208201905092915050565b6000819050602082019050919050565b600060408301600083015184820360008601526149f382826144f2565b91505060208301518482036020860152614a0d82826145bc565b9150508091505092915050565b6000614a2683836149d6565b905092915050565b6000602082019050919050565b6000614a46826149aa565b614a5081856149b5565b935083602082028501614a62856149c6565b8060005b85811015614a9e5784840389528151614a7f8582614a1a565b9450614a8a83614a2e565b925060208a01995050600181019050614a66565b50829750879550505050505092915050565b600081519050919050565b600082825260208201905092915050565b6000819050602082019050919050565b600081519050919050565b600082825260208201905092915050565b6000819050602082019050919050565b6000614b1483836144f2565b905092915050565b6000602082019050919050565b6000614b3482614adc565b614b3e8185614ae7565b935083602082028501614b5085614af8565b8060005b85811015614b8c5784840389528151614b6d8582614b08565b9450614b7883614b1c565b925060208a01995050600181019050614b54565b50829750879550505050505092915050565b600060a0830160008301518482036000860152614bbb82826144f2565b91505060208301518482036020860152614bd582826144f2565b91505060408301518482036040860152614bef82826144f2565b91505060608301518482036060860152614c0982826144f2565b91505060808301518482036080860152614c2382826144f2565b9150508091505092915050565b60006040830160008301518482036000860152614c4d8282614b29565b91505060208301518482036020860152614c678282614b9e565b9150508091505092915050565b6000614c808383614c30565b905092915050565b6000602082019050919050565b6000614ca082614ab0565b614caa8185614abb565b935083602082028501614cbc85614acc565b8060005b85811015614cf85784840389528151614cd98582614c74565b9450614ce483614c88565b925060208a01995050600181019050614cc0565b50829750879550505050505092915050565b600081519050919050565b600082825260208201905092915050565b6000819050602082019050919050565b60006040830160008301518482036000860152614d5382826145bc565b91505060208301518482036020860152614d6d8282614b9e565b9150508091505092915050565b6000614d868383614d36565b905092915050565b6000602082019050919050565b6000614da682614d0a565b614db08185614d15565b935083602082028501614dc285614d26565b8060005b85811015614dfe5784840389528151614ddf8582614d7a565b9450614dea83614d8e565b925060208a01995050600181019050614dc6565b50829750879550505050505092915050565b600060a0830160008301518482036000860152614e2d82826144f2565b91505060208301518482036020860152614e4782826145bc565b91505060408301518482036040860152614e618282614a3b565b91505060608301518482036060860152614e7b8282614c95565b91505060808301518482036080860152614e958282614d9b565b9150508091505092915050565b60006020820190508181036000830152614ebc8184614e10565b905092915050565b600060408284031215614eda57614ed9613d6c565b5b614ee46040613de2565b9050600082013567ffffffffffffffff811115614f0457614f03613dfd565b5b614f10848285016141ab565b600083015250602082013567ffffffffffffffff811115614f3457614f33613dfd565b5b614f4084828501614778565b60208301525092915050565b60008060408385031215614f6357614f62613d62565b5b600083013567ffffffffffffffff811115614f8157614f80613d67565b5b614f8d85828601613e8e565b925050602083013567ffffffffffffffff811115614fae57614fad613d67565b5b614fba85828601614ec4565b9150509250929050565b6000819050919050565b614fd781614fc4565b8114614fe257600080fd5b50565b600081359050614ff481614fce565b92915050565b6000806040838503121561501157615010613d62565b5b600083013567ffffffffffffffff81111561502f5761502e613d67565b5b61503b85828601613e8e565b925050602061504c85828601614fe5565b9150509250929050565b6000604083016000830151848203600086015261507382826145bc565b9150506020830151848203602086015261508d8282614b9e565b9150508091505092915050565b600060208201905081810360008301526150b48184615056565b905092915050565b600080604083850312156150d3576150d2613d62565b5b600083013567ffffffffffffffff8111156150f1576150f0613d67565b5b6150fd85828601613e8e565b925050602083013567ffffffffffffffff81111561511e5761511d613d67565b5b61512a858286016141ab565b9150509250929050565b600082825260208201905092915050565b60006151508261452b565b61515a8185615134565b93508360208202850161516c85614547565b8060005b858110156151a85784840389528151615189858261459b565b9450615194836145af565b925060208a01995050600181019050615170565b50829750879550505050505092915050565b600060208201905081810360008301526151d48184615145565b905092915050565b600081905092915050565b60006151f2826144a3565b6151fc81856151dc565b935061520c8185602086016144bf565b80840191505092915050565b600061522482846151e7565b915081905092915050565b7f4e487b7100000000000000000000000000000000000000000000000000000000600052602260045260246000fd5b6000600282049050600182168061527657607f821691505b6020821081036152895761528861522f565b5b50919050565b7f4e487b7100000000000000000000000000000000000000000000000000000000600052603260045260246000fd5b7f4e487b7100000000000000000000000000000000000000000000000000000000600052601160045260246000fd5b60006152f882614fc4565b91507fffffffffffffffffffffffffffffffffffffffffffffffffffffffffffffffff820361532a576153296152be565b5b600182019050919050565b60008190508160005260206000209050919050565b60006020601f8301049050919050565b600082821b905092915050565b6000600883026153977fffffffffffffffffffffffffffffffffffffffffffffffffffffffffffffffff8261535a565b6153a1868361535a565b95508019841693508086168417925050509392505050565b6000819050919050565b60006153de6153d96153d484614fc4565b6153b9565b614fc4565b9050919050565b6000819050919050565b6153f8836153c3565b61540c615404826153e5565b848454615367565b825550505050565b600090565b615421615414565b61542c8184846153ef565b505050565b5b8181101561545057615445600082615419565b600181019050615432565b5050565b601f8211156154955761546681615335565b61546f8461534a565b8101602085101561547e578190505b61549261548a8561534a565b830182615431565b50505b505050565b600082821c905092915050565b60006154b86000198460080261549a565b1980831691505092915050565b60006154d183836154a7565b9150826002028217905092915050565b6154ea826144a3565b67ffffffffffffffff81111561550357615502613d82565b5b61550d825461525e565b615518828285615454565b600060209050601f83116001811461554b5760008415615539578287015190505b61554385826154c5565b8655506155ab565b601f19841661555986615335565b60005b828110156155815784890151825560018201915060208501945060208101905061555c565b8683101561559e578489015161559a601f8916826154a7565b8355505b6001600288020188555050505b50505050505056fea2646970667358221220f9946511ec8809ac687c06ab5f11a4071479df5ff4add1f2fab911e1ed06aa6764736f6c634300080f0033",
  "immutableReferences": {},
  "source": "pragma solidity >=0.8.9;\r\n\r\n//SPDX-License-Identifier: UNLICENSED\r\n\r\ncontract UserDataContract {\r\n\r\n    /*\r\n    * ============================================== MARKET PLACE SUBSECTION ==============================================\r\n    */\r\n\r\n    struct Organization {\r\n        string id;\r\n        uint256 balance;\r\n\r\n        uint packCount;\r\n        mapping (uint => DataPack) packs;\r\n    }\r\n\r\n    struct DataPack {\r\n        string id;\r\n\r\n        uint requestedAttributeCount;\r\n        mapping (uint => string) requestedAttributes;\r\n\r\n        uint receivedAttributeCount;\r\n        mapping (uint => Attribute) receivedAttributes;\r\n    }\r\n\r\n    /*\r\n    * ============================================== USER DATA SUBSECTION ==============================================\r\n    * Functions concerned with anything and everything to do with a User's data.\r\n    */ \r\n\r\n    /* Attributes stored in UserData and Credential. */\r\n    struct Attribute {\r\n        string name;\r\n        string value;\r\n    }\r\n\r\n    /* Credential consisting of attributes and an organization name. */\r\n    struct Credential {\r\n        string organization;\r\n        uint attributeCount;\r\n        mapping (uint => Attribute) attributes;\r\n    }\r\n\r\n    /* UserData is where the bulk of user's data will be stored using Credential and Attribute. */\r\n    struct UserData {\r\n        string id;\r\n\r\n        uint attributeCount;\r\n        mapping (uint => Attribute) attributes;\r\n\r\n        uint credentialCount;\r\n        mapping (uint => Credential) credentials;\r\n\r\n        uint transactionRequestCount;\r\n        mapping (uint => TransactionRequestStringMapping) transactionRequests;\r\n\r\n        uint approvedTransactionCount;\r\n        mapping (uint => TransactionApprovedStorage) approvedTransactions;\r\n\r\n        uint credentialRequestCount;\r\n        mapping (uint => CredentialRequest) credentialRequests;\r\n    }\r\n\r\n    /* What will be returned in place of a Credential struct. */\r\n    struct CredentialResponse {\r\n        string organization;\r\n        Attribute[] attributes;\r\n    }\r\n\r\n    /* What will be returned in place of a UserData struct. */\r\n    struct UserDataResponse{\r\n        string id;\r\n        Attribute[] attributes;\r\n        CredentialResponse[] credentials;\r\n        TransactionRequest[] transactionRequests;\r\n        TransactionResponse[] approvedTransactions;\r\n    }\r\n\r\n    /* Received in paramets to update attributes, this improves gas usage by knowing when to insert and when to update. */\r\n    struct AttributeUpdate {\r\n        Attribute attribute;\r\n        int index;\r\n    }\r\n\r\n    /* Received in paramets to update credentials, this improves gas usage by knowing when to insert and when to update */\r\n    struct CredentialUpdate {\r\n        string organization;\r\n        int index;\r\n        Attribute[] attributes;\r\n    }\r\n\r\n    /* Single functions for update to test integration methods */\r\n    struct Update {\r\n        string id;\r\n        AttributeUpdate[] attributes;\r\n        CredentialUpdate[] credentials;\r\n    }\r\n\r\n    /* All stored user's data can be accessed through the allUserData attribute. */\r\n    mapping (string => UserData) allUserData;\r\n\r\n    /* Initialize a new user's storage data. */\r\n    function createUser(string memory _id) public {\r\n        allUserData[_id].id = _id;\r\n        allUserData[_id].attributeCount = 0;\r\n        allUserData[_id].credentialCount = 0;\r\n        allUserData[_id].transactionRequestCount = 0;\r\n        allUserData[_id].approvedTransactionCount = 0;\r\n        allUserData[_id].credentialRequestCount = 0;\r\n    }\r\n\r\n    /* Add and Update UserData by id. */\r\n    function updateUser(Update memory update) public {\r\n        \r\n        //add/update all new attributes\r\n        if (update.attributes.length > 0) updateAttributes(update.id, update.attributes);\r\n\r\n        //add and update all new credentials\r\n        if (update.credentials.length > 0) updateCredentials(update.id, update.credentials);\r\n\r\n    }\r\n\r\n    /* Returns the enitre UserData for the specified id. */\r\n    function getUserData(string memory _id) public view returns (UserDataResponse memory) {\r\n        \r\n        //Create Attribute array\r\n        uint size = allUserData[_id].attributeCount;\r\n        Attribute[] memory attrs = new Attribute[](size);\r\n        \r\n        for (uint i=0; i<allUserData[_id].attributeCount; i++) {\r\n            attrs[i].name = allUserData[_id].attributes[i].name;\r\n            attrs[i].value = allUserData[_id].attributes[i].value;\r\n        }\r\n\r\n        //Create Attribute arrays for Credential arrays\r\n        size = allUserData[_id].credentialCount;\r\n        CredentialResponse[] memory creds = new CredentialResponse[](size);\r\n\r\n        for (uint i=0; i<allUserData[_id].credentialCount; i++) {\r\n\r\n            creds[i].organization = allUserData[_id].credentials[i].organization;\r\n            creds[i].attributes = new Attribute[](allUserData[_id].credentials[i].attributeCount);\r\n\r\n            for (uint k=0; k<allUserData[_id].credentials[i].attributeCount; k++) {\r\n                creds[i].attributes[k].name = allUserData[_id].credentials[i].attributes[k].name;\r\n                creds[i].attributes[k].value = allUserData[_id].credentials[i].attributes[k].value;\r\n            }\r\n        }\r\n\r\n        //create TransactionRequest array\r\n        size = allUserData[_id].transactionRequestCount;\r\n        TransactionRequest[] memory transactionRequests = new TransactionRequest[](allUserData[_id].transactionRequestCount);\r\n\r\n        for (uint i=0; i<size; i++) {\r\n\r\n            transactionRequests[i].stamp.toID = allUserData[_id].transactionRequests[i].stamp.toID;\r\n            transactionRequests[i].stamp.fromID = allUserData[_id].transactionRequests[i].stamp.fromID;\r\n            transactionRequests[i].stamp.message = allUserData[_id].transactionRequests[i].stamp.message;\r\n            transactionRequests[i].stamp.date = allUserData[_id].transactionRequests[i].stamp.date;\r\n            transactionRequests[i].stamp.status = allUserData[_id].transactionRequests[i].stamp.status;\r\n\r\n            uint attrSize = allUserData[_id].transactionRequests[i].attributeCount;\r\n            transactionRequests[i].attributes = new string[](attrSize);\r\n\r\n            for (uint k=0; k<attrSize; k++) {\r\n                transactionRequests[i].attributes[k] = allUserData[_id].transactionRequests[i].attributes[k];\r\n            }\r\n        }\r\n\r\n        //create Approved Transaction array\r\n        size = allUserData[_id].approvedTransactionCount;\r\n        TransactionResponse[] memory approvedTransactions = new TransactionResponse[](size);\r\n\r\n        for (uint i=0; i<size; i++) {\r\n\r\n            approvedTransactions[i].stamp.toID = allUserData[_id].approvedTransactions[i].stamp.toID;\r\n            approvedTransactions[i].stamp.fromID = allUserData[_id].approvedTransactions[i].stamp.fromID;\r\n            approvedTransactions[i].stamp.message = allUserData[_id].approvedTransactions[i].stamp.message;\r\n            approvedTransactions[i].stamp.date = allUserData[_id].approvedTransactions[i].stamp.date;\r\n            approvedTransactions[i].stamp.status = allUserData[_id].approvedTransactions[i].stamp.status;\r\n\r\n            uint attrSize = allUserData[_id].approvedTransactions[i].attributeCount;\r\n            approvedTransactions[i].attributes = new Attribute[](attrSize);\r\n\r\n            for (uint k=0; k<attrSize; k++) {\r\n                approvedTransactions[i].attributes[k].name = allUserData[_id].approvedTransactions[i].attributes[k].name;\r\n                approvedTransactions[i].attributes[k].value = allUserData[_id].approvedTransactions[i].attributes[k].value;\r\n            }\r\n        }\r\n\r\n        //Create UserDataResponse\r\n        return (UserDataResponse({\r\n            id: _id,\r\n            attributes: attrs,\r\n            credentials: creds,\r\n            transactionRequests: transactionRequests,\r\n            approvedTransactions: approvedTransactions\r\n        }));\r\n    }\r\n\r\n    /* Updates the relevant attributes for the appropriate credentials. */\r\n    function updateCredentials(string memory _id, CredentialUpdate[] memory credentials) private {\r\n\r\n        for (uint i=0; i<credentials.length; i++) {\r\n\r\n            //update existing credentials\r\n            if (credentials[i].index != -1) {\r\n                updateCredentialAttributes(_id, uint(credentials[i].index), credentials[i].attributes);\r\n                continue;\r\n            }\r\n\r\n            //insert new credentials\r\n            uint index = allUserData[_id].credentialCount++;\r\n            allUserData[_id].credentials[index].organization = credentials[i].organization;\r\n            allUserData[_id].credentials[index].attributeCount = credentials[i].attributes.length;\r\n\r\n            for (uint k=0; k<credentials[i].attributes.length; k++) {\r\n                allUserData[_id].credentials[index].attributes[k].name = credentials[i].attributes[k].name;\r\n                allUserData[_id].credentials[index].attributes[k].value = credentials[i].attributes[k].value;\r\n            }\r\n        }   \r\n\r\n    }\r\n\r\n    /* Updates relevant Attributes for specified credential and organization in storage. */\r\n    function updateCredentialAttributes(string memory _id, uint org, Attribute[] memory attributes) private {\r\n        \r\n        for (uint i=0; i<attributes.length; i++) {\r\n            for (uint k=0; k<allUserData[_id].attributeCount; k++) {\r\n                if (stringCompare(allUserData[_id].credentials[org].attributes[k].name, attributes[i].name)) {\r\n                    allUserData[_id].credentials[org].attributes[k].value = attributes[i].value;\r\n                }\r\n            }\r\n        }\r\n    }\r\n\r\n    /* Updates relevant Attribute values in storage. */\r\n    function updateAttributes(string memory _id, AttributeUpdate[] memory attributes) private {\r\n        \r\n        for (uint i=0; i<attributes.length; i++) {\r\n\r\n            //update existing attribute\r\n            if (attributes[i].index != -1) {\r\n                uint k = uint(attributes[i].index);\r\n                allUserData[_id].attributes[k].name = attributes[i].attribute.name;\r\n                allUserData[_id].attributes[k].value = attributes[i].attribute.value;\r\n                continue;\r\n            }\r\n\r\n            //add new attribute\r\n            uint index = allUserData[_id].attributeCount;\r\n            allUserData[_id].attributeCount++;\r\n            allUserData[_id].attributes[index].name = attributes[i].attribute.name;\r\n            allUserData[_id].attributes[index].value = attributes[i].attribute.value;\r\n        }\r\n\r\n    }\r\n\r\n    function getCredential(string memory id, string memory organization) public view returns (CredentialResponse memory) {\r\n        \r\n        CredentialResponse memory cr;\r\n        \r\n        for (uint i=0; i<allUserData[id].credentialCount; i++) {\r\n            if (stringCompare(allUserData[id].credentials[i].organization, organization)) {\r\n\r\n                cr.organization = organization;\r\n                uint size = allUserData[id].credentials[i].attributeCount;\r\n\r\n                Attribute[] memory attrs = new Attribute[](size);\r\n\r\n                for (uint k=0; k<size; k++) {\r\n                    attrs[k].name = allUserData[id].credentials[i].attributes[k].name;\r\n                    attrs[k].value = allUserData[id].credentials[i].attributes[k].value;\r\n                }\r\n\r\n                cr.attributes = attrs;\r\n\r\n                return cr;\r\n            }\r\n        }\r\n\r\n        return cr;\r\n\r\n    }\r\n\r\n    /*\r\n    * ============================================== TRANSACTION SUBSECTION ==============================================\r\n    * This is where all transactions between users have operations capable of carrying out the needed functions.\r\n    */ \r\n\r\n    /* Data to describe transaction information. */\r\n    struct TransactionStamp {\r\n        string fromID;\r\n        string toID;\r\n        string date;\r\n        string message;\r\n        string status;\r\n    }\r\n\r\n    /* Request to get Attribute data from a user. */\r\n    struct TransactionRequest {\r\n        string[] attributes;\r\n        TransactionStamp stamp;\r\n    }\r\n\r\n    struct TransactionRequestStringMapping {\r\n        uint attributeCount;\r\n        mapping (uint => string) attributes;\r\n        TransactionStamp stamp;\r\n    }\r\n\r\n    struct TransactionResponse {\r\n        Attribute[] attributes;\r\n        TransactionStamp stamp;\r\n    }\r\n\r\n    struct TransactionApprovedStorage {\r\n        uint attributeCount;\r\n        mapping (uint => Attribute) attributes;\r\n        TransactionStamp stamp;\r\n    }\r\n\r\n    /* Request to get Credential data from a user. */\r\n    struct CredentialRequest {\r\n        string organization;\r\n        TransactionStamp stamp;\r\n    }\r\n\r\n    /* Stores the pending transaction with the appropriate user. */\r\n    function newTransactionRequest(TransactionRequest memory request) public {\r\n        addTransactionRequest(request);\r\n    }\r\n\r\n    /* Adds a new transaction as pending to the user's data. */\r\n    function addTransactionRequest(TransactionRequest memory request) private {\r\n        string memory id = request.stamp.toID;\r\n        uint index = allUserData[id].transactionRequestCount++;\r\n        allUserData[id].transactionRequests[index].stamp.fromID = request.stamp.fromID;\r\n        allUserData[id].transactionRequests[index].stamp.toID = request.stamp.toID;\r\n        allUserData[id].transactionRequests[index].stamp.date = request.stamp.date;\r\n        allUserData[id].transactionRequests[index].stamp.message = request.stamp.message;\r\n\r\n        //allUserData[id].transactionRequests[index].attributes = new string[](request.attributes.length);\r\n        allUserData[id].transactionRequests[index].attributeCount = request.attributes.length;\r\n\r\n\r\n        for (uint i=0; i<request.attributes.length; i++) {\r\n            allUserData[id].transactionRequests[index].attributes[i] = request.attributes[i];\r\n        }\r\n    }\r\n\r\n    function approveTransactionStageA(string memory _id, uint index) public {\r\n        allUserData[_id].transactionRequests[index].stamp.status = \"approved\";\r\n    }\r\n\r\n    /* Approves the pending transaction by returning the data to the API for decryption. */\r\n    function approveTransactionStageB(string memory _id, uint index) public view returns (TransactionResponse memory) {\r\n        TransactionResponse memory ret;\r\n        \r\n        ret.stamp.toID = allUserData[_id].transactionRequests[index].stamp.toID;\r\n        ret.stamp.fromID = allUserData[_id].transactionRequests[index].stamp.fromID;\r\n        ret.stamp.message = allUserData[_id].transactionRequests[index].stamp.message;\r\n        ret.stamp.date = allUserData[_id].transactionRequests[index].stamp.date;\r\n        ret.stamp.status = allUserData[_id].transactionRequests[index].stamp.status;\r\n\r\n        uint attrSize = allUserData[_id].transactionRequests[index].attributeCount;\r\n        ret.attributes = new Attribute[](attrSize);\r\n\r\n        for (uint k=0; k<attrSize; k++) {\r\n            ret.attributes[k].name = allUserData[_id].transactionRequests[index].attributes[k];\r\n            ret.attributes[k].value = findAttribute(_id, allUserData[_id].transactionRequests[index].attributes[k]);\r\n        }\r\n\r\n        return ret;\r\n    }\r\n\r\n    function approveTransactionStageC(string memory _id, TransactionResponse memory transaction) public {\r\n\r\n        uint index = allUserData[_id].approvedTransactionCount++;\r\n        uint size = transaction.attributes.length;\r\n\r\n        allUserData[_id].approvedTransactions[index].stamp.fromID = transaction.stamp.fromID;\r\n        allUserData[_id].approvedTransactions[index].stamp.toID = transaction.stamp.toID;\r\n        allUserData[_id].approvedTransactions[index].stamp.date = transaction.stamp.date;\r\n        allUserData[_id].approvedTransactions[index].stamp.message = transaction.stamp.message;\r\n        allUserData[_id].approvedTransactions[index].stamp.status = transaction.stamp.status;\r\n\r\n        //allUserData[_id].approvedTransactions[index].attributes = new Attribute[](size);\r\n        allUserData[_id].approvedTransactions[index].attributeCount = size;\r\n\r\n        for (uint i=0; i<size; i++) {\r\n            allUserData[_id].approvedTransactions[index].attributes[i].name = transaction.attributes[i].name;\r\n            allUserData[_id].approvedTransactions[index].attributes[i].value = transaction.attributes[i].value;\r\n        }\r\n    }\r\n\r\n    function findAttribute(string memory id, string memory name) private view returns (string memory) {\r\n\r\n        for (uint i=0; i<allUserData[id].attributeCount; i++) {\r\n            if (stringCompare(allUserData[id].attributes[i].name, name))\r\n                return allUserData[id].attributes[i].value;\r\n        }\r\n\r\n        return \"N/A\";\r\n    }\r\n\r\n    /* Returns the desired attributes for requested data. */\r\n    function getAttributesTransaction(string memory _id, Attribute[] memory attributes) public view returns (Attribute[] memory) {\r\n\r\n        Attribute[] memory res = new Attribute[](attributes.length);\r\n\r\n        for (uint i=0; i<attributes.length; i++) {\r\n            for (uint k=0; k<allUserData[_id].attributeCount; k++) {\r\n                if (stringCompare(allUserData[_id].attributes[k].name, attributes[i].name)) {\r\n                    res[i].name = allUserData[_id].attributes[k].name;\r\n                    res[i].value = allUserData[_id].attributes[k].value;\r\n                    continue;\r\n                }\r\n            }\r\n        }\r\n\r\n        return res;\r\n    }\r\n\r\n    /* Returns the desired Credential and its associated attributes. */\r\n    function getCredentialTransaction(string memory _id, string memory organization) public view returns (CredentialResponse memory) {\r\n\r\n        CredentialResponse[] memory cred = new CredentialResponse[](1);\r\n\r\n        for (uint i=0; i<allUserData[_id].credentialCount; i++) {\r\n            if (stringCompare(allUserData[_id].credentials[i].organization, organization)) {\r\n                cred[0].organization = organization;\r\n\r\n                cred[0].attributes = new Attribute[](allUserData[_id].credentials[i].attributeCount);\r\n\r\n                for (uint k=0; k<allUserData[_id].credentials[i].attributeCount; k++) {\r\n                    cred[0].attributes[k].name = allUserData[_id].credentials[i].attributes[k].name;\r\n                    cred[0].attributes[k].value = allUserData[_id].credentials[i].attributes[k].value;\r\n                }\r\n            }\r\n        }\r\n\r\n        return cred[0];\r\n    }\r\n\r\n    /*\r\n    * ============================================== GENERAL SUBSECTION ==============================================\r\n    */ \r\n\r\n    /* Compares two strings to see if they're equal or not. */\r\n    function stringCompare(string memory a, string memory b) private pure returns (bool) {\r\n        if (keccak256(bytes(a)) == keccak256(bytes(b)))\r\n            return true;\r\n        return false;\r\n    }\r\n\r\n}",
  "sourcePath": "C:\\Users\\hjvdg\\Documents\\Git\\Exploring-Self-Sovereign-Identity\\LocalBlockchain\\contracts\\UserDataContract.sol",
  "compiler": {
    "name": "solc",
    "version": "0.8.15+commit.e14f2714.Emscripten.clang"
  },
  "schemaVersion": "3.4.10",
  "updatedAt": "2022-09-19T09:15:23.633Z",
  "networkType": "ethereum",
  "devdoc": {
    "kind": "dev",
    "methods": {},
    "version": 1
  },
  "userdoc": {
    "kind": "user",
    "methods": {},
    "version": 1
  }
}