{
  "contractName": "UserDataContract",
  "abi": [
    {
      "inputs": [
        {
          "internalType": "string",
          "name": "_id",
          "type": "string"
        }
      ],
      "name": "createUser",
      "outputs": [],
      "stateMutability": "nonpayable",
      "type": "function"
    },
    {
      "inputs": [
        {
          "components": [
            {
              "internalType": "string",
              "name": "id",
              "type": "string"
            },
            {
              "components": [
                {
                  "components": [
                    {
                      "internalType": "string",
                      "name": "name",
                      "type": "string"
                    },
                    {
                      "internalType": "string",
                      "name": "value",
                      "type": "string"
                    }
                  ],
                  "internalType": "struct UserDataContract.Attribute",
                  "name": "attribute",
                  "type": "tuple"
                },
                {
                  "internalType": "int256",
                  "name": "index",
                  "type": "int256"
                }
              ],
              "internalType": "struct UserDataContract.AttributeUpdate[]",
              "name": "attributes",
              "type": "tuple[]"
            },
            {
              "components": [
                {
                  "internalType": "string",
                  "name": "organization",
                  "type": "string"
                },
                {
                  "internalType": "int256",
                  "name": "index",
                  "type": "int256"
                },
                {
                  "components": [
                    {
                      "internalType": "string",
                      "name": "name",
                      "type": "string"
                    },
                    {
                      "internalType": "string",
                      "name": "value",
                      "type": "string"
                    }
                  ],
                  "internalType": "struct UserDataContract.Attribute[]",
                  "name": "attributes",
                  "type": "tuple[]"
                }
              ],
              "internalType": "struct UserDataContract.CredentialUpdate[]",
              "name": "credentials",
              "type": "tuple[]"
            }
          ],
          "internalType": "struct UserDataContract.Update",
          "name": "update",
          "type": "tuple"
        }
      ],
      "name": "updateUser",
      "outputs": [],
      "stateMutability": "nonpayable",
      "type": "function"
    },
    {
      "inputs": [
        {
          "internalType": "string",
          "name": "_id",
          "type": "string"
        }
      ],
      "name": "getUserData",
      "outputs": [
        {
          "components": [
            {
              "internalType": "string",
              "name": "id",
              "type": "string"
            },
            {
              "components": [
                {
                  "internalType": "string",
                  "name": "name",
                  "type": "string"
                },
                {
                  "internalType": "string",
                  "name": "value",
                  "type": "string"
                }
              ],
              "internalType": "struct UserDataContract.Attribute[]",
              "name": "attributes",
              "type": "tuple[]"
            },
            {
              "components": [
                {
                  "internalType": "string",
                  "name": "organization",
                  "type": "string"
                },
                {
                  "components": [
                    {
                      "internalType": "string",
                      "name": "name",
                      "type": "string"
                    },
                    {
                      "internalType": "string",
                      "name": "value",
                      "type": "string"
                    }
                  ],
                  "internalType": "struct UserDataContract.Attribute[]",
                  "name": "attributes",
                  "type": "tuple[]"
                }
              ],
              "internalType": "struct UserDataContract.CredentialResponse[]",
              "name": "credentials",
              "type": "tuple[]"
            },
            {
              "components": [
                {
                  "internalType": "string[]",
                  "name": "attributes",
                  "type": "string[]"
                },
                {
                  "components": [
                    {
                      "internalType": "string",
                      "name": "fromID",
                      "type": "string"
                    },
                    {
                      "internalType": "string",
                      "name": "toID",
                      "type": "string"
                    },
                    {
                      "internalType": "string",
                      "name": "date",
                      "type": "string"
                    },
                    {
                      "internalType": "string",
                      "name": "message",
                      "type": "string"
                    },
                    {
                      "internalType": "string",
                      "name": "status",
                      "type": "string"
                    }
                  ],
                  "internalType": "struct UserDataContract.TransactionStamp",
                  "name": "stamp",
                  "type": "tuple"
                }
              ],
              "internalType": "struct UserDataContract.TransactionRequest[]",
              "name": "transactionRequests",
              "type": "tuple[]"
            }
          ],
          "internalType": "struct UserDataContract.UserDataResponse",
          "name": "",
          "type": "tuple"
        }
      ],
      "stateMutability": "view",
      "type": "function",
      "constant": true
    },
    {
      "inputs": [
        {
          "components": [
            {
              "internalType": "string[]",
              "name": "attributes",
              "type": "string[]"
            },
            {
              "components": [
                {
                  "internalType": "string",
                  "name": "fromID",
                  "type": "string"
                },
                {
                  "internalType": "string",
                  "name": "toID",
                  "type": "string"
                },
                {
                  "internalType": "string",
                  "name": "date",
                  "type": "string"
                },
                {
                  "internalType": "string",
                  "name": "message",
                  "type": "string"
                },
                {
                  "internalType": "string",
                  "name": "status",
                  "type": "string"
                }
              ],
              "internalType": "struct UserDataContract.TransactionStamp",
              "name": "stamp",
              "type": "tuple"
            }
          ],
          "internalType": "struct UserDataContract.TransactionRequest",
          "name": "request",
          "type": "tuple"
        }
      ],
      "name": "newTransactionRequest",
      "outputs": [],
      "stateMutability": "nonpayable",
      "type": "function"
    },
    {
      "inputs": [
        {
          "internalType": "string",
          "name": "_id",
          "type": "string"
        },
        {
          "internalType": "uint256",
          "name": "index",
          "type": "uint256"
        }
      ],
      "name": "approveTransactionStageB",
      "outputs": [
        {
          "components": [
            {
              "components": [
                {
                  "internalType": "string",
                  "name": "name",
                  "type": "string"
                },
                {
                  "internalType": "string",
                  "name": "value",
                  "type": "string"
                }
              ],
              "internalType": "struct UserDataContract.Attribute[]",
              "name": "attributes",
              "type": "tuple[]"
            },
            {
              "components": [
                {
                  "internalType": "string",
                  "name": "fromID",
                  "type": "string"
                },
                {
                  "internalType": "string",
                  "name": "toID",
                  "type": "string"
                },
                {
                  "internalType": "string",
                  "name": "date",
                  "type": "string"
                },
                {
                  "internalType": "string",
                  "name": "message",
                  "type": "string"
                },
                {
                  "internalType": "string",
                  "name": "status",
                  "type": "string"
                }
              ],
              "internalType": "struct UserDataContract.TransactionStamp",
              "name": "stamp",
              "type": "tuple"
            }
          ],
          "internalType": "struct UserDataContract.TransactionResponse",
          "name": "",
          "type": "tuple"
        }
      ],
      "stateMutability": "view",
      "type": "function",
      "constant": true
    },
    {
      "inputs": [
        {
          "internalType": "string",
          "name": "_id",
          "type": "string"
        },
        {
          "internalType": "uint256",
          "name": "index",
          "type": "uint256"
        }
      ],
      "name": "approveTransactionStageA",
      "outputs": [],
      "stateMutability": "nonpayable",
      "type": "function"
    },
    {
      "inputs": [
        {
          "internalType": "string",
          "name": "_id",
          "type": "string"
        },
        {
          "components": [
            {
              "internalType": "string",
              "name": "name",
              "type": "string"
            },
            {
              "internalType": "string",
              "name": "value",
              "type": "string"
            }
          ],
          "internalType": "struct UserDataContract.Attribute[]",
          "name": "attributes",
          "type": "tuple[]"
        }
      ],
      "name": "getAttributesTransaction",
      "outputs": [
        {
          "components": [
            {
              "internalType": "string",
              "name": "name",
              "type": "string"
            },
            {
              "internalType": "string",
              "name": "value",
              "type": "string"
            }
          ],
          "internalType": "struct UserDataContract.Attribute[]",
          "name": "",
          "type": "tuple[]"
        }
      ],
      "stateMutability": "view",
      "type": "function",
      "constant": true
    },
    {
      "inputs": [
        {
          "internalType": "string",
          "name": "_id",
          "type": "string"
        },
        {
          "internalType": "string",
          "name": "organization",
          "type": "string"
        }
      ],
      "name": "getCredentialTransaction",
      "outputs": [
        {
          "components": [
            {
              "internalType": "string",
              "name": "organization",
              "type": "string"
            },
            {
              "components": [
                {
                  "internalType": "string",
                  "name": "name",
                  "type": "string"
                },
                {
                  "internalType": "string",
                  "name": "value",
                  "type": "string"
                }
              ],
              "internalType": "struct UserDataContract.Attribute[]",
              "name": "attributes",
              "type": "tuple[]"
            }
          ],
          "internalType": "struct UserDataContract.CredentialResponse",
          "name": "",
          "type": "tuple"
        }
      ],
      "stateMutability": "view",
      "type": "function",
      "constant": true
    }
  ],
  "bytecode": "0x608060405234801561001057600080fd5b5061441c806100206000396000f3fe608060405234801561001057600080fd5b50600436106100885760003560e01c8063b95729751161005b578063b957297514610111578063d4b94b0e14610141578063d78ab46f1461015d578063fa1868ff1461018d57610088565b8063017606691461008d578063438e644e146100a9578063507ffba5146100c557806354ab2403146100e1575b600080fd5b6100a760048036038101906100a29190613435565b6101bd565b005b6100c360048036038101906100be91906136ff565b610202565b005b6100df60048036038101906100da9190613748565b61020e565b005b6100fb60048036038101906100f69190613748565b6102fe565b6040516101089190613cf7565b60405180910390f35b61012b60048036038101906101269190613d19565b6110a7565b6040516101389190613dd5565b60405180910390f35b61015b60048036038101906101569190613e2d565b611584565b005b61017760048036038101906101729190613e2d565b611603565b6040516101849190613ecd565b60405180910390f35b6101a760048036038101906101a29190613eef565b611c28565b6040516101b49190613fed565b60405180910390f35b600081602001515111156101de576101dd81600001518260200151611f9d565b5b600081604001515111156101ff576101fe81600001518260400151612221565b5b50565b61020b8161252f565b50565b8060008260405161021f919061404b565b9081526020016040518091039020600001908161023c919061426e565b506000808260405161024e919061404b565b90815260200160405180910390206001018190555060008082604051610274919061404b565b9081526020016040518091039020600301819055506000808260405161029a919061404b565b908152602001604051809103902060050181905550600080826040516102c0919061404b565b908152602001604051809103902060070181905550600080826040516102e6919061404b565b90815260200160405180910390206009018190555050565b610306612c06565b60008083604051610317919061404b565b908152602001604051809103902060010154905060008167ffffffffffffffff81111561034757610346612dd5565b5b60405190808252806020026020018201604052801561038057816020015b61036d612c2e565b8152602001906001900390816103655790505b50905060005b600085604051610396919061404b565b908152602001604051809103902060010154811015610582576000856040516103bf919061404b565b9081526020016040518091039020600201600082815260200190815260200160002060000180546103ef90614091565b80601f016020809104026020016040519081016040528092919081815260200182805461041b90614091565b80156104685780601f1061043d57610100808354040283529160200191610468565b820191906000526020600020905b81548152906001019060200180831161044b57829003601f168201915b50505050508282815181106104805761047f614340565b5b60200260200101516000018190525060008560405161049f919061404b565b9081526020016040518091039020600201600082815260200190815260200160002060010180546104cf90614091565b80601f01602080910402602001604051908101604052809291908181526020018280546104fb90614091565b80156105485780601f1061051d57610100808354040283529160200191610548565b820191906000526020600020905b81548152906001019060200180831161052b57829003601f168201915b50505050508282815181106105605761055f614340565b5b602002602001015160200181905250808061057a9061439e565b915050610386565b50600084604051610593919061404b565b908152602001604051809103902060030154915060008267ffffffffffffffff8111156105c3576105c2612dd5565b5b6040519080825280602002602001820160405280156105fc57816020015b6105e9612c48565b8152602001906001900390816105e15790505b50905060005b600086604051610612919061404b565b908152602001604051809103902060030154811015610a415760008660405161063b919061404b565b90815260200160405180910390206004016000828152602001908152602001600020600001805461066b90614091565b80601f016020809104026020016040519081016040528092919081815260200182805461069790614091565b80156106e45780601f106106b9576101008083540402835291602001916106e4565b820191906000526020600020905b8154815290600101906020018083116106c757829003601f168201915b50505050508282815181106106fc576106fb614340565b5b60200260200101516000018190525060008660405161071b919061404b565b908152602001604051809103902060040160008281526020019081526020016000206001015467ffffffffffffffff81111561075a57610759612dd5565b5b60405190808252806020026020018201604052801561079357816020015b610780612c2e565b8152602001906001900390816107785790505b508282815181106107a7576107a6614340565b5b60200260200101516020018190525060005b6000876040516107c9919061404b565b9081526020016040518091039020600401600083815260200190815260200160002060010154811015610a2d57600087604051610806919061404b565b908152602001604051809103902060040160008381526020019081526020016000206002016000828152602001908152602001600020600001805461084a90614091565b80601f016020809104026020016040519081016040528092919081815260200182805461087690614091565b80156108c35780601f10610898576101008083540402835291602001916108c3565b820191906000526020600020905b8154815290600101906020018083116108a657829003601f168201915b50505050508383815181106108db576108da614340565b5b60200260200101516020015182815181106108f9576108f8614340565b5b602002602001015160000181905250600087604051610918919061404b565b908152602001604051809103902060040160008381526020019081526020016000206002016000828152602001908152602001600020600101805461095c90614091565b80601f016020809104026020016040519081016040528092919081815260200182805461098890614091565b80156109d55780601f106109aa576101008083540402835291602001916109d5565b820191906000526020600020905b8154815290600101906020018083116109b857829003601f168201915b50505050508383815181106109ed576109ec614340565b5b6020026020010151602001518281518110610a0b57610a0a614340565b5b6020026020010151602001819052508080610a259061439e565b9150506107b9565b508080610a399061439e565b915050610602565b50600085604051610a52919061404b565b908152602001604051809103902060050154925060008086604051610a77919061404b565b90815260200160405180910390206005015467ffffffffffffffff811115610aa257610aa1612dd5565b5b604051908082528060200260200182016040528015610adb57816020015b610ac8612c62565b815260200190600190039081610ac05790505b50905060005b8481101561107a57600087604051610af9919061404b565b908152602001604051809103902060060160008281526020019081526020016000206001016001018054610b2c90614091565b80601f0160208091040260200160405190810160405280929190818152602001828054610b5890614091565b8015610ba55780601f10610b7a57610100808354040283529160200191610ba5565b820191906000526020600020905b815481529060010190602001808311610b8857829003601f168201915b5050505050828281518110610bbd57610bbc614340565b5b60200260200101516020015160200181905250600087604051610be0919061404b565b908152602001604051809103902060060160008281526020019081526020016000206001016000018054610c1390614091565b80601f0160208091040260200160405190810160405280929190818152602001828054610c3f90614091565b8015610c8c5780601f10610c6157610100808354040283529160200191610c8c565b820191906000526020600020905b815481529060010190602001808311610c6f57829003601f168201915b5050505050828281518110610ca457610ca3614340565b5b60200260200101516020015160000181905250600087604051610cc7919061404b565b908152602001604051809103902060060160008281526020019081526020016000206001016003018054610cfa90614091565b80601f0160208091040260200160405190810160405280929190818152602001828054610d2690614091565b8015610d735780601f10610d4857610100808354040283529160200191610d73565b820191906000526020600020905b815481529060010190602001808311610d5657829003601f168201915b5050505050828281518110610d8b57610d8a614340565b5b60200260200101516020015160600181905250600087604051610dae919061404b565b908152602001604051809103902060060160008281526020019081526020016000206001016002018054610de190614091565b80601f0160208091040260200160405190810160405280929190818152602001828054610e0d90614091565b8015610e5a5780601f10610e2f57610100808354040283529160200191610e5a565b820191906000526020600020905b815481529060010190602001808311610e3d57829003601f168201915b5050505050828281518110610e7257610e71614340565b5b6020026020010151602001516040018190525060008088604051610e96919061404b565b908152602001604051809103902060060160008381526020019081526020016000206000018054905090508067ffffffffffffffff811115610edb57610eda612dd5565b5b604051908082528060200260200182016040528015610f0e57816020015b6060815260200190600190039081610ef95790505b50838381518110610f2257610f21614340565b5b60200260200101516000018190525060005b8181101561106557600089604051610f4c919061404b565b908152602001604051809103902060060160008481526020019081526020016000206000018181548110610f8357610f82614340565b5b906000526020600020018054610f9890614091565b80601f0160208091040260200160405190810160405280929190818152602001828054610fc490614091565b80156110115780601f10610fe657610100808354040283529160200191611011565b820191906000526020600020905b815481529060010190602001808311610ff457829003601f168201915b505050505084848151811061102957611028614340565b5b602002602001015160000151828151811061104757611046614340565b5b6020026020010181905250808061105d9061439e565b915050610f34565b505080806110729061439e565b915050610ae1565b50604051806080016040528087815260200184815260200183815260200182815250945050505050919050565b6110af612c48565b6000600167ffffffffffffffff8111156110cc576110cb612dd5565b5b60405190808252806020026020018201604052801561110557816020015b6110f2612c48565b8152602001906001900390816110ea5790505b50905060005b60008560405161111b919061404b565b90815260200160405180910390206003015481101561155e576111fb600086604051611147919061404b565b90815260200160405180910390206004016000838152602001908152602001600020600001805461117790614091565b80601f01602080910402602001604051908101604052809291908181526020018280546111a390614091565b80156111f05780601f106111c5576101008083540402835291602001916111f0565b820191906000526020600020905b8154815290600101906020018083116111d357829003601f168201915b5050505050856127ef565b1561154b57838260008151811061121557611214614340565b5b602002602001015160000181905250600085604051611234919061404b565b908152602001604051809103902060040160008281526020019081526020016000206001015467ffffffffffffffff81111561127357611272612dd5565b5b6040519080825280602002602001820160405280156112ac57816020015b611299612c2e565b8152602001906001900390816112915790505b50826000815181106112c1576112c0614340565b5b60200260200101516020018190525060005b6000866040516112e3919061404b565b908152602001604051809103902060040160008381526020019081526020016000206001015481101561154957600086604051611320919061404b565b908152602001604051809103902060040160008381526020019081526020016000206002016000828152602001908152602001600020600001805461136490614091565b80601f016020809104026020016040519081016040528092919081815260200182805461139090614091565b80156113dd5780601f106113b2576101008083540402835291602001916113dd565b820191906000526020600020905b8154815290600101906020018083116113c057829003601f168201915b5050505050836000815181106113f6576113f5614340565b5b602002602001015160200151828151811061141457611413614340565b5b602002602001015160000181905250600086604051611433919061404b565b908152602001604051809103902060040160008381526020019081526020016000206002016000828152602001908152602001600020600101805461147790614091565b80601f01602080910402602001604051908101604052809291908181526020018280546114a390614091565b80156114f05780601f106114c5576101008083540402835291602001916114f0565b820191906000526020600020905b8154815290600101906020018083116114d357829003601f168201915b50505050508360008151811061150957611508614340565b5b602002602001015160200151828151811061152757611526614340565b5b60200260200101516020018190525080806115419061439e565b9150506112d3565b505b80806115569061439e565b91505061110b565b508060008151811061157357611572614340565b5b602002602001015191505092915050565b6040518060400160405280600881526020017f617070726f7665640000000000000000000000000000000000000000000000008152506000836040516115ca919061404b565b9081526020016040518091039020600601600083815260200190815260200160002060010160040190816115fe919061426e565b505050565b61160b612c82565b611613612c82565b600084604051611623919061404b565b90815260200160405180910390206006016000848152602001908152602001600020600101600101805461165690614091565b80601f016020809104026020016040519081016040528092919081815260200182805461168290614091565b80156116cf5780601f106116a4576101008083540402835291602001916116cf565b820191906000526020600020905b8154815290600101906020018083116116b257829003601f168201915b50505050508160200151602001819052506000846040516116f0919061404b565b90815260200160405180910390206006016000848152602001908152602001600020600101600001805461172390614091565b80601f016020809104026020016040519081016040528092919081815260200182805461174f90614091565b801561179c5780601f106117715761010080835404028352916020019161179c565b820191906000526020600020905b81548152906001019060200180831161177f57829003601f168201915b50505050508160200151600001819052506000846040516117bd919061404b565b9081526020016040518091039020600601600084815260200190815260200160002060010160030180546117f090614091565b80601f016020809104026020016040519081016040528092919081815260200182805461181c90614091565b80156118695780601f1061183e57610100808354040283529160200191611869565b820191906000526020600020905b81548152906001019060200180831161184c57829003601f168201915b505050505081602001516060018190525060008460405161188a919061404b565b9081526020016040518091039020600601600084815260200190815260200160002060010160020180546118bd90614091565b80601f01602080910402602001604051908101604052809291908181526020018280546118e990614091565b80156119365780601f1061190b57610100808354040283529160200191611936565b820191906000526020600020905b81548152906001019060200180831161191957829003601f168201915b5050505050816020015160400181905250600084604051611957919061404b565b90815260200160405180910390206006016000848152602001908152602001600020600101600401805461198a90614091565b80601f01602080910402602001604051908101604052809291908181526020018280546119b690614091565b8015611a035780601f106119d857610100808354040283529160200191611a03565b820191906000526020600020905b8154815290600101906020018083116119e657829003601f168201915b505050505081602001516080018190525060008085604051611a25919061404b565b908152602001604051809103902060060160008581526020019081526020016000206000018054905090508067ffffffffffffffff811115611a6a57611a69612dd5565b5b604051908082528060200260200182016040528015611aa357816020015b611a90612c2e565b815260200190600190039081611a885790505b50826000018190525060005b81811015611c1c57600086604051611ac7919061404b565b908152602001604051809103902060060160008681526020019081526020016000206000018181548110611afe57611afd614340565b5b906000526020600020018054611b1390614091565b80601f0160208091040260200160405190810160405280929190818152602001828054611b3f90614091565b8015611b8c5780601f10611b6157610100808354040283529160200191611b8c565b820191906000526020600020905b815481529060010190602001808311611b6f57829003601f168201915b505050505083600001518281518110611ba857611ba7614340565b5b602002602001015160000181905250611be38684600001518381518110611bd257611bd1614340565b5b60200260200101516000015161281a565b83600001518281518110611bfa57611bf9614340565b5b6020026020010151602001819052508080611c149061439e565b915050611aaf565b50819250505092915050565b60606000825167ffffffffffffffff811115611c4757611c46612dd5565b5b604051908082528060200260200182016040528015611c8057816020015b611c6d612c2e565b815260200190600190039081611c655790505b50905060005b8351811015611f925760005b600086604051611ca2919061404b565b908152602001604051809103902060010154811015611f7e57611da0600087604051611cce919061404b565b908152602001604051809103902060020160008381526020019081526020016000206000018054611cfe90614091565b80601f0160208091040260200160405190810160405280929190818152602001828054611d2a90614091565b8015611d775780601f10611d4c57610100808354040283529160200191611d77565b820191906000526020600020905b815481529060010190602001808311611d5a57829003601f168201915b5050505050868481518110611d8f57611d8e614340565b5b6020026020010151600001516127ef565b15611f6a57600086604051611db5919061404b565b908152602001604051809103902060020160008281526020019081526020016000206000018054611de590614091565b80601f0160208091040260200160405190810160405280929190818152602001828054611e1190614091565b8015611e5e5780601f10611e3357610100808354040283529160200191611e5e565b820191906000526020600020905b815481529060010190602001808311611e4157829003601f168201915b5050505050838381518110611e7657611e75614340565b5b602002602001015160000181905250600086604051611e95919061404b565b908152602001604051809103902060020160008281526020019081526020016000206001018054611ec590614091565b80601f0160208091040260200160405190810160405280929190818152602001828054611ef190614091565b8015611f3e5780601f10611f1357610100808354040283529160200191611f3e565b820191906000526020600020905b815481529060010190602001808311611f2157829003601f168201915b5050505050838381518110611f5657611f55614340565b5b602002602001015160200181905250611f6b565b5b8080611f769061439e565b915050611c92565b508080611f8a9061439e565b915050611c86565b508091505092915050565b60005b815181101561221c577fffffffffffffffffffffffffffffffffffffffffffffffffffffffffffffffff828281518110611fdd57611fdc614340565b5b602002602001015160200151146120e157600082828151811061200357612002614340565b5b602002602001015160200151905082828151811061202457612023614340565b5b60200260200101516000015160000151600085604051612044919061404b565b908152602001604051809103902060020160008381526020019081526020016000206000019081612075919061426e565b5082828151811061208957612088614340565b5b602002602001015160000151602001516000856040516120a9919061404b565b9081526020016040518091039020600201600083815260200190815260200160002060010190816120da919061426e565b5050612209565b600080846040516120f2919061404b565b9081526020016040518091039020600101549050600084604051612116919061404b565b908152602001604051809103902060010160008154809291906121389061439e565b91905055508282815181106121505761214f614340565b5b60200260200101516000015160000151600085604051612170919061404b565b9081526020016040518091039020600201600083815260200190815260200160002060000190816121a1919061426e565b508282815181106121b5576121b4614340565b5b602002602001015160000151602001516000856040516121d5919061404b565b908152602001604051809103902060020160008381526020019081526020016000206001019081612206919061426e565b50505b80806122149061439e565b915050611fa0565b505050565b60005b815181101561252a577fffffffffffffffffffffffffffffffffffffffffffffffffffffffffffffffff82828151811061226157612260614340565b5b602002602001015160200151146122be576122b98383838151811061228957612288614340565b5b6020026020010151602001518484815181106122a8576122a7614340565b5b602002602001015160400151612a2d565b612517565b600080846040516122cf919061404b565b908152602001604051809103902060030160008154809291906122f19061439e565b91905055905082828151811061230a57612309614340565b5b602002602001015160000151600085604051612326919061404b565b908152602001604051809103902060040160008381526020019081526020016000206000019081612357919061426e565b5082828151811061236b5761236a614340565b5b60200260200101516040015151600085604051612388919061404b565b908152602001604051809103902060040160008381526020019081526020016000206001018190555060005b8383815181106123c7576123c6614340565b5b60200260200101516040015151811015612514578383815181106123ee576123ed614340565b5b602002602001015160400151818151811061240c5761240b614340565b5b602002602001015160000151600086604051612428919061404b565b908152602001604051809103902060040160008481526020019081526020016000206002016000838152602001908152602001600020600001908161246d919061426e565b5083838151811061248157612480614340565b5b602002602001015160400151818151811061249f5761249e614340565b5b6020026020010151602001516000866040516124bb919061404b565b9081526020016040518091039020600401600084815260200190815260200160002060020160008381526020019081526020016000206001019081612500919061426e565b50808061250c9061439e565b9150506123b4565b50505b80806125229061439e565b915050612224565b505050565b600081602001516020015190506000808260405161254d919061404b565b9081526020016040518091039020600501600081548092919061256f9061439e565b91905055905082602001516000015160008360405161258e919061404b565b9081526020016040518091039020600601600083815260200190815260200160002060010160000190816125c2919061426e565b508260200151602001516000836040516125dc919061404b565b908152602001604051809103902060060160008381526020019081526020016000206001016001019081612610919061426e565b5082602001516040015160008360405161262a919061404b565b90815260200160405180910390206006016000838152602001908152602001600020600101600201908161265e919061426e565b50826020015160600151600083604051612678919061404b565b9081526020016040518091039020600601600083815260200190815260200160002060010160030190816126ac919061426e565b5082600001515167ffffffffffffffff8111156126cc576126cb612dd5565b5b6040519080825280602002602001820160405280156126ff57816020015b60608152602001906001900390816126ea5790505b50600083604051612710919061404b565b908152602001604051809103902060060160008381526020019081526020016000206000019080519060200190612748929190612ca2565b5060005b8360000151518110156127e957836000015181815181106127705761276f614340565b5b6020026020010151600084604051612788919061404b565b9081526020016040518091039020600601600084815260200190815260200160002060000182815481106127bf576127be614340565b5b9060005260206000200190816127d5919061426e565b5080806127e19061439e565b91505061274c565b50505050565b6000818051906020012083805190602001200361280f5760019050612814565b600090505b92915050565b606060005b60008460405161282f919061404b565b9081526020016040518091039020600101548110156129ed5761290f60008560405161285b919061404b565b90815260200160405180910390206002016000838152602001908152602001600020600001805461288b90614091565b80601f01602080910402602001604051908101604052809291908181526020018280546128b790614091565b80156129045780601f106128d957610100808354040283529160200191612904565b820191906000526020600020905b8154815290600101906020018083116128e757829003601f168201915b5050505050846127ef565b156129da57600084604051612924919061404b565b90815260200160405180910390206002016000828152602001908152602001600020600101805461295490614091565b80601f016020809104026020016040519081016040528092919081815260200182805461298090614091565b80156129cd5780601f106129a2576101008083540402835291602001916129cd565b820191906000526020600020905b8154815290600101906020018083116129b057829003601f168201915b5050505050915050612a27565b80806129e59061439e565b91505061281f565b506040518060400160405280600381526020017f4e2f41000000000000000000000000000000000000000000000000000000000081525090505b92915050565b60005b8151811015612c005760005b600085604051612a4c919061404b565b908152602001604051809103902060010154811015612bec57612b5e600086604051612a78919061404b565b9081526020016040518091039020600401600086815260200190815260200160002060020160008381526020019081526020016000206000018054612abc90614091565b80601f0160208091040260200160405190810160405280929190818152602001828054612ae890614091565b8015612b355780601f10612b0a57610100808354040283529160200191612b35565b820191906000526020600020905b815481529060010190602001808311612b1857829003601f168201915b5050505050848481518110612b4d57612b4c614340565b5b6020026020010151600001516127ef565b15612bd957828281518110612b7657612b75614340565b5b602002602001015160200151600086604051612b92919061404b565b9081526020016040518091039020600401600086815260200190815260200160002060020160008381526020019081526020016000206001019081612bd7919061426e565b505b8080612be49061439e565b915050612a3c565b508080612bf89061439e565b915050612a30565b50505050565b6040518060800160405280606081526020016060815260200160608152602001606081525090565b604051806040016040528060608152602001606081525090565b604051806040016040528060608152602001606081525090565b604051806040016040528060608152602001612c7c612cfb565b81525090565b604051806040016040528060608152602001612c9c612cfb565b81525090565b828054828255906000526020600020908101928215612cea579160200282015b82811115612ce9578251829081612cd9919061426e565b5091602001919060010190612cc2565b5b509050612cf79190612d2a565b5090565b6040518060a0016040528060608152602001606081526020016060815260200160608152602001606081525090565b5b80821115612d4a5760008181612d419190612d4e565b50600101612d2b565b5090565b508054612d5a90614091565b6000825580601f10612d6c5750612d8b565b601f016020900490600052602060002090810190612d8a9190612d8e565b5b50565b5b80821115612da7576000816000905550600101612d8f565b5090565b6000604051905090565b600080fd5b600080fd5b600080fd5b6000601f19601f8301169050919050565b7f4e487b7100000000000000000000000000000000000000000000000000000000600052604160045260246000fd5b612e0d82612dc4565b810181811067ffffffffffffffff82111715612e2c57612e2b612dd5565b5b80604052505050565b6000612e3f612dab565b9050612e4b8282612e04565b919050565b600080fd5b600080fd5b600080fd5b600067ffffffffffffffff821115612e7a57612e79612dd5565b5b612e8382612dc4565b9050602081019050919050565b82818337600083830152505050565b6000612eb2612ead84612e5f565b612e35565b905082815260208101848484011115612ece57612ecd612e5a565b5b612ed9848285612e90565b509392505050565b600082601f830112612ef657612ef5612e55565b5b8135612f06848260208601612e9f565b91505092915050565b600067ffffffffffffffff821115612f2a57612f29612dd5565b5b602082029050602081019050919050565b600080fd5b600060408284031215612f5657612f55612dbf565b5b612f606040612e35565b9050600082013567ffffffffffffffff811115612f8057612f7f612e50565b5b612f8c84828501612ee1565b600083015250602082013567ffffffffffffffff811115612fb057612faf612e50565b5b612fbc84828501612ee1565b60208301525092915050565b6000819050919050565b612fdb81612fc8565b8114612fe657600080fd5b50565b600081359050612ff881612fd2565b92915050565b60006040828403121561301457613013612dbf565b5b61301e6040612e35565b9050600082013567ffffffffffffffff81111561303e5761303d612e50565b5b61304a84828501612f40565b600083015250602061305e84828501612fe9565b60208301525092915050565b600061307d61307884612f0f565b612e35565b905080838252602082019050602084028301858111156130a05761309f612f3b565b5b835b818110156130e757803567ffffffffffffffff8111156130c5576130c4612e55565b5b8086016130d28982612ffe565b855260208501945050506020810190506130a2565b5050509392505050565b600082601f83011261310657613105612e55565b5b813561311684826020860161306a565b91505092915050565b600067ffffffffffffffff82111561313a57613139612dd5565b5b602082029050602081019050919050565b600067ffffffffffffffff82111561316657613165612dd5565b5b602082029050602081019050919050565b600061318a6131858461314b565b612e35565b905080838252602082019050602084028301858111156131ad576131ac612f3b565b5b835b818110156131f457803567ffffffffffffffff8111156131d2576131d1612e55565b5b8086016131df8982612f40565b855260208501945050506020810190506131af565b5050509392505050565b600082601f83011261321357613212612e55565b5b8135613223848260208601613177565b91505092915050565b60006060828403121561324257613241612dbf565b5b61324c6060612e35565b9050600082013567ffffffffffffffff81111561326c5761326b612e50565b5b61327884828501612ee1565b600083015250602061328c84828501612fe9565b602083015250604082013567ffffffffffffffff8111156132b0576132af612e50565b5b6132bc848285016131fe565b60408301525092915050565b60006132db6132d68461311f565b612e35565b905080838252602082019050602084028301858111156132fe576132fd612f3b565b5b835b8181101561334557803567ffffffffffffffff81111561332357613322612e55565b5b808601613330898261322c565b85526020850194505050602081019050613300565b5050509392505050565b600082601f83011261336457613363612e55565b5b81356133748482602086016132c8565b91505092915050565b60006060828403121561339357613392612dbf565b5b61339d6060612e35565b9050600082013567ffffffffffffffff8111156133bd576133bc612e50565b5b6133c984828501612ee1565b600083015250602082013567ffffffffffffffff8111156133ed576133ec612e50565b5b6133f9848285016130f1565b602083015250604082013567ffffffffffffffff81111561341d5761341c612e50565b5b6134298482850161334f565b60408301525092915050565b60006020828403121561344b5761344a612db5565b5b600082013567ffffffffffffffff81111561346957613468612dba565b5b6134758482850161337d565b91505092915050565b600067ffffffffffffffff82111561349957613498612dd5565b5b602082029050602081019050919050565b60006134bd6134b88461347e565b612e35565b905080838252602082019050602084028301858111156134e0576134df612f3b565b5b835b8181101561352757803567ffffffffffffffff81111561350557613504612e55565b5b8086016135128982612ee1565b855260208501945050506020810190506134e2565b5050509392505050565b600082601f83011261354657613545612e55565b5b81356135568482602086016134aa565b91505092915050565b600060a0828403121561357557613574612dbf565b5b61357f60a0612e35565b9050600082013567ffffffffffffffff81111561359f5761359e612e50565b5b6135ab84828501612ee1565b600083015250602082013567ffffffffffffffff8111156135cf576135ce612e50565b5b6135db84828501612ee1565b602083015250604082013567ffffffffffffffff8111156135ff576135fe612e50565b5b61360b84828501612ee1565b604083015250606082013567ffffffffffffffff81111561362f5761362e612e50565b5b61363b84828501612ee1565b606083015250608082013567ffffffffffffffff81111561365f5761365e612e50565b5b61366b84828501612ee1565b60808301525092915050565b60006040828403121561368d5761368c612dbf565b5b6136976040612e35565b9050600082013567ffffffffffffffff8111156136b7576136b6612e50565b5b6136c384828501613531565b600083015250602082013567ffffffffffffffff8111156136e7576136e6612e50565b5b6136f38482850161355f565b60208301525092915050565b60006020828403121561371557613714612db5565b5b600082013567ffffffffffffffff81111561373357613732612dba565b5b61373f84828501613677565b91505092915050565b60006020828403121561375e5761375d612db5565b5b600082013567ffffffffffffffff81111561377c5761377b612dba565b5b61378884828501612ee1565b91505092915050565b600081519050919050565b600082825260208201905092915050565b60005b838110156137cb5780820151818401526020810190506137b0565b838111156137da576000848401525b50505050565b60006137eb82613791565b6137f5818561379c565b93506138058185602086016137ad565b61380e81612dc4565b840191505092915050565b600081519050919050565b600082825260208201905092915050565b6000819050602082019050919050565b6000604083016000830151848203600086015261386282826137e0565b9150506020830151848203602086015261387c82826137e0565b9150508091505092915050565b60006138958383613845565b905092915050565b6000602082019050919050565b60006138b582613819565b6138bf8185613824565b9350836020820285016138d185613835565b8060005b8581101561390d57848403895281516138ee8582613889565b94506138f98361389d565b925060208a019950506001810190506138d5565b50829750879550505050505092915050565b600081519050919050565b600082825260208201905092915050565b6000819050602082019050919050565b6000604083016000830151848203600086015261396882826137e0565b9150506020830151848203602086015261398282826138aa565b9150508091505092915050565b600061399b838361394b565b905092915050565b6000602082019050919050565b60006139bb8261391f565b6139c5818561392a565b9350836020820285016139d78561393b565b8060005b85811015613a1357848403895281516139f4858261398f565b94506139ff836139a3565b925060208a019950506001810190506139db565b50829750879550505050505092915050565b600081519050919050565b600082825260208201905092915050565b6000819050602082019050919050565b600081519050919050565b600082825260208201905092915050565b6000819050602082019050919050565b6000613a8983836137e0565b905092915050565b6000602082019050919050565b6000613aa982613a51565b613ab38185613a5c565b935083602082028501613ac585613a6d565b8060005b85811015613b015784840389528151613ae28582613a7d565b9450613aed83613a91565b925060208a01995050600181019050613ac9565b50829750879550505050505092915050565b600060a0830160008301518482036000860152613b3082826137e0565b91505060208301518482036020860152613b4a82826137e0565b91505060408301518482036040860152613b6482826137e0565b91505060608301518482036060860152613b7e82826137e0565b91505060808301518482036080860152613b9882826137e0565b9150508091505092915050565b60006040830160008301518482036000860152613bc28282613a9e565b91505060208301518482036020860152613bdc8282613b13565b9150508091505092915050565b6000613bf58383613ba5565b905092915050565b6000602082019050919050565b6000613c1582613a25565b613c1f8185613a30565b935083602082028501613c3185613a41565b8060005b85811015613c6d5784840389528151613c4e8582613be9565b9450613c5983613bfd565b925060208a01995050600181019050613c35565b50829750879550505050505092915050565b60006080830160008301518482036000860152613c9c82826137e0565b91505060208301518482036020860152613cb682826138aa565b91505060408301518482036040860152613cd082826139b0565b91505060608301518482036060860152613cea8282613c0a565b9150508091505092915050565b60006020820190508181036000830152613d118184613c7f565b905092915050565b60008060408385031215613d3057613d2f612db5565b5b600083013567ffffffffffffffff811115613d4e57613d4d612dba565b5b613d5a85828601612ee1565b925050602083013567ffffffffffffffff811115613d7b57613d7a612dba565b5b613d8785828601612ee1565b9150509250929050565b60006040830160008301518482036000860152613dae82826137e0565b91505060208301518482036020860152613dc882826138aa565b9150508091505092915050565b60006020820190508181036000830152613def8184613d91565b905092915050565b6000819050919050565b613e0a81613df7565b8114613e1557600080fd5b50565b600081359050613e2781613e01565b92915050565b60008060408385031215613e4457613e43612db5565b5b600083013567ffffffffffffffff811115613e6257613e61612dba565b5b613e6e85828601612ee1565b9250506020613e7f85828601613e18565b9150509250929050565b60006040830160008301518482036000860152613ea682826138aa565b91505060208301518482036020860152613ec08282613b13565b9150508091505092915050565b60006020820190508181036000830152613ee78184613e89565b905092915050565b60008060408385031215613f0657613f05612db5565b5b600083013567ffffffffffffffff811115613f2457613f23612dba565b5b613f3085828601612ee1565b925050602083013567ffffffffffffffff811115613f5157613f50612dba565b5b613f5d858286016131fe565b9150509250929050565b600082825260208201905092915050565b6000613f8382613819565b613f8d8185613f67565b935083602082028501613f9f85613835565b8060005b85811015613fdb5784840389528151613fbc8582613889565b9450613fc78361389d565b925060208a01995050600181019050613fa3565b50829750879550505050505092915050565b600060208201905081810360008301526140078184613f78565b905092915050565b600081905092915050565b600061402582613791565b61402f818561400f565b935061403f8185602086016137ad565b80840191505092915050565b6000614057828461401a565b915081905092915050565b7f4e487b7100000000000000000000000000000000000000000000000000000000600052602260045260246000fd5b600060028204905060018216806140a957607f821691505b6020821081036140bc576140bb614062565b5b50919050565b60008190508160005260206000209050919050565b60006020601f8301049050919050565b600082821b905092915050565b6000600883026141247fffffffffffffffffffffffffffffffffffffffffffffffffffffffffffffffff826140e7565b61412e86836140e7565b95508019841693508086168417925050509392505050565b6000819050919050565b600061416b61416661416184613df7565b614146565b613df7565b9050919050565b6000819050919050565b61418583614150565b61419961419182614172565b8484546140f4565b825550505050565b600090565b6141ae6141a1565b6141b981848461417c565b505050565b5b818110156141dd576141d26000826141a6565b6001810190506141bf565b5050565b601f821115614222576141f3816140c2565b6141fc846140d7565b8101602085101561420b578190505b61421f614217856140d7565b8301826141be565b50505b505050565b600082821c905092915050565b600061424560001984600802614227565b1980831691505092915050565b600061425e8383614234565b9150826002028217905092915050565b61427782613791565b67ffffffffffffffff8111156142905761428f612dd5565b5b61429a8254614091565b6142a58282856141e1565b600060209050601f8311600181146142d857600084156142c6578287015190505b6142d08582614252565b865550614338565b601f1984166142e6866140c2565b60005b8281101561430e578489015182556001820191506020850194506020810190506142e9565b8683101561432b5784890151614327601f891682614234565b8355505b6001600288020188555050505b505050505050565b7f4e487b7100000000000000000000000000000000000000000000000000000000600052603260045260246000fd5b7f4e487b7100000000000000000000000000000000000000000000000000000000600052601160045260246000fd5b60006143a982613df7565b91507fffffffffffffffffffffffffffffffffffffffffffffffffffffffffffffffff82036143db576143da61436f565b5b60018201905091905056fea2646970667358221220aaaf46e6eb010b7f8e4ae7b0dc785aac29cc8c7ed1faa257936ba3551e9aa41764736f6c634300080f0033",
  "immutableReferences": {},
  "source": "pragma solidity >=0.8.9;\r\n\r\n//SPDX-License-Identifier: UNLICENSED\r\n\r\ncontract UserDataContract {\r\n\r\n    /*\r\n    * ============================================== USER DATA SUBSECTION ==============================================\r\n    */ \r\n\r\n    /* Attributes stored in UserData and Credential. */\r\n    struct Attribute {\r\n        string name;\r\n        string value;\r\n    }\r\n\r\n    /* Credential consisting of attributes and an organization name. */\r\n    struct Credential {\r\n        string organization;\r\n        uint attributeCount;\r\n        mapping (uint => Attribute) attributes;\r\n    }\r\n\r\n    /* UserData is where the bulk of user's data will be stored using Credential and Attribute. */\r\n    struct UserData {\r\n        string id;\r\n\r\n        uint attributeCount;\r\n        mapping (uint => Attribute) attributes;\r\n\r\n        uint credentialCount;\r\n        mapping (uint => Credential) credentials;\r\n\r\n        uint transactionRequestCount;\r\n        mapping (uint => TransactionRequest) transactionRequests;\r\n\r\n        uint approvedTransactions;\r\n        mapping (uint => TransactionRequest) approvedTransaction;\r\n\r\n        uint credentialRequestCount;\r\n        mapping (uint => CredentialRequest) credentialRequests;\r\n    }\r\n\r\n    /* What will be returned in place of a Credential struct. */\r\n    struct CredentialResponse {\r\n        string organization;\r\n        Attribute[] attributes;\r\n    }\r\n\r\n    /* What will be returned in place of a UserData struct. */\r\n    struct UserDataResponse{\r\n        string id;\r\n        Attribute[] attributes;\r\n        CredentialResponse[] credentials;\r\n        TransactionRequest[] transactionRequests;\r\n    }\r\n\r\n    /* Received in paramets to update attributes, this improves gas usage by knowing when to insert and when to update. */\r\n    struct AttributeUpdate {\r\n        Attribute attribute;\r\n        int index;\r\n    }\r\n\r\n    /* Received in paramets to update credentials, this improves gas usage by knowing when to insert and when to update */\r\n    struct CredentialUpdate {\r\n        string organization;\r\n        int index;\r\n        Attribute[] attributes;\r\n    }\r\n\r\n    /* Single functions for update to test integration methods */\r\n    struct Update {\r\n        string id;\r\n        AttributeUpdate[] attributes;\r\n        CredentialUpdate[] credentials;\r\n    }\r\n\r\n    /* All stored user's data can be accessed through the allUserData attribute. */\r\n    mapping (string => UserData) allUserData;\r\n\r\n    /* Initialize a new user's storage data. */\r\n    function createUser(string memory _id) public {\r\n        allUserData[_id].id = _id;\r\n        allUserData[_id].attributeCount = 0;\r\n        allUserData[_id].credentialCount = 0;\r\n        allUserData[_id].transactionRequestCount = 0;\r\n        allUserData[_id].approvedTransactions = 0;\r\n        allUserData[_id].credentialRequestCount = 0;\r\n    }\r\n\r\n    /* Add and Update UserData by id. */\r\n    function updateUser(Update memory update) public {\r\n        \r\n        //add/update all new attributes\r\n        if (update.attributes.length > 0) updateAttributes(update.id, update.attributes);\r\n\r\n        //add and update all new credentials\r\n        if (update.credentials.length > 0) updateCredentials(update.id, update.credentials);\r\n\r\n    }\r\n\r\n    /* Returns the enitre UserData for the specified id. */\r\n    function getUserData(string memory _id) public view returns (UserDataResponse memory) {\r\n        \r\n        //Create Attribute array\r\n        uint size = allUserData[_id].attributeCount;\r\n        Attribute[] memory attrs = new Attribute[](size);\r\n        \r\n        for (uint i=0; i<allUserData[_id].attributeCount; i++) {\r\n            attrs[i].name = allUserData[_id].attributes[i].name;\r\n            attrs[i].value = allUserData[_id].attributes[i].value;\r\n        }\r\n\r\n        //Create Attribute arrays for Credential arrays\r\n        size = allUserData[_id].credentialCount;\r\n        CredentialResponse[] memory creds = new CredentialResponse[](size);\r\n\r\n        for (uint i=0; i<allUserData[_id].credentialCount; i++) {\r\n\r\n            creds[i].organization = allUserData[_id].credentials[i].organization;\r\n            creds[i].attributes = new Attribute[](allUserData[_id].credentials[i].attributeCount);\r\n\r\n            for (uint k=0; k<allUserData[_id].credentials[i].attributeCount; k++) {\r\n                creds[i].attributes[k].name = allUserData[_id].credentials[i].attributes[k].name;\r\n                creds[i].attributes[k].value = allUserData[_id].credentials[i].attributes[k].value;\r\n            }\r\n        }\r\n\r\n        //create TransactionRequest array\r\n        size = allUserData[_id].transactionRequestCount;\r\n        TransactionRequest[] memory transactionRequests = new TransactionRequest[](allUserData[_id].transactionRequestCount);\r\n\r\n        for (uint i=0; i<size; i++) {\r\n\r\n            transactionRequests[i].stamp.toID = allUserData[_id].transactionRequests[i].stamp.toID;\r\n            transactionRequests[i].stamp.fromID = allUserData[_id].transactionRequests[i].stamp.fromID;\r\n            transactionRequests[i].stamp.message = allUserData[_id].transactionRequests[i].stamp.message;\r\n            transactionRequests[i].stamp.date = allUserData[_id].transactionRequests[i].stamp.date;\r\n\r\n            uint attrSize = allUserData[_id].transactionRequests[i].attributes.length;\r\n            transactionRequests[i].attributes = new string[](attrSize);\r\n\r\n            for (uint k=0; k<attrSize; k++) {\r\n                transactionRequests[i].attributes[k] = allUserData[_id].transactionRequests[i].attributes[k];\r\n            }\r\n        }\r\n\r\n        //Create UserDataResponse\r\n        return (UserDataResponse({\r\n            id: _id,\r\n            attributes: attrs,\r\n            credentials: creds,\r\n            transactionRequests: transactionRequests\r\n        }));\r\n    }\r\n\r\n    /* Updates the relevant attributes for the appropriate credentials. */\r\n    function updateCredentials(string memory _id, CredentialUpdate[] memory credentials) private {\r\n\r\n        for (uint i=0; i<credentials.length; i++) {\r\n\r\n            //update existing credentials\r\n            if (credentials[i].index != -1) {\r\n                updateCredentialAttributes(_id, uint(credentials[i].index), credentials[i].attributes);\r\n                continue;\r\n            }\r\n\r\n            //insert new credentials\r\n            uint index = allUserData[_id].credentialCount++;\r\n            allUserData[_id].credentials[index].organization = credentials[i].organization;\r\n            allUserData[_id].credentials[index].attributeCount = credentials[i].attributes.length;\r\n\r\n            for (uint k=0; k<credentials[i].attributes.length; k++) {\r\n                allUserData[_id].credentials[index].attributes[k].name = credentials[i].attributes[k].name;\r\n                allUserData[_id].credentials[index].attributes[k].value = credentials[i].attributes[k].value;\r\n            }\r\n        }   \r\n\r\n    }\r\n\r\n    /* Updates relevant Attributes for specified credential and organization in storage. */\r\n    function updateCredentialAttributes(string memory _id, uint org, Attribute[] memory attributes) private {\r\n        \r\n        for (uint i=0; i<attributes.length; i++) {\r\n            for (uint k=0; k<allUserData[_id].attributeCount; k++) {\r\n                if (stringCompare(allUserData[_id].credentials[org].attributes[k].name, attributes[i].name)) {\r\n                    allUserData[_id].credentials[org].attributes[k].value = attributes[i].value;\r\n                }\r\n            }\r\n        }\r\n    }\r\n\r\n    /* Updates relevant Attribute values in storage. */\r\n    function updateAttributes(string memory _id, AttributeUpdate[] memory attributes) private {\r\n        \r\n        for (uint i=0; i<attributes.length; i++) {\r\n\r\n            //update existing attribute\r\n            if (attributes[i].index != -1) {\r\n                uint k = uint(attributes[i].index);\r\n                allUserData[_id].attributes[k].name = attributes[i].attribute.name;\r\n                allUserData[_id].attributes[k].value = attributes[i].attribute.value;\r\n                continue;\r\n            }\r\n\r\n            //add new attribute\r\n            uint index = allUserData[_id].attributeCount;\r\n            allUserData[_id].attributeCount++;\r\n            allUserData[_id].attributes[index].name = attributes[i].attribute.name;\r\n            allUserData[_id].attributes[index].value = attributes[i].attribute.value;\r\n        }\r\n\r\n    }\r\n\r\n    /*\r\n    * ============================================== TRANSACTION SUBSECTION ==============================================\r\n    */ \r\n\r\n    /* Data to describe transaction information. */\r\n    struct TransactionStamp {\r\n        string fromID;\r\n        string toID;\r\n        string date;\r\n        string message;\r\n        string status;\r\n    }\r\n\r\n    /* Request to get Attribute data from a user. */\r\n    struct TransactionRequest {\r\n        string[] attributes;\r\n        TransactionStamp stamp;\r\n    }\r\n\r\n    struct TransactionResponse {\r\n        Attribute[] attributes;\r\n        TransactionStamp stamp;\r\n    }\r\n\r\n    /* Request to get Credential data from a user. */\r\n    struct CredentialRequest {\r\n        string organization;\r\n        TransactionStamp stamp;\r\n    }\r\n\r\n    /* Stores the pending transaction with the appropriate user. */\r\n    function newTransactionRequest(TransactionRequest memory request) public {\r\n        addTransactionRequest(request);\r\n    }\r\n\r\n    /* Adds a new transaction as pending to the user's data. */\r\n    function addTransactionRequest(TransactionRequest memory request) private {\r\n        string memory id = request.stamp.toID;\r\n        uint index = allUserData[id].transactionRequestCount++;\r\n        allUserData[id].transactionRequests[index].stamp.fromID = request.stamp.fromID;\r\n        allUserData[id].transactionRequests[index].stamp.toID = request.stamp.toID;\r\n        allUserData[id].transactionRequests[index].stamp.date = request.stamp.date;\r\n        allUserData[id].transactionRequests[index].stamp.message = request.stamp.message;\r\n\r\n        allUserData[id].transactionRequests[index].attributes = new string[](request.attributes.length);\r\n\r\n        for (uint i=0; i<request.attributes.length; i++) {\r\n            allUserData[id].transactionRequests[index].attributes[i] = request.attributes[i];\r\n        }\r\n    }\r\n\r\n    /* Approves the pending transaction by returning the data to the API for decryption. */\r\n    function approveTransactionStageB(string memory _id, uint index) public view returns (TransactionResponse memory) {\r\n        TransactionResponse memory ret;\r\n        \r\n        ret.stamp.toID = allUserData[_id].transactionRequests[index].stamp.toID;\r\n        ret.stamp.fromID = allUserData[_id].transactionRequests[index].stamp.fromID;\r\n        ret.stamp.message = allUserData[_id].transactionRequests[index].stamp.message;\r\n        ret.stamp.date = allUserData[_id].transactionRequests[index].stamp.date;\r\n        ret.stamp.status = allUserData[_id].transactionRequests[index].stamp.status;\r\n\r\n        uint attrSize = allUserData[_id].transactionRequests[index].attributes.length;\r\n        ret.attributes = new Attribute[](attrSize);\r\n\r\n        for (uint k=0; k<attrSize; k++) {\r\n            ret.attributes[k].name = allUserData[_id].transactionRequests[index].attributes[k];\r\n            ret.attributes[k].value = findAttribute(_id, ret.attributes[k].name);\r\n        }\r\n\r\n        return ret;\r\n    }\r\n\r\n    function approveTransactionStageA(string memory _id, uint index) public {\r\n        allUserData[_id].transactionRequests[index].stamp.status = \"approved\";\r\n    }\r\n\r\n    function findAttribute(string memory id, string memory name) private view returns (string memory) {\r\n\r\n        for (uint i=0; i<allUserData[id].attributeCount; i++) {\r\n            if (stringCompare(allUserData[id].attributes[i].name, name))\r\n                return allUserData[id].attributes[i].value;\r\n        }\r\n\r\n        return \"N/A\";\r\n    }\r\n\r\n    /* Returns the desired attributes for requested data. */\r\n    function getAttributesTransaction(string memory _id, Attribute[] memory attributes) public view returns (Attribute[] memory) {\r\n\r\n        Attribute[] memory res = new Attribute[](attributes.length);\r\n\r\n        for (uint i=0; i<attributes.length; i++) {\r\n            for (uint k=0; k<allUserData[_id].attributeCount; k++) {\r\n                if (stringCompare(allUserData[_id].attributes[k].name, attributes[i].name)) {\r\n                    res[i].name = allUserData[_id].attributes[k].name;\r\n                    res[i].value = allUserData[_id].attributes[k].value;\r\n                    continue;\r\n                }\r\n            }\r\n        }\r\n\r\n        return res;\r\n    }\r\n\r\n    /* Returns the desired Credential and its associated attributes. */\r\n    function getCredentialTransaction(string memory _id, string memory organization) public view returns (CredentialResponse memory) {\r\n\r\n        CredentialResponse[] memory cred = new CredentialResponse[](1);\r\n\r\n        for (uint i=0; i<allUserData[_id].credentialCount; i++) {\r\n            if (stringCompare(allUserData[_id].credentials[i].organization, organization)) {\r\n                cred[0].organization = organization;\r\n\r\n                cred[0].attributes = new Attribute[](allUserData[_id].credentials[i].attributeCount);\r\n\r\n                for (uint k=0; k<allUserData[_id].credentials[i].attributeCount; k++) {\r\n                    cred[0].attributes[k].name = allUserData[_id].credentials[i].attributes[k].name;\r\n                    cred[0].attributes[k].value = allUserData[_id].credentials[i].attributes[k].value;\r\n                }\r\n            }\r\n        }\r\n\r\n        return cred[0];\r\n    }\r\n\r\n    /*\r\n    * ============================================== GENERAL SUBSECTION ==============================================\r\n    */ \r\n\r\n    /* Compares two strings to see if they're equal or not. */\r\n    function stringCompare(string memory a, string memory b) private pure returns (bool) {\r\n        if (keccak256(bytes(a)) == keccak256(bytes(b)))\r\n            return true;\r\n        return false;\r\n    }\r\n\r\n}",
  "sourcePath": "C:\\Users\\bbdnet2552\\Desktop\\University\\Capstone\\Repo\\Exploring-Self-Sovereign-Identity\\LocalBlockchain\\contracts\\UserDataContract.sol",
  "compiler": {
    "name": "solc",
    "version": "0.8.15+commit.e14f2714.Emscripten.clang"
  },
  "schemaVersion": "3.4.8",
  "updatedAt": "2022-08-16T17:06:53.306Z",
  "networkType": "ethereum",
  "devdoc": {
    "kind": "dev",
    "methods": {},
    "version": 1
  },
  "userdoc": {
    "kind": "user",
    "methods": {},
    "version": 1
  }
}