{
  "contractName": "UserDataContract",
  "abi": [
    {
      "inputs": [
        {
          "internalType": "string",
          "name": "_id",
          "type": "string"
        }
      ],
      "name": "createUser",
      "outputs": [],
      "stateMutability": "nonpayable",
      "type": "function"
    },
    {
      "inputs": [
        {
          "components": [
            {
              "internalType": "string",
              "name": "id",
              "type": "string"
            },
            {
              "components": [
                {
                  "components": [
                    {
                      "internalType": "string",
                      "name": "name",
                      "type": "string"
                    },
                    {
                      "internalType": "string",
                      "name": "value",
                      "type": "string"
                    }
                  ],
                  "internalType": "struct UserDataContract.Attribute",
                  "name": "attribute",
                  "type": "tuple"
                },
                {
                  "internalType": "int256",
                  "name": "index",
                  "type": "int256"
                }
              ],
              "internalType": "struct UserDataContract.AttributeUpdate[]",
              "name": "attributes",
              "type": "tuple[]"
            },
            {
              "components": [
                {
                  "internalType": "string",
                  "name": "organization",
                  "type": "string"
                },
                {
                  "internalType": "int256",
                  "name": "index",
                  "type": "int256"
                },
                {
                  "components": [
                    {
                      "internalType": "string",
                      "name": "name",
                      "type": "string"
                    },
                    {
                      "internalType": "string",
                      "name": "value",
                      "type": "string"
                    }
                  ],
                  "internalType": "struct UserDataContract.Attribute[]",
                  "name": "attributes",
                  "type": "tuple[]"
                }
              ],
              "internalType": "struct UserDataContract.CredentialUpdate[]",
              "name": "credentials",
              "type": "tuple[]"
            }
          ],
          "internalType": "struct UserDataContract.Update",
          "name": "update",
          "type": "tuple"
        }
      ],
      "name": "updateUser",
      "outputs": [],
      "stateMutability": "nonpayable",
      "type": "function"
    },
    {
      "inputs": [
        {
          "internalType": "string",
          "name": "_id",
          "type": "string"
        }
      ],
      "name": "getUserData",
      "outputs": [
        {
          "components": [
            {
              "internalType": "string",
              "name": "id",
              "type": "string"
            },
            {
              "components": [
                {
                  "internalType": "string",
                  "name": "name",
                  "type": "string"
                },
                {
                  "internalType": "string",
                  "name": "value",
                  "type": "string"
                }
              ],
              "internalType": "struct UserDataContract.Attribute[]",
              "name": "attributes",
              "type": "tuple[]"
            },
            {
              "components": [
                {
                  "internalType": "string",
                  "name": "organization",
                  "type": "string"
                },
                {
                  "components": [
                    {
                      "internalType": "string",
                      "name": "name",
                      "type": "string"
                    },
                    {
                      "internalType": "string",
                      "name": "value",
                      "type": "string"
                    }
                  ],
                  "internalType": "struct UserDataContract.Attribute[]",
                  "name": "attributes",
                  "type": "tuple[]"
                }
              ],
              "internalType": "struct UserDataContract.CredentialResponse[]",
              "name": "credentials",
              "type": "tuple[]"
            }
          ],
          "internalType": "struct UserDataContract.UserDataResponse",
          "name": "",
          "type": "tuple"
        }
      ],
      "stateMutability": "view",
      "type": "function",
      "constant": true
    },
    {
      "inputs": [
        {
          "internalType": "string",
          "name": "_id",
          "type": "string"
        },
        {
          "components": [
            {
              "internalType": "string",
              "name": "name",
              "type": "string"
            },
            {
              "internalType": "string",
              "name": "value",
              "type": "string"
            }
          ],
          "internalType": "struct UserDataContract.Attribute[]",
          "name": "attributes",
          "type": "tuple[]"
        }
      ],
      "name": "getAttributesTransaction",
      "outputs": [
        {
          "components": [
            {
              "internalType": "string",
              "name": "name",
              "type": "string"
            },
            {
              "internalType": "string",
              "name": "value",
              "type": "string"
            }
          ],
          "internalType": "struct UserDataContract.Attribute[]",
          "name": "",
          "type": "tuple[]"
        }
      ],
      "stateMutability": "view",
      "type": "function",
      "constant": true
    },
    {
      "inputs": [
        {
          "internalType": "string",
          "name": "_id",
          "type": "string"
        },
        {
          "internalType": "string",
          "name": "organization",
          "type": "string"
        }
      ],
      "name": "getCredentialTransaction",
      "outputs": [
        {
          "components": [
            {
              "internalType": "string",
              "name": "organization",
              "type": "string"
            },
            {
              "components": [
                {
                  "internalType": "string",
                  "name": "name",
                  "type": "string"
                },
                {
                  "internalType": "string",
                  "name": "value",
                  "type": "string"
                }
              ],
              "internalType": "struct UserDataContract.Attribute[]",
              "name": "attributes",
              "type": "tuple[]"
            }
          ],
          "internalType": "struct UserDataContract.CredentialResponse",
          "name": "",
          "type": "tuple"
        }
      ],
      "stateMutability": "view",
      "type": "function",
      "constant": true
    }
  ],
  "bytecode": "0x608060405234801561001057600080fd5b50612a1e806100206000396000f3fe608060405234801561001057600080fd5b50600436106100575760003560e01c8063017606691461005c578063507ffba51461007857806354ab240314610094578063b9572975146100c4578063fa1868ff146100f4575b600080fd5b61007660048036038101906100719190612063565b610124565b005b610092600480360381019061008d91906120ac565b610169565b005b6100ae60048036038101906100a991906120ac565b610233565b6040516100bb91906123e7565b60405180910390f35b6100de60048036038101906100d99190612409565b61099c565b6040516100eb91906124c5565b60405180910390f35b61010e600480360381019061010991906124e7565b610e79565b60405161011b91906125e5565b60405180910390f35b6000816020015151111561014557610144816000015182602001516111ee565b5b600081604001515111156101665761016581600001518260400151611472565b5b50565b8060008260405161017a9190612643565b908152602001604051809103902060000190816101979190612870565b50600080826040516101a99190612643565b908152602001604051809103902060010181905550600080826040516101cf9190612643565b908152602001604051809103902060030181905550600080826040516101f59190612643565b9081526020016040518091039020600501819055506000808260405161021b9190612643565b90815260200160405180910390206007018190555050565b61023b611984565b6000808360405161024c9190612643565b908152602001604051809103902060010154905060008167ffffffffffffffff81111561027c5761027b611a03565b5b6040519080825280602002602001820160405280156102b557816020015b6102a26119a5565b81526020019060019003908161029a5790505b50905060005b6000856040516102cb9190612643565b9081526020016040518091039020600101548110156104b7576000856040516102f49190612643565b90815260200160405180910390206002016000828152602001908152602001600020600001805461032490612689565b80601f016020809104026020016040519081016040528092919081815260200182805461035090612689565b801561039d5780601f106103725761010080835404028352916020019161039d565b820191906000526020600020905b81548152906001019060200180831161038057829003601f168201915b50505050508282815181106103b5576103b4612942565b5b6020026020010151600001819052506000856040516103d49190612643565b90815260200160405180910390206002016000828152602001908152602001600020600101805461040490612689565b80601f016020809104026020016040519081016040528092919081815260200182805461043090612689565b801561047d5780601f106104525761010080835404028352916020019161047d565b820191906000526020600020905b81548152906001019060200180831161046057829003601f168201915b505050505082828151811061049557610494612942565b5b60200260200101516020018190525080806104af906129a0565b9150506102bb565b506000846040516104c89190612643565b908152602001604051809103902060030154915060008267ffffffffffffffff8111156104f8576104f7611a03565b5b60405190808252806020026020018201604052801561053157816020015b61051e6119bf565b8152602001906001900390816105165790505b50905060005b6000866040516105479190612643565b908152602001604051809103902060030154811015610976576000866040516105709190612643565b9081526020016040518091039020600401600082815260200190815260200160002060000180546105a090612689565b80601f01602080910402602001604051908101604052809291908181526020018280546105cc90612689565b80156106195780601f106105ee57610100808354040283529160200191610619565b820191906000526020600020905b8154815290600101906020018083116105fc57829003601f168201915b505050505082828151811061063157610630612942565b5b6020026020010151600001819052506000866040516106509190612643565b908152602001604051809103902060040160008281526020019081526020016000206001015467ffffffffffffffff81111561068f5761068e611a03565b5b6040519080825280602002602001820160405280156106c857816020015b6106b56119a5565b8152602001906001900390816106ad5790505b508282815181106106dc576106db612942565b5b60200260200101516020018190525060005b6000876040516106fe9190612643565b90815260200160405180910390206004016000838152602001908152602001600020600101548110156109625760008760405161073b9190612643565b908152602001604051809103902060040160008381526020019081526020016000206002016000828152602001908152602001600020600001805461077f90612689565b80601f01602080910402602001604051908101604052809291908181526020018280546107ab90612689565b80156107f85780601f106107cd576101008083540402835291602001916107f8565b820191906000526020600020905b8154815290600101906020018083116107db57829003601f168201915b50505050508383815181106108105761080f612942565b5b602002602001015160200151828151811061082e5761082d612942565b5b60200260200101516000018190525060008760405161084d9190612643565b908152602001604051809103902060040160008381526020019081526020016000206002016000828152602001908152602001600020600101805461089190612689565b80601f01602080910402602001604051908101604052809291908181526020018280546108bd90612689565b801561090a5780601f106108df5761010080835404028352916020019161090a565b820191906000526020600020905b8154815290600101906020018083116108ed57829003601f168201915b505050505083838151811061092257610921612942565b5b60200260200101516020015182815181106109405761093f612942565b5b602002602001015160200181905250808061095a906129a0565b9150506106ee565b50808061096e906129a0565b915050610537565b506040518060600160405280868152602001838152602001828152509350505050919050565b6109a46119bf565b6000600167ffffffffffffffff8111156109c1576109c0611a03565b5b6040519080825280602002602001820160405280156109fa57816020015b6109e76119bf565b8152602001906001900390816109df5790505b50905060005b600085604051610a109190612643565b908152602001604051809103902060030154811015610e5357610af0600086604051610a3c9190612643565b908152602001604051809103902060040160008381526020019081526020016000206000018054610a6c90612689565b80601f0160208091040260200160405190810160405280929190818152602001828054610a9890612689565b8015610ae55780601f10610aba57610100808354040283529160200191610ae5565b820191906000526020600020905b815481529060010190602001808311610ac857829003601f168201915b505050505085611780565b15610e40578382600081518110610b0a57610b09612942565b5b602002602001015160000181905250600085604051610b299190612643565b908152602001604051809103902060040160008281526020019081526020016000206001015467ffffffffffffffff811115610b6857610b67611a03565b5b604051908082528060200260200182016040528015610ba157816020015b610b8e6119a5565b815260200190600190039081610b865790505b5082600081518110610bb657610bb5612942565b5b60200260200101516020018190525060005b600086604051610bd89190612643565b9081526020016040518091039020600401600083815260200190815260200160002060010154811015610e3e57600086604051610c159190612643565b9081526020016040518091039020600401600083815260200190815260200160002060020160008281526020019081526020016000206000018054610c5990612689565b80601f0160208091040260200160405190810160405280929190818152602001828054610c8590612689565b8015610cd25780601f10610ca757610100808354040283529160200191610cd2565b820191906000526020600020905b815481529060010190602001808311610cb557829003601f168201915b505050505083600081518110610ceb57610cea612942565b5b6020026020010151602001518281518110610d0957610d08612942565b5b602002602001015160000181905250600086604051610d289190612643565b9081526020016040518091039020600401600083815260200190815260200160002060020160008281526020019081526020016000206001018054610d6c90612689565b80601f0160208091040260200160405190810160405280929190818152602001828054610d9890612689565b8015610de55780601f10610dba57610100808354040283529160200191610de5565b820191906000526020600020905b815481529060010190602001808311610dc857829003601f168201915b505050505083600081518110610dfe57610dfd612942565b5b6020026020010151602001518281518110610e1c57610e1b612942565b5b6020026020010151602001819052508080610e36906129a0565b915050610bc8565b505b8080610e4b906129a0565b915050610a00565b5080600081518110610e6857610e67612942565b5b602002602001015191505092915050565b60606000825167ffffffffffffffff811115610e9857610e97611a03565b5b604051908082528060200260200182016040528015610ed157816020015b610ebe6119a5565b815260200190600190039081610eb65790505b50905060005b83518110156111e35760005b600086604051610ef39190612643565b9081526020016040518091039020600101548110156111cf57610ff1600087604051610f1f9190612643565b908152602001604051809103902060020160008381526020019081526020016000206000018054610f4f90612689565b80601f0160208091040260200160405190810160405280929190818152602001828054610f7b90612689565b8015610fc85780601f10610f9d57610100808354040283529160200191610fc8565b820191906000526020600020905b815481529060010190602001808311610fab57829003601f168201915b5050505050868481518110610fe057610fdf612942565b5b602002602001015160000151611780565b156111bb576000866040516110069190612643565b90815260200160405180910390206002016000828152602001908152602001600020600001805461103690612689565b80601f016020809104026020016040519081016040528092919081815260200182805461106290612689565b80156110af5780601f10611084576101008083540402835291602001916110af565b820191906000526020600020905b81548152906001019060200180831161109257829003601f168201915b50505050508383815181106110c7576110c6612942565b5b6020026020010151600001819052506000866040516110e69190612643565b90815260200160405180910390206002016000828152602001908152602001600020600101805461111690612689565b80601f016020809104026020016040519081016040528092919081815260200182805461114290612689565b801561118f5780601f106111645761010080835404028352916020019161118f565b820191906000526020600020905b81548152906001019060200180831161117257829003601f168201915b50505050508383815181106111a7576111a6612942565b5b6020026020010151602001819052506111bc565b5b80806111c7906129a0565b915050610ee3565b5080806111db906129a0565b915050610ed7565b508091505092915050565b60005b815181101561146d577fffffffffffffffffffffffffffffffffffffffffffffffffffffffffffffffff82828151811061122e5761122d612942565b5b6020026020010151602001511461133257600082828151811061125457611253612942565b5b602002602001015160200151905082828151811061127557611274612942565b5b602002602001015160000151600001516000856040516112959190612643565b9081526020016040518091039020600201600083815260200190815260200160002060000190816112c69190612870565b508282815181106112da576112d9612942565b5b602002602001015160000151602001516000856040516112fa9190612643565b90815260200160405180910390206002016000838152602001908152602001600020600101908161132b9190612870565b505061145a565b600080846040516113439190612643565b90815260200160405180910390206001015490506000846040516113679190612643565b90815260200160405180910390206001016000815480929190611389906129a0565b91905055508282815181106113a1576113a0612942565b5b602002602001015160000151600001516000856040516113c19190612643565b9081526020016040518091039020600201600083815260200190815260200160002060000190816113f29190612870565b5082828151811061140657611405612942565b5b602002602001015160000151602001516000856040516114269190612643565b9081526020016040518091039020600201600083815260200190815260200160002060010190816114579190612870565b50505b8080611465906129a0565b9150506111f1565b505050565b60005b815181101561177b577fffffffffffffffffffffffffffffffffffffffffffffffffffffffffffffffff8282815181106114b2576114b1612942565b5b6020026020010151602001511461150f5761150a838383815181106114da576114d9612942565b5b6020026020010151602001518484815181106114f9576114f8612942565b5b6020026020010151604001516117ab565b611768565b600080846040516115209190612643565b90815260200160405180910390206003016000815480929190611542906129a0565b91905055905082828151811061155b5761155a612942565b5b6020026020010151600001516000856040516115779190612643565b9081526020016040518091039020600401600083815260200190815260200160002060000190816115a89190612870565b508282815181106115bc576115bb612942565b5b602002602001015160400151516000856040516115d99190612643565b908152602001604051809103902060040160008381526020019081526020016000206001018190555060005b83838151811061161857611617612942565b5b602002602001015160400151518110156117655783838151811061163f5761163e612942565b5b602002602001015160400151818151811061165d5761165c612942565b5b6020026020010151600001516000866040516116799190612643565b90815260200160405180910390206004016000848152602001908152602001600020600201600083815260200190815260200160002060000190816116be9190612870565b508383815181106116d2576116d1612942565b5b60200260200101516040015181815181106116f0576116ef612942565b5b60200260200101516020015160008660405161170c9190612643565b90815260200160405180910390206004016000848152602001908152602001600020600201600083815260200190815260200160002060010190816117519190612870565b50808061175d906129a0565b915050611605565b50505b8080611773906129a0565b915050611475565b505050565b600081805190602001208380519060200120036117a057600190506117a5565b600090505b92915050565b60005b815181101561197e5760005b6000856040516117ca9190612643565b90815260200160405180910390206001015481101561196a576118dc6000866040516117f69190612643565b908152602001604051809103902060040160008681526020019081526020016000206002016000838152602001908152602001600020600001805461183a90612689565b80601f016020809104026020016040519081016040528092919081815260200182805461186690612689565b80156118b35780601f10611888576101008083540402835291602001916118b3565b820191906000526020600020905b81548152906001019060200180831161189657829003601f168201915b50505050508484815181106118cb576118ca612942565b5b602002602001015160000151611780565b15611957578282815181106118f4576118f3612942565b5b6020026020010151602001516000866040516119109190612643565b90815260200160405180910390206004016000868152602001908152602001600020600201600083815260200190815260200160002060010190816119559190612870565b505b8080611962906129a0565b9150506117ba565b508080611976906129a0565b9150506117ae565b50505050565b60405180606001604052806060815260200160608152602001606081525090565b604051806040016040528060608152602001606081525090565b604051806040016040528060608152602001606081525090565b6000604051905090565b600080fd5b600080fd5b600080fd5b6000601f19601f8301169050919050565b7f4e487b7100000000000000000000000000000000000000000000000000000000600052604160045260246000fd5b611a3b826119f2565b810181811067ffffffffffffffff82111715611a5a57611a59611a03565b5b80604052505050565b6000611a6d6119d9565b9050611a798282611a32565b919050565b600080fd5b600080fd5b600080fd5b600067ffffffffffffffff821115611aa857611aa7611a03565b5b611ab1826119f2565b9050602081019050919050565b82818337600083830152505050565b6000611ae0611adb84611a8d565b611a63565b905082815260208101848484011115611afc57611afb611a88565b5b611b07848285611abe565b509392505050565b600082601f830112611b2457611b23611a83565b5b8135611b34848260208601611acd565b91505092915050565b600067ffffffffffffffff821115611b5857611b57611a03565b5b602082029050602081019050919050565b600080fd5b600060408284031215611b8457611b836119ed565b5b611b8e6040611a63565b9050600082013567ffffffffffffffff811115611bae57611bad611a7e565b5b611bba84828501611b0f565b600083015250602082013567ffffffffffffffff811115611bde57611bdd611a7e565b5b611bea84828501611b0f565b60208301525092915050565b6000819050919050565b611c0981611bf6565b8114611c1457600080fd5b50565b600081359050611c2681611c00565b92915050565b600060408284031215611c4257611c416119ed565b5b611c4c6040611a63565b9050600082013567ffffffffffffffff811115611c6c57611c6b611a7e565b5b611c7884828501611b6e565b6000830152506020611c8c84828501611c17565b60208301525092915050565b6000611cab611ca684611b3d565b611a63565b90508083825260208201905060208402830185811115611cce57611ccd611b69565b5b835b81811015611d1557803567ffffffffffffffff811115611cf357611cf2611a83565b5b808601611d008982611c2c565b85526020850194505050602081019050611cd0565b5050509392505050565b600082601f830112611d3457611d33611a83565b5b8135611d44848260208601611c98565b91505092915050565b600067ffffffffffffffff821115611d6857611d67611a03565b5b602082029050602081019050919050565b600067ffffffffffffffff821115611d9457611d93611a03565b5b602082029050602081019050919050565b6000611db8611db384611d79565b611a63565b90508083825260208201905060208402830185811115611ddb57611dda611b69565b5b835b81811015611e2257803567ffffffffffffffff811115611e0057611dff611a83565b5b808601611e0d8982611b6e565b85526020850194505050602081019050611ddd565b5050509392505050565b600082601f830112611e4157611e40611a83565b5b8135611e51848260208601611da5565b91505092915050565b600060608284031215611e7057611e6f6119ed565b5b611e7a6060611a63565b9050600082013567ffffffffffffffff811115611e9a57611e99611a7e565b5b611ea684828501611b0f565b6000830152506020611eba84828501611c17565b602083015250604082013567ffffffffffffffff811115611ede57611edd611a7e565b5b611eea84828501611e2c565b60408301525092915050565b6000611f09611f0484611d4d565b611a63565b90508083825260208201905060208402830185811115611f2c57611f2b611b69565b5b835b81811015611f7357803567ffffffffffffffff811115611f5157611f50611a83565b5b808601611f5e8982611e5a565b85526020850194505050602081019050611f2e565b5050509392505050565b600082601f830112611f9257611f91611a83565b5b8135611fa2848260208601611ef6565b91505092915050565b600060608284031215611fc157611fc06119ed565b5b611fcb6060611a63565b9050600082013567ffffffffffffffff811115611feb57611fea611a7e565b5b611ff784828501611b0f565b600083015250602082013567ffffffffffffffff81111561201b5761201a611a7e565b5b61202784828501611d1f565b602083015250604082013567ffffffffffffffff81111561204b5761204a611a7e565b5b61205784828501611f7d565b60408301525092915050565b600060208284031215612079576120786119e3565b5b600082013567ffffffffffffffff811115612097576120966119e8565b5b6120a384828501611fab565b91505092915050565b6000602082840312156120c2576120c16119e3565b5b600082013567ffffffffffffffff8111156120e0576120df6119e8565b5b6120ec84828501611b0f565b91505092915050565b600081519050919050565b600082825260208201905092915050565b60005b8381101561212f578082015181840152602081019050612114565b8381111561213e576000848401525b50505050565b600061214f826120f5565b6121598185612100565b9350612169818560208601612111565b612172816119f2565b840191505092915050565b600081519050919050565b600082825260208201905092915050565b6000819050602082019050919050565b600060408301600083015184820360008601526121c68282612144565b915050602083015184820360208601526121e08282612144565b9150508091505092915050565b60006121f983836121a9565b905092915050565b6000602082019050919050565b60006122198261217d565b6122238185612188565b93508360208202850161223585612199565b8060005b85811015612271578484038952815161225285826121ed565b945061225d83612201565b925060208a01995050600181019050612239565b50829750879550505050505092915050565b600081519050919050565b600082825260208201905092915050565b6000819050602082019050919050565b600060408301600083015184820360008601526122cc8282612144565b915050602083015184820360208601526122e6828261220e565b9150508091505092915050565b60006122ff83836122af565b905092915050565b6000602082019050919050565b600061231f82612283565b612329818561228e565b93508360208202850161233b8561229f565b8060005b85811015612377578484038952815161235885826122f3565b945061236383612307565b925060208a0199505060018101905061233f565b50829750879550505050505092915050565b600060608301600083015184820360008601526123a68282612144565b915050602083015184820360208601526123c0828261220e565b915050604083015184820360408601526123da8282612314565b9150508091505092915050565b600060208201905081810360008301526124018184612389565b905092915050565b600080604083850312156124205761241f6119e3565b5b600083013567ffffffffffffffff81111561243e5761243d6119e8565b5b61244a85828601611b0f565b925050602083013567ffffffffffffffff81111561246b5761246a6119e8565b5b61247785828601611b0f565b9150509250929050565b6000604083016000830151848203600086015261249e8282612144565b915050602083015184820360208601526124b8828261220e565b9150508091505092915050565b600060208201905081810360008301526124df8184612481565b905092915050565b600080604083850312156124fe576124fd6119e3565b5b600083013567ffffffffffffffff81111561251c5761251b6119e8565b5b61252885828601611b0f565b925050602083013567ffffffffffffffff811115612549576125486119e8565b5b61255585828601611e2c565b9150509250929050565b600082825260208201905092915050565b600061257b8261217d565b612585818561255f565b93508360208202850161259785612199565b8060005b858110156125d357848403895281516125b485826121ed565b94506125bf83612201565b925060208a0199505060018101905061259b565b50829750879550505050505092915050565b600060208201905081810360008301526125ff8184612570565b905092915050565b600081905092915050565b600061261d826120f5565b6126278185612607565b9350612637818560208601612111565b80840191505092915050565b600061264f8284612612565b915081905092915050565b7f4e487b7100000000000000000000000000000000000000000000000000000000600052602260045260246000fd5b600060028204905060018216806126a157607f821691505b6020821081036126b4576126b361265a565b5b50919050565b60008190508160005260206000209050919050565b60006020601f8301049050919050565b600082821b905092915050565b60006008830261271c7fffffffffffffffffffffffffffffffffffffffffffffffffffffffffffffffff826126df565b61272686836126df565b95508019841693508086168417925050509392505050565b6000819050919050565b6000819050919050565b600061276d6127686127638461273e565b612748565b61273e565b9050919050565b6000819050919050565b61278783612752565b61279b61279382612774565b8484546126ec565b825550505050565b600090565b6127b06127a3565b6127bb81848461277e565b505050565b5b818110156127df576127d46000826127a8565b6001810190506127c1565b5050565b601f821115612824576127f5816126ba565b6127fe846126cf565b8101602085101561280d578190505b612821612819856126cf565b8301826127c0565b50505b505050565b600082821c905092915050565b600061284760001984600802612829565b1980831691505092915050565b60006128608383612836565b9150826002028217905092915050565b612879826120f5565b67ffffffffffffffff81111561289257612891611a03565b5b61289c8254612689565b6128a78282856127e3565b600060209050601f8311600181146128da57600084156128c8578287015190505b6128d28582612854565b86555061293a565b601f1984166128e8866126ba565b60005b82811015612910578489015182556001820191506020850194506020810190506128eb565b8683101561292d5784890151612929601f891682612836565b8355505b6001600288020188555050505b505050505050565b7f4e487b7100000000000000000000000000000000000000000000000000000000600052603260045260246000fd5b7f4e487b7100000000000000000000000000000000000000000000000000000000600052601160045260246000fd5b60006129ab8261273e565b91507fffffffffffffffffffffffffffffffffffffffffffffffffffffffffffffffff82036129dd576129dc612971565b5b60018201905091905056fea2646970667358221220279a9c65d05bc9cb3d50ade00d7429d38791503934673e74d7d531f60af8ede564736f6c634300080f0033",
  "immutableReferences": {},
  "source": "pragma solidity >=0.8.9;\r\n\r\n//SPDX-License-Identifier: UNLICENSED\r\n\r\ncontract UserDataContract {\r\n\r\n    /*\r\n    * ============================================== USER DATA SUBSECTION ==============================================\r\n    */ \r\n\r\n    /* Attributes stored in UserData and Credential. */\r\n    struct Attribute {\r\n        string name;\r\n        string value;\r\n    }\r\n\r\n    /* Credential consisting of attributes and an organization name. */\r\n    struct Credential {\r\n        string organization;\r\n        uint attributeCount;\r\n        mapping (uint => Attribute) attributes;\r\n    }\r\n\r\n    /* UserData is where the bulk of user's data will be stored using Credential and Attribute. */\r\n    struct UserData {\r\n        string id;\r\n\r\n        uint attributeCount;\r\n        mapping (uint => Attribute) attributes;\r\n\r\n        uint credentialCount;\r\n        mapping (uint => Credential) credentials;\r\n\r\n        uint transactionRequestCount;\r\n        mapping (uint => TransactionRequest) transactionRequests;\r\n\r\n        uint credentialRequestCount;\r\n        mapping (uint => CredentialRequest) credentialRequests;\r\n    }\r\n\r\n    /* What will be returned in place of a Credential struct. */\r\n    struct CredentialResponse {\r\n        string organization;\r\n        Attribute[] attributes;\r\n    }\r\n\r\n    /* What will be returned in place of a UserData struct. */\r\n    struct UserDataResponse{\r\n        string id;\r\n        Attribute[] attributes;\r\n        CredentialResponse[] credentials;\r\n    }\r\n\r\n    /* Received in paramets to update attributes, this improves gas usage by knowing when to insert and when to update. */\r\n    struct AttributeUpdate {\r\n        Attribute attribute;\r\n        int index;\r\n    }\r\n\r\n    /* Received in paramets to update credentials, this improves gas usage by knowing when to insert and when to update */\r\n    struct CredentialUpdate {\r\n        string organization;\r\n        int index;\r\n        Attribute[] attributes;\r\n    }\r\n\r\n    /* Single functions for update to test integration methods */\r\n    struct Update {\r\n        string id;\r\n        AttributeUpdate[] attributes;\r\n        CredentialUpdate[] credentials;\r\n    }\r\n\r\n    /* All stored user's data can be accessed through the allUserData attribute. */\r\n    mapping (string => UserData) allUserData;\r\n\r\n    /* Initialize a new user's storage data. */\r\n    function createUser(string memory _id) public {\r\n        allUserData[_id].id = _id;\r\n        allUserData[_id].attributeCount = 0;\r\n        allUserData[_id].credentialCount = 0;\r\n        allUserData[_id].transactionRequestCount = 0;\r\n        allUserData[_id].credentialRequestCount = 0;\r\n    }\r\n\r\n    /* Add and Update UserData by id. */\r\n    function updateUser(Update memory update) public {\r\n        \r\n        //add/update all new attributes\r\n        if (update.attributes.length > 0) updateAttributes(update.id, update.attributes);\r\n\r\n        //add and update all new credentials\r\n        if (update.credentials.length > 0) updateCredentials(update.id, update.credentials);\r\n\r\n    }\r\n\r\n    /* Returns the enitre UserData for the specified id. */\r\n    function getUserData(string memory _id) public view returns (UserDataResponse memory) {\r\n        \r\n        //Create Attribute array\r\n        uint size = allUserData[_id].attributeCount;\r\n        Attribute[] memory attrs = new Attribute[](size);\r\n        \r\n        for (uint i=0; i<allUserData[_id].attributeCount; i++) {\r\n            attrs[i].name = allUserData[_id].attributes[i].name;\r\n            attrs[i].value = allUserData[_id].attributes[i].value;\r\n        }\r\n\r\n        //Create Attribute arrays for Credential arrays\r\n        size = allUserData[_id].credentialCount;\r\n        CredentialResponse[] memory creds = new CredentialResponse[](size);\r\n\r\n        for (uint i=0; i<allUserData[_id].credentialCount; i++) {\r\n\r\n            creds[i].organization = allUserData[_id].credentials[i].organization;\r\n            creds[i].attributes = new Attribute[](allUserData[_id].credentials[i].attributeCount);\r\n\r\n            for (uint k=0; k<allUserData[_id].credentials[i].attributeCount; k++) {\r\n                creds[i].attributes[k].name = allUserData[_id].credentials[i].attributes[k].name;\r\n                creds[i].attributes[k].value = allUserData[_id].credentials[i].attributes[k].value;\r\n            }\r\n        }\r\n\r\n        //Create UserDataResponse\r\n        return (UserDataResponse({\r\n            id: _id,\r\n            attributes: attrs,\r\n            credentials: creds\r\n        }));\r\n    }\r\n\r\n    /* Updates the relevant attributes for the appropriate credentials. */\r\n    function updateCredentials(string memory _id, CredentialUpdate[] memory credentials) private {\r\n\r\n        for (uint i=0; i<credentials.length; i++) {\r\n\r\n            //update existing credentials\r\n            if (credentials[i].index != -1) {\r\n                updateCredentialAttributes(_id, uint(credentials[i].index), credentials[i].attributes);\r\n                continue;\r\n            }\r\n\r\n            //insert new credentials\r\n            uint index = allUserData[_id].credentialCount++;\r\n            allUserData[_id].credentials[index].organization = credentials[i].organization;\r\n            allUserData[_id].credentials[index].attributeCount = credentials[i].attributes.length;\r\n\r\n            for (uint k=0; k<credentials[i].attributes.length; k++) {\r\n                allUserData[_id].credentials[index].attributes[k].name = credentials[i].attributes[k].name;\r\n                allUserData[_id].credentials[index].attributes[k].value = credentials[i].attributes[k].value;\r\n            }\r\n        }   \r\n\r\n    }\r\n\r\n    /* Updates relevant Attributes for specified credential and organization in storage. */\r\n    function updateCredentialAttributes(string memory _id, uint org, Attribute[] memory attributes) private {\r\n        \r\n        for (uint i=0; i<attributes.length; i++) {\r\n            for (uint k=0; k<allUserData[_id].attributeCount; k++) {\r\n                if (stringCompare(allUserData[_id].credentials[org].attributes[k].name, attributes[i].name)) {\r\n                    allUserData[_id].credentials[org].attributes[k].value = attributes[i].value;\r\n                }\r\n            }\r\n        }\r\n    }\r\n\r\n    /* Updates relevant Attribute values in storage. */\r\n    function updateAttributes(string memory _id, AttributeUpdate[] memory attributes) private {\r\n        \r\n        for (uint i=0; i<attributes.length; i++) {\r\n\r\n            //update existing attribute\r\n            if (attributes[i].index != -1) {\r\n                uint k = uint(attributes[i].index);\r\n                allUserData[_id].attributes[k].name = attributes[i].attribute.name;\r\n                allUserData[_id].attributes[k].value = attributes[i].attribute.value;\r\n                continue;\r\n            }\r\n\r\n            //add new attribute\r\n            uint index = allUserData[_id].attributeCount;\r\n            allUserData[_id].attributeCount++;\r\n            allUserData[_id].attributes[index].name = attributes[i].attribute.name;\r\n            allUserData[_id].attributes[index].value = attributes[i].attribute.value;\r\n        }\r\n\r\n    }\r\n\r\n    /*\r\n    * ============================================== TRANSACTION SUBSECTION ==============================================\r\n    */ \r\n\r\n    /* Data to describe transaction information. */\r\n    struct TransactionStamp {\r\n        string fromID;\r\n        string date;\r\n        string message;\r\n    }\r\n\r\n    /* Request to get Attribute data from a user. */\r\n    struct TransactionRequest {\r\n        string[] attributes;\r\n        TransactionStamp stamp;\r\n    }\r\n\r\n    /* Request to get Credential data from a user. */\r\n    struct CredentialRequest {\r\n        string organization;\r\n        TransactionStamp stamp;\r\n    }\r\n\r\n    /* Returns the desired attributes for requested data. */\r\n    function getAttributesTransaction(string memory _id, Attribute[] memory attributes) public view returns (Attribute[] memory) {\r\n\r\n        Attribute[] memory res = new Attribute[](attributes.length);\r\n\r\n        for (uint i=0; i<attributes.length; i++) {\r\n            for (uint k=0; k<allUserData[_id].attributeCount; k++) {\r\n                if (stringCompare(allUserData[_id].attributes[k].name, attributes[i].name)) {\r\n                    res[i].name = allUserData[_id].attributes[k].name;\r\n                    res[i].value = allUserData[_id].attributes[k].value;\r\n                    continue;\r\n                }\r\n            }\r\n        }\r\n\r\n        return res;\r\n    }\r\n\r\n    /* Returns the desired Credential and its associated attributes. */\r\n    function getCredentialTransaction(string memory _id, string memory organization) public view returns (CredentialResponse memory) {\r\n\r\n        CredentialResponse[] memory cred = new CredentialResponse[](1);\r\n\r\n        for (uint i=0; i<allUserData[_id].credentialCount; i++) {\r\n            if (stringCompare(allUserData[_id].credentials[i].organization, organization)) {\r\n                cred[0].organization = organization;\r\n\r\n                cred[0].attributes = new Attribute[](allUserData[_id].credentials[i].attributeCount);\r\n\r\n                for (uint k=0; k<allUserData[_id].credentials[i].attributeCount; k++) {\r\n                    cred[0].attributes[k].name = allUserData[_id].credentials[i].attributes[k].name;\r\n                    cred[0].attributes[k].value = allUserData[_id].credentials[i].attributes[k].value;\r\n                }\r\n            }\r\n        }\r\n\r\n        return cred[0];\r\n    }\r\n\r\n    /*\r\n    * ============================================== GENERAL SUBSECTION ==============================================\r\n    */ \r\n\r\n    /* Compares two strings to see if they're equal or not. */\r\n    function stringCompare(string memory a, string memory b) private pure returns (bool) {\r\n        if (keccak256(bytes(a)) == keccak256(bytes(b)))\r\n            return true;\r\n        return false;\r\n    }\r\n\r\n}",
  "sourcePath": "C:\\Users\\bbdnet2552\\Desktop\\University\\Capstone\\Repo\\Exploring-Self-Sovereign-Identity\\LocalBlockchain\\contracts\\UserDataContract.sol",
  "compiler": {
    "name": "solc",
    "version": "0.8.15+commit.e14f2714.Emscripten.clang"
  },
  "schemaVersion": "3.4.8",
  "updatedAt": "2022-08-02T15:58:23.867Z",
  "networkType": "ethereum",
  "devdoc": {
    "kind": "dev",
    "methods": {},
    "version": 1
  },
  "userdoc": {
    "kind": "user",
    "methods": {},
    "version": 1
  }
}