{
  "contractName": "UserDataContract",
  "abi": [
    {
      "inputs": [
        {
          "internalType": "string",
          "name": "_id",
          "type": "string"
        }
      ],
      "name": "createUser",
      "outputs": [],
      "stateMutability": "nonpayable",
      "type": "function"
    },
    {
      "inputs": [
        {
          "components": [
            {
              "internalType": "string",
              "name": "id",
              "type": "string"
            },
            {
              "components": [
                {
                  "components": [
                    {
                      "internalType": "string",
                      "name": "name",
                      "type": "string"
                    },
                    {
                      "internalType": "string",
                      "name": "value",
                      "type": "string"
                    }
                  ],
                  "internalType": "struct UserDataContract.Attribute",
                  "name": "attribute",
                  "type": "tuple"
                },
                {
                  "internalType": "int256",
                  "name": "index",
                  "type": "int256"
                }
              ],
              "internalType": "struct UserDataContract.AttributeUpdate[]",
              "name": "attributes",
              "type": "tuple[]"
            },
            {
              "components": [
                {
                  "internalType": "string",
                  "name": "organization",
                  "type": "string"
                },
                {
                  "internalType": "int256",
                  "name": "index",
                  "type": "int256"
                },
                {
                  "components": [
                    {
                      "internalType": "string",
                      "name": "name",
                      "type": "string"
                    },
                    {
                      "internalType": "string",
                      "name": "value",
                      "type": "string"
                    }
                  ],
                  "internalType": "struct UserDataContract.Attribute[]",
                  "name": "attributes",
                  "type": "tuple[]"
                }
              ],
              "internalType": "struct UserDataContract.CredentialUpdate[]",
              "name": "credentials",
              "type": "tuple[]"
            }
          ],
          "internalType": "struct UserDataContract.Update",
          "name": "update",
          "type": "tuple"
        }
      ],
      "name": "updateUser",
      "outputs": [],
      "stateMutability": "nonpayable",
      "type": "function"
    },
    {
      "inputs": [
        {
          "internalType": "string",
          "name": "_id",
          "type": "string"
        }
      ],
      "name": "getUserData",
      "outputs": [
        {
          "components": [
            {
              "internalType": "string",
              "name": "id",
              "type": "string"
            },
            {
              "components": [
                {
                  "internalType": "string",
                  "name": "name",
                  "type": "string"
                },
                {
                  "internalType": "string",
                  "name": "value",
                  "type": "string"
                }
              ],
              "internalType": "struct UserDataContract.Attribute[]",
              "name": "attributes",
              "type": "tuple[]"
            },
            {
              "components": [
                {
                  "internalType": "string",
                  "name": "organization",
                  "type": "string"
                },
                {
                  "components": [
                    {
                      "internalType": "string",
                      "name": "name",
                      "type": "string"
                    },
                    {
                      "internalType": "string",
                      "name": "value",
                      "type": "string"
                    }
                  ],
                  "internalType": "struct UserDataContract.Attribute[]",
                  "name": "attributes",
                  "type": "tuple[]"
                }
              ],
              "internalType": "struct UserDataContract.CredentialResponse[]",
              "name": "credentials",
              "type": "tuple[]"
            },
            {
              "components": [
                {
                  "internalType": "string[]",
                  "name": "attributes",
                  "type": "string[]"
                },
                {
                  "components": [
                    {
                      "internalType": "string",
                      "name": "fromID",
                      "type": "string"
                    },
                    {
                      "internalType": "string",
                      "name": "toID",
                      "type": "string"
                    },
                    {
                      "internalType": "string",
                      "name": "date",
                      "type": "string"
                    },
                    {
                      "internalType": "string",
                      "name": "message",
                      "type": "string"
                    },
                    {
                      "internalType": "string",
                      "name": "status",
                      "type": "string"
                    }
                  ],
                  "internalType": "struct UserDataContract.TransactionStamp",
                  "name": "stamp",
                  "type": "tuple"
                }
              ],
              "internalType": "struct UserDataContract.TransactionRequest[]",
              "name": "transactionRequests",
              "type": "tuple[]"
            },
            {
              "components": [
                {
                  "components": [
                    {
                      "internalType": "string",
                      "name": "name",
                      "type": "string"
                    },
                    {
                      "internalType": "string",
                      "name": "value",
                      "type": "string"
                    }
                  ],
                  "internalType": "struct UserDataContract.Attribute[]",
                  "name": "attributes",
                  "type": "tuple[]"
                },
                {
                  "components": [
                    {
                      "internalType": "string",
                      "name": "fromID",
                      "type": "string"
                    },
                    {
                      "internalType": "string",
                      "name": "toID",
                      "type": "string"
                    },
                    {
                      "internalType": "string",
                      "name": "date",
                      "type": "string"
                    },
                    {
                      "internalType": "string",
                      "name": "message",
                      "type": "string"
                    },
                    {
                      "internalType": "string",
                      "name": "status",
                      "type": "string"
                    }
                  ],
                  "internalType": "struct UserDataContract.TransactionStamp",
                  "name": "stamp",
                  "type": "tuple"
                }
              ],
              "internalType": "struct UserDataContract.TransactionResponse[]",
              "name": "approvedTransactions",
              "type": "tuple[]"
            }
          ],
          "internalType": "struct UserDataContract.UserDataResponse",
          "name": "",
          "type": "tuple"
        }
      ],
      "stateMutability": "view",
      "type": "function",
      "constant": true
    },
    {
      "inputs": [
        {
          "internalType": "string",
          "name": "id",
          "type": "string"
        },
        {
          "internalType": "string",
          "name": "organization",
          "type": "string"
        }
      ],
      "name": "getCredential",
      "outputs": [
        {
          "components": [
            {
              "internalType": "string",
              "name": "organization",
              "type": "string"
            },
            {
              "components": [
                {
                  "internalType": "string",
                  "name": "name",
                  "type": "string"
                },
                {
                  "internalType": "string",
                  "name": "value",
                  "type": "string"
                }
              ],
              "internalType": "struct UserDataContract.Attribute[]",
              "name": "attributes",
              "type": "tuple[]"
            }
          ],
          "internalType": "struct UserDataContract.CredentialResponse",
          "name": "",
          "type": "tuple"
        }
      ],
      "stateMutability": "view",
      "type": "function",
      "constant": true
    },
    {
      "inputs": [
        {
          "internalType": "string",
          "name": "_id",
          "type": "string"
        },
        {
          "internalType": "uint256",
          "name": "amount",
          "type": "uint256"
        }
      ],
      "name": "updateBalance",
      "outputs": [],
      "stateMutability": "nonpayable",
      "type": "function"
    },
    {
      "inputs": [
        {
          "components": [
            {
              "internalType": "string[]",
              "name": "attributes",
              "type": "string[]"
            },
            {
              "components": [
                {
                  "internalType": "string",
                  "name": "fromID",
                  "type": "string"
                },
                {
                  "internalType": "string",
                  "name": "toID",
                  "type": "string"
                },
                {
                  "internalType": "string",
                  "name": "date",
                  "type": "string"
                },
                {
                  "internalType": "string",
                  "name": "message",
                  "type": "string"
                },
                {
                  "internalType": "string",
                  "name": "status",
                  "type": "string"
                }
              ],
              "internalType": "struct UserDataContract.TransactionStamp",
              "name": "stamp",
              "type": "tuple"
            }
          ],
          "internalType": "struct UserDataContract.TransactionRequest",
          "name": "request",
          "type": "tuple"
        }
      ],
      "name": "newTransactionRequest",
      "outputs": [],
      "stateMutability": "nonpayable",
      "type": "function"
    },
    {
      "inputs": [
        {
          "internalType": "string",
          "name": "_id",
          "type": "string"
        },
        {
          "internalType": "uint256",
          "name": "index",
          "type": "uint256"
        }
      ],
      "name": "declineTransaction",
      "outputs": [],
      "stateMutability": "nonpayable",
      "type": "function"
    },
    {
      "inputs": [
        {
          "internalType": "string",
          "name": "_id",
          "type": "string"
        },
        {
          "internalType": "uint256",
          "name": "index",
          "type": "uint256"
        }
      ],
      "name": "approveTransactionStageA",
      "outputs": [],
      "stateMutability": "nonpayable",
      "type": "function"
    },
    {
      "inputs": [
        {
          "internalType": "string",
          "name": "_id",
          "type": "string"
        },
        {
          "internalType": "uint256",
          "name": "index",
          "type": "uint256"
        }
      ],
      "name": "approveTransactionStageB",
      "outputs": [
        {
          "components": [
            {
              "components": [
                {
                  "internalType": "string",
                  "name": "name",
                  "type": "string"
                },
                {
                  "internalType": "string",
                  "name": "value",
                  "type": "string"
                }
              ],
              "internalType": "struct UserDataContract.Attribute[]",
              "name": "attributes",
              "type": "tuple[]"
            },
            {
              "components": [
                {
                  "internalType": "string",
                  "name": "fromID",
                  "type": "string"
                },
                {
                  "internalType": "string",
                  "name": "toID",
                  "type": "string"
                },
                {
                  "internalType": "string",
                  "name": "date",
                  "type": "string"
                },
                {
                  "internalType": "string",
                  "name": "message",
                  "type": "string"
                },
                {
                  "internalType": "string",
                  "name": "status",
                  "type": "string"
                }
              ],
              "internalType": "struct UserDataContract.TransactionStamp",
              "name": "stamp",
              "type": "tuple"
            }
          ],
          "internalType": "struct UserDataContract.TransactionResponse",
          "name": "",
          "type": "tuple"
        }
      ],
      "stateMutability": "view",
      "type": "function",
      "constant": true
    },
    {
      "inputs": [
        {
          "internalType": "string",
          "name": "_id",
          "type": "string"
        },
        {
          "components": [
            {
              "components": [
                {
                  "internalType": "string",
                  "name": "name",
                  "type": "string"
                },
                {
                  "internalType": "string",
                  "name": "value",
                  "type": "string"
                }
              ],
              "internalType": "struct UserDataContract.Attribute[]",
              "name": "attributes",
              "type": "tuple[]"
            },
            {
              "components": [
                {
                  "internalType": "string",
                  "name": "fromID",
                  "type": "string"
                },
                {
                  "internalType": "string",
                  "name": "toID",
                  "type": "string"
                },
                {
                  "internalType": "string",
                  "name": "date",
                  "type": "string"
                },
                {
                  "internalType": "string",
                  "name": "message",
                  "type": "string"
                },
                {
                  "internalType": "string",
                  "name": "status",
                  "type": "string"
                }
              ],
              "internalType": "struct UserDataContract.TransactionStamp",
              "name": "stamp",
              "type": "tuple"
            }
          ],
          "internalType": "struct UserDataContract.TransactionResponse",
          "name": "transaction",
          "type": "tuple"
        }
      ],
      "name": "approveTransactionStageC",
      "outputs": [],
      "stateMutability": "nonpayable",
      "type": "function"
    },
    {
      "inputs": [
        {
          "internalType": "string",
          "name": "_id",
          "type": "string"
        },
        {
          "components": [
            {
              "internalType": "string",
              "name": "name",
              "type": "string"
            },
            {
              "internalType": "string",
              "name": "value",
              "type": "string"
            }
          ],
          "internalType": "struct UserDataContract.Attribute[]",
          "name": "attributes",
          "type": "tuple[]"
        }
      ],
      "name": "getAttributesTransaction",
      "outputs": [
        {
          "components": [
            {
              "internalType": "string",
              "name": "name",
              "type": "string"
            },
            {
              "internalType": "string",
              "name": "value",
              "type": "string"
            }
          ],
          "internalType": "struct UserDataContract.Attribute[]",
          "name": "",
          "type": "tuple[]"
        }
      ],
      "stateMutability": "view",
      "type": "function",
      "constant": true
    },
    {
      "inputs": [
        {
          "internalType": "string",
          "name": "_id",
          "type": "string"
        },
        {
          "internalType": "string",
          "name": "organization",
          "type": "string"
        }
      ],
      "name": "getCredentialTransaction",
      "outputs": [
        {
          "components": [
            {
              "internalType": "string",
              "name": "organization",
              "type": "string"
            },
            {
              "components": [
                {
                  "internalType": "string",
                  "name": "name",
                  "type": "string"
                },
                {
                  "internalType": "string",
                  "name": "value",
                  "type": "string"
                }
              ],
              "internalType": "struct UserDataContract.Attribute[]",
              "name": "attributes",
              "type": "tuple[]"
            }
          ],
          "internalType": "struct UserDataContract.CredentialResponse",
          "name": "",
          "type": "tuple"
        }
      ],
      "stateMutability": "view",
      "type": "function",
      "constant": true
    }
  ],
  "bytecode": "0x608060405234801561001057600080fd5b5061594580620000216000396000f3fe608060405234801561001057600080fd5b50600436106100b45760003560e01c8063870187eb11610071578063870187eb14610189578063af1a404f146101a5578063b9572975146101c1578063d4b94b0e146101f1578063d78ab46f1461020d578063fa1868ff1461023d576100b4565b806301760669146100b957806332d1b291146100d557806333d46c87146100f1578063438e644e14610121578063507ffba51461013d57806354ab240314610159575b600080fd5b6100d360048036038101906100ce91906146e8565b61026d565b005b6100ef60048036038101906100ea9190614767565b6102c3565b005b61010b600480360381019061010691906147c3565b610353565b6040516101189190614a0d565b60405180910390f35b61013b60048036038101906101369190614cb0565b610730565b005b61015760048036038101906101529190614cf9565b61074d565b005b610173600480360381019061016e9190614cf9565b6108ae565b604051610180919061523a565b60405180910390f35b6101a3600480360381019061019e9190614767565b611fa6565b005b6101bf60048036038101906101ba91906152e4565b611ff3565b005b6101db60048036038101906101d691906147c3565b61231e565b6040516101e89190614a0d565b60405180910390f35b61020b60048036038101906102069190614767565b61280c565b005b61022760048036038101906102229190614767565b61289c565b60405161023491906153a0565b60405180910390f35b610257600480360381019061025291906153c2565b612f70565b60405161026491906154c0565b60405180910390f35b6102756132f6565b61027e57600080fd5b6000816020015151111561029f5761029e816000015182602001516132ff565b5b600081604001515111156102c0576102bf81600001518260400151613583565b5b50565b6102cb6132f6565b6102d457600080fd5b6040518060400160405280600881526020017f6465636c696e656400000000000000000000000000000000000000000000000081525060008360405161031a919061551e565b90815260200160405180910390206008016000838152602001908152602001600020600201600401908161034e9190615741565b505050565b61035b613f8c565b610363613f8c565b60005b600085604051610376919061551e565b908152602001604051809103902060050154811015610724576104566000866040516103a2919061551e565b9081526020016040518091039020600601600083815260200190815260200160002060000180546103d290615564565b80601f01602080910402602001604051908101604052809291908181526020018280546103fe90615564565b801561044b5780601f106104205761010080835404028352916020019161044b565b820191906000526020600020905b81548152906001019060200180831161042e57829003601f168201915b505050505085613891565b156107115783826000018190525060008086604051610475919061551e565b9081526020016040518091039020600601600083815260200190815260200160002060010154905060008167ffffffffffffffff8111156104b9576104b8614088565b5b6040519080825280602002602001820160405280156104f257816020015b6104df613fa6565b8152602001906001900390816104d75790505b50905060005b828110156106fb57600088604051610510919061551e565b908152602001604051809103902060060160008581526020019081526020016000206002016000828152602001908152602001600020600001805461055490615564565b80601f016020809104026020016040519081016040528092919081815260200182805461058090615564565b80156105cd5780601f106105a2576101008083540402835291602001916105cd565b820191906000526020600020905b8154815290600101906020018083116105b057829003601f168201915b50505050508282815181106105e5576105e4615813565b5b602002602001015160000181905250600088604051610604919061551e565b908152602001604051809103902060060160008581526020019081526020016000206002016000828152602001908152602001600020600101805461064890615564565b80601f016020809104026020016040519081016040528092919081815260200182805461067490615564565b80156106c15780601f10610696576101008083540402835291602001916106c1565b820191906000526020600020905b8154815290600101906020018083116106a457829003601f168201915b50505050508282815181106106d9576106d8615813565b5b60200260200101516020018190525080806106f390615871565b9150506104f8565b508084602001819052508394505050505061072a565b808061071c90615871565b915050610366565b50809150505b92915050565b6107386132f6565b61074157600080fd5b61074a816138bc565b50565b6107556132f6565b61075e57600080fd5b8060008260405161076f919061551e565b9081526020016040518091039020600001908161078c9190615741565b50600160008260405161079f919061551e565b908152602001604051809103902060010160006101000a81548160ff021916908315150217905550600080826040516107d8919061551e565b908152602001604051809103902060020181905550600080826040516107fe919061551e565b90815260200160405180910390206003018190555060008082604051610824919061551e565b9081526020016040518091039020600501819055506000808260405161084a919061551e565b90815260200160405180910390206007018190555060008082604051610870919061551e565b90815260200160405180910390206009018190555060008082604051610896919061551e565b9081526020016040518091039020600b018190555050565b6108b6613fc0565b6108be6132f6565b6108c757600080fd5b600080836040516108d8919061551e565b908152602001604051809103902060030154905060008167ffffffffffffffff81111561090857610907614088565b5b60405190808252806020026020018201604052801561094157816020015b61092e613fa6565b8152602001906001900390816109265790505b50905060005b600085604051610957919061551e565b908152602001604051809103902060030154811015610b4357600085604051610980919061551e565b9081526020016040518091039020600401600082815260200190815260200160002060000180546109b090615564565b80601f01602080910402602001604051908101604052809291908181526020018280546109dc90615564565b8015610a295780601f106109fe57610100808354040283529160200191610a29565b820191906000526020600020905b815481529060010190602001808311610a0c57829003601f168201915b5050505050828281518110610a4157610a40615813565b5b602002602001015160000181905250600085604051610a60919061551e565b908152602001604051809103902060040160008281526020019081526020016000206001018054610a9090615564565b80601f0160208091040260200160405190810160405280929190818152602001828054610abc90615564565b8015610b095780601f10610ade57610100808354040283529160200191610b09565b820191906000526020600020905b815481529060010190602001808311610aec57829003601f168201915b5050505050828281518110610b2157610b20615813565b5b6020026020010151602001819052508080610b3b90615871565b915050610947565b50600084604051610b54919061551e565b908152602001604051809103902060050154915060008267ffffffffffffffff811115610b8457610b83614088565b5b604051908082528060200260200182016040528015610bbd57816020015b610baa613f8c565b815260200190600190039081610ba25790505b50905060005b600086604051610bd3919061551e565b90815260200160405180910390206005015481101561100257600086604051610bfc919061551e565b908152602001604051809103902060060160008281526020019081526020016000206000018054610c2c90615564565b80601f0160208091040260200160405190810160405280929190818152602001828054610c5890615564565b8015610ca55780601f10610c7a57610100808354040283529160200191610ca5565b820191906000526020600020905b815481529060010190602001808311610c8857829003601f168201915b5050505050828281518110610cbd57610cbc615813565b5b602002602001015160000181905250600086604051610cdc919061551e565b908152602001604051809103902060060160008281526020019081526020016000206001015467ffffffffffffffff811115610d1b57610d1a614088565b5b604051908082528060200260200182016040528015610d5457816020015b610d41613fa6565b815260200190600190039081610d395790505b50828281518110610d6857610d67615813565b5b60200260200101516020018190525060005b600087604051610d8a919061551e565b9081526020016040518091039020600601600083815260200190815260200160002060010154811015610fee57600087604051610dc7919061551e565b9081526020016040518091039020600601600083815260200190815260200160002060020160008281526020019081526020016000206000018054610e0b90615564565b80601f0160208091040260200160405190810160405280929190818152602001828054610e3790615564565b8015610e845780601f10610e5957610100808354040283529160200191610e84565b820191906000526020600020905b815481529060010190602001808311610e6757829003601f168201915b5050505050838381518110610e9c57610e9b615813565b5b6020026020010151602001518281518110610eba57610eb9615813565b5b602002602001015160000181905250600087604051610ed9919061551e565b9081526020016040518091039020600601600083815260200190815260200160002060020160008281526020019081526020016000206001018054610f1d90615564565b80601f0160208091040260200160405190810160405280929190818152602001828054610f4990615564565b8015610f965780601f10610f6b57610100808354040283529160200191610f96565b820191906000526020600020905b815481529060010190602001808311610f7957829003601f168201915b5050505050838381518110610fae57610fad615813565b5b6020026020010151602001518281518110610fcc57610fcb615813565b5b6020026020010151602001819052508080610fe690615871565b915050610d7a565b508080610ffa90615871565b915050610bc3565b50600085604051611013919061551e565b908152602001604051809103902060070154925060008086604051611038919061551e565b90815260200160405180910390206007015467ffffffffffffffff81111561106357611062614088565b5b60405190808252806020026020018201604052801561109c57816020015b611089613fef565b8152602001906001900390816110815790505b50905060005b84811015611714576000876040516110ba919061551e565b9081526020016040518091039020600801600082815260200190815260200160002060020160010180546110ed90615564565b80601f016020809104026020016040519081016040528092919081815260200182805461111990615564565b80156111665780601f1061113b57610100808354040283529160200191611166565b820191906000526020600020905b81548152906001019060200180831161114957829003601f168201915b505050505082828151811061117e5761117d615813565b5b602002602001015160200151602001819052506000876040516111a1919061551e565b9081526020016040518091039020600801600082815260200190815260200160002060020160000180546111d490615564565b80601f016020809104026020016040519081016040528092919081815260200182805461120090615564565b801561124d5780601f106112225761010080835404028352916020019161124d565b820191906000526020600020905b81548152906001019060200180831161123057829003601f168201915b505050505082828151811061126557611264615813565b5b60200260200101516020015160000181905250600087604051611288919061551e565b9081526020016040518091039020600801600082815260200190815260200160002060020160030180546112bb90615564565b80601f01602080910402602001604051908101604052809291908181526020018280546112e790615564565b80156113345780601f1061130957610100808354040283529160200191611334565b820191906000526020600020905b81548152906001019060200180831161131757829003601f168201915b505050505082828151811061134c5761134b615813565b5b6020026020010151602001516060018190525060008760405161136f919061551e565b9081526020016040518091039020600801600082815260200190815260200160002060020160020180546113a290615564565b80601f01602080910402602001604051908101604052809291908181526020018280546113ce90615564565b801561141b5780601f106113f05761010080835404028352916020019161141b565b820191906000526020600020905b8154815290600101906020018083116113fe57829003601f168201915b505050505082828151811061143357611432615813565b5b60200260200101516020015160400181905250600087604051611456919061551e565b90815260200160405180910390206008016000828152602001908152602001600020600201600401805461148990615564565b80601f01602080910402602001604051908101604052809291908181526020018280546114b590615564565b80156115025780601f106114d757610100808354040283529160200191611502565b820191906000526020600020905b8154815290600101906020018083116114e557829003601f168201915b505050505082828151811061151a57611519615813565b5b602002602001015160200151608001819052506000808860405161153e919061551e565b908152602001604051809103902060080160008381526020019081526020016000206000015490508067ffffffffffffffff8111156115805761157f614088565b5b6040519080825280602002602001820160405280156115b357816020015b606081526020019060019003908161159e5790505b508383815181106115c7576115c6615813565b5b60200260200101516000018190525060005b818110156116ff576000896040516115f1919061551e565b908152602001604051809103902060080160008481526020019081526020016000206001016000828152602001908152602001600020805461163290615564565b80601f016020809104026020016040519081016040528092919081815260200182805461165e90615564565b80156116ab5780601f10611680576101008083540402835291602001916116ab565b820191906000526020600020905b81548152906001019060200180831161168e57829003601f168201915b50505050508484815181106116c3576116c2615813565b5b60200260200101516000015182815181106116e1576116e0615813565b5b602002602001018190525080806116f790615871565b9150506115d9565b5050808061170c90615871565b9150506110a2565b50600086604051611725919061551e565b908152602001604051809103902060090154935060008467ffffffffffffffff81111561175557611754614088565b5b60405190808252806020026020018201604052801561178e57816020015b61177b61400f565b8152602001906001900390816117735790505b50905060005b85811015611f25576000886040516117ac919061551e565b9081526020016040518091039020600a01600082815260200190815260200160002060020160010180546117df90615564565b80601f016020809104026020016040519081016040528092919081815260200182805461180b90615564565b80156118585780601f1061182d57610100808354040283529160200191611858565b820191906000526020600020905b81548152906001019060200180831161183b57829003601f168201915b50505050508282815181106118705761186f615813565b5b60200260200101516020015160200181905250600088604051611893919061551e565b9081526020016040518091039020600a01600082815260200190815260200160002060020160000180546118c690615564565b80601f01602080910402602001604051908101604052809291908181526020018280546118f290615564565b801561193f5780601f106119145761010080835404028352916020019161193f565b820191906000526020600020905b81548152906001019060200180831161192257829003601f168201915b505050505082828151811061195757611956615813565b5b6020026020010151602001516000018190525060008860405161197a919061551e565b9081526020016040518091039020600a01600082815260200190815260200160002060020160030180546119ad90615564565b80601f01602080910402602001604051908101604052809291908181526020018280546119d990615564565b8015611a265780601f106119fb57610100808354040283529160200191611a26565b820191906000526020600020905b815481529060010190602001808311611a0957829003601f168201915b5050505050828281518110611a3e57611a3d615813565b5b60200260200101516020015160600181905250600088604051611a61919061551e565b9081526020016040518091039020600a0160008281526020019081526020016000206002016002018054611a9490615564565b80601f0160208091040260200160405190810160405280929190818152602001828054611ac090615564565b8015611b0d5780601f10611ae257610100808354040283529160200191611b0d565b820191906000526020600020905b815481529060010190602001808311611af057829003601f168201915b5050505050828281518110611b2557611b24615813565b5b60200260200101516020015160400181905250600088604051611b48919061551e565b9081526020016040518091039020600a0160008281526020019081526020016000206002016004018054611b7b90615564565b80601f0160208091040260200160405190810160405280929190818152602001828054611ba790615564565b8015611bf45780601f10611bc957610100808354040283529160200191611bf4565b820191906000526020600020905b815481529060010190602001808311611bd757829003601f168201915b5050505050828281518110611c0c57611c0b615813565b5b6020026020010151602001516080018190525060008089604051611c30919061551e565b9081526020016040518091039020600a0160008381526020019081526020016000206000015490508067ffffffffffffffff811115611c7257611c71614088565b5b604051908082528060200260200182016040528015611cab57816020015b611c98613fa6565b815260200190600190039081611c905790505b50838381518110611cbf57611cbe615813565b5b60200260200101516000018190525060005b81811015611f105760008a604051611ce9919061551e565b9081526020016040518091039020600a01600084815260200190815260200160002060010160008281526020019081526020016000206000018054611d2d90615564565b80601f0160208091040260200160405190810160405280929190818152602001828054611d5990615564565b8015611da65780601f10611d7b57610100808354040283529160200191611da6565b820191906000526020600020905b815481529060010190602001808311611d8957829003601f168201915b5050505050848481518110611dbe57611dbd615813565b5b6020026020010151600001518281518110611ddc57611ddb615813565b5b60200260200101516000018190525060008a604051611dfb919061551e565b9081526020016040518091039020600a01600084815260200190815260200160002060010160008281526020019081526020016000206001018054611e3f90615564565b80601f0160208091040260200160405190810160405280929190818152602001828054611e6b90615564565b8015611eb85780601f10611e8d57610100808354040283529160200191611eb8565b820191906000526020600020905b815481529060010190602001808311611e9b57829003601f168201915b5050505050848481518110611ed057611ecf615813565b5b6020026020010151600001518281518110611eee57611eed615813565b5b6020026020010151602001819052508080611f0890615871565b915050611cd1565b50508080611f1d90615871565b915050611794565b506000604051806020016040528060008152509050600088604051611f4a919061551e565b908152602001604051809103902060010160009054906101000a900460ff1615611f72578790505b6040518060a00160405280828152602001868152602001858152602001848152602001838152509650505050505050919050565b611fae6132f6565b611fb757600080fd5b80600083604051611fc8919061551e565b90815260200160405180910390206002016000828254611fe891906158b9565b925050819055505050565b611ffb6132f6565b61200457600080fd5b60008083604051612015919061551e565b9081526020016040518091039020600901600081548092919061203790615871565b91905055905060008260000151519050826020015160000151600085604051612060919061551e565b9081526020016040518091039020600a01600084815260200190815260200160002060020160000190816120949190615741565b508260200151602001516000856040516120ae919061551e565b9081526020016040518091039020600a01600084815260200190815260200160002060020160010190816120e29190615741565b508260200151604001516000856040516120fc919061551e565b9081526020016040518091039020600a01600084815260200190815260200160002060020160020190816121309190615741565b5082602001516060015160008560405161214a919061551e565b9081526020016040518091039020600a016000848152602001908152602001600020600201600301908161217e9190615741565b50826020015160800151600085604051612198919061551e565b9081526020016040518091039020600a01600084815260200190815260200160002060020160040190816121cc9190615741565b50806000856040516121de919061551e565b9081526020016040518091039020600a0160008481526020019081526020016000206000018190555060005b81811015612317578360000151818151811061222957612228615813565b5b602002602001015160000151600086604051612245919061551e565b9081526020016040518091039020600a0160008581526020019081526020016000206001016000838152602001908152602001600020600001908161228a9190615741565b50836000015181815181106122a2576122a1615813565b5b6020026020010151602001516000866040516122be919061551e565b9081526020016040518091039020600a016000858152602001908152602001600020600101600083815260200190815260200160002060010190816123039190615741565b50808061230f90615871565b91505061220a565b5050505050565b612326613f8c565b61232e6132f6565b61233757600080fd5b6000600167ffffffffffffffff81111561235457612353614088565b5b60405190808252806020026020018201604052801561238d57816020015b61237a613f8c565b8152602001906001900390816123725790505b50905060005b6000856040516123a3919061551e565b9081526020016040518091039020600501548110156127e6576124836000866040516123cf919061551e565b9081526020016040518091039020600601600083815260200190815260200160002060000180546123ff90615564565b80601f016020809104026020016040519081016040528092919081815260200182805461242b90615564565b80156124785780601f1061244d57610100808354040283529160200191612478565b820191906000526020600020905b81548152906001019060200180831161245b57829003601f168201915b505050505085613891565b156127d357838260008151811061249d5761249c615813565b5b6020026020010151600001819052506000856040516124bc919061551e565b908152602001604051809103902060060160008281526020019081526020016000206001015467ffffffffffffffff8111156124fb576124fa614088565b5b60405190808252806020026020018201604052801561253457816020015b612521613fa6565b8152602001906001900390816125195790505b508260008151811061254957612548615813565b5b60200260200101516020018190525060005b60008660405161256b919061551e565b90815260200160405180910390206006016000838152602001908152602001600020600101548110156127d1576000866040516125a8919061551e565b90815260200160405180910390206006016000838152602001908152602001600020600201600082815260200190815260200160002060000180546125ec90615564565b80601f016020809104026020016040519081016040528092919081815260200182805461261890615564565b80156126655780601f1061263a57610100808354040283529160200191612665565b820191906000526020600020905b81548152906001019060200180831161264857829003601f168201915b50505050508360008151811061267e5761267d615813565b5b602002602001015160200151828151811061269c5761269b615813565b5b6020026020010151600001819052506000866040516126bb919061551e565b90815260200160405180910390206006016000838152602001908152602001600020600201600082815260200190815260200160002060010180546126ff90615564565b80601f016020809104026020016040519081016040528092919081815260200182805461272b90615564565b80156127785780601f1061274d57610100808354040283529160200191612778565b820191906000526020600020905b81548152906001019060200180831161275b57829003601f168201915b50505050508360008151811061279157612790615813565b5b60200260200101516020015182815181106127af576127ae615813565b5b60200260200101516020018190525080806127c990615871565b91505061255b565b505b80806127de90615871565b915050612393565b50806000815181106127fb576127fa615813565b5b602002602001015191505092915050565b6128146132f6565b61281d57600080fd5b6040518060400160405280600881526020017f617070726f766564000000000000000000000000000000000000000000000000815250600083604051612863919061551e565b9081526020016040518091039020600801600083815260200190815260200160002060020160040190816128979190615741565b505050565b6128a461400f565b6128ac6132f6565b6128b557600080fd5b6128bd61400f565b6000846040516128cd919061551e565b90815260200160405180910390206008016000848152602001908152602001600020600201600101805461290090615564565b80601f016020809104026020016040519081016040528092919081815260200182805461292c90615564565b80156129795780601f1061294e57610100808354040283529160200191612979565b820191906000526020600020905b81548152906001019060200180831161295c57829003601f168201915b505050505081602001516020018190525060008460405161299a919061551e565b9081526020016040518091039020600801600084815260200190815260200160002060020160000180546129cd90615564565b80601f01602080910402602001604051908101604052809291908181526020018280546129f990615564565b8015612a465780601f10612a1b57610100808354040283529160200191612a46565b820191906000526020600020905b815481529060010190602001808311612a2957829003601f168201915b5050505050816020015160000181905250600084604051612a67919061551e565b908152602001604051809103902060080160008481526020019081526020016000206002016003018054612a9a90615564565b80601f0160208091040260200160405190810160405280929190818152602001828054612ac690615564565b8015612b135780601f10612ae857610100808354040283529160200191612b13565b820191906000526020600020905b815481529060010190602001808311612af657829003601f168201915b5050505050816020015160600181905250600084604051612b34919061551e565b908152602001604051809103902060080160008481526020019081526020016000206002016002018054612b6790615564565b80601f0160208091040260200160405190810160405280929190818152602001828054612b9390615564565b8015612be05780601f10612bb557610100808354040283529160200191612be0565b820191906000526020600020905b815481529060010190602001808311612bc357829003601f168201915b5050505050816020015160400181905250600084604051612c01919061551e565b908152602001604051809103902060080160008481526020019081526020016000206002016004018054612c3490615564565b80601f0160208091040260200160405190810160405280929190818152602001828054612c6090615564565b8015612cad5780601f10612c8257610100808354040283529160200191612cad565b820191906000526020600020905b815481529060010190602001808311612c9057829003601f168201915b505050505081602001516080018190525060008085604051612ccf919061551e565b908152602001604051809103902060080160008581526020019081526020016000206000015490508067ffffffffffffffff811115612d1157612d10614088565b5b604051908082528060200260200182016040528015612d4a57816020015b612d37613fa6565b815260200190600190039081612d2f5790505b50826000018190525060005b81811015612f6457600086604051612d6e919061551e565b9081526020016040518091039020600801600086815260200190815260200160002060010160008281526020019081526020016000208054612daf90615564565b80601f0160208091040260200160405190810160405280929190818152602001828054612ddb90615564565b8015612e285780601f10612dfd57610100808354040283529160200191612e28565b820191906000526020600020905b815481529060010190602001808311612e0b57829003601f168201915b505050505083600001518281518110612e4457612e43615813565b5b602002602001015160000181905250612f2b86600088604051612e67919061551e565b9081526020016040518091039020600801600088815260200190815260200160002060010160008481526020019081526020016000208054612ea890615564565b80601f0160208091040260200160405190810160405280929190818152602001828054612ed490615564565b8015612f215780601f10612ef657610100808354040283529160200191612f21565b820191906000526020600020905b815481529060010190602001808311612f0457829003601f168201915b5050505050613b8f565b83600001518281518110612f4257612f41615813565b5b6020026020010151602001819052508080612f5c90615871565b915050612d56565b50819250505092915050565b6060612f7a6132f6565b612f8357600080fd5b6000825167ffffffffffffffff811115612fa057612f9f614088565b5b604051908082528060200260200182016040528015612fd957816020015b612fc6613fa6565b815260200190600190039081612fbe5790505b50905060005b83518110156132eb5760005b600086604051612ffb919061551e565b9081526020016040518091039020600301548110156132d7576130f9600087604051613027919061551e565b90815260200160405180910390206004016000838152602001908152602001600020600001805461305790615564565b80601f016020809104026020016040519081016040528092919081815260200182805461308390615564565b80156130d05780601f106130a5576101008083540402835291602001916130d0565b820191906000526020600020905b8154815290600101906020018083116130b357829003601f168201915b50505050508684815181106130e8576130e7615813565b5b602002602001015160000151613891565b156132c35760008660405161310e919061551e565b90815260200160405180910390206004016000828152602001908152602001600020600001805461313e90615564565b80601f016020809104026020016040519081016040528092919081815260200182805461316a90615564565b80156131b75780601f1061318c576101008083540402835291602001916131b7565b820191906000526020600020905b81548152906001019060200180831161319a57829003601f168201915b50505050508383815181106131cf576131ce615813565b5b6020026020010151600001819052506000866040516131ee919061551e565b90815260200160405180910390206004016000828152602001908152602001600020600101805461321e90615564565b80601f016020809104026020016040519081016040528092919081815260200182805461324a90615564565b80156132975780601f1061326c57610100808354040283529160200191613297565b820191906000526020600020905b81548152906001019060200180831161327a57829003601f168201915b50505050508383815181106132af576132ae615813565b5b6020026020010151602001819052506132c4565b5b80806132cf90615871565b915050612feb565b5080806132e390615871565b915050612fdf565b508091505092915050565b60006001905090565b60005b815181101561357e577fffffffffffffffffffffffffffffffffffffffffffffffffffffffffffffffff82828151811061333f5761333e615813565b5b6020026020010151602001511461344357600082828151811061336557613364615813565b5b602002602001015160200151905082828151811061338657613385615813565b5b602002602001015160000151600001516000856040516133a6919061551e565b9081526020016040518091039020600401600083815260200190815260200160002060000190816133d79190615741565b508282815181106133eb576133ea615813565b5b6020026020010151600001516020015160008560405161340b919061551e565b90815260200160405180910390206004016000838152602001908152602001600020600101908161343c9190615741565b505061356b565b60008084604051613454919061551e565b9081526020016040518091039020600301549050600084604051613478919061551e565b9081526020016040518091039020600301600081548092919061349a90615871565b91905055508282815181106134b2576134b1615813565b5b602002602001015160000151600001516000856040516134d2919061551e565b9081526020016040518091039020600401600083815260200190815260200160002060000190816135039190615741565b5082828151811061351757613516615813565b5b60200260200101516000015160200151600085604051613537919061551e565b9081526020016040518091039020600401600083815260200190815260200160002060010190816135689190615741565b50505b808061357690615871565b915050613302565b505050565b60005b815181101561388c577fffffffffffffffffffffffffffffffffffffffffffffffffffffffffffffffff8282815181106135c3576135c2615813565b5b602002602001015160200151146136205761361b838383815181106135eb576135ea615813565b5b60200260200101516020015184848151811061360a57613609615813565b5b602002602001015160400151613db3565b613879565b60008084604051613631919061551e565b9081526020016040518091039020600501600081548092919061365390615871565b91905055905082828151811061366c5761366b615813565b5b602002602001015160000151600085604051613688919061551e565b9081526020016040518091039020600601600083815260200190815260200160002060000190816136b99190615741565b508282815181106136cd576136cc615813565b5b602002602001015160400151516000856040516136ea919061551e565b908152602001604051809103902060060160008381526020019081526020016000206001018190555060005b83838151811061372957613728615813565b5b60200260200101516040015151811015613876578383815181106137505761374f615813565b5b602002602001015160400151818151811061376e5761376d615813565b5b60200260200101516000015160008660405161378a919061551e565b90815260200160405180910390206006016000848152602001908152602001600020600201600083815260200190815260200160002060000190816137cf9190615741565b508383815181106137e3576137e2615813565b5b602002602001015160400151818151811061380157613800615813565b5b60200260200101516020015160008660405161381d919061551e565b90815260200160405180910390206006016000848152602001908152602001600020600201600083815260200190815260200160002060010190816138629190615741565b50808061386e90615871565b915050613716565b50505b808061388490615871565b915050613586565b505050565b600081805190602001208380519060200120036138b157600190506138b6565b600090505b92915050565b60008160200151602001519050600080826040516138da919061551e565b908152602001604051809103902060070160008154809291906138fc90615871565b91905055905082602001516000015160008360405161391b919061551e565b90815260200160405180910390206008016000838152602001908152602001600020600201600001908161394f9190615741565b50826020015160200151600083604051613969919061551e565b90815260200160405180910390206008016000838152602001908152602001600020600201600101908161399d9190615741565b508260200151604001516000836040516139b7919061551e565b9081526020016040518091039020600801600083815260200190815260200160002060020160020190816139eb9190615741565b50826020015160600151600083604051613a05919061551e565b908152602001604051809103902060080160008381526020019081526020016000206002016003019081613a399190615741565b506040518060400160405280600781526020017f70656e64696e6700000000000000000000000000000000000000000000000000815250600083604051613a80919061551e565b908152602001604051809103902060080160008381526020019081526020016000206002016004019081613ab49190615741565b50826000015151600083604051613acb919061551e565b908152602001604051809103902060080160008381526020019081526020016000206000018190555060005b836000015151811015613b895783600001518181518110613b1b57613b1a615813565b5b6020026020010151600084604051613b33919061551e565b9081526020016040518091039020600801600084815260200190815260200160002060010160008381526020019081526020016000209081613b759190615741565b508080613b8190615871565b915050613af7565b50505050565b6060613b996132f6565b613ba257600080fd5b60005b600084604051613bb5919061551e565b908152602001604051809103902060030154811015613d7357613c95600085604051613be1919061551e565b908152602001604051809103902060040160008381526020019081526020016000206000018054613c1190615564565b80601f0160208091040260200160405190810160405280929190818152602001828054613c3d90615564565b8015613c8a5780601f10613c5f57610100808354040283529160200191613c8a565b820191906000526020600020905b815481529060010190602001808311613c6d57829003601f168201915b505050505084613891565b15613d6057600084604051613caa919061551e565b908152602001604051809103902060040160008281526020019081526020016000206001018054613cda90615564565b80601f0160208091040260200160405190810160405280929190818152602001828054613d0690615564565b8015613d535780601f10613d2857610100808354040283529160200191613d53565b820191906000526020600020905b815481529060010190602001808311613d3657829003601f168201915b5050505050915050613dad565b8080613d6b90615871565b915050613ba5565b506040518060400160405280600381526020017f4e2f41000000000000000000000000000000000000000000000000000000000081525090505b92915050565b60005b8151811015613f865760005b600085604051613dd2919061551e565b908152602001604051809103902060030154811015613f7257613ee4600086604051613dfe919061551e565b9081526020016040518091039020600601600086815260200190815260200160002060020160008381526020019081526020016000206000018054613e4290615564565b80601f0160208091040260200160405190810160405280929190818152602001828054613e6e90615564565b8015613ebb5780601f10613e9057610100808354040283529160200191613ebb565b820191906000526020600020905b815481529060010190602001808311613e9e57829003601f168201915b5050505050848481518110613ed357613ed2615813565b5b602002602001015160000151613891565b15613f5f57828281518110613efc57613efb615813565b5b602002602001015160200151600086604051613f18919061551e565b9081526020016040518091039020600601600086815260200190815260200160002060020160008381526020019081526020016000206001019081613f5d9190615741565b505b8080613f6a90615871565b915050613dc2565b508080613f7e90615871565b915050613db6565b50505050565b604051806040016040528060608152602001606081525090565b604051806040016040528060608152602001606081525090565b6040518060a0016040528060608152602001606081526020016060815260200160608152602001606081525090565b60405180604001604052806060815260200161400961402f565b81525090565b60405180604001604052806060815260200161402961402f565b81525090565b6040518060a0016040528060608152602001606081526020016060815260200160608152602001606081525090565b6000604051905090565b600080fd5b600080fd5b600080fd5b6000601f19601f8301169050919050565b7f4e487b7100000000000000000000000000000000000000000000000000000000600052604160045260246000fd5b6140c082614077565b810181811067ffffffffffffffff821117156140df576140de614088565b5b80604052505050565b60006140f261405e565b90506140fe82826140b7565b919050565b600080fd5b600080fd5b600080fd5b600067ffffffffffffffff82111561412d5761412c614088565b5b61413682614077565b9050602081019050919050565b82818337600083830152505050565b600061416561416084614112565b6140e8565b9050828152602081018484840111156141815761418061410d565b5b61418c848285614143565b509392505050565b600082601f8301126141a9576141a8614108565b5b81356141b9848260208601614152565b91505092915050565b600067ffffffffffffffff8211156141dd576141dc614088565b5b602082029050602081019050919050565b600080fd5b60006040828403121561420957614208614072565b5b61421360406140e8565b9050600082013567ffffffffffffffff81111561423357614232614103565b5b61423f84828501614194565b600083015250602082013567ffffffffffffffff81111561426357614262614103565b5b61426f84828501614194565b60208301525092915050565b6000819050919050565b61428e8161427b565b811461429957600080fd5b50565b6000813590506142ab81614285565b92915050565b6000604082840312156142c7576142c6614072565b5b6142d160406140e8565b9050600082013567ffffffffffffffff8111156142f1576142f0614103565b5b6142fd848285016141f3565b60008301525060206143118482850161429c565b60208301525092915050565b600061433061432b846141c2565b6140e8565b90508083825260208201905060208402830185811115614353576143526141ee565b5b835b8181101561439a57803567ffffffffffffffff81111561437857614377614108565b5b80860161438589826142b1565b85526020850194505050602081019050614355565b5050509392505050565b600082601f8301126143b9576143b8614108565b5b81356143c984826020860161431d565b91505092915050565b600067ffffffffffffffff8211156143ed576143ec614088565b5b602082029050602081019050919050565b600067ffffffffffffffff82111561441957614418614088565b5b602082029050602081019050919050565b600061443d614438846143fe565b6140e8565b905080838252602082019050602084028301858111156144605761445f6141ee565b5b835b818110156144a757803567ffffffffffffffff81111561448557614484614108565b5b80860161449289826141f3565b85526020850194505050602081019050614462565b5050509392505050565b600082601f8301126144c6576144c5614108565b5b81356144d684826020860161442a565b91505092915050565b6000606082840312156144f5576144f4614072565b5b6144ff60606140e8565b9050600082013567ffffffffffffffff81111561451f5761451e614103565b5b61452b84828501614194565b600083015250602061453f8482850161429c565b602083015250604082013567ffffffffffffffff81111561456357614562614103565b5b61456f848285016144b1565b60408301525092915050565b600061458e614589846143d2565b6140e8565b905080838252602082019050602084028301858111156145b1576145b06141ee565b5b835b818110156145f857803567ffffffffffffffff8111156145d6576145d5614108565b5b8086016145e389826144df565b855260208501945050506020810190506145b3565b5050509392505050565b600082601f83011261461757614616614108565b5b813561462784826020860161457b565b91505092915050565b60006060828403121561464657614645614072565b5b61465060606140e8565b9050600082013567ffffffffffffffff8111156146705761466f614103565b5b61467c84828501614194565b600083015250602082013567ffffffffffffffff8111156146a05761469f614103565b5b6146ac848285016143a4565b602083015250604082013567ffffffffffffffff8111156146d0576146cf614103565b5b6146dc84828501614602565b60408301525092915050565b6000602082840312156146fe576146fd614068565b5b600082013567ffffffffffffffff81111561471c5761471b61406d565b5b61472884828501614630565b91505092915050565b6000819050919050565b61474481614731565b811461474f57600080fd5b50565b6000813590506147618161473b565b92915050565b6000806040838503121561477e5761477d614068565b5b600083013567ffffffffffffffff81111561479c5761479b61406d565b5b6147a885828601614194565b92505060206147b985828601614752565b9150509250929050565b600080604083850312156147da576147d9614068565b5b600083013567ffffffffffffffff8111156147f8576147f761406d565b5b61480485828601614194565b925050602083013567ffffffffffffffff8111156148255761482461406d565b5b61483185828601614194565b9150509250929050565b600081519050919050565b600082825260208201905092915050565b60005b8381101561487557808201518184015260208101905061485a565b83811115614884576000848401525b50505050565b60006148958261483b565b61489f8185614846565b93506148af818560208601614857565b6148b881614077565b840191505092915050565b600081519050919050565b600082825260208201905092915050565b6000819050602082019050919050565b6000604083016000830151848203600086015261490c828261488a565b91505060208301518482036020860152614926828261488a565b9150508091505092915050565b600061493f83836148ef565b905092915050565b6000602082019050919050565b600061495f826148c3565b61496981856148ce565b93508360208202850161497b856148df565b8060005b858110156149b757848403895281516149988582614933565b94506149a383614947565b925060208a0199505060018101905061497f565b50829750879550505050505092915050565b600060408301600083015184820360008601526149e6828261488a565b91505060208301518482036020860152614a008282614954565b9150508091505092915050565b60006020820190508181036000830152614a2781846149c9565b905092915050565b600067ffffffffffffffff821115614a4a57614a49614088565b5b602082029050602081019050919050565b6000614a6e614a6984614a2f565b6140e8565b90508083825260208201905060208402830185811115614a9157614a906141ee565b5b835b81811015614ad857803567ffffffffffffffff811115614ab657614ab5614108565b5b808601614ac38982614194565b85526020850194505050602081019050614a93565b5050509392505050565b600082601f830112614af757614af6614108565b5b8135614b07848260208601614a5b565b91505092915050565b600060a08284031215614b2657614b25614072565b5b614b3060a06140e8565b9050600082013567ffffffffffffffff811115614b5057614b4f614103565b5b614b5c84828501614194565b600083015250602082013567ffffffffffffffff811115614b8057614b7f614103565b5b614b8c84828501614194565b602083015250604082013567ffffffffffffffff811115614bb057614baf614103565b5b614bbc84828501614194565b604083015250606082013567ffffffffffffffff811115614be057614bdf614103565b5b614bec84828501614194565b606083015250608082013567ffffffffffffffff811115614c1057614c0f614103565b5b614c1c84828501614194565b60808301525092915050565b600060408284031215614c3e57614c3d614072565b5b614c4860406140e8565b9050600082013567ffffffffffffffff811115614c6857614c67614103565b5b614c7484828501614ae2565b600083015250602082013567ffffffffffffffff811115614c9857614c97614103565b5b614ca484828501614b10565b60208301525092915050565b600060208284031215614cc657614cc5614068565b5b600082013567ffffffffffffffff811115614ce457614ce361406d565b5b614cf084828501614c28565b91505092915050565b600060208284031215614d0f57614d0e614068565b5b600082013567ffffffffffffffff811115614d2d57614d2c61406d565b5b614d3984828501614194565b91505092915050565b600081519050919050565b600082825260208201905092915050565b6000819050602082019050919050565b60006040830160008301518482036000860152614d8b828261488a565b91505060208301518482036020860152614da58282614954565b9150508091505092915050565b6000614dbe8383614d6e565b905092915050565b6000602082019050919050565b6000614dde82614d42565b614de88185614d4d565b935083602082028501614dfa85614d5e565b8060005b85811015614e365784840389528151614e178582614db2565b9450614e2283614dc6565b925060208a01995050600181019050614dfe565b50829750879550505050505092915050565b600081519050919050565b600082825260208201905092915050565b6000819050602082019050919050565b600081519050919050565b600082825260208201905092915050565b6000819050602082019050919050565b6000614eac838361488a565b905092915050565b6000602082019050919050565b6000614ecc82614e74565b614ed68185614e7f565b935083602082028501614ee885614e90565b8060005b85811015614f245784840389528151614f058582614ea0565b9450614f1083614eb4565b925060208a01995050600181019050614eec565b50829750879550505050505092915050565b600060a0830160008301518482036000860152614f53828261488a565b91505060208301518482036020860152614f6d828261488a565b91505060408301518482036040860152614f87828261488a565b91505060608301518482036060860152614fa1828261488a565b91505060808301518482036080860152614fbb828261488a565b9150508091505092915050565b60006040830160008301518482036000860152614fe58282614ec1565b91505060208301518482036020860152614fff8282614f36565b9150508091505092915050565b60006150188383614fc8565b905092915050565b6000602082019050919050565b600061503882614e48565b6150428185614e53565b93508360208202850161505485614e64565b8060005b858110156150905784840389528151615071858261500c565b945061507c83615020565b925060208a01995050600181019050615058565b50829750879550505050505092915050565b600081519050919050565b600082825260208201905092915050565b6000819050602082019050919050565b600060408301600083015184820360008601526150eb8282614954565b915050602083015184820360208601526151058282614f36565b9150508091505092915050565b600061511e83836150ce565b905092915050565b6000602082019050919050565b600061513e826150a2565b61514881856150ad565b93508360208202850161515a856150be565b8060005b8581101561519657848403895281516151778582615112565b945061518283615126565b925060208a0199505060018101905061515e565b50829750879550505050505092915050565b600060a08301600083015184820360008601526151c5828261488a565b915050602083015184820360208601526151df8282614954565b915050604083015184820360408601526151f98282614dd3565b91505060608301518482036060860152615213828261502d565b9150506080830151848203608086015261522d8282615133565b9150508091505092915050565b6000602082019050818103600083015261525481846151a8565b905092915050565b60006040828403121561527257615271614072565b5b61527c60406140e8565b9050600082013567ffffffffffffffff81111561529c5761529b614103565b5b6152a8848285016144b1565b600083015250602082013567ffffffffffffffff8111156152cc576152cb614103565b5b6152d884828501614b10565b60208301525092915050565b600080604083850312156152fb576152fa614068565b5b600083013567ffffffffffffffff8111156153195761531861406d565b5b61532585828601614194565b925050602083013567ffffffffffffffff8111156153465761534561406d565b5b6153528582860161525c565b9150509250929050565b600060408301600083015184820360008601526153798282614954565b915050602083015184820360208601526153938282614f36565b9150508091505092915050565b600060208201905081810360008301526153ba818461535c565b905092915050565b600080604083850312156153d9576153d8614068565b5b600083013567ffffffffffffffff8111156153f7576153f661406d565b5b61540385828601614194565b925050602083013567ffffffffffffffff8111156154245761542361406d565b5b615430858286016144b1565b9150509250929050565b600082825260208201905092915050565b6000615456826148c3565b615460818561543a565b935083602082028501615472856148df565b8060005b858110156154ae578484038952815161548f8582614933565b945061549a83614947565b925060208a01995050600181019050615476565b50829750879550505050505092915050565b600060208201905081810360008301526154da818461544b565b905092915050565b600081905092915050565b60006154f88261483b565b61550281856154e2565b9350615512818560208601614857565b80840191505092915050565b600061552a82846154ed565b915081905092915050565b7f4e487b7100000000000000000000000000000000000000000000000000000000600052602260045260246000fd5b6000600282049050600182168061557c57607f821691505b60208210810361558f5761558e615535565b5b50919050565b60008190508160005260206000209050919050565b60006020601f8301049050919050565b600082821b905092915050565b6000600883026155f77fffffffffffffffffffffffffffffffffffffffffffffffffffffffffffffffff826155ba565b61560186836155ba565b95508019841693508086168417925050509392505050565b6000819050919050565b600061563e61563961563484614731565b615619565b614731565b9050919050565b6000819050919050565b61565883615623565b61566c61566482615645565b8484546155c7565b825550505050565b600090565b615681615674565b61568c81848461564f565b505050565b5b818110156156b0576156a5600082615679565b600181019050615692565b5050565b601f8211156156f5576156c681615595565b6156cf846155aa565b810160208510156156de578190505b6156f26156ea856155aa565b830182615691565b50505b505050565b600082821c905092915050565b6000615718600019846008026156fa565b1980831691505092915050565b60006157318383615707565b9150826002028217905092915050565b61574a8261483b565b67ffffffffffffffff81111561576357615762614088565b5b61576d8254615564565b6157788282856156b4565b600060209050601f8311600181146157ab5760008415615799578287015190505b6157a38582615725565b86555061580b565b601f1984166157b986615595565b60005b828110156157e1578489015182556001820191506020850194506020810190506157bc565b868310156157fe57848901516157fa601f891682615707565b8355505b6001600288020188555050505b505050505050565b7f4e487b7100000000000000000000000000000000000000000000000000000000600052603260045260246000fd5b7f4e487b7100000000000000000000000000000000000000000000000000000000600052601160045260246000fd5b600061587c82614731565b91507fffffffffffffffffffffffffffffffffffffffffffffffffffffffffffffffff82036158ae576158ad615842565b5b600182019050919050565b60006158c482614731565b91506158cf83614731565b9250827fffffffffffffffffffffffffffffffffffffffffffffffffffffffffffffffff0382111561590457615903615842565b5b82820190509291505056fea2646970667358221220cd37d1f39d22d8ad564ff6f1d4fde3cd3905e6e2bc6039b559e08f2be9b44cf464736f6c634300080f0033",
  "immutableReferences": {},
  "source": "pragma solidity >=0.8.9;\r\n\r\n//SPDX-License-Identifier: UNLICENSED\r\n\r\ncontract UserDataContract {\r\n\r\n    /*\r\n    * ============================================== USER DATA SUBSECTION ==============================================\r\n    * Functions concerned with anything and everything to do with a User's data.\r\n    */ \r\n\r\n    /* Attributes stored in UserData and Credential. */\r\n    struct Attribute {\r\n        string name;\r\n        string value;\r\n    }\r\n\r\n    /* Credential consisting of attributes and an organization name. */\r\n    struct Credential {\r\n        string organization;\r\n        uint attributeCount;\r\n        mapping (uint => Attribute) attributes;\r\n    }\r\n\r\n    /* UserData is where the bulk of user's data will be stored using Credential and Attribute. */\r\n    struct UserData {\r\n        string id;\r\n\r\n        bool created;\r\n\r\n        uint balance;\r\n\r\n        uint attributeCount;\r\n        mapping (uint => Attribute) attributes;\r\n\r\n        uint credentialCount;\r\n        mapping (uint => Credential) credentials;\r\n\r\n        uint transactionRequestCount;\r\n        mapping (uint => TransactionRequestStringMapping) transactionRequests;\r\n\r\n        uint approvedTransactionCount;\r\n        mapping (uint => TransactionApprovedStorage) approvedTransactions;\r\n\r\n        uint credentialRequestCount;\r\n        mapping (uint => CredentialRequest) credentialRequests;\r\n    }\r\n\r\n    /* What will be returned in place of a Credential struct. */\r\n    struct CredentialResponse {\r\n        string organization;\r\n        Attribute[] attributes;\r\n    }\r\n\r\n    /* What will be returned in place of a UserData struct. */\r\n    struct UserDataResponse{\r\n        string id;\r\n        //uint balance;\r\n        Attribute[] attributes;\r\n        CredentialResponse[] credentials;\r\n        TransactionRequest[] transactionRequests;\r\n        TransactionResponse[] approvedTransactions;\r\n    }\r\n\r\n    /* Received in paramets to update attributes, this improves gas usage by knowing when to insert and when to update. */\r\n    struct AttributeUpdate {\r\n        Attribute attribute;\r\n        int index;\r\n    }\r\n\r\n    /* Received in paramets to update credentials, this improves gas usage by knowing when to insert and when to update */\r\n    struct CredentialUpdate {\r\n        string organization;\r\n        int index;\r\n        Attribute[] attributes;\r\n    }\r\n\r\n    /* Single functions for update to test integration methods */\r\n    struct Update {\r\n        string id;\r\n        AttributeUpdate[] attributes;\r\n        CredentialUpdate[] credentials;\r\n    }\r\n\r\n    /* All stored user's data can be accessed through the allUserData attribute. */\r\n    mapping (string => UserData) allUserData;\r\n\r\n    /* Initialize a new user's storage data. */\r\n    function createUser(string memory _id) public {\r\n\r\n        if (!auth()) {\r\n            revert();\r\n        }\r\n\r\n        allUserData[_id].id = _id;\r\n        allUserData[_id].created = true;\r\n        allUserData[_id].balance = 0;\r\n        allUserData[_id].attributeCount = 0;\r\n        allUserData[_id].credentialCount = 0;\r\n        allUserData[_id].transactionRequestCount = 0;\r\n        allUserData[_id].approvedTransactionCount = 0;\r\n        allUserData[_id].credentialRequestCount = 0;\r\n    }\r\n\r\n    /* Add and Update UserData by id. */\r\n    function updateUser(Update memory update) public {\r\n\r\n        if (!auth()) {\r\n            revert();\r\n        }\r\n        \r\n        //add/update all new attributes\r\n        if (update.attributes.length > 0) updateAttributes(update.id, update.attributes);\r\n\r\n        //add and update all new credentials\r\n        if (update.credentials.length > 0) updateCredentials(update.id, update.credentials);\r\n\r\n    }\r\n\r\n    /* Returns the enitre UserData for the specified id. */\r\n    function getUserData(string memory _id) public view returns (UserDataResponse memory) {\r\n\r\n        if (!auth()) {\r\n            revert();\r\n        }\r\n        \r\n        //Create Attribute array\r\n        uint size = allUserData[_id].attributeCount;\r\n        Attribute[] memory attrs = new Attribute[](size);\r\n        \r\n        for (uint i=0; i<allUserData[_id].attributeCount; i++) {\r\n            attrs[i].name = allUserData[_id].attributes[i].name;\r\n            attrs[i].value = allUserData[_id].attributes[i].value;\r\n        }\r\n\r\n        //Create Attribute arrays for Credential arrays\r\n        size = allUserData[_id].credentialCount;\r\n        CredentialResponse[] memory creds = new CredentialResponse[](size);\r\n\r\n        for (uint i=0; i<allUserData[_id].credentialCount; i++) {\r\n\r\n            creds[i].organization = allUserData[_id].credentials[i].organization;\r\n            creds[i].attributes = new Attribute[](allUserData[_id].credentials[i].attributeCount);\r\n\r\n            for (uint k=0; k<allUserData[_id].credentials[i].attributeCount; k++) {\r\n                creds[i].attributes[k].name = allUserData[_id].credentials[i].attributes[k].name;\r\n                creds[i].attributes[k].value = allUserData[_id].credentials[i].attributes[k].value;\r\n            }\r\n        }\r\n\r\n        //create TransactionRequest array\r\n        size = allUserData[_id].transactionRequestCount;\r\n        TransactionRequest[] memory transactionRequests = new TransactionRequest[](allUserData[_id].transactionRequestCount);\r\n\r\n        for (uint i=0; i<size; i++) {\r\n\r\n            transactionRequests[i].stamp.toID = allUserData[_id].transactionRequests[i].stamp.toID;\r\n            transactionRequests[i].stamp.fromID = allUserData[_id].transactionRequests[i].stamp.fromID;\r\n            transactionRequests[i].stamp.message = allUserData[_id].transactionRequests[i].stamp.message;\r\n            transactionRequests[i].stamp.date = allUserData[_id].transactionRequests[i].stamp.date;\r\n            transactionRequests[i].stamp.status = allUserData[_id].transactionRequests[i].stamp.status;\r\n\r\n            uint attrSize = allUserData[_id].transactionRequests[i].attributeCount;\r\n            transactionRequests[i].attributes = new string[](attrSize);\r\n\r\n            for (uint k=0; k<attrSize; k++) {\r\n                transactionRequests[i].attributes[k] = allUserData[_id].transactionRequests[i].attributes[k];\r\n            }\r\n        }\r\n\r\n        //create Approved Transaction array\r\n        size = allUserData[_id].approvedTransactionCount;\r\n        TransactionResponse[] memory approvedTransactions = new TransactionResponse[](size);\r\n\r\n        for (uint i=0; i<size; i++) {\r\n\r\n            approvedTransactions[i].stamp.toID = allUserData[_id].approvedTransactions[i].stamp.toID;\r\n            approvedTransactions[i].stamp.fromID = allUserData[_id].approvedTransactions[i].stamp.fromID;\r\n            approvedTransactions[i].stamp.message = allUserData[_id].approvedTransactions[i].stamp.message;\r\n            approvedTransactions[i].stamp.date = allUserData[_id].approvedTransactions[i].stamp.date;\r\n            approvedTransactions[i].stamp.status = allUserData[_id].approvedTransactions[i].stamp.status;\r\n\r\n            uint attrSize = allUserData[_id].approvedTransactions[i].attributeCount;\r\n            approvedTransactions[i].attributes = new Attribute[](attrSize);\r\n\r\n            for (uint k=0; k<attrSize; k++) {\r\n                approvedTransactions[i].attributes[k].name = allUserData[_id].approvedTransactions[i].attributes[k].name;\r\n                approvedTransactions[i].attributes[k].value = allUserData[_id].approvedTransactions[i].attributes[k].value;\r\n            }\r\n        }\r\n\r\n        string memory iid = \"\";\r\n\r\n        if (allUserData[_id].created) {\r\n            iid = _id;\r\n        }\r\n\r\n\r\n        //Create UserDataResponse\r\n        return (UserDataResponse({\r\n            id: iid,\r\n            //balance: 0,\r\n            attributes: attrs,\r\n            credentials: creds,\r\n            transactionRequests: transactionRequests,\r\n            approvedTransactions: approvedTransactions\r\n        }));\r\n    }\r\n\r\n    /* Updates the relevant attributes for the appropriate credentials. */\r\n    function updateCredentials(string memory _id, CredentialUpdate[] memory credentials) private {\r\n\r\n        for (uint i=0; i<credentials.length; i++) {\r\n\r\n            //update existing credentials\r\n            if (credentials[i].index != -1) {\r\n                updateCredentialAttributes(_id, uint(credentials[i].index), credentials[i].attributes);\r\n                continue;\r\n            }\r\n\r\n            //insert new credentials\r\n            uint index = allUserData[_id].credentialCount++;\r\n            allUserData[_id].credentials[index].organization = credentials[i].organization;\r\n            allUserData[_id].credentials[index].attributeCount = credentials[i].attributes.length;\r\n\r\n            for (uint k=0; k<credentials[i].attributes.length; k++) {\r\n                allUserData[_id].credentials[index].attributes[k].name = credentials[i].attributes[k].name;\r\n                allUserData[_id].credentials[index].attributes[k].value = credentials[i].attributes[k].value;\r\n            }\r\n        }   \r\n\r\n    }\r\n\r\n    /* Updates relevant Attributes for specified credential and organization in storage. */\r\n    function updateCredentialAttributes(string memory _id, uint org, Attribute[] memory attributes) private {\r\n        \r\n        for (uint i=0; i<attributes.length; i++) {\r\n            for (uint k=0; k<allUserData[_id].attributeCount; k++) {\r\n                if (stringCompare(allUserData[_id].credentials[org].attributes[k].name, attributes[i].name)) {\r\n                    allUserData[_id].credentials[org].attributes[k].value = attributes[i].value;\r\n                }\r\n            }\r\n        }\r\n    }\r\n\r\n    /* Updates relevant Attribute values in storage. */\r\n    function updateAttributes(string memory _id, AttributeUpdate[] memory attributes) private {\r\n        \r\n        for (uint i=0; i<attributes.length; i++) {\r\n\r\n            //update existing attribute\r\n            if (attributes[i].index != -1) {\r\n                uint k = uint(attributes[i].index);\r\n                allUserData[_id].attributes[k].name = attributes[i].attribute.name;\r\n                allUserData[_id].attributes[k].value = attributes[i].attribute.value;\r\n                continue;\r\n            }\r\n\r\n            //add new attribute\r\n            uint index = allUserData[_id].attributeCount;\r\n            allUserData[_id].attributeCount++;\r\n            allUserData[_id].attributes[index].name = attributes[i].attribute.name;\r\n            allUserData[_id].attributes[index].value = attributes[i].attribute.value;\r\n        }\r\n\r\n    }\r\n\r\n    function getCredential(string memory id, string memory organization) public view returns (CredentialResponse memory) {\r\n        \r\n        CredentialResponse memory cr;\r\n        \r\n        for (uint i=0; i<allUserData[id].credentialCount; i++) {\r\n            if (stringCompare(allUserData[id].credentials[i].organization, organization)) {\r\n\r\n                cr.organization = organization;\r\n                uint size = allUserData[id].credentials[i].attributeCount;\r\n\r\n                Attribute[] memory attrs = new Attribute[](size);\r\n\r\n                for (uint k=0; k<size; k++) {\r\n                    attrs[k].name = allUserData[id].credentials[i].attributes[k].name;\r\n                    attrs[k].value = allUserData[id].credentials[i].attributes[k].value;\r\n                }\r\n\r\n                cr.attributes = attrs;\r\n\r\n                return cr;\r\n            }\r\n        }\r\n\r\n        return cr;\r\n\r\n    }\r\n\r\n    function updateBalance(string memory _id, uint amount) public {\r\n\r\n        if (!auth()) {\r\n            revert();\r\n        }\r\n\r\n        allUserData[_id].balance += amount;\r\n    }\r\n\r\n    /*\r\n    * ============================================== TRANSACTION SUBSECTION ==============================================\r\n    * This is where all transactions between users have operations capable of carrying out the needed functions.\r\n    */ \r\n\r\n    /* Data to describe transaction information. */\r\n    struct TransactionStamp {\r\n        string fromID;\r\n        string toID;\r\n        string date;\r\n        string message;\r\n        string status;\r\n    }\r\n\r\n    /* Request to get Attribute data from a user. */\r\n    struct TransactionRequest {\r\n        string[] attributes;\r\n        TransactionStamp stamp;\r\n    }\r\n\r\n    struct TransactionRequestStringMapping {\r\n        uint attributeCount;\r\n        mapping (uint => string) attributes;\r\n        TransactionStamp stamp;\r\n    }\r\n\r\n    struct TransactionResponse {\r\n        Attribute[] attributes;\r\n        TransactionStamp stamp;\r\n    }\r\n\r\n    struct TransactionApprovedStorage {\r\n        uint attributeCount;\r\n        mapping (uint => Attribute) attributes;\r\n        TransactionStamp stamp;\r\n    }\r\n\r\n    /* Request to get Credential data from a user. */\r\n    struct CredentialRequest {\r\n        string organization;\r\n        TransactionStamp stamp;\r\n    }\r\n\r\n    /* Stores the pending transaction with the appropriate user. */\r\n    function newTransactionRequest(TransactionRequest memory request) public {\r\n        if (!auth()) {\r\n            revert();\r\n        }\r\n        addTransactionRequest(request);\r\n    }\r\n\r\n    /* Adds a new transaction as pending to the user's data. */\r\n    function addTransactionRequest(TransactionRequest memory request) private {\r\n        string memory id = request.stamp.toID;\r\n        uint index = allUserData[id].transactionRequestCount++;\r\n        allUserData[id].transactionRequests[index].stamp.fromID = request.stamp.fromID;\r\n        allUserData[id].transactionRequests[index].stamp.toID = request.stamp.toID;\r\n        allUserData[id].transactionRequests[index].stamp.date = request.stamp.date;\r\n        allUserData[id].transactionRequests[index].stamp.message = request.stamp.message;\r\n        allUserData[id].transactionRequests[index].stamp.status = \"pending\";\r\n\r\n        //allUserData[id].transactionRequests[index].attributes = new string[](request.attributes.length);\r\n        allUserData[id].transactionRequests[index].attributeCount = request.attributes.length;\r\n\r\n\r\n        for (uint i=0; i<request.attributes.length; i++) {\r\n            allUserData[id].transactionRequests[index].attributes[i] = request.attributes[i];\r\n        }\r\n    }\r\n\r\n    function declineTransaction(string memory _id, uint index) public {\r\n        if (!auth()) {\r\n            revert();\r\n        }\r\n        allUserData[_id].transactionRequests[index].stamp.status = \"declined\";\r\n\r\n        // string memory id = allUserData[_id].transactionRequests[index].stamp.fromID;\r\n\r\n        // uint indexS = allUserData[id].approvedTransactionCount++;\r\n        // uint size = allUserData[_id].transactionRequests[index].attributeCount;\r\n\r\n        // allUserData[id].approvedTransactions[indexS].stamp.fromID = allUserData[_id].transactionRequests[index].stamp.fromID;\r\n        // allUserData[id].approvedTransactions[indexS].stamp.toID = allUserData[_id].transactionRequests[index].stamp.toID;\r\n        // allUserData[id].approvedTransactions[indexS].stamp.date = allUserData[_id].transactionRequests[index].stamp.date;\r\n        // allUserData[id].approvedTransactions[indexS].stamp.message = allUserData[_id].transactionRequests[index].stamp.message;\r\n        // allUserData[id].approvedTransactions[indexS].stamp.status = allUserData[_id].transactionRequests[index].stamp.status;\r\n\r\n        // allUserData[id].approvedTransactions[indexS].attributeCount = size;\r\n\r\n        // for (uint i=0; i<size; i++) {\r\n        //     allUserData[id].approvedTransactions[indexS].attributes[i].name = allUserData[_id].transactionRequests[index].attributes[i];\r\n        // }\r\n        \r\n    }\r\n\r\n    function approveTransactionStageA(string memory _id, uint index) public {\r\n        if (!auth()) {\r\n            revert();\r\n        }\r\n        allUserData[_id].transactionRequests[index].stamp.status = \"approved\";\r\n    }\r\n\r\n    /* Approves the pending transaction by returning the data to the API for decryption. */\r\n    function approveTransactionStageB(string memory _id, uint index) public view returns (TransactionResponse memory) {\r\n\r\n        if (!auth()) {\r\n            revert();\r\n        }\r\n\r\n        TransactionResponse memory ret;\r\n        \r\n        ret.stamp.toID = allUserData[_id].transactionRequests[index].stamp.toID;\r\n        ret.stamp.fromID = allUserData[_id].transactionRequests[index].stamp.fromID;\r\n        ret.stamp.message = allUserData[_id].transactionRequests[index].stamp.message;\r\n        ret.stamp.date = allUserData[_id].transactionRequests[index].stamp.date;\r\n        ret.stamp.status = allUserData[_id].transactionRequests[index].stamp.status;\r\n\r\n        uint attrSize = allUserData[_id].transactionRequests[index].attributeCount;\r\n        ret.attributes = new Attribute[](attrSize);\r\n\r\n        for (uint k=0; k<attrSize; k++) {\r\n            ret.attributes[k].name = allUserData[_id].transactionRequests[index].attributes[k];\r\n            ret.attributes[k].value = findAttribute(_id, allUserData[_id].transactionRequests[index].attributes[k]);\r\n        }\r\n\r\n        return ret;\r\n    }\r\n\r\n    function approveTransactionStageC(string memory _id, TransactionResponse memory transaction) public {\r\n\r\n        if (!auth()) {\r\n            revert();\r\n        }\r\n\r\n        uint index = allUserData[_id].approvedTransactionCount++;\r\n        uint size = transaction.attributes.length;\r\n\r\n        allUserData[_id].approvedTransactions[index].stamp.fromID = transaction.stamp.fromID;\r\n        allUserData[_id].approvedTransactions[index].stamp.toID = transaction.stamp.toID;\r\n        allUserData[_id].approvedTransactions[index].stamp.date = transaction.stamp.date;\r\n        allUserData[_id].approvedTransactions[index].stamp.message = transaction.stamp.message;\r\n        allUserData[_id].approvedTransactions[index].stamp.status = transaction.stamp.status;\r\n\r\n        //allUserData[_id].approvedTransactions[index].attributes = new Attribute[](size);\r\n        allUserData[_id].approvedTransactions[index].attributeCount = size;\r\n\r\n        for (uint i=0; i<size; i++) {\r\n            allUserData[_id].approvedTransactions[index].attributes[i].name = transaction.attributes[i].name;\r\n            allUserData[_id].approvedTransactions[index].attributes[i].value = transaction.attributes[i].value;\r\n        }\r\n    }\r\n\r\n    function findAttribute(string memory id, string memory name) private view returns (string memory) {\r\n\r\n        if (!auth()) {\r\n            revert();\r\n        }\r\n\r\n        for (uint i=0; i<allUserData[id].attributeCount; i++) {\r\n            if (stringCompare(allUserData[id].attributes[i].name, name))\r\n                return allUserData[id].attributes[i].value;\r\n        }\r\n\r\n        return \"N/A\";\r\n    }\r\n\r\n    /* Returns the desired attributes for requested data. */\r\n    function getAttributesTransaction(string memory _id, Attribute[] memory attributes) public view returns (Attribute[] memory) {\r\n\r\n        if (!auth()) {\r\n            revert();\r\n        }\r\n\r\n        Attribute[] memory res = new Attribute[](attributes.length);\r\n\r\n        for (uint i=0; i<attributes.length; i++) {\r\n            for (uint k=0; k<allUserData[_id].attributeCount; k++) {\r\n                if (stringCompare(allUserData[_id].attributes[k].name, attributes[i].name)) {\r\n                    res[i].name = allUserData[_id].attributes[k].name;\r\n                    res[i].value = allUserData[_id].attributes[k].value;\r\n                    continue;\r\n                }\r\n            }\r\n        }\r\n\r\n        return res;\r\n    }\r\n\r\n    /* Returns the desired Credential and its associated attributes. */\r\n    function getCredentialTransaction(string memory _id, string memory organization) public view returns (CredentialResponse memory) {\r\n\r\n        if (!auth()) {\r\n            revert();\r\n        }\r\n\r\n        CredentialResponse[] memory cred = new CredentialResponse[](1);\r\n\r\n        for (uint i=0; i<allUserData[_id].credentialCount; i++) {\r\n            if (stringCompare(allUserData[_id].credentials[i].organization, organization)) {\r\n                cred[0].organization = organization;\r\n\r\n                cred[0].attributes = new Attribute[](allUserData[_id].credentials[i].attributeCount);\r\n\r\n                for (uint k=0; k<allUserData[_id].credentials[i].attributeCount; k++) {\r\n                    cred[0].attributes[k].name = allUserData[_id].credentials[i].attributes[k].name;\r\n                    cred[0].attributes[k].value = allUserData[_id].credentials[i].attributes[k].value;\r\n                }\r\n            }\r\n        }\r\n\r\n        return cred[0];\r\n    }\r\n\r\n    /*\r\n    * ============================================== GENERAL SUBSECTION ==============================================\r\n    */ \r\n\r\n    /* Compares two strings to see if they're equal or not. */\r\n    function stringCompare(string memory a, string memory b) private pure returns (bool) {\r\n        if (keccak256(bytes(a)) == keccak256(bytes(b)))\r\n            return true;\r\n        return false;\r\n    }\r\n\r\n    // function stringToBytes32(string memory source) public pure returns (bytes32 result) {\r\n    // bytes memory tempEmptyStringTest = bytes(source);\r\n    // if (tempEmptyStringTest.length == 0) {\r\n    //     return 0x0;\r\n    // }\r\n\r\n    // assembly {\r\n    //     result := mload(add(source, 32))\r\n    // }\r\n// }\r\n\r\n    function auth() private view returns (bool) {\r\n\r\n        //3e98b6bb38b408149c43d9d74df82ba4ceaa09b8a5609d849c025c91163ef540 : with 0x\r\n        //8d175b8c26b78c98cd2b09d5f8b812b5af308418ab4ec505184318da3c813cd5 : without 0x\r\n        // string memory hashedAPI = \"3e98b6bb38b408149c43d9d74df82ba4ceaa09b8a5609d849c025c91163ef540\";\r\n\r\n        // if (keccak256(abi.encodePacked(msg.sender)) == stringToBytes32(hashedAPI)) {\r\n        //     return true;\r\n        // }\r\n        // return false;\r\n\r\n        return true;\r\n\r\n        // address API = 0x94618601FE6cb8912b274E5a00453949A57f8C1e;\r\n\r\n        // if (msg.sender == API) {\r\n        //     return true;\r\n        // }\r\n        // return false;\r\n\r\n    }\r\n\r\n}",
  "sourcePath": "C:\\Users\\bbdnet2552\\Desktop\\University\\Capstone\\Repo\\Exploring-Self-Sovereign-Identity\\LocalBlockchain\\contracts\\UserDataContract.sol",
  "compiler": {
    "name": "solc",
    "version": "0.8.15+commit.e14f2714.Emscripten.clang"
  },
  "schemaVersion": "3.4.8",
  "updatedAt": "2022-10-27T07:07:31.133Z",
  "networkType": "ethereum",
  "devdoc": {
    "kind": "dev",
    "methods": {},
    "version": 1
  },
  "userdoc": {
    "kind": "user",
    "methods": {},
    "version": 1
  }
}