{
  "contractName": "UserDataContract",
  "abi": [
    {
      "inputs": [],
      "stateMutability": "nonpayable",
      "type": "constructor"
    },
    {
      "inputs": [
        {
          "internalType": "string",
          "name": "_id",
          "type": "string"
        }
      ],
      "name": "createUser",
      "outputs": [],
      "stateMutability": "nonpayable",
      "type": "function"
    },
    {
      "inputs": [
        {
          "internalType": "string",
          "name": "_id",
          "type": "string"
        },
        {
          "internalType": "uint256",
          "name": "index",
          "type": "uint256"
        },
        {
          "internalType": "string",
          "name": "name",
          "type": "string"
        },
        {
          "internalType": "string",
          "name": "value",
          "type": "string"
        }
      ],
      "name": "updateAttribute",
      "outputs": [],
      "stateMutability": "nonpayable",
      "type": "function"
    },
    {
      "inputs": [
        {
          "components": [
            {
              "internalType": "string",
              "name": "id",
              "type": "string"
            },
            {
              "internalType": "string",
              "name": "name",
              "type": "string"
            },
            {
              "internalType": "string",
              "name": "value",
              "type": "string"
            }
          ],
          "internalType": "struct UserDataContract.UpdateAttribute",
          "name": "attribute",
          "type": "tuple"
        }
      ],
      "name": "createAttribute",
      "outputs": [],
      "stateMutability": "nonpayable",
      "type": "function"
    },
    {
      "inputs": [],
      "name": "createAttributeX",
      "outputs": [],
      "stateMutability": "nonpayable",
      "type": "function"
    },
    {
      "inputs": [],
      "name": "createAttributeY",
      "outputs": [],
      "stateMutability": "nonpayable",
      "type": "function"
    },
    {
      "inputs": [
        {
          "internalType": "string",
          "name": "_id",
          "type": "string"
        },
        {
          "components": [
            {
              "internalType": "string",
              "name": "name",
              "type": "string"
            },
            {
              "internalType": "string",
              "name": "value",
              "type": "string"
            }
          ],
          "internalType": "struct UserDataContract.Attribute[]",
          "name": "attributes",
          "type": "tuple[]"
        }
      ],
      "name": "getAttributesTransaction",
      "outputs": [
        {
          "components": [
            {
              "internalType": "string",
              "name": "name",
              "type": "string"
            },
            {
              "internalType": "string",
              "name": "value",
              "type": "string"
            }
          ],
          "internalType": "struct UserDataContract.Attribute[]",
          "name": "",
          "type": "tuple[]"
        }
      ],
      "stateMutability": "view",
      "type": "function"
    },
    {
      "inputs": [
        {
          "internalType": "string",
          "name": "_id",
          "type": "string"
        },
        {
          "internalType": "string",
          "name": "organization",
          "type": "string"
        }
      ],
      "name": "getCredentialTransaction",
      "outputs": [
        {
          "components": [
            {
              "internalType": "string",
              "name": "organization",
              "type": "string"
            },
            {
              "components": [
                {
                  "internalType": "string",
                  "name": "name",
                  "type": "string"
                },
                {
                  "internalType": "string",
                  "name": "value",
                  "type": "string"
                }
              ],
              "internalType": "struct UserDataContract.Attribute[]",
              "name": "attributes",
              "type": "tuple[]"
            }
          ],
          "internalType": "struct UserDataContract.CredentialResponse",
          "name": "",
          "type": "tuple"
        }
      ],
      "stateMutability": "view",
      "type": "function"
    },
    {
      "inputs": [
        {
          "components": [
            {
              "internalType": "string",
              "name": "id",
              "type": "string"
            },
            {
              "components": [
                {
                  "components": [
                    {
                      "internalType": "string",
                      "name": "name",
                      "type": "string"
                    },
                    {
                      "internalType": "string",
                      "name": "value",
                      "type": "string"
                    }
                  ],
                  "internalType": "struct UserDataContract.Attribute",
                  "name": "attribute",
                  "type": "tuple"
                },
                {
                  "internalType": "bool",
                  "name": "isUpdate",
                  "type": "bool"
                }
              ],
              "internalType": "struct UserDataContract.AttributeUpdate[]",
              "name": "attributes",
              "type": "tuple[]"
            },
            {
              "components": [
                {
                  "internalType": "string",
                  "name": "organization",
                  "type": "string"
                },
                {
                  "internalType": "bool",
                  "name": "isUpdate",
                  "type": "bool"
                },
                {
                  "components": [
                    {
                      "internalType": "string",
                      "name": "name",
                      "type": "string"
                    },
                    {
                      "internalType": "string",
                      "name": "value",
                      "type": "string"
                    }
                  ],
                  "internalType": "struct UserDataContract.Attribute[]",
                  "name": "attributes",
                  "type": "tuple[]"
                }
              ],
              "internalType": "struct UserDataContract.CredentialUpdate[]",
              "name": "credentials",
              "type": "tuple[]"
            }
          ],
          "internalType": "struct UserDataContract.Update",
          "name": "update",
          "type": "tuple"
        }
      ],
      "name": "updateUser",
      "outputs": [],
      "stateMutability": "nonpayable",
      "type": "function"
    },
    {
      "inputs": [
        {
          "internalType": "string",
          "name": "_id",
          "type": "string"
        }
      ],
      "name": "getUserData",
      "outputs": [
        {
          "components": [
            {
              "internalType": "string",
              "name": "id",
              "type": "string"
            },
            {
              "components": [
                {
                  "internalType": "string",
                  "name": "name",
                  "type": "string"
                },
                {
                  "internalType": "string",
                  "name": "value",
                  "type": "string"
                }
              ],
              "internalType": "struct UserDataContract.Attribute[]",
              "name": "attributes",
              "type": "tuple[]"
            },
            {
              "components": [
                {
                  "internalType": "string",
                  "name": "organization",
                  "type": "string"
                },
                {
                  "components": [
                    {
                      "internalType": "string",
                      "name": "name",
                      "type": "string"
                    },
                    {
                      "internalType": "string",
                      "name": "value",
                      "type": "string"
                    }
                  ],
                  "internalType": "struct UserDataContract.Attribute[]",
                  "name": "attributes",
                  "type": "tuple[]"
                }
              ],
              "internalType": "struct UserDataContract.CredentialResponse[]",
              "name": "credentials",
              "type": "tuple[]"
            }
          ],
          "internalType": "struct UserDataContract.UserDataResponse",
          "name": "",
          "type": "tuple"
        }
      ],
      "stateMutability": "view",
      "type": "function"
    }
  ],
  "bytecode": "0x60806040523480156200001157600080fd5b506040518060400160405280600481526020017f6e616d6500000000000000000000000000000000000000000000000000000000815250600060405162000058906200018e565b9081526020016040518091039020600201600080815260200190815260200160002060000190816200008b91906200041f565b506040518060400160405280600581526020017f4a6f68616e0000000000000000000000000000000000000000000000000000008152506000604051620000d2906200018e565b9081526020016040518091039020600201600080815260200190815260200160002060010190816200010591906200041f565b506001600060405162000118906200018e565b90815260200160405180910390206001018190555062000506565b600081905092915050565b7f6161610000000000000000000000000000000000000000000000000000000000600082015250565b60006200017660038362000133565b915062000183826200013e565b600382019050919050565b60006200019b8262000167565b9150819050919050565b600081519050919050565b7f4e487b7100000000000000000000000000000000000000000000000000000000600052604160045260246000fd5b7f4e487b7100000000000000000000000000000000000000000000000000000000600052602260045260246000fd5b600060028204905060018216806200022757607f821691505b6020821081036200023d576200023c620001df565b5b50919050565b60008190508160005260206000209050919050565b60006020601f8301049050919050565b600082821b905092915050565b600060088302620002a77fffffffffffffffffffffffffffffffffffffffffffffffffffffffffffffffff8262000268565b620002b3868362000268565b95508019841693508086168417925050509392505050565b6000819050919050565b6000819050919050565b600062000300620002fa620002f484620002cb565b620002d5565b620002cb565b9050919050565b6000819050919050565b6200031c83620002df565b620003346200032b8262000307565b84845462000275565b825550505050565b600090565b6200034b6200033c565b6200035881848462000311565b505050565b5b8181101562000380576200037460008262000341565b6001810190506200035e565b5050565b601f821115620003cf57620003998162000243565b620003a48462000258565b81016020851015620003b4578190505b620003cc620003c38562000258565b8301826200035d565b50505b505050565b600082821c905092915050565b6000620003f460001984600802620003d4565b1980831691505092915050565b60006200040f8383620003e1565b9150826002028217905092915050565b6200042a82620001a5565b67ffffffffffffffff811115620004465762000445620001b0565b5b6200045282546200020e565b6200045f82828562000384565b600060209050601f83116001811462000497576000841562000482578287015190505b6200048e858262000401565b865550620004fe565b601f198416620004a78662000243565b60005b82811015620004d157848901518255600182019150602085019450602081019050620004aa565b86831015620004f15784890151620004ed601f891682620003e1565b8355505b6001600288020188555050505b505050505050565b612f0880620005166000396000f3fe608060405234801561001057600080fd5b50600436106100935760003560e01c806354ab24031161006657806354ab2403146100e45780636cea9ba214610114578063b957297514610130578063d04287a814610160578063fa1868ff1461017c57610093565b80631a38bd151461009857806322fea673146100a25780634ea5b286146100ac578063507ffba5146100c8575b600080fd5b6100a06101ac565b005b6100aa6101ae565b005b6100c660048036038101906100c19190612304565b61029c565b005b6100e260048036038101906100dd919061234d565b6102e1565b005b6100fe60048036038101906100f9919061234d565b61035f565b60405161010b9190612688565b60405180910390f35b61012e60048036038101906101299190612762565b610ac8565b005b61014a600480360381019061014591906127ab565b610b9f565b6040516101579190612867565b60405180910390f35b61017a600480360381019061017591906128bf565b610f13565b005b6101966004803603810190610191919061297a565b610f9f565b6040516101a39190612a78565b60405180910390f35b565b6040518060400160405280600881526020017f746573746e616d6500000000000000000000000000000000000000000000000081525060006040516101f290612af1565b9081526020016040518091039020600201600080815260200190815260200160002060000190816102239190612d12565b506040518060400160405280600981526020017f7465737476616c75650000000000000000000000000000000000000000000000815250600060405161026890612af1565b9081526020016040518091039020600201600080815260200190815260200160002060010190816102999190612d12565b50565b600081602001515111156102bd576102bc81600001518260200151611314565b5b600081604001515111156102de576102dd81600001518260400151611621565b5b50565b806000826040516102f29190612e15565b9081526020016040518091039020600001908161030f9190612d12565b50600080826040516103219190612e15565b908152602001604051809103902060010181905550600080826040516103479190612e15565b90815260200160405180910390206003018190555050565b610367611c23565b600080836040516103789190612e15565b908152602001604051809103902060010154905060008167ffffffffffffffff8111156103a8576103a7611ca2565b5b6040519080825280602002602001820160405280156103e157816020015b6103ce611c44565b8152602001906001900390816103c65790505b50905060005b6000856040516103f79190612e15565b9081526020016040518091039020600101548110156105e3576000856040516104209190612e15565b90815260200160405180910390206002016000828152602001908152602001600020600001805461045090612b35565b80601f016020809104026020016040519081016040528092919081815260200182805461047c90612b35565b80156104c95780601f1061049e576101008083540402835291602001916104c9565b820191906000526020600020905b8154815290600101906020018083116104ac57829003601f168201915b50505050508282815181106104e1576104e0612e2c565b5b6020026020010151600001819052506000856040516105009190612e15565b90815260200160405180910390206002016000828152602001908152602001600020600101805461053090612b35565b80601f016020809104026020016040519081016040528092919081815260200182805461055c90612b35565b80156105a95780601f1061057e576101008083540402835291602001916105a9565b820191906000526020600020905b81548152906001019060200180831161058c57829003601f168201915b50505050508282815181106105c1576105c0612e2c565b5b60200260200101516020018190525080806105db90612e8a565b9150506103e7565b506000846040516105f49190612e15565b908152602001604051809103902060030154915060008267ffffffffffffffff81111561062457610623611ca2565b5b60405190808252806020026020018201604052801561065d57816020015b61064a611c5e565b8152602001906001900390816106425790505b50905060005b6000866040516106739190612e15565b908152602001604051809103902060030154811015610aa25760008660405161069c9190612e15565b9081526020016040518091039020600401600082815260200190815260200160002060000180546106cc90612b35565b80601f01602080910402602001604051908101604052809291908181526020018280546106f890612b35565b80156107455780601f1061071a57610100808354040283529160200191610745565b820191906000526020600020905b81548152906001019060200180831161072857829003601f168201915b505050505082828151811061075d5761075c612e2c565b5b60200260200101516000018190525060008660405161077c9190612e15565b908152602001604051809103902060040160008281526020019081526020016000206001015467ffffffffffffffff8111156107bb576107ba611ca2565b5b6040519080825280602002602001820160405280156107f457816020015b6107e1611c44565b8152602001906001900390816107d95790505b5082828151811061080857610807612e2c565b5b60200260200101516020018190525060005b60008760405161082a9190612e15565b9081526020016040518091039020600401600083815260200190815260200160002060010154811015610a8e576000876040516108679190612e15565b90815260200160405180910390206004016000838152602001908152602001600020600201600082815260200190815260200160002060000180546108ab90612b35565b80601f01602080910402602001604051908101604052809291908181526020018280546108d790612b35565b80156109245780601f106108f957610100808354040283529160200191610924565b820191906000526020600020905b81548152906001019060200180831161090757829003601f168201915b505050505083838151811061093c5761093b612e2c565b5b602002602001015160200151828151811061095a57610959612e2c565b5b6020026020010151600001819052506000876040516109799190612e15565b90815260200160405180910390206004016000838152602001908152602001600020600201600082815260200190815260200160002060010180546109bd90612b35565b80601f01602080910402602001604051908101604052809291908181526020018280546109e990612b35565b8015610a365780601f10610a0b57610100808354040283529160200191610a36565b820191906000526020600020905b815481529060010190602001808311610a1957829003601f168201915b5050505050838381518110610a4e57610a4d612e2c565b5b6020026020010151602001518281518110610a6c57610a6b612e2c565b5b6020026020010151602001819052508080610a8690612e8a565b91505061081a565b508080610a9a90612e8a565b915050610663565b506040518060600160405280868152602001838152602001828152509350505050919050565b6000808260000151604051610add9190612e15565b90815260200160405180910390206001016000815480929190610aff90612e8a565b919050559050816020015160008360000151604051610b1e9190612e15565b908152602001604051809103902060020160008381526020019081526020016000206000019081610b4f9190612d12565b50816040015160008360000151604051610b699190612e15565b908152602001604051809103902060020160008381526020019081526020016000206001019081610b9a9190612d12565b505050565b610ba7611c5e565b610baf611c5e565b60005b600085604051610bc29190612e15565b908152602001604051809103902060030154811015610f0857610ca2600086604051610bee9190612e15565b908152602001604051809103902060040160008381526020019081526020016000206000018054610c1e90612b35565b80601f0160208091040260200160405190810160405280929190818152602001828054610c4a90612b35565b8015610c975780601f10610c6c57610100808354040283529160200191610c97565b820191906000526020600020905b815481529060010190602001808311610c7a57829003601f168201915b505050505085611a1f565b15610ef55783826000018190525060005b600086604051610cc39190612e15565b9081526020016040518091039020600401600083815260200190815260200160002060010154811015610ef357600086604051610d009190612e15565b9081526020016040518091039020600401600083815260200190815260200160002060020160008281526020019081526020016000206000018054610d4490612b35565b80601f0160208091040260200160405190810160405280929190818152602001828054610d7090612b35565b8015610dbd5780601f10610d9257610100808354040283529160200191610dbd565b820191906000526020600020905b815481529060010190602001808311610da057829003601f168201915b505050505083602001518281518110610dd957610dd8612e2c565b5b602002602001015160000181905250600086604051610df89190612e15565b9081526020016040518091039020600401600083815260200190815260200160002060020160008281526020019081526020016000206001018054610e3c90612b35565b80601f0160208091040260200160405190810160405280929190818152602001828054610e6890612b35565b8015610eb55780601f10610e8a57610100808354040283529160200191610eb5565b820191906000526020600020905b815481529060010190602001808311610e9857829003601f168201915b505050505083602001518281518110610ed157610ed0612e2c565b5b6020026020010151602001819052508080610eeb90612e8a565b915050610cb3565b505b8080610f0090612e8a565b915050610bb2565b508091505092915050565b81600085604051610f249190612e15565b908152602001604051809103902060020160008581526020019081526020016000206000019081610f559190612d12565b5080600085604051610f679190612e15565b908152602001604051809103902060020160008581526020019081526020016000206001019081610f989190612d12565b5050505050565b60606000825167ffffffffffffffff811115610fbe57610fbd611ca2565b5b604051908082528060200260200182016040528015610ff757816020015b610fe4611c44565b815260200190600190039081610fdc5790505b50905060005b83518110156113095760005b6000866040516110199190612e15565b9081526020016040518091039020600101548110156112f5576111176000876040516110459190612e15565b90815260200160405180910390206002016000838152602001908152602001600020600001805461107590612b35565b80601f01602080910402602001604051908101604052809291908181526020018280546110a190612b35565b80156110ee5780601f106110c3576101008083540402835291602001916110ee565b820191906000526020600020905b8154815290600101906020018083116110d157829003601f168201915b505050505086848151811061110657611105612e2c565b5b602002602001015160000151611a1f565b156112e15760008660405161112c9190612e15565b90815260200160405180910390206002016000828152602001908152602001600020600001805461115c90612b35565b80601f016020809104026020016040519081016040528092919081815260200182805461118890612b35565b80156111d55780601f106111aa576101008083540402835291602001916111d5565b820191906000526020600020905b8154815290600101906020018083116111b857829003601f168201915b50505050508383815181106111ed576111ec612e2c565b5b60200260200101516000018190525060008660405161120c9190612e15565b90815260200160405180910390206002016000828152602001908152602001600020600101805461123c90612b35565b80601f016020809104026020016040519081016040528092919081815260200182805461126890612b35565b80156112b55780601f1061128a576101008083540402835291602001916112b5565b820191906000526020600020905b81548152906001019060200180831161129857829003601f168201915b50505050508383815181106112cd576112cc612e2c565b5b6020026020010151602001819052506112e2565b5b80806112ed90612e8a565b915050611009565b50808061130190612e8a565b915050610ffd565b508091505092915050565b60005b815181101561161c5781818151811061133357611332612e2c565b5b602002602001015160200151156114e15760005b6000846040516113579190612e15565b9081526020016040518091039020600101548110156114db576114596000856040516113839190612e15565b9081526020016040518091039020600201600083815260200190815260200160002060000180546113b390612b35565b80601f01602080910402602001604051908101604052809291908181526020018280546113df90612b35565b801561142c5780601f106114015761010080835404028352916020019161142c565b820191906000526020600020905b81548152906001019060200180831161140f57829003601f168201915b505050505084848151811061144457611443612e2c565b5b60200260200101516000015160000151611a1f565b156114c85782828151811061147157611470612e2c565b5b602002602001015160000151602001516000856040516114919190612e15565b9081526020016040518091039020600201600083815260200190815260200160002060010190816114c29190612d12565b506114db565b80806114d390612e8a565b915050611347565b50611609565b600080846040516114f29190612e15565b90815260200160405180910390206001015490506000846040516115169190612e15565b9081526020016040518091039020600101600081548092919061153890612e8a565b91905055508282815181106115505761154f612e2c565b5b602002602001015160000151600001516000856040516115709190612e15565b9081526020016040518091039020600201600083815260200190815260200160002060000190816115a19190612d12565b508282815181106115b5576115b4612e2c565b5b602002602001015160000151602001516000856040516115d59190612e15565b9081526020016040518091039020600201600083815260200190815260200160002060010190816116069190612d12565b50505b808061161490612e8a565b915050611317565b505050565b60005b8151811015611a1a578181815181106116405761163f612e2c565b5b602002602001015160200151156117ae5760005b6000846040516116649190612e15565b9081526020016040518091039020600301548110156117a8576117626000856040516116909190612e15565b9081526020016040518091039020600401600083815260200190815260200160002060000180546116c090612b35565b80601f01602080910402602001604051908101604052809291908181526020018280546116ec90612b35565b80156117395780601f1061170e57610100808354040283529160200191611739565b820191906000526020600020905b81548152906001019060200180831161171c57829003601f168201915b505050505084848151811061175157611750612e2c565b5b602002602001015160000151611a1f565b1561179557611790848285858151811061177f5761177e612e2c565b5b602002602001015160400151611a4a565b6117a8565b80806117a090612e8a565b915050611654565b50611a07565b600080846040516117bf9190612e15565b908152602001604051809103902060030160008154809291906117e190612e8a565b9190505590508282815181106117fa576117f9612e2c565b5b6020026020010151600001516000856040516118169190612e15565b9081526020016040518091039020600401600083815260200190815260200160002060000190816118479190612d12565b5082828151811061185b5761185a612e2c565b5b602002602001015160400151516000856040516118789190612e15565b908152602001604051809103902060040160008381526020019081526020016000206001018190555060005b8383815181106118b7576118b6612e2c565b5b60200260200101516040015151811015611a04578383815181106118de576118dd612e2c565b5b60200260200101516040015181815181106118fc576118fb612e2c565b5b6020026020010151600001516000866040516119189190612e15565b908152602001604051809103902060040160008481526020019081526020016000206002016000838152602001908152602001600020600001908161195d9190612d12565b5083838151811061197157611970612e2c565b5b602002602001015160400151818151811061198f5761198e612e2c565b5b6020026020010151602001516000866040516119ab9190612e15565b90815260200160405180910390206004016000848152602001908152602001600020600201600083815260200190815260200160002060010190816119f09190612d12565b5080806119fc90612e8a565b9150506118a4565b50505b8080611a1290612e8a565b915050611624565b505050565b60008180519060200120838051906020012003611a3f5760019050611a44565b600090505b92915050565b60005b8151811015611c1d5760005b600085604051611a699190612e15565b908152602001604051809103902060010154811015611c0957611b7b600086604051611a959190612e15565b9081526020016040518091039020600401600086815260200190815260200160002060020160008381526020019081526020016000206000018054611ad990612b35565b80601f0160208091040260200160405190810160405280929190818152602001828054611b0590612b35565b8015611b525780601f10611b2757610100808354040283529160200191611b52565b820191906000526020600020905b815481529060010190602001808311611b3557829003601f168201915b5050505050848481518110611b6a57611b69612e2c565b5b602002602001015160000151611a1f565b15611bf657828281518110611b9357611b92612e2c565b5b602002602001015160200151600086604051611baf9190612e15565b9081526020016040518091039020600401600086815260200190815260200160002060020160008381526020019081526020016000206001019081611bf49190612d12565b505b8080611c0190612e8a565b915050611a59565b508080611c1590612e8a565b915050611a4d565b50505050565b60405180606001604052806060815260200160608152602001606081525090565b604051806040016040528060608152602001606081525090565b604051806040016040528060608152602001606081525090565b6000604051905090565b600080fd5b600080fd5b600080fd5b6000601f19601f8301169050919050565b7f4e487b7100000000000000000000000000000000000000000000000000000000600052604160045260246000fd5b611cda82611c91565b810181811067ffffffffffffffff82111715611cf957611cf8611ca2565b5b80604052505050565b6000611d0c611c78565b9050611d188282611cd1565b919050565b600080fd5b600080fd5b600080fd5b600067ffffffffffffffff821115611d4757611d46611ca2565b5b611d5082611c91565b9050602081019050919050565b82818337600083830152505050565b6000611d7f611d7a84611d2c565b611d02565b905082815260208101848484011115611d9b57611d9a611d27565b5b611da6848285611d5d565b509392505050565b600082601f830112611dc357611dc2611d22565b5b8135611dd3848260208601611d6c565b91505092915050565b600067ffffffffffffffff821115611df757611df6611ca2565b5b602082029050602081019050919050565b600080fd5b600060408284031215611e2357611e22611c8c565b5b611e2d6040611d02565b9050600082013567ffffffffffffffff811115611e4d57611e4c611d1d565b5b611e5984828501611dae565b600083015250602082013567ffffffffffffffff811115611e7d57611e7c611d1d565b5b611e8984828501611dae565b60208301525092915050565b60008115159050919050565b611eaa81611e95565b8114611eb557600080fd5b50565b600081359050611ec781611ea1565b92915050565b600060408284031215611ee357611ee2611c8c565b5b611eed6040611d02565b9050600082013567ffffffffffffffff811115611f0d57611f0c611d1d565b5b611f1984828501611e0d565b6000830152506020611f2d84828501611eb8565b60208301525092915050565b6000611f4c611f4784611ddc565b611d02565b90508083825260208201905060208402830185811115611f6f57611f6e611e08565b5b835b81811015611fb657803567ffffffffffffffff811115611f9457611f93611d22565b5b808601611fa18982611ecd565b85526020850194505050602081019050611f71565b5050509392505050565b600082601f830112611fd557611fd4611d22565b5b8135611fe5848260208601611f39565b91505092915050565b600067ffffffffffffffff82111561200957612008611ca2565b5b602082029050602081019050919050565b600067ffffffffffffffff82111561203557612034611ca2565b5b602082029050602081019050919050565b60006120596120548461201a565b611d02565b9050808382526020820190506020840283018581111561207c5761207b611e08565b5b835b818110156120c357803567ffffffffffffffff8111156120a1576120a0611d22565b5b8086016120ae8982611e0d565b8552602085019450505060208101905061207e565b5050509392505050565b600082601f8301126120e2576120e1611d22565b5b81356120f2848260208601612046565b91505092915050565b60006060828403121561211157612110611c8c565b5b61211b6060611d02565b9050600082013567ffffffffffffffff81111561213b5761213a611d1d565b5b61214784828501611dae565b600083015250602061215b84828501611eb8565b602083015250604082013567ffffffffffffffff81111561217f5761217e611d1d565b5b61218b848285016120cd565b60408301525092915050565b60006121aa6121a584611fee565b611d02565b905080838252602082019050602084028301858111156121cd576121cc611e08565b5b835b8181101561221457803567ffffffffffffffff8111156121f2576121f1611d22565b5b8086016121ff89826120fb565b855260208501945050506020810190506121cf565b5050509392505050565b600082601f83011261223357612232611d22565b5b8135612243848260208601612197565b91505092915050565b60006060828403121561226257612261611c8c565b5b61226c6060611d02565b9050600082013567ffffffffffffffff81111561228c5761228b611d1d565b5b61229884828501611dae565b600083015250602082013567ffffffffffffffff8111156122bc576122bb611d1d565b5b6122c884828501611fc0565b602083015250604082013567ffffffffffffffff8111156122ec576122eb611d1d565b5b6122f88482850161221e565b60408301525092915050565b60006020828403121561231a57612319611c82565b5b600082013567ffffffffffffffff81111561233857612337611c87565b5b6123448482850161224c565b91505092915050565b60006020828403121561236357612362611c82565b5b600082013567ffffffffffffffff81111561238157612380611c87565b5b61238d84828501611dae565b91505092915050565b600081519050919050565b600082825260208201905092915050565b60005b838110156123d05780820151818401526020810190506123b5565b838111156123df576000848401525b50505050565b60006123f082612396565b6123fa81856123a1565b935061240a8185602086016123b2565b61241381611c91565b840191505092915050565b600081519050919050565b600082825260208201905092915050565b6000819050602082019050919050565b6000604083016000830151848203600086015261246782826123e5565b9150506020830151848203602086015261248182826123e5565b9150508091505092915050565b600061249a838361244a565b905092915050565b6000602082019050919050565b60006124ba8261241e565b6124c48185612429565b9350836020820285016124d68561243a565b8060005b8581101561251257848403895281516124f3858261248e565b94506124fe836124a2565b925060208a019950506001810190506124da565b50829750879550505050505092915050565b600081519050919050565b600082825260208201905092915050565b6000819050602082019050919050565b6000604083016000830151848203600086015261256d82826123e5565b9150506020830151848203602086015261258782826124af565b9150508091505092915050565b60006125a08383612550565b905092915050565b6000602082019050919050565b60006125c082612524565b6125ca818561252f565b9350836020820285016125dc85612540565b8060005b8581101561261857848403895281516125f98582612594565b9450612604836125a8565b925060208a019950506001810190506125e0565b50829750879550505050505092915050565b6000606083016000830151848203600086015261264782826123e5565b9150506020830151848203602086015261266182826124af565b9150506040830151848203604086015261267b82826125b5565b9150508091505092915050565b600060208201905081810360008301526126a2818461262a565b905092915050565b6000606082840312156126c0576126bf611c8c565b5b6126ca6060611d02565b9050600082013567ffffffffffffffff8111156126ea576126e9611d1d565b5b6126f684828501611dae565b600083015250602082013567ffffffffffffffff81111561271a57612719611d1d565b5b61272684828501611dae565b602083015250604082013567ffffffffffffffff81111561274a57612749611d1d565b5b61275684828501611dae565b60408301525092915050565b60006020828403121561277857612777611c82565b5b600082013567ffffffffffffffff81111561279657612795611c87565b5b6127a2848285016126aa565b91505092915050565b600080604083850312156127c2576127c1611c82565b5b600083013567ffffffffffffffff8111156127e0576127df611c87565b5b6127ec85828601611dae565b925050602083013567ffffffffffffffff81111561280d5761280c611c87565b5b61281985828601611dae565b9150509250929050565b6000604083016000830151848203600086015261284082826123e5565b9150506020830151848203602086015261285a82826124af565b9150508091505092915050565b600060208201905081810360008301526128818184612823565b905092915050565b6000819050919050565b61289c81612889565b81146128a757600080fd5b50565b6000813590506128b981612893565b92915050565b600080600080608085870312156128d9576128d8611c82565b5b600085013567ffffffffffffffff8111156128f7576128f6611c87565b5b61290387828801611dae565b9450506020612914878288016128aa565b935050604085013567ffffffffffffffff81111561293557612934611c87565b5b61294187828801611dae565b925050606085013567ffffffffffffffff81111561296257612961611c87565b5b61296e87828801611dae565b91505092959194509250565b6000806040838503121561299157612990611c82565b5b600083013567ffffffffffffffff8111156129af576129ae611c87565b5b6129bb85828601611dae565b925050602083013567ffffffffffffffff8111156129dc576129db611c87565b5b6129e8858286016120cd565b9150509250929050565b600082825260208201905092915050565b6000612a0e8261241e565b612a1881856129f2565b935083602082028501612a2a8561243a565b8060005b85811015612a665784840389528151612a47858261248e565b9450612a52836124a2565b925060208a01995050600181019050612a2e565b50829750879550505050505092915050565b60006020820190508181036000830152612a928184612a03565b905092915050565b600081905092915050565b7f7465737400000000000000000000000000000000000000000000000000000000600082015250565b6000612adb600483612a9a565b9150612ae682612aa5565b600482019050919050565b6000612afc82612ace565b9150819050919050565b7f4e487b7100000000000000000000000000000000000000000000000000000000600052602260045260246000fd5b60006002820490506001821680612b4d57607f821691505b602082108103612b6057612b5f612b06565b5b50919050565b60008190508160005260206000209050919050565b60006020601f8301049050919050565b600082821b905092915050565b600060088302612bc87fffffffffffffffffffffffffffffffffffffffffffffffffffffffffffffffff82612b8b565b612bd28683612b8b565b95508019841693508086168417925050509392505050565b6000819050919050565b6000612c0f612c0a612c0584612889565b612bea565b612889565b9050919050565b6000819050919050565b612c2983612bf4565b612c3d612c3582612c16565b848454612b98565b825550505050565b600090565b612c52612c45565b612c5d818484612c20565b505050565b5b81811015612c8157612c76600082612c4a565b600181019050612c63565b5050565b601f821115612cc657612c9781612b66565b612ca084612b7b565b81016020851015612caf578190505b612cc3612cbb85612b7b565b830182612c62565b50505b505050565b600082821c905092915050565b6000612ce960001984600802612ccb565b1980831691505092915050565b6000612d028383612cd8565b9150826002028217905092915050565b612d1b82612396565b67ffffffffffffffff811115612d3457612d33611ca2565b5b612d3e8254612b35565b612d49828285612c85565b600060209050601f831160018114612d7c5760008415612d6a578287015190505b612d748582612cf6565b865550612ddc565b601f198416612d8a86612b66565b60005b82811015612db257848901518255600182019150602085019450602081019050612d8d565b86831015612dcf5784890151612dcb601f891682612cd8565b8355505b6001600288020188555050505b505050505050565b6000612def82612396565b612df98185612a9a565b9350612e098185602086016123b2565b80840191505092915050565b6000612e218284612de4565b915081905092915050565b7f4e487b7100000000000000000000000000000000000000000000000000000000600052603260045260246000fd5b7f4e487b7100000000000000000000000000000000000000000000000000000000600052601160045260246000fd5b6000612e9582612889565b91507fffffffffffffffffffffffffffffffffffffffffffffffffffffffffffffffff8203612ec757612ec6612e5b565b5b60018201905091905056fea2646970667358221220021d15f7e5875f2fd73c536f33db5e0f36d419773123a37abc9dc046702ee0de64736f6c634300080f0033",
  "immutableReferences": {},
  "source": "pragma solidity >=0.8.9;\r\n\r\n//SPDX-License-Identifier: UNLICENSED\r\n\r\ncontract UserDataContract {\r\n\r\n    /* Attributes stored in UserData and Credential. */\r\n    struct Attribute {\r\n        string name;\r\n        string value;\r\n    }\r\n\r\n    /* Credential consisting of attributes and an organization name. */\r\n    struct Credential {\r\n        string organization;\r\n        uint attributeCount;\r\n        mapping (uint => Attribute) attributes;\r\n    }\r\n\r\n    /* UserData is where the bulk of user's data will be stored using Credential and Attribute. */\r\n    struct UserData {\r\n        string id;\r\n\r\n        uint attributeCount;\r\n        mapping (uint => Attribute) attributes;\r\n\r\n        uint credentialCount;\r\n        mapping (uint => Credential) credentials;\r\n    }\r\n\r\n    /* What will be returned in place of a Credential struct. */\r\n    struct CredentialResponse {\r\n        string organization;\r\n        Attribute[] attributes;\r\n    }\r\n\r\n    /* What will be returned in place of a UserData struct. */\r\n    struct UserDataResponse{\r\n        string id;\r\n        Attribute[] attributes;\r\n        CredentialResponse[] credentials;\r\n    }\r\n\r\n    /* Received in paramets to update attributes, this improves gas usage by knowing when to insert and when to update. */\r\n    struct AttributeUpdate {\r\n        Attribute attribute;\r\n        bool isUpdate;\r\n    }\r\n\r\n    /* Received in paramets to update credentials, this improves gas usage by knowing when to insert and when to update */\r\n    struct CredentialUpdate {\r\n        string organization;\r\n        bool isUpdate;\r\n        Attribute[] attributes;\r\n    }\r\n\r\n    /* Single functions for update to test integration methods */\r\n    struct Update {\r\n        string id;\r\n        AttributeUpdate[] attributes;\r\n        CredentialUpdate[] credentials;\r\n    }\r\n\r\n    /* Single parameter to update an attribute */\r\n    struct UpdateAttribute {\r\n        string id;\r\n        string name;\r\n        string value;\r\n    }\r\n\r\n    /* All stored user's data can be accessed through the allUserData attribute. */\r\n    mapping (string => UserData) allUserData;\r\n\r\n    constructor() {\r\n        allUserData[\"aaa\"].attributes[0].name = \"name\";\r\n        allUserData[\"aaa\"].attributes[0].value = \"Johan\";\r\n        allUserData[\"aaa\"].attributeCount= 1;\r\n    }\r\n\r\n    /* Create and return a new user's data. */\r\n    function createUser(string memory _id) public {\r\n        allUserData[_id].id = _id;\r\n        allUserData[_id].attributeCount = 0;\r\n        allUserData[_id].credentialCount = 0;\r\n    }\r\n\r\n    function updateAttribute(string memory _id, uint index, string memory name, string memory value) public {\r\n        allUserData[_id].attributes[index].name = name;\r\n        allUserData[_id].attributes[index].value = value;\r\n    }\r\n\r\n    function createAttribute(UpdateAttribute memory attribute) public {\r\n        uint index = allUserData[attribute.id].attributeCount++;\r\n        allUserData[attribute.id].attributes[index].name = attribute.name;\r\n        allUserData[attribute.id].attributes[index].value = attribute.value;\r\n    }\r\n\r\n    function createAttributeX() public {\r\n        //uint index = allUserData[\"test\"].attributeCount++;\r\n        allUserData[\"test\"].attributes[0].name = \"testname\";\r\n        allUserData[\"test\"].attributes[0].value = \"testvalue\";\r\n    }\r\n\r\n    function createAttributeY() public {\r\n        \r\n    }\r\n\r\n    /* Returns the desired attributes for requested data. */\r\n    function getAttributesTransaction(string memory _id, Attribute[] memory attributes) public view returns (Attribute[] memory) {\r\n\r\n        Attribute[] memory res = new Attribute[](attributes.length);\r\n\r\n        for (uint i=0; i<attributes.length; i++) {\r\n            for (uint k=0; k<allUserData[_id].attributeCount; k++) {\r\n                if (stringCompare(allUserData[_id].attributes[k].name, attributes[i].name)) {\r\n                    res[i].name = allUserData[_id].attributes[k].name;\r\n                    res[i].value = allUserData[_id].attributes[k].value;\r\n                    continue;\r\n                }\r\n            }\r\n        }\r\n\r\n        return res;\r\n    }\r\n\r\n    /* Returns the desired Credential and its associated attributes. */\r\n    function getCredentialTransaction(string memory _id, string memory organization) public view returns (CredentialResponse memory) {\r\n\r\n        CredentialResponse memory cred;\r\n\r\n        for (uint i=0; i<allUserData[_id].credentialCount; i++) {\r\n            if (stringCompare(allUserData[_id].credentials[i].organization, organization)) {\r\n                cred.organization = organization;\r\n\r\n                for (uint k=0; k<allUserData[_id].credentials[i].attributeCount; k++) {\r\n                    cred.attributes[k].name = allUserData[_id].credentials[i].attributes[k].name;\r\n                    cred.attributes[k].value = allUserData[_id].credentials[i].attributes[k].value;\r\n                }\r\n            }\r\n        }\r\n\r\n        return cred;\r\n    }\r\n\r\n    /* Add and Update UserData by id. */\r\n    //function updateUser(string memory _id, AttributeUpdate[] memory attributes, CredentialUpdate[] memory credentials) public {\r\n    function updateUser(Update memory update) public {\r\n        \r\n        //add/update all new attributes\r\n        if (update.attributes.length > 0) updateAttributes(update.id, update.attributes);\r\n\r\n        //add and update all new credentials\r\n        if (update.credentials.length > 0) updateCredentials(update.id, update.credentials);\r\n\r\n    }\r\n\r\n    /* Updates the relevant attributes for the appropriate credentials. */\r\n    function updateCredentials(string memory _id, CredentialUpdate[] memory credentials) private {\r\n\r\n        for (uint i=0; i<credentials.length; i++) {\r\n\r\n            //update existing credentials\r\n            if (credentials[i].isUpdate) {\r\n\r\n                //find right credential by organization\r\n                for (uint k=0; k<allUserData[_id].credentialCount; k++) {\r\n                    if (stringCompare(allUserData[_id].credentials[k].organization, credentials[i].organization)) {\r\n                        //update credential's attributes\r\n                        updateCredentialAttributes(_id, k, credentials[i].attributes);\r\n                        break;\r\n                    }  \r\n                }\r\n\r\n                continue;\r\n            }\r\n\r\n            //insert new credentials\r\n            uint index = allUserData[_id].credentialCount++;\r\n            allUserData[_id].credentials[index].organization = credentials[i].organization;\r\n            allUserData[_id].credentials[index].attributeCount = credentials[i].attributes.length;\r\n\r\n            for (uint k=0; k<credentials[i].attributes.length; k++) {\r\n                allUserData[_id].credentials[index].attributes[k].name = credentials[i].attributes[k].name;\r\n                allUserData[_id].credentials[index].attributes[k].value = credentials[i].attributes[k].value;\r\n            }\r\n        }   \r\n\r\n    }\r\n\r\n    /* Updates relevant Attributes for specified credential and organization in storage. */\r\n    function updateCredentialAttributes(string memory _id, uint org, Attribute[] memory attributes) private {\r\n        \r\n        for (uint i=0; i<attributes.length; i++) {\r\n            for (uint k=0; k<allUserData[_id].attributeCount; k++) {\r\n                if (stringCompare(allUserData[_id].credentials[org].attributes[k].name, attributes[i].name)) {\r\n                    allUserData[_id].credentials[org].attributes[k].value = attributes[i].value;\r\n                }\r\n            }\r\n        }\r\n    }\r\n\r\n    /* Updates relevant Attribute values in storage. */\r\n    function updateAttributes(string memory _id, AttributeUpdate[] memory attributes) private {\r\n        \r\n        for (uint i=0; i<attributes.length; i++) {\r\n\r\n            //update existing attribute\r\n            if (attributes[i].isUpdate) {\r\n\r\n                for (uint k=0; k<allUserData[_id].attributeCount; k++) {\r\n                    if (stringCompare(allUserData[_id].attributes[k].name, attributes[i].attribute.name)) {\r\n                        allUserData[_id].attributes[k].value = attributes[i].attribute.value;\r\n                        break;\r\n                    }\r\n                }\r\n                continue;\r\n            }\r\n\r\n            //add new attribute\r\n            uint index = allUserData[_id].attributeCount;\r\n            allUserData[_id].attributeCount++;\r\n            allUserData[_id].attributes[index].name = attributes[i].attribute.name;\r\n            allUserData[_id].attributes[index].value = attributes[i].attribute.value;\r\n        }\r\n\r\n    }\r\n\r\n    /* Returns the enitre UserData for the specified id. */\r\n    function getUserData(string memory _id) public view returns (UserDataResponse memory) {\r\n        \r\n        //Create Attribute array\r\n        uint size = allUserData[_id].attributeCount;\r\n        Attribute[] memory attrs = new Attribute[](size);\r\n        \r\n        for (uint i=0; i<allUserData[_id].attributeCount; i++) {\r\n            attrs[i].name = allUserData[_id].attributes[i].name;\r\n            attrs[i].value = allUserData[_id].attributes[i].value;\r\n        }\r\n\r\n        //Create Attribute arrays for Credential arrays\r\n        size = allUserData[_id].credentialCount;\r\n        CredentialResponse[] memory creds = new CredentialResponse[](size);\r\n\r\n        for (uint i=0; i<allUserData[_id].credentialCount; i++) {\r\n\r\n            creds[i].organization = allUserData[_id].credentials[i].organization;\r\n            creds[i].attributes = new Attribute[](allUserData[_id].credentials[i].attributeCount);\r\n\r\n            for (uint k=0; k<allUserData[_id].credentials[i].attributeCount; k++) {\r\n                creds[i].attributes[k].name = allUserData[_id].credentials[i].attributes[k].name;\r\n                creds[i].attributes[k].value = allUserData[_id].credentials[i].attributes[k].value;\r\n            }\r\n        }\r\n\r\n        //Create UserDataResponse\r\n        return (UserDataResponse({\r\n            id: _id,\r\n            attributes: attrs,\r\n            credentials: creds\r\n        }));\r\n    }\r\n\r\n    /* Compares two strings to see if they're equal or not. */\r\n    function stringCompare(string memory a, string memory b) private pure returns (bool) {\r\n        if (keccak256(bytes(a)) == keccak256(bytes(b)))\r\n            return true;\r\n        return false;\r\n    }\r\n\r\n    /* Returns a set of desired Attributes. */\r\n    /*function getAttributes(string memory _id, string[] memory attributes) public view returns (Attribute[] memory) {\r\n\r\n    }*/\r\n\r\n    /* Returns a set of desired Credentials. */\r\n    //function getCredentials(string memory _id, string memory organization) public view returns (CredentialResponse memory) {\r\n\r\n    //}\r\n}",
  "sourcePath": "C:\\Users\\Mxolisi Mkanzi\\Documents\\GitHub\\Exploring-Self-Sovereign-Identity\\LocalBlockchain\\contracts\\UserDataContract.sol",
  "compiler": {
    "name": "solc",
    "version": "0.8.15+commit.e14f2714.Emscripten.clang"
  },
  "schemaVersion": "3.4.8",
  "updatedAt": "2022-07-28T18:28:05.286Z",
  "devdoc": {
    "kind": "dev",
    "methods": {},
    "version": 1
  },
  "userdoc": {
    "kind": "user",
    "methods": {},
    "version": 1
  }
}