{
  "contractName": "UserDataContract",
  "abi": [
    {
      "inputs": [
        {
          "internalType": "string",
          "name": "_id",
          "type": "string"
        }
      ],
      "name": "createUser",
      "outputs": [],
      "stateMutability": "nonpayable",
      "type": "function"
    },
    {
      "inputs": [
        {
          "internalType": "string",
          "name": "_id",
          "type": "string"
        },
        {
          "components": [
            {
              "components": [
                {
                  "internalType": "string",
                  "name": "name",
                  "type": "string"
                },
                {
                  "internalType": "string",
                  "name": "value",
                  "type": "string"
                }
              ],
              "internalType": "struct UserDataContract.Attribute",
              "name": "attribute",
              "type": "tuple"
            },
            {
              "internalType": "bool",
              "name": "isUpdate",
              "type": "bool"
            }
          ],
          "internalType": "struct UserDataContract.AttributeUpdate[]",
          "name": "attributes",
          "type": "tuple[]"
        },
        {
          "components": [
            {
              "internalType": "string",
              "name": "organization",
              "type": "string"
            },
            {
              "internalType": "bool",
              "name": "isUpdate",
              "type": "bool"
            },
            {
              "components": [
                {
                  "internalType": "string",
                  "name": "name",
                  "type": "string"
                },
                {
                  "internalType": "string",
                  "name": "value",
                  "type": "string"
                }
              ],
              "internalType": "struct UserDataContract.Attribute[]",
              "name": "attributes",
              "type": "tuple[]"
            }
          ],
          "internalType": "struct UserDataContract.CredentialUpdate[]",
          "name": "credentials",
          "type": "tuple[]"
        }
      ],
      "name": "updateUser",
      "outputs": [],
      "stateMutability": "nonpayable",
      "type": "function"
    },
    {
      "inputs": [
        {
          "internalType": "string",
          "name": "_id",
          "type": "string"
        }
      ],
      "name": "getUserData",
      "outputs": [
        {
          "components": [
            {
              "internalType": "string",
              "name": "id",
              "type": "string"
            },
            {
              "components": [
                {
                  "internalType": "string",
                  "name": "name",
                  "type": "string"
                },
                {
                  "internalType": "string",
                  "name": "value",
                  "type": "string"
                }
              ],
              "internalType": "struct UserDataContract.Attribute[]",
              "name": "attributes",
              "type": "tuple[]"
            },
            {
              "components": [
                {
                  "internalType": "string",
                  "name": "organization",
                  "type": "string"
                },
                {
                  "components": [
                    {
                      "internalType": "string",
                      "name": "name",
                      "type": "string"
                    },
                    {
                      "internalType": "string",
                      "name": "value",
                      "type": "string"
                    }
                  ],
                  "internalType": "struct UserDataContract.Attribute[]",
                  "name": "attributes",
                  "type": "tuple[]"
                }
              ],
              "internalType": "struct UserDataContract.CredentialResponse[]",
              "name": "credentials",
              "type": "tuple[]"
            }
          ],
          "internalType": "struct UserDataContract.UserDataResponse",
          "name": "",
          "type": "tuple"
        }
      ],
      "stateMutability": "view",
      "type": "function",
      "constant": true
    }
  ],
  "bytecode": "0x608060405234801561001057600080fd5b50612017806100206000396000f3fe608060405234801561001057600080fd5b50600436106100415760003560e01c8063507ffba51461004657806354ab240314610062578063d7e0a0db14610092575b600080fd5b610060600480360381019061005b9190611382565b6100ae565b005b61007c60048036038101906100779190611382565b61012c565b60405161008991906116bd565b60405180910390f35b6100ac60048036038101906100a79190611b59565b610895565b005b806000826040516100bf9190611c3c565b908152602001604051809103902060000190816100dc9190611e69565b50600080826040516100ee9190611c3c565b908152602001604051809103902060010181905550600080826040516101149190611c3c565b90815260200160405180910390206003018190555050565b6101346111d3565b600080836040516101459190611c3c565b908152602001604051809103902060010154905060008167ffffffffffffffff81111561017557610174611257565b5b6040519080825280602002602001820160405280156101ae57816020015b61019b6111f4565b8152602001906001900390816101935790505b50905060005b6000856040516101c49190611c3c565b9081526020016040518091039020600101548110156103b0576000856040516101ed9190611c3c565b90815260200160405180910390206002016000828152602001908152602001600020600001805461021d90611c82565b80601f016020809104026020016040519081016040528092919081815260200182805461024990611c82565b80156102965780601f1061026b57610100808354040283529160200191610296565b820191906000526020600020905b81548152906001019060200180831161027957829003601f168201915b50505050508282815181106102ae576102ad611f3b565b5b6020026020010151600001819052506000856040516102cd9190611c3c565b9081526020016040518091039020600201600082815260200190815260200160002060010180546102fd90611c82565b80601f016020809104026020016040519081016040528092919081815260200182805461032990611c82565b80156103765780601f1061034b57610100808354040283529160200191610376565b820191906000526020600020905b81548152906001019060200180831161035957829003601f168201915b505050505082828151811061038e5761038d611f3b565b5b60200260200101516020018190525080806103a890611f99565b9150506101b4565b506000846040516103c19190611c3c565b908152602001604051809103902060030154915060008267ffffffffffffffff8111156103f1576103f0611257565b5b60405190808252806020026020018201604052801561042a57816020015b61041761120e565b81526020019060019003908161040f5790505b50905060005b6000866040516104409190611c3c565b90815260200160405180910390206003015481101561086f576000866040516104699190611c3c565b90815260200160405180910390206004016000828152602001908152602001600020600001805461049990611c82565b80601f01602080910402602001604051908101604052809291908181526020018280546104c590611c82565b80156105125780601f106104e757610100808354040283529160200191610512565b820191906000526020600020905b8154815290600101906020018083116104f557829003601f168201915b505050505082828151811061052a57610529611f3b565b5b6020026020010151600001819052506000866040516105499190611c3c565b908152602001604051809103902060040160008281526020019081526020016000206001015467ffffffffffffffff81111561058857610587611257565b5b6040519080825280602002602001820160405280156105c157816020015b6105ae6111f4565b8152602001906001900390816105a65790505b508282815181106105d5576105d4611f3b565b5b60200260200101516020018190525060005b6000876040516105f79190611c3c565b908152602001604051809103902060040160008381526020019081526020016000206001015481101561085b576000876040516106349190611c3c565b908152602001604051809103902060040160008381526020019081526020016000206002016000828152602001908152602001600020600001805461067890611c82565b80601f01602080910402602001604051908101604052809291908181526020018280546106a490611c82565b80156106f15780601f106106c6576101008083540402835291602001916106f1565b820191906000526020600020905b8154815290600101906020018083116106d457829003601f168201915b505050505083838151811061070957610708611f3b565b5b602002602001015160200151828151811061072757610726611f3b565b5b6020026020010151600001819052506000876040516107469190611c3c565b908152602001604051809103902060040160008381526020019081526020016000206002016000828152602001908152602001600020600101805461078a90611c82565b80601f01602080910402602001604051908101604052809291908181526020018280546107b690611c82565b80156108035780601f106107d857610100808354040283529160200191610803565b820191906000526020600020905b8154815290600101906020018083116107e657829003601f168201915b505050505083838151811061081b5761081a611f3b565b5b602002602001015160200151828151811061083957610838611f3b565b5b602002602001015160200181905250808061085390611f99565b9150506105e7565b50808061086790611f99565b915050610430565b506040518060600160405280868152602001838152602001828152509350505050919050565b6000825111156108aa576108a983836108c4565b5b6000815111156108bf576108be8382610bd1565b5b505050565b60005b8151811015610bcc578181815181106108e3576108e2611f3b565b5b60200260200101516020015115610a915760005b6000846040516109079190611c3c565b908152602001604051809103902060010154811015610a8b57610a096000856040516109339190611c3c565b90815260200160405180910390206002016000838152602001908152602001600020600001805461096390611c82565b80601f016020809104026020016040519081016040528092919081815260200182805461098f90611c82565b80156109dc5780601f106109b1576101008083540402835291602001916109dc565b820191906000526020600020905b8154815290600101906020018083116109bf57829003601f168201915b50505050508484815181106109f4576109f3611f3b565b5b60200260200101516000015160000151610fcf565b15610a7857828281518110610a2157610a20611f3b565b5b60200260200101516000015160200151600085604051610a419190611c3c565b908152602001604051809103902060020160008381526020019081526020016000206001019081610a729190611e69565b50610a8b565b8080610a8390611f99565b9150506108f7565b50610bb9565b60008084604051610aa29190611c3c565b9081526020016040518091039020600101549050600084604051610ac69190611c3c565b90815260200160405180910390206001016000815480929190610ae890611f99565b9190505550828281518110610b0057610aff611f3b565b5b60200260200101516000015160000151600085604051610b209190611c3c565b908152602001604051809103902060020160008381526020019081526020016000206000019081610b519190611e69565b50828281518110610b6557610b64611f3b565b5b60200260200101516000015160200151600085604051610b859190611c3c565b908152602001604051809103902060020160008381526020019081526020016000206001019081610bb69190611e69565b50505b8080610bc490611f99565b9150506108c7565b505050565b60005b8151811015610fca57818181518110610bf057610bef611f3b565b5b60200260200101516020015115610d5e5760005b600084604051610c149190611c3c565b908152602001604051809103902060030154811015610d5857610d12600085604051610c409190611c3c565b908152602001604051809103902060040160008381526020019081526020016000206000018054610c7090611c82565b80601f0160208091040260200160405190810160405280929190818152602001828054610c9c90611c82565b8015610ce95780601f10610cbe57610100808354040283529160200191610ce9565b820191906000526020600020905b815481529060010190602001808311610ccc57829003601f168201915b5050505050848481518110610d0157610d00611f3b565b5b602002602001015160000151610fcf565b15610d4557610d408482858581518110610d2f57610d2e611f3b565b5b602002602001015160400151610ffa565b610d58565b8080610d5090611f99565b915050610c04565b50610fb7565b60008084604051610d6f9190611c3c565b90815260200160405180910390206003016000815480929190610d9190611f99565b919050559050828281518110610daa57610da9611f3b565b5b602002602001015160000151600085604051610dc69190611c3c565b908152602001604051809103902060040160008381526020019081526020016000206000019081610df79190611e69565b50828281518110610e0b57610e0a611f3b565b5b60200260200101516040015151600085604051610e289190611c3c565b908152602001604051809103902060040160008381526020019081526020016000206001018190555060005b838381518110610e6757610e66611f3b565b5b60200260200101516040015151811015610fb457838381518110610e8e57610e8d611f3b565b5b6020026020010151604001518181518110610eac57610eab611f3b565b5b602002602001015160000151600086604051610ec89190611c3c565b9081526020016040518091039020600401600084815260200190815260200160002060020160008381526020019081526020016000206000019081610f0d9190611e69565b50838381518110610f2157610f20611f3b565b5b6020026020010151604001518181518110610f3f57610f3e611f3b565b5b602002602001015160200151600086604051610f5b9190611c3c565b9081526020016040518091039020600401600084815260200190815260200160002060020160008381526020019081526020016000206001019081610fa09190611e69565b508080610fac90611f99565b915050610e54565b50505b8080610fc290611f99565b915050610bd4565b505050565b60008180519060200120838051906020012003610fef5760019050610ff4565b600090505b92915050565b60005b81518110156111cd5760005b6000856040516110199190611c3c565b9081526020016040518091039020600101548110156111b95761112b6000866040516110459190611c3c565b908152602001604051809103902060040160008681526020019081526020016000206002016000838152602001908152602001600020600001805461108990611c82565b80601f01602080910402602001604051908101604052809291908181526020018280546110b590611c82565b80156111025780601f106110d757610100808354040283529160200191611102565b820191906000526020600020905b8154815290600101906020018083116110e557829003601f168201915b505050505084848151811061111a57611119611f3b565b5b602002602001015160000151610fcf565b156111a65782828151811061114357611142611f3b565b5b60200260200101516020015160008660405161115f9190611c3c565b90815260200160405180910390206004016000868152602001908152602001600020600201600083815260200190815260200160002060010190816111a49190611e69565b505b80806111b190611f99565b915050611009565b5080806111c590611f99565b915050610ffd565b50505050565b60405180606001604052806060815260200160608152602001606081525090565b604051806040016040528060608152602001606081525090565b604051806040016040528060608152602001606081525090565b6000604051905090565b600080fd5b600080fd5b600080fd5b600080fd5b6000601f19601f8301169050919050565b7f4e487b7100000000000000000000000000000000000000000000000000000000600052604160045260246000fd5b61128f82611246565b810181811067ffffffffffffffff821117156112ae576112ad611257565b5b80604052505050565b60006112c1611228565b90506112cd8282611286565b919050565b600067ffffffffffffffff8211156112ed576112ec611257565b5b6112f682611246565b9050602081019050919050565b82818337600083830152505050565b6000611325611320846112d2565b6112b7565b90508281526020810184848401111561134157611340611241565b5b61134c848285611303565b509392505050565b600082601f8301126113695761136861123c565b5b8135611379848260208601611312565b91505092915050565b60006020828403121561139857611397611232565b5b600082013567ffffffffffffffff8111156113b6576113b5611237565b5b6113c284828501611354565b91505092915050565b600081519050919050565b600082825260208201905092915050565b60005b838110156114055780820151818401526020810190506113ea565b83811115611414576000848401525b50505050565b6000611425826113cb565b61142f81856113d6565b935061143f8185602086016113e7565b61144881611246565b840191505092915050565b600081519050919050565b600082825260208201905092915050565b6000819050602082019050919050565b6000604083016000830151848203600086015261149c828261141a565b915050602083015184820360208601526114b6828261141a565b9150508091505092915050565b60006114cf838361147f565b905092915050565b6000602082019050919050565b60006114ef82611453565b6114f9818561145e565b93508360208202850161150b8561146f565b8060005b85811015611547578484038952815161152885826114c3565b9450611533836114d7565b925060208a0199505060018101905061150f565b50829750879550505050505092915050565b600081519050919050565b600082825260208201905092915050565b6000819050602082019050919050565b600060408301600083015184820360008601526115a2828261141a565b915050602083015184820360208601526115bc82826114e4565b9150508091505092915050565b60006115d58383611585565b905092915050565b6000602082019050919050565b60006115f582611559565b6115ff8185611564565b93508360208202850161161185611575565b8060005b8581101561164d578484038952815161162e85826115c9565b9450611639836115dd565b925060208a01995050600181019050611615565b50829750879550505050505092915050565b6000606083016000830151848203600086015261167c828261141a565b9150506020830151848203602086015261169682826114e4565b915050604083015184820360408601526116b082826115ea565b9150508091505092915050565b600060208201905081810360008301526116d7818461165f565b905092915050565b600067ffffffffffffffff8211156116fa576116f9611257565b5b602082029050602081019050919050565b600080fd5b600080fd5b600080fd5b6000604082840312156117305761172f611710565b5b61173a60406112b7565b9050600082013567ffffffffffffffff81111561175a57611759611715565b5b61176684828501611354565b600083015250602082013567ffffffffffffffff81111561178a57611789611715565b5b61179684828501611354565b60208301525092915050565b60008115159050919050565b6117b7816117a2565b81146117c257600080fd5b50565b6000813590506117d4816117ae565b92915050565b6000604082840312156117f0576117ef611710565b5b6117fa60406112b7565b9050600082013567ffffffffffffffff81111561181a57611819611715565b5b6118268482850161171a565b600083015250602061183a848285016117c5565b60208301525092915050565b6000611859611854846116df565b6112b7565b9050808382526020820190506020840283018581111561187c5761187b61170b565b5b835b818110156118c357803567ffffffffffffffff8111156118a1576118a061123c565b5b8086016118ae89826117da565b8552602085019450505060208101905061187e565b5050509392505050565b600082601f8301126118e2576118e161123c565b5b81356118f2848260208601611846565b91505092915050565b600067ffffffffffffffff82111561191657611915611257565b5b602082029050602081019050919050565b600067ffffffffffffffff82111561194257611941611257565b5b602082029050602081019050919050565b600061196661196184611927565b6112b7565b905080838252602082019050602084028301858111156119895761198861170b565b5b835b818110156119d057803567ffffffffffffffff8111156119ae576119ad61123c565b5b8086016119bb898261171a565b8552602085019450505060208101905061198b565b5050509392505050565b600082601f8301126119ef576119ee61123c565b5b81356119ff848260208601611953565b91505092915050565b600060608284031215611a1e57611a1d611710565b5b611a2860606112b7565b9050600082013567ffffffffffffffff811115611a4857611a47611715565b5b611a5484828501611354565b6000830152506020611a68848285016117c5565b602083015250604082013567ffffffffffffffff811115611a8c57611a8b611715565b5b611a98848285016119da565b60408301525092915050565b6000611ab7611ab2846118fb565b6112b7565b90508083825260208201905060208402830185811115611ada57611ad961170b565b5b835b81811015611b2157803567ffffffffffffffff811115611aff57611afe61123c565b5b808601611b0c8982611a08565b85526020850194505050602081019050611adc565b5050509392505050565b600082601f830112611b4057611b3f61123c565b5b8135611b50848260208601611aa4565b91505092915050565b600080600060608486031215611b7257611b71611232565b5b600084013567ffffffffffffffff811115611b9057611b8f611237565b5b611b9c86828701611354565b935050602084013567ffffffffffffffff811115611bbd57611bbc611237565b5b611bc9868287016118cd565b925050604084013567ffffffffffffffff811115611bea57611be9611237565b5b611bf686828701611b2b565b9150509250925092565b600081905092915050565b6000611c16826113cb565b611c208185611c00565b9350611c308185602086016113e7565b80840191505092915050565b6000611c488284611c0b565b915081905092915050565b7f4e487b7100000000000000000000000000000000000000000000000000000000600052602260045260246000fd5b60006002820490506001821680611c9a57607f821691505b602082108103611cad57611cac611c53565b5b50919050565b60008190508160005260206000209050919050565b60006020601f8301049050919050565b600082821b905092915050565b600060088302611d157fffffffffffffffffffffffffffffffffffffffffffffffffffffffffffffffff82611cd8565b611d1f8683611cd8565b95508019841693508086168417925050509392505050565b6000819050919050565b6000819050919050565b6000611d66611d61611d5c84611d37565b611d41565b611d37565b9050919050565b6000819050919050565b611d8083611d4b565b611d94611d8c82611d6d565b848454611ce5565b825550505050565b600090565b611da9611d9c565b611db4818484611d77565b505050565b5b81811015611dd857611dcd600082611da1565b600181019050611dba565b5050565b601f821115611e1d57611dee81611cb3565b611df784611cc8565b81016020851015611e06578190505b611e1a611e1285611cc8565b830182611db9565b50505b505050565b600082821c905092915050565b6000611e4060001984600802611e22565b1980831691505092915050565b6000611e598383611e2f565b9150826002028217905092915050565b611e72826113cb565b67ffffffffffffffff811115611e8b57611e8a611257565b5b611e958254611c82565b611ea0828285611ddc565b600060209050601f831160018114611ed35760008415611ec1578287015190505b611ecb8582611e4d565b865550611f33565b601f198416611ee186611cb3565b60005b82811015611f0957848901518255600182019150602085019450602081019050611ee4565b86831015611f265784890151611f22601f891682611e2f565b8355505b6001600288020188555050505b505050505050565b7f4e487b7100000000000000000000000000000000000000000000000000000000600052603260045260246000fd5b7f4e487b7100000000000000000000000000000000000000000000000000000000600052601160045260246000fd5b6000611fa482611d37565b91507fffffffffffffffffffffffffffffffffffffffffffffffffffffffffffffffff8203611fd657611fd5611f6a565b5b60018201905091905056fea2646970667358221220079ee3fddde0e56e05448eb00be3875f212733a4521f916436f3503942030e1764736f6c634300080f0033",
  "immutableReferences": {},
  "source": "pragma solidity >=0.8.9;\r\n\r\n//SPDX-License-Identifier: UNLICENSED\r\n\r\ncontract UserDataContract {\r\n\r\n    /* Attributes stored in UserData and Credential. */\r\n    struct Attribute {\r\n        string name;\r\n        string value;\r\n    }\r\n\r\n    /* Credential consisting of attributes and an organization name. */\r\n    struct Credential {\r\n        string organization;\r\n        uint attributeCount;\r\n        mapping (uint => Attribute) attributes;\r\n    }\r\n\r\n    /* UserData is where the bulk of user's data will be stored using Credential and Attribute. */\r\n    struct UserData {\r\n        string id;\r\n\r\n        uint attributeCount;\r\n        mapping (uint => Attribute) attributes;\r\n\r\n        uint credentialCount;\r\n        mapping (uint => Credential) credentials;\r\n    }\r\n\r\n    /* What will be returned in place of a Credential struct. */\r\n    struct CredentialResponse {\r\n        string organization;\r\n        Attribute[] attributes;\r\n    }\r\n\r\n    /* What will be returned in place of a UserData struct. */\r\n    struct UserDataResponse{\r\n        string id;\r\n        Attribute[] attributes;\r\n        CredentialResponse[] credentials;\r\n    }\r\n\r\n    /* Received in paramets to update attributes, this improves gas usage by knowing when to insert and when to update. */\r\n    struct AttributeUpdate {\r\n        Attribute attribute;\r\n        bool isUpdate;\r\n    }\r\n\r\n    /* Received in paramets to update credentials, this improves gas usage by knowing when to insert and when to update */\r\n    struct CredentialUpdate {\r\n        string organization;\r\n        bool isUpdate;\r\n        Attribute[] attributes;\r\n    }\r\n\r\n    /* All stored user's data can be accessed through the allUserData attribute. */\r\n    mapping (string => UserData) allUserData;\r\n\r\n    /* Create and return a new user's data. */\r\n    function createUser(string memory _id) public {\r\n        allUserData[_id].id = _id;\r\n        allUserData[_id].attributeCount = 0;\r\n        allUserData[_id].credentialCount = 0;\r\n    }\r\n\r\n    /* Add and Update UserData by id. */\r\n    function updateUser(string memory _id, AttributeUpdate[] memory attributes, CredentialUpdate[] memory credentials) public {\r\n        \r\n        //add/update all new attributes\r\n        if (attributes.length > 0) updateAttributes(_id, attributes);\r\n\r\n        //add and update all new credentials\r\n        if (credentials.length > 0) updateCredentials(_id, credentials);\r\n\r\n    }\r\n\r\n    /* Updates the relevant attributes for the appropriate credentials. */\r\n    function updateCredentials(string memory _id, CredentialUpdate[] memory credentials) private {\r\n\r\n        for (uint i=0; i<credentials.length; i++) {\r\n\r\n            //update existing credentials\r\n            if (credentials[i].isUpdate) {\r\n\r\n                //find right credential by organization\r\n                for (uint k=0; k<allUserData[_id].credentialCount; k++) {\r\n                    if (stringCompare(allUserData[_id].credentials[k].organization, credentials[i].organization)) {\r\n                        //update credential's attributes\r\n                        updateCredentialAttributes(_id, k, credentials[i].attributes);\r\n                        break;\r\n                    }  \r\n                }\r\n\r\n                continue;\r\n            }\r\n\r\n            //insert new credentials\r\n            uint index = allUserData[_id].credentialCount++;\r\n            allUserData[_id].credentials[index].organization = credentials[i].organization;\r\n            allUserData[_id].credentials[index].attributeCount = credentials[i].attributes.length;\r\n\r\n            for (uint k=0; k<credentials[i].attributes.length; k++) {\r\n                allUserData[_id].credentials[index].attributes[k].name = credentials[i].attributes[k].name;\r\n                allUserData[_id].credentials[index].attributes[k].value = credentials[i].attributes[k].value;\r\n            }\r\n        }   \r\n\r\n    }\r\n\r\n    /* Updates relevant Attributes for specified credential and organization in storage. */\r\n    function updateCredentialAttributes(string memory _id, uint org, Attribute[] memory attributes) private {\r\n        \r\n        for (uint i=0; i<attributes.length; i++) {\r\n            for (uint k=0; k<allUserData[_id].attributeCount; k++) {\r\n                if (stringCompare(allUserData[_id].credentials[org].attributes[k].name, attributes[i].name)) {\r\n                    allUserData[_id].credentials[org].attributes[k].value = attributes[i].value;\r\n                }\r\n            }\r\n        }\r\n    }\r\n\r\n    /* Updates relevant Attribute values in storage. */\r\n    function updateAttributes(string memory _id, AttributeUpdate[] memory attributes) private {\r\n        \r\n        for (uint i=0; i<attributes.length; i++) {\r\n\r\n            //update existing attribute\r\n            if (attributes[i].isUpdate) {\r\n\r\n                for (uint k=0; k<allUserData[_id].attributeCount; k++) {\r\n                    if (stringCompare(allUserData[_id].attributes[k].name, attributes[i].attribute.name)) {\r\n                        allUserData[_id].attributes[k].value = attributes[i].attribute.value;\r\n                        break;\r\n                    }\r\n                }\r\n                continue;\r\n            }\r\n\r\n            //add new attribute\r\n            uint index = allUserData[_id].attributeCount;\r\n            allUserData[_id].attributeCount++;\r\n            allUserData[_id].attributes[index].name = attributes[i].attribute.name;\r\n            allUserData[_id].attributes[index].value = attributes[i].attribute.value;\r\n        }\r\n\r\n    }\r\n\r\n    /* Returns the enitre UserData for the specified id. */\r\n    function getUserData(string memory _id) public view returns (UserDataResponse memory) {\r\n        \r\n        //Create Attribute array\r\n        uint size = allUserData[_id].attributeCount;\r\n        Attribute[] memory attrs = new Attribute[](size);\r\n        \r\n        for (uint i=0; i<allUserData[_id].attributeCount; i++) {\r\n            attrs[i].name = allUserData[_id].attributes[i].name;\r\n            attrs[i].value = allUserData[_id].attributes[i].value;\r\n        }\r\n\r\n        //Create Attribute arrays for Credential arrays\r\n        size = allUserData[_id].credentialCount;\r\n        CredentialResponse[] memory creds = new CredentialResponse[](size);\r\n\r\n        for (uint i=0; i<allUserData[_id].credentialCount; i++) {\r\n\r\n            creds[i].organization = allUserData[_id].credentials[i].organization;\r\n            creds[i].attributes = new Attribute[](allUserData[_id].credentials[i].attributeCount);\r\n\r\n            for (uint k=0; k<allUserData[_id].credentials[i].attributeCount; k++) {\r\n                creds[i].attributes[k].name = allUserData[_id].credentials[i].attributes[k].name;\r\n                creds[i].attributes[k].value = allUserData[_id].credentials[i].attributes[k].value;\r\n            }\r\n        }\r\n\r\n        //Create UserDataResponse\r\n        return (UserDataResponse({\r\n            id: _id,\r\n            attributes: attrs,\r\n            credentials: creds\r\n        }));\r\n    }\r\n\r\n    /* Compares two strings to see if they're equal or not. */\r\n    function stringCompare(string memory a, string memory b) private pure returns (bool) {\r\n        if (keccak256(bytes(a)) == keccak256(bytes(b)))\r\n            return true;\r\n        return false;\r\n    }\r\n\r\n    /* Returns a set of desired Attributes. */\r\n    /*function getAttributes(string memory _id, string[] memory attributes) public view returns (Attribute[] memory) {\r\n\r\n    }*/\r\n\r\n    /* Returns a set of desired Credentials. */\r\n    //function getCredentials(string memory _id, string memory organization) public view returns (CredentialResponse memory) {\r\n\r\n    //}\r\n}",
  "sourcePath": "C:\\Users\\bbdnet2552\\Desktop\\University\\Capstone\\Blockchain\\contracts\\UserDataContract.sol",
  "compiler": {
    "name": "solc",
    "version": "0.8.15+commit.e14f2714.Emscripten.clang"
  },
  "schemaVersion": "3.4.8",
  "updatedAt": "2022-07-21T07:32:28.708Z",
  "networkType": "ethereum",
  "devdoc": {
    "kind": "dev",
    "methods": {},
    "version": 1
  },
  "userdoc": {
    "kind": "user",
    "methods": {},
    "version": 1
  }
}