{
  "contractName": "UserDataContract",
  "abi": [
    {
      "inputs": [
        {
          "internalType": "string",
          "name": "_id",
          "type": "string"
        }
      ],
      "name": "createUser",
      "outputs": [],
      "stateMutability": "nonpayable",
      "type": "function"
    },
    {
      "inputs": [
        {
          "components": [
            {
              "internalType": "string",
              "name": "id",
              "type": "string"
            },
            {
              "components": [
                {
                  "components": [
                    {
                      "internalType": "string",
                      "name": "name",
                      "type": "string"
                    },
                    {
                      "internalType": "string",
                      "name": "value",
                      "type": "string"
                    }
                  ],
                  "internalType": "struct UserDataContract.Attribute",
                  "name": "attribute",
                  "type": "tuple"
                },
                {
                  "internalType": "int256",
                  "name": "index",
                  "type": "int256"
                }
              ],
              "internalType": "struct UserDataContract.AttributeUpdate[]",
              "name": "attributes",
              "type": "tuple[]"
            },
            {
              "components": [
                {
                  "internalType": "string",
                  "name": "organization",
                  "type": "string"
                },
                {
                  "internalType": "int256",
                  "name": "index",
                  "type": "int256"
                },
                {
                  "components": [
                    {
                      "internalType": "string",
                      "name": "name",
                      "type": "string"
                    },
                    {
                      "internalType": "string",
                      "name": "value",
                      "type": "string"
                    }
                  ],
                  "internalType": "struct UserDataContract.Attribute[]",
                  "name": "attributes",
                  "type": "tuple[]"
                }
              ],
              "internalType": "struct UserDataContract.CredentialUpdate[]",
              "name": "credentials",
              "type": "tuple[]"
            }
          ],
          "internalType": "struct UserDataContract.Update",
          "name": "update",
          "type": "tuple"
        }
      ],
      "name": "updateUser",
      "outputs": [],
      "stateMutability": "nonpayable",
      "type": "function"
    },
    {
      "inputs": [
        {
          "internalType": "string",
          "name": "_id",
          "type": "string"
        }
      ],
      "name": "getUserData",
      "outputs": [
        {
          "components": [
            {
              "internalType": "string",
              "name": "id",
              "type": "string"
            },
            {
              "internalType": "uint256",
              "name": "balance",
              "type": "uint256"
            },
            {
              "components": [
                {
                  "internalType": "string",
                  "name": "name",
                  "type": "string"
                },
                {
                  "internalType": "string",
                  "name": "value",
                  "type": "string"
                }
              ],
              "internalType": "struct UserDataContract.Attribute[]",
              "name": "attributes",
              "type": "tuple[]"
            },
            {
              "components": [
                {
                  "internalType": "string",
                  "name": "organization",
                  "type": "string"
                },
                {
                  "components": [
                    {
                      "internalType": "string",
                      "name": "name",
                      "type": "string"
                    },
                    {
                      "internalType": "string",
                      "name": "value",
                      "type": "string"
                    }
                  ],
                  "internalType": "struct UserDataContract.Attribute[]",
                  "name": "attributes",
                  "type": "tuple[]"
                }
              ],
              "internalType": "struct UserDataContract.CredentialResponse[]",
              "name": "credentials",
              "type": "tuple[]"
            },
            {
              "components": [
                {
                  "internalType": "string[]",
                  "name": "attributes",
                  "type": "string[]"
                },
                {
                  "components": [
                    {
                      "internalType": "string",
                      "name": "fromID",
                      "type": "string"
                    },
                    {
                      "internalType": "string",
                      "name": "toID",
                      "type": "string"
                    },
                    {
                      "internalType": "string",
                      "name": "date",
                      "type": "string"
                    },
                    {
                      "internalType": "string",
                      "name": "message",
                      "type": "string"
                    },
                    {
                      "internalType": "string",
                      "name": "status",
                      "type": "string"
                    }
                  ],
                  "internalType": "struct UserDataContract.TransactionStamp",
                  "name": "stamp",
                  "type": "tuple"
                }
              ],
              "internalType": "struct UserDataContract.TransactionRequest[]",
              "name": "transactionRequests",
              "type": "tuple[]"
            },
            {
              "components": [
                {
                  "components": [
                    {
                      "internalType": "string",
                      "name": "name",
                      "type": "string"
                    },
                    {
                      "internalType": "string",
                      "name": "value",
                      "type": "string"
                    }
                  ],
                  "internalType": "struct UserDataContract.Attribute[]",
                  "name": "attributes",
                  "type": "tuple[]"
                },
                {
                  "components": [
                    {
                      "internalType": "string",
                      "name": "fromID",
                      "type": "string"
                    },
                    {
                      "internalType": "string",
                      "name": "toID",
                      "type": "string"
                    },
                    {
                      "internalType": "string",
                      "name": "date",
                      "type": "string"
                    },
                    {
                      "internalType": "string",
                      "name": "message",
                      "type": "string"
                    },
                    {
                      "internalType": "string",
                      "name": "status",
                      "type": "string"
                    }
                  ],
                  "internalType": "struct UserDataContract.TransactionStamp",
                  "name": "stamp",
                  "type": "tuple"
                }
              ],
              "internalType": "struct UserDataContract.TransactionResponse[]",
              "name": "approvedTransactions",
              "type": "tuple[]"
            }
          ],
          "internalType": "struct UserDataContract.UserDataResponse",
          "name": "",
          "type": "tuple"
        }
      ],
      "stateMutability": "view",
      "type": "function"
    },
    {
      "inputs": [
        {
          "internalType": "string",
          "name": "id",
          "type": "string"
        },
        {
          "internalType": "string",
          "name": "organization",
          "type": "string"
        }
      ],
      "name": "getCredential",
      "outputs": [
        {
          "components": [
            {
              "internalType": "string",
              "name": "organization",
              "type": "string"
            },
            {
              "components": [
                {
                  "internalType": "string",
                  "name": "name",
                  "type": "string"
                },
                {
                  "internalType": "string",
                  "name": "value",
                  "type": "string"
                }
              ],
              "internalType": "struct UserDataContract.Attribute[]",
              "name": "attributes",
              "type": "tuple[]"
            }
          ],
          "internalType": "struct UserDataContract.CredentialResponse",
          "name": "",
          "type": "tuple"
        }
      ],
      "stateMutability": "view",
      "type": "function"
    },
    {
      "inputs": [
        {
          "internalType": "string",
          "name": "_id",
          "type": "string"
        },
        {
          "internalType": "uint256",
          "name": "amount",
          "type": "uint256"
        }
      ],
      "name": "updateBalance",
      "outputs": [],
      "stateMutability": "nonpayable",
      "type": "function"
    },
    {
      "inputs": [
        {
          "components": [
            {
              "internalType": "string[]",
              "name": "attributes",
              "type": "string[]"
            },
            {
              "components": [
                {
                  "internalType": "string",
                  "name": "fromID",
                  "type": "string"
                },
                {
                  "internalType": "string",
                  "name": "toID",
                  "type": "string"
                },
                {
                  "internalType": "string",
                  "name": "date",
                  "type": "string"
                },
                {
                  "internalType": "string",
                  "name": "message",
                  "type": "string"
                },
                {
                  "internalType": "string",
                  "name": "status",
                  "type": "string"
                }
              ],
              "internalType": "struct UserDataContract.TransactionStamp",
              "name": "stamp",
              "type": "tuple"
            }
          ],
          "internalType": "struct UserDataContract.TransactionRequest",
          "name": "request",
          "type": "tuple"
        }
      ],
      "name": "newTransactionRequest",
      "outputs": [],
      "stateMutability": "nonpayable",
      "type": "function"
    },
    {
      "inputs": [
        {
          "internalType": "string",
          "name": "_id",
          "type": "string"
        },
        {
          "internalType": "uint256",
          "name": "index",
          "type": "uint256"
        }
      ],
      "name": "declineTransaction",
      "outputs": [],
      "stateMutability": "nonpayable",
      "type": "function"
    },
    {
      "inputs": [
        {
          "internalType": "string",
          "name": "_id",
          "type": "string"
        },
        {
          "internalType": "uint256",
          "name": "index",
          "type": "uint256"
        }
      ],
      "name": "approveTransactionStageA",
      "outputs": [],
      "stateMutability": "nonpayable",
      "type": "function"
    },
    {
      "inputs": [
        {
          "internalType": "string",
          "name": "_id",
          "type": "string"
        },
        {
          "internalType": "uint256",
          "name": "index",
          "type": "uint256"
        }
      ],
      "name": "approveTransactionStageB",
      "outputs": [
        {
          "components": [
            {
              "components": [
                {
                  "internalType": "string",
                  "name": "name",
                  "type": "string"
                },
                {
                  "internalType": "string",
                  "name": "value",
                  "type": "string"
                }
              ],
              "internalType": "struct UserDataContract.Attribute[]",
              "name": "attributes",
              "type": "tuple[]"
            },
            {
              "components": [
                {
                  "internalType": "string",
                  "name": "fromID",
                  "type": "string"
                },
                {
                  "internalType": "string",
                  "name": "toID",
                  "type": "string"
                },
                {
                  "internalType": "string",
                  "name": "date",
                  "type": "string"
                },
                {
                  "internalType": "string",
                  "name": "message",
                  "type": "string"
                },
                {
                  "internalType": "string",
                  "name": "status",
                  "type": "string"
                }
              ],
              "internalType": "struct UserDataContract.TransactionStamp",
              "name": "stamp",
              "type": "tuple"
            }
          ],
          "internalType": "struct UserDataContract.TransactionResponse",
          "name": "",
          "type": "tuple"
        }
      ],
      "stateMutability": "view",
      "type": "function"
    },
    {
      "inputs": [
        {
          "internalType": "string",
          "name": "_id",
          "type": "string"
        },
        {
          "components": [
            {
              "components": [
                {
                  "internalType": "string",
                  "name": "name",
                  "type": "string"
                },
                {
                  "internalType": "string",
                  "name": "value",
                  "type": "string"
                }
              ],
              "internalType": "struct UserDataContract.Attribute[]",
              "name": "attributes",
              "type": "tuple[]"
            },
            {
              "components": [
                {
                  "internalType": "string",
                  "name": "fromID",
                  "type": "string"
                },
                {
                  "internalType": "string",
                  "name": "toID",
                  "type": "string"
                },
                {
                  "internalType": "string",
                  "name": "date",
                  "type": "string"
                },
                {
                  "internalType": "string",
                  "name": "message",
                  "type": "string"
                },
                {
                  "internalType": "string",
                  "name": "status",
                  "type": "string"
                }
              ],
              "internalType": "struct UserDataContract.TransactionStamp",
              "name": "stamp",
              "type": "tuple"
            }
          ],
          "internalType": "struct UserDataContract.TransactionResponse",
          "name": "transaction",
          "type": "tuple"
        }
      ],
      "name": "approveTransactionStageC",
      "outputs": [],
      "stateMutability": "nonpayable",
      "type": "function"
    },
    {
      "inputs": [
        {
          "internalType": "string",
          "name": "_id",
          "type": "string"
        },
        {
          "components": [
            {
              "internalType": "string",
              "name": "name",
              "type": "string"
            },
            {
              "internalType": "string",
              "name": "value",
              "type": "string"
            }
          ],
          "internalType": "struct UserDataContract.Attribute[]",
          "name": "attributes",
          "type": "tuple[]"
        }
      ],
      "name": "getAttributesTransaction",
      "outputs": [
        {
          "components": [
            {
              "internalType": "string",
              "name": "name",
              "type": "string"
            },
            {
              "internalType": "string",
              "name": "value",
              "type": "string"
            }
          ],
          "internalType": "struct UserDataContract.Attribute[]",
          "name": "",
          "type": "tuple[]"
        }
      ],
      "stateMutability": "view",
      "type": "function"
    },
    {
      "inputs": [
        {
          "internalType": "string",
          "name": "_id",
          "type": "string"
        },
        {
          "internalType": "string",
          "name": "organization",
          "type": "string"
        }
      ],
      "name": "getCredentialTransaction",
      "outputs": [
        {
          "components": [
            {
              "internalType": "string",
              "name": "organization",
              "type": "string"
            },
            {
              "components": [
                {
                  "internalType": "string",
                  "name": "name",
                  "type": "string"
                },
                {
                  "internalType": "string",
                  "name": "value",
                  "type": "string"
                }
              ],
              "internalType": "struct UserDataContract.Attribute[]",
              "name": "attributes",
              "type": "tuple[]"
            }
          ],
          "internalType": "struct UserDataContract.CredentialResponse",
          "name": "",
          "type": "tuple"
        }
      ],
      "stateMutability": "view",
      "type": "function"
    },
    {
      "inputs": [
        {
          "internalType": "string",
          "name": "source",
          "type": "string"
        }
      ],
      "name": "stringToBytes32",
      "outputs": [
        {
          "internalType": "bytes32",
          "name": "result",
          "type": "bytes32"
        }
      ],
      "stateMutability": "pure",
      "type": "function"
    }
  ],
  "bytecode": "0x608060405234801561001057600080fd5b50615a1a80620000216000396000f3fe608060405234801561001057600080fd5b50600436106100cf5760003560e01c8063870187eb1161008c578063cfb5192811610066578063cfb519281461020c578063d4b94b0e1461023c578063d78ab46f14610258578063fa1868ff14610288576100cf565b8063870187eb146101a4578063af1a404f146101c0578063b9572975146101dc576100cf565b806301760669146100d457806332d1b291146100f057806333d46c871461010c578063438e644e1461013c578063507ffba51461015857806354ab240314610174575b600080fd5b6100ee60048036038101906100e99190614767565b6102b8565b005b61010a600480360381019061010591906147e6565b610305565b005b61012660048036038101906101219190614842565b61038c565b6040516101339190614a8c565b60405180910390f35b61015660048036038101906101519190614d2f565b610769565b005b610172600480360381019061016d9190614d78565b61077d565b005b61018e60048036038101906101899190614d78565b610875565b60405161019b91906152db565b60405180910390f35b6101be60048036038101906101b991906147e6565b611fe7565b005b6101da60048036038101906101d59190615385565b61202b565b005b6101f660048036038101906101f19190614842565b61234d565b6040516102039190614a8c565b60405180910390f35b61022660048036038101906102219190614d78565b612832565b6040516102339190615416565b60405180910390f35b610256600480360381019061025191906147e6565b61285b565b005b610272600480360381019061026d91906147e6565b6128e2565b60405161027f9190615475565b60405180910390f35b6102a2600480360381019061029d9190615497565b612fad565b6040516102af9190615595565b60405180910390f35b6102c061332a565b600081602001515111156102e1576102e081600001518260200151613380565b5b600081604001515111156103025761030181600001518260400151613604565b5b50565b61030d61332a565b6040518060400160405280600881526020017f6465636c696e656400000000000000000000000000000000000000000000000081525060008360405161035391906155f3565b9081526020016040518091039020600701600083815260200190815260200160002060020160040190816103879190615816565b505050565b610394614004565b61039c614004565b60005b6000856040516103af91906155f3565b90815260200160405180910390206004015481101561075d5761048f6000866040516103db91906155f3565b90815260200160405180910390206005016000838152602001908152602001600020600001805461040b90615639565b80601f016020809104026020016040519081016040528092919081815260200182805461043790615639565b80156104845780601f1061045957610100808354040283529160200191610484565b820191906000526020600020905b81548152906001019060200180831161046757829003601f168201915b505050505085613912565b1561074a57838260000181905250600080866040516104ae91906155f3565b9081526020016040518091039020600501600083815260200190815260200160002060010154905060008167ffffffffffffffff8111156104f2576104f1614107565b5b60405190808252806020026020018201604052801561052b57816020015b61051861401e565b8152602001906001900390816105105790505b50905060005b828110156107345760008860405161054991906155f3565b908152602001604051809103902060050160008581526020019081526020016000206002016000828152602001908152602001600020600001805461058d90615639565b80601f01602080910402602001604051908101604052809291908181526020018280546105b990615639565b80156106065780601f106105db57610100808354040283529160200191610606565b820191906000526020600020905b8154815290600101906020018083116105e957829003601f168201915b505050505082828151811061061e5761061d6158e8565b5b60200260200101516000018190525060008860405161063d91906155f3565b908152602001604051809103902060050160008581526020019081526020016000206002016000828152602001908152602001600020600101805461068190615639565b80601f01602080910402602001604051908101604052809291908181526020018280546106ad90615639565b80156106fa5780601f106106cf576101008083540402835291602001916106fa565b820191906000526020600020905b8154815290600101906020018083116106dd57829003601f168201915b5050505050828281518110610712576107116158e8565b5b602002602001015160200181905250808061072c90615946565b915050610531565b5080846020018190525083945050505050610763565b808061075590615946565b91505061039f565b50809150505b92915050565b61077161332a565b61077a8161393d565b50565b61078561332a565b8060008260405161079691906155f3565b908152602001604051809103902060000190816107b39190615816565b50600080826040516107c591906155f3565b908152602001604051809103902060020181905550600080826040516107eb91906155f3565b9081526020016040518091039020600401819055506000808260405161081191906155f3565b9081526020016040518091039020600601819055506000808260405161083791906155f3565b9081526020016040518091039020600801819055506000808260405161085d91906155f3565b9081526020016040518091039020600a018190555050565b61087d614038565b61088561332a565b6000808360405161089691906155f3565b908152602001604051809103902060020154905060008167ffffffffffffffff8111156108c6576108c5614107565b5b6040519080825280602002602001820160405280156108ff57816020015b6108ec61401e565b8152602001906001900390816108e45790505b50905060005b60008560405161091591906155f3565b908152602001604051809103902060020154811015610b015760008560405161093e91906155f3565b90815260200160405180910390206003016000828152602001908152602001600020600001805461096e90615639565b80601f016020809104026020016040519081016040528092919081815260200182805461099a90615639565b80156109e75780601f106109bc576101008083540402835291602001916109e7565b820191906000526020600020905b8154815290600101906020018083116109ca57829003601f168201915b50505050508282815181106109ff576109fe6158e8565b5b602002602001015160000181905250600085604051610a1e91906155f3565b908152602001604051809103902060030160008281526020019081526020016000206001018054610a4e90615639565b80601f0160208091040260200160405190810160405280929190818152602001828054610a7a90615639565b8015610ac75780601f10610a9c57610100808354040283529160200191610ac7565b820191906000526020600020905b815481529060010190602001808311610aaa57829003601f168201915b5050505050828281518110610adf57610ade6158e8565b5b6020026020010151602001819052508080610af990615946565b915050610905565b50600084604051610b1291906155f3565b908152602001604051809103902060040154915060008267ffffffffffffffff811115610b4257610b41614107565b5b604051908082528060200260200182016040528015610b7b57816020015b610b68614004565b815260200190600190039081610b605790505b50905060005b600086604051610b9191906155f3565b908152602001604051809103902060040154811015610fc057600086604051610bba91906155f3565b908152602001604051809103902060050160008281526020019081526020016000206000018054610bea90615639565b80601f0160208091040260200160405190810160405280929190818152602001828054610c1690615639565b8015610c635780601f10610c3857610100808354040283529160200191610c63565b820191906000526020600020905b815481529060010190602001808311610c4657829003601f168201915b5050505050828281518110610c7b57610c7a6158e8565b5b602002602001015160000181905250600086604051610c9a91906155f3565b908152602001604051809103902060050160008281526020019081526020016000206001015467ffffffffffffffff811115610cd957610cd8614107565b5b604051908082528060200260200182016040528015610d1257816020015b610cff61401e565b815260200190600190039081610cf75790505b50828281518110610d2657610d256158e8565b5b60200260200101516020018190525060005b600087604051610d4891906155f3565b9081526020016040518091039020600501600083815260200190815260200160002060010154811015610fac57600087604051610d8591906155f3565b9081526020016040518091039020600501600083815260200190815260200160002060020160008281526020019081526020016000206000018054610dc990615639565b80601f0160208091040260200160405190810160405280929190818152602001828054610df590615639565b8015610e425780601f10610e1757610100808354040283529160200191610e42565b820191906000526020600020905b815481529060010190602001808311610e2557829003601f168201915b5050505050838381518110610e5a57610e596158e8565b5b6020026020010151602001518281518110610e7857610e776158e8565b5b602002602001015160000181905250600087604051610e9791906155f3565b9081526020016040518091039020600501600083815260200190815260200160002060020160008281526020019081526020016000206001018054610edb90615639565b80601f0160208091040260200160405190810160405280929190818152602001828054610f0790615639565b8015610f545780601f10610f2957610100808354040283529160200191610f54565b820191906000526020600020905b815481529060010190602001808311610f3757829003601f168201915b5050505050838381518110610f6c57610f6b6158e8565b5b6020026020010151602001518281518110610f8a57610f896158e8565b5b6020026020010151602001819052508080610fa490615946565b915050610d38565b508080610fb890615946565b915050610b81565b50600085604051610fd191906155f3565b908152602001604051809103902060060154925060008086604051610ff691906155f3565b90815260200160405180910390206006015467ffffffffffffffff81111561102157611020614107565b5b60405190808252806020026020018201604052801561105a57816020015b61104761406e565b81526020019060019003908161103f5790505b50905060005b848110156116d25760008760405161107891906155f3565b9081526020016040518091039020600701600082815260200190815260200160002060020160010180546110ab90615639565b80601f01602080910402602001604051908101604052809291908181526020018280546110d790615639565b80156111245780601f106110f957610100808354040283529160200191611124565b820191906000526020600020905b81548152906001019060200180831161110757829003601f168201915b505050505082828151811061113c5761113b6158e8565b5b6020026020010151602001516020018190525060008760405161115f91906155f3565b90815260200160405180910390206007016000828152602001908152602001600020600201600001805461119290615639565b80601f01602080910402602001604051908101604052809291908181526020018280546111be90615639565b801561120b5780601f106111e05761010080835404028352916020019161120b565b820191906000526020600020905b8154815290600101906020018083116111ee57829003601f168201915b5050505050828281518110611223576112226158e8565b5b6020026020010151602001516000018190525060008760405161124691906155f3565b90815260200160405180910390206007016000828152602001908152602001600020600201600301805461127990615639565b80601f01602080910402602001604051908101604052809291908181526020018280546112a590615639565b80156112f25780601f106112c7576101008083540402835291602001916112f2565b820191906000526020600020905b8154815290600101906020018083116112d557829003601f168201915b505050505082828151811061130a576113096158e8565b5b6020026020010151602001516060018190525060008760405161132d91906155f3565b90815260200160405180910390206007016000828152602001908152602001600020600201600201805461136090615639565b80601f016020809104026020016040519081016040528092919081815260200182805461138c90615639565b80156113d95780601f106113ae576101008083540402835291602001916113d9565b820191906000526020600020905b8154815290600101906020018083116113bc57829003601f168201915b50505050508282815181106113f1576113f06158e8565b5b6020026020010151602001516040018190525060008760405161141491906155f3565b90815260200160405180910390206007016000828152602001908152602001600020600201600401805461144790615639565b80601f016020809104026020016040519081016040528092919081815260200182805461147390615639565b80156114c05780601f10611495576101008083540402835291602001916114c0565b820191906000526020600020905b8154815290600101906020018083116114a357829003601f168201915b50505050508282815181106114d8576114d76158e8565b5b60200260200101516020015160800181905250600080886040516114fc91906155f3565b908152602001604051809103902060070160008381526020019081526020016000206000015490508067ffffffffffffffff81111561153e5761153d614107565b5b60405190808252806020026020018201604052801561157157816020015b606081526020019060019003908161155c5790505b50838381518110611585576115846158e8565b5b60200260200101516000018190525060005b818110156116bd576000896040516115af91906155f3565b90815260200160405180910390206007016000848152602001908152602001600020600101600082815260200190815260200160002080546115f090615639565b80601f016020809104026020016040519081016040528092919081815260200182805461161c90615639565b80156116695780601f1061163e57610100808354040283529160200191611669565b820191906000526020600020905b81548152906001019060200180831161164c57829003601f168201915b5050505050848481518110611681576116806158e8565b5b602002602001015160000151828151811061169f5761169e6158e8565b5b602002602001018190525080806116b590615946565b915050611597565b505080806116ca90615946565b915050611060565b506000866040516116e391906155f3565b908152602001604051809103902060080154935060008467ffffffffffffffff81111561171357611712614107565b5b60405190808252806020026020018201604052801561174c57816020015b61173961408e565b8152602001906001900390816117315790505b50905060005b85811015611ee35760008860405161176a91906155f3565b90815260200160405180910390206009016000828152602001908152602001600020600201600101805461179d90615639565b80601f01602080910402602001604051908101604052809291908181526020018280546117c990615639565b80156118165780601f106117eb57610100808354040283529160200191611816565b820191906000526020600020905b8154815290600101906020018083116117f957829003601f168201915b505050505082828151811061182e5761182d6158e8565b5b6020026020010151602001516020018190525060008860405161185191906155f3565b90815260200160405180910390206009016000828152602001908152602001600020600201600001805461188490615639565b80601f01602080910402602001604051908101604052809291908181526020018280546118b090615639565b80156118fd5780601f106118d2576101008083540402835291602001916118fd565b820191906000526020600020905b8154815290600101906020018083116118e057829003601f168201915b5050505050828281518110611915576119146158e8565b5b6020026020010151602001516000018190525060008860405161193891906155f3565b90815260200160405180910390206009016000828152602001908152602001600020600201600301805461196b90615639565b80601f016020809104026020016040519081016040528092919081815260200182805461199790615639565b80156119e45780601f106119b9576101008083540402835291602001916119e4565b820191906000526020600020905b8154815290600101906020018083116119c757829003601f168201915b50505050508282815181106119fc576119fb6158e8565b5b60200260200101516020015160600181905250600088604051611a1f91906155f3565b908152602001604051809103902060090160008281526020019081526020016000206002016002018054611a5290615639565b80601f0160208091040260200160405190810160405280929190818152602001828054611a7e90615639565b8015611acb5780601f10611aa057610100808354040283529160200191611acb565b820191906000526020600020905b815481529060010190602001808311611aae57829003601f168201915b5050505050828281518110611ae357611ae26158e8565b5b60200260200101516020015160400181905250600088604051611b0691906155f3565b908152602001604051809103902060090160008281526020019081526020016000206002016004018054611b3990615639565b80601f0160208091040260200160405190810160405280929190818152602001828054611b6590615639565b8015611bb25780601f10611b8757610100808354040283529160200191611bb2565b820191906000526020600020905b815481529060010190602001808311611b9557829003601f168201915b5050505050828281518110611bca57611bc96158e8565b5b6020026020010151602001516080018190525060008089604051611bee91906155f3565b908152602001604051809103902060090160008381526020019081526020016000206000015490508067ffffffffffffffff811115611c3057611c2f614107565b5b604051908082528060200260200182016040528015611c6957816020015b611c5661401e565b815260200190600190039081611c4e5790505b50838381518110611c7d57611c7c6158e8565b5b60200260200101516000018190525060005b81811015611ece5760008a604051611ca791906155f3565b9081526020016040518091039020600901600084815260200190815260200160002060010160008281526020019081526020016000206000018054611ceb90615639565b80601f0160208091040260200160405190810160405280929190818152602001828054611d1790615639565b8015611d645780601f10611d3957610100808354040283529160200191611d64565b820191906000526020600020905b815481529060010190602001808311611d4757829003601f168201915b5050505050848481518110611d7c57611d7b6158e8565b5b6020026020010151600001518281518110611d9a57611d996158e8565b5b60200260200101516000018190525060008a604051611db991906155f3565b9081526020016040518091039020600901600084815260200190815260200160002060010160008281526020019081526020016000206001018054611dfd90615639565b80601f0160208091040260200160405190810160405280929190818152602001828054611e2990615639565b8015611e765780601f10611e4b57610100808354040283529160200191611e76565b820191906000526020600020905b815481529060010190602001808311611e5957829003601f168201915b5050505050848481518110611e8e57611e8d6158e8565b5b6020026020010151600001518281518110611eac57611eab6158e8565b5b6020026020010151602001819052508080611ec690615946565b915050611c8f565b50508080611edb90615946565b915050611752565b506040518060c00160405280600089604051611eff91906155f3565b90815260200160405180910390206000018054611f1b90615639565b80601f0160208091040260200160405190810160405280929190818152602001828054611f4790615639565b8015611f945780601f10611f6957610100808354040283529160200191611f94565b820191906000526020600020905b815481529060010190602001808311611f7757829003601f168201915b50505050508152602001600089604051611fae91906155f3565b90815260200160405180910390206001015481526020018581526020018481526020018381526020018281525095505050505050919050565b611fef61332a565b8060008360405161200091906155f3565b90815260200160405180910390206001016000828254612020919061598e565b925050819055505050565b61203361332a565b6000808360405161204491906155f3565b9081526020016040518091039020600801600081548092919061206690615946565b9190505590506000826000015151905082602001516000015160008560405161208f91906155f3565b9081526020016040518091039020600901600084815260200190815260200160002060020160000190816120c39190615816565b508260200151602001516000856040516120dd91906155f3565b9081526020016040518091039020600901600084815260200190815260200160002060020160010190816121119190615816565b5082602001516040015160008560405161212b91906155f3565b90815260200160405180910390206009016000848152602001908152602001600020600201600201908161215f9190615816565b5082602001516060015160008560405161217991906155f3565b9081526020016040518091039020600901600084815260200190815260200160002060020160030190816121ad9190615816565b508260200151608001516000856040516121c791906155f3565b9081526020016040518091039020600901600084815260200190815260200160002060020160040190816121fb9190615816565b508060008560405161220d91906155f3565b908152602001604051809103902060090160008481526020019081526020016000206000018190555060005b818110156123465783600001518181518110612258576122576158e8565b5b60200260200101516000015160008660405161227491906155f3565b90815260200160405180910390206009016000858152602001908152602001600020600101600083815260200190815260200160002060000190816122b99190615816565b50836000015181815181106122d1576122d06158e8565b5b6020026020010151602001516000866040516122ed91906155f3565b90815260200160405180910390206009016000858152602001908152602001600020600101600083815260200190815260200160002060010190816123329190615816565b50808061233e90615946565b915050612239565b5050505050565b612355614004565b61235d61332a565b6000600167ffffffffffffffff81111561237a57612379614107565b5b6040519080825280602002602001820160405280156123b357816020015b6123a0614004565b8152602001906001900390816123985790505b50905060005b6000856040516123c991906155f3565b90815260200160405180910390206004015481101561280c576124a96000866040516123f591906155f3565b90815260200160405180910390206005016000838152602001908152602001600020600001805461242590615639565b80601f016020809104026020016040519081016040528092919081815260200182805461245190615639565b801561249e5780601f106124735761010080835404028352916020019161249e565b820191906000526020600020905b81548152906001019060200180831161248157829003601f168201915b505050505085613912565b156127f95783826000815181106124c3576124c26158e8565b5b6020026020010151600001819052506000856040516124e291906155f3565b908152602001604051809103902060050160008281526020019081526020016000206001015467ffffffffffffffff81111561252157612520614107565b5b60405190808252806020026020018201604052801561255a57816020015b61254761401e565b81526020019060019003908161253f5790505b508260008151811061256f5761256e6158e8565b5b60200260200101516020018190525060005b60008660405161259191906155f3565b90815260200160405180910390206005016000838152602001908152602001600020600101548110156127f7576000866040516125ce91906155f3565b908152602001604051809103902060050160008381526020019081526020016000206002016000828152602001908152602001600020600001805461261290615639565b80601f016020809104026020016040519081016040528092919081815260200182805461263e90615639565b801561268b5780601f106126605761010080835404028352916020019161268b565b820191906000526020600020905b81548152906001019060200180831161266e57829003601f168201915b5050505050836000815181106126a4576126a36158e8565b5b60200260200101516020015182815181106126c2576126c16158e8565b5b6020026020010151600001819052506000866040516126e191906155f3565b908152602001604051809103902060050160008381526020019081526020016000206002016000828152602001908152602001600020600101805461272590615639565b80601f016020809104026020016040519081016040528092919081815260200182805461275190615639565b801561279e5780601f106127735761010080835404028352916020019161279e565b820191906000526020600020905b81548152906001019060200180831161278157829003601f168201915b5050505050836000815181106127b7576127b66158e8565b5b60200260200101516020015182815181106127d5576127d46158e8565b5b60200260200101516020018190525080806127ef90615946565b915050612581565b505b808061280490615946565b9150506123b9565b5080600081518110612821576128206158e8565b5b602002602001015191505092915050565b600080829050600081510361284d576000801b915050612856565b60208301519150505b919050565b61286361332a565b6040518060400160405280600881526020017f617070726f7665640000000000000000000000000000000000000000000000008152506000836040516128a991906155f3565b9081526020016040518091039020600701600083815260200190815260200160002060020160040190816128dd9190615816565b505050565b6128ea61408e565b6128f261332a565b6128fa61408e565b60008460405161290a91906155f3565b90815260200160405180910390206007016000848152602001908152602001600020600201600101805461293d90615639565b80601f016020809104026020016040519081016040528092919081815260200182805461296990615639565b80156129b65780601f1061298b576101008083540402835291602001916129b6565b820191906000526020600020905b81548152906001019060200180831161299957829003601f168201915b50505050508160200151602001819052506000846040516129d791906155f3565b908152602001604051809103902060070160008481526020019081526020016000206002016000018054612a0a90615639565b80601f0160208091040260200160405190810160405280929190818152602001828054612a3690615639565b8015612a835780601f10612a5857610100808354040283529160200191612a83565b820191906000526020600020905b815481529060010190602001808311612a6657829003601f168201915b5050505050816020015160000181905250600084604051612aa491906155f3565b908152602001604051809103902060070160008481526020019081526020016000206002016003018054612ad790615639565b80601f0160208091040260200160405190810160405280929190818152602001828054612b0390615639565b8015612b505780601f10612b2557610100808354040283529160200191612b50565b820191906000526020600020905b815481529060010190602001808311612b3357829003601f168201915b5050505050816020015160600181905250600084604051612b7191906155f3565b908152602001604051809103902060070160008481526020019081526020016000206002016002018054612ba490615639565b80601f0160208091040260200160405190810160405280929190818152602001828054612bd090615639565b8015612c1d5780601f10612bf257610100808354040283529160200191612c1d565b820191906000526020600020905b815481529060010190602001808311612c0057829003601f168201915b5050505050816020015160400181905250600084604051612c3e91906155f3565b908152602001604051809103902060070160008481526020019081526020016000206002016004018054612c7190615639565b80601f0160208091040260200160405190810160405280929190818152602001828054612c9d90615639565b8015612cea5780601f10612cbf57610100808354040283529160200191612cea565b820191906000526020600020905b815481529060010190602001808311612ccd57829003601f168201915b505050505081602001516080018190525060008085604051612d0c91906155f3565b908152602001604051809103902060070160008581526020019081526020016000206000015490508067ffffffffffffffff811115612d4e57612d4d614107565b5b604051908082528060200260200182016040528015612d8757816020015b612d7461401e565b815260200190600190039081612d6c5790505b50826000018190525060005b81811015612fa157600086604051612dab91906155f3565b9081526020016040518091039020600701600086815260200190815260200160002060010160008281526020019081526020016000208054612dec90615639565b80601f0160208091040260200160405190810160405280929190818152602001828054612e1890615639565b8015612e655780601f10612e3a57610100808354040283529160200191612e65565b820191906000526020600020905b815481529060010190602001808311612e4857829003601f168201915b505050505083600001518281518110612e8157612e806158e8565b5b602002602001015160000181905250612f6886600088604051612ea491906155f3565b9081526020016040518091039020600701600088815260200190815260200160002060010160008481526020019081526020016000208054612ee590615639565b80601f0160208091040260200160405190810160405280929190818152602001828054612f1190615639565b8015612f5e5780601f10612f3357610100808354040283529160200191612f5e565b820191906000526020600020905b815481529060010190602001808311612f4157829003601f168201915b5050505050613c10565b83600001518281518110612f7f57612f7e6158e8565b5b6020026020010151602001819052508080612f9990615946565b915050612d93565b50819250505092915050565b6060612fb761332a565b6000825167ffffffffffffffff811115612fd457612fd3614107565b5b60405190808252806020026020018201604052801561300d57816020015b612ffa61401e565b815260200190600190039081612ff25790505b50905060005b835181101561331f5760005b60008660405161302f91906155f3565b90815260200160405180910390206002015481101561330b5761312d60008760405161305b91906155f3565b90815260200160405180910390206003016000838152602001908152602001600020600001805461308b90615639565b80601f01602080910402602001604051908101604052809291908181526020018280546130b790615639565b80156131045780601f106130d957610100808354040283529160200191613104565b820191906000526020600020905b8154815290600101906020018083116130e757829003601f168201915b505050505086848151811061311c5761311b6158e8565b5b602002602001015160000151613912565b156132f75760008660405161314291906155f3565b90815260200160405180910390206003016000828152602001908152602001600020600001805461317290615639565b80601f016020809104026020016040519081016040528092919081815260200182805461319e90615639565b80156131eb5780601f106131c0576101008083540402835291602001916131eb565b820191906000526020600020905b8154815290600101906020018083116131ce57829003601f168201915b5050505050838381518110613203576132026158e8565b5b60200260200101516000018190525060008660405161322291906155f3565b90815260200160405180910390206003016000828152602001908152602001600020600101805461325290615639565b80601f016020809104026020016040519081016040528092919081815260200182805461327e90615639565b80156132cb5780601f106132a0576101008083540402835291602001916132cb565b820191906000526020600020905b8154815290600101906020018083116132ae57829003601f168201915b50505050508383815181106132e3576132e26158e8565b5b6020026020010151602001819052506132f8565b5b808061330390615946565b91505061301f565b50808061331790615946565b915050613013565b508091505092915050565b60007394618601fe6cb8912b274e5a00453949a57f8c1e90508073ffffffffffffffffffffffffffffffffffffffff163373ffffffffffffffffffffffffffffffffffffffff160361337c575061337e565b505b565b60005b81518110156135ff577fffffffffffffffffffffffffffffffffffffffffffffffffffffffffffffffff8282815181106133c0576133bf6158e8565b5b602002602001015160200151146134c45760008282815181106133e6576133e56158e8565b5b6020026020010151602001519050828281518110613407576134066158e8565b5b6020026020010151600001516000015160008560405161342791906155f3565b9081526020016040518091039020600301600083815260200190815260200160002060000190816134589190615816565b5082828151811061346c5761346b6158e8565b5b6020026020010151600001516020015160008560405161348c91906155f3565b9081526020016040518091039020600301600083815260200190815260200160002060010190816134bd9190615816565b50506135ec565b600080846040516134d591906155f3565b90815260200160405180910390206002015490506000846040516134f991906155f3565b9081526020016040518091039020600201600081548092919061351b90615946565b9190505550828281518110613533576135326158e8565b5b6020026020010151600001516000015160008560405161355391906155f3565b9081526020016040518091039020600301600083815260200190815260200160002060000190816135849190615816565b50828281518110613598576135976158e8565b5b602002602001015160000151602001516000856040516135b891906155f3565b9081526020016040518091039020600301600083815260200190815260200160002060010190816135e99190615816565b50505b80806135f790615946565b915050613383565b505050565b60005b815181101561390d577fffffffffffffffffffffffffffffffffffffffffffffffffffffffffffffffff828281518110613644576136436158e8565b5b602002602001015160200151146136a15761369c8383838151811061366c5761366b6158e8565b5b60200260200101516020015184848151811061368b5761368a6158e8565b5b602002602001015160400151613e2b565b6138fa565b600080846040516136b291906155f3565b908152602001604051809103902060040160008154809291906136d490615946565b9190505590508282815181106136ed576136ec6158e8565b5b60200260200101516000015160008560405161370991906155f3565b90815260200160405180910390206005016000838152602001908152602001600020600001908161373a9190615816565b5082828151811061374e5761374d6158e8565b5b6020026020010151604001515160008560405161376b91906155f3565b908152602001604051809103902060050160008381526020019081526020016000206001018190555060005b8383815181106137aa576137a96158e8565b5b602002602001015160400151518110156138f7578383815181106137d1576137d06158e8565b5b60200260200101516040015181815181106137ef576137ee6158e8565b5b60200260200101516000015160008660405161380b91906155f3565b90815260200160405180910390206005016000848152602001908152602001600020600201600083815260200190815260200160002060000190816138509190615816565b50838381518110613864576138636158e8565b5b6020026020010151604001518181518110613882576138816158e8565b5b60200260200101516020015160008660405161389e91906155f3565b90815260200160405180910390206005016000848152602001908152602001600020600201600083815260200190815260200160002060010190816138e39190615816565b5080806138ef90615946565b915050613797565b50505b808061390590615946565b915050613607565b505050565b600081805190602001208380519060200120036139325760019050613937565b600090505b92915050565b600081602001516020015190506000808260405161395b91906155f3565b9081526020016040518091039020600601600081548092919061397d90615946565b91905055905082602001516000015160008360405161399c91906155f3565b9081526020016040518091039020600701600083815260200190815260200160002060020160000190816139d09190615816565b508260200151602001516000836040516139ea91906155f3565b908152602001604051809103902060070160008381526020019081526020016000206002016001019081613a1e9190615816565b50826020015160400151600083604051613a3891906155f3565b908152602001604051809103902060070160008381526020019081526020016000206002016002019081613a6c9190615816565b50826020015160600151600083604051613a8691906155f3565b908152602001604051809103902060070160008381526020019081526020016000206002016003019081613aba9190615816565b506040518060400160405280600781526020017f70656e64696e6700000000000000000000000000000000000000000000000000815250600083604051613b0191906155f3565b908152602001604051809103902060070160008381526020019081526020016000206002016004019081613b359190615816565b50826000015151600083604051613b4c91906155f3565b908152602001604051809103902060070160008381526020019081526020016000206000018190555060005b836000015151811015613c0a5783600001518181518110613b9c57613b9b6158e8565b5b6020026020010151600084604051613bb491906155f3565b9081526020016040518091039020600701600084815260200190815260200160002060010160008381526020019081526020016000209081613bf69190615816565b508080613c0290615946565b915050613b78565b50505050565b6060613c1a61332a565b60005b600084604051613c2d91906155f3565b908152602001604051809103902060020154811015613deb57613d0d600085604051613c5991906155f3565b908152602001604051809103902060030160008381526020019081526020016000206000018054613c8990615639565b80601f0160208091040260200160405190810160405280929190818152602001828054613cb590615639565b8015613d025780601f10613cd757610100808354040283529160200191613d02565b820191906000526020600020905b815481529060010190602001808311613ce557829003601f168201915b505050505084613912565b15613dd857600084604051613d2291906155f3565b908152602001604051809103902060030160008281526020019081526020016000206001018054613d5290615639565b80601f0160208091040260200160405190810160405280929190818152602001828054613d7e90615639565b8015613dcb5780601f10613da057610100808354040283529160200191613dcb565b820191906000526020600020905b815481529060010190602001808311613dae57829003601f168201915b5050505050915050613e25565b8080613de390615946565b915050613c1d565b506040518060400160405280600381526020017f4e2f41000000000000000000000000000000000000000000000000000000000081525090505b92915050565b60005b8151811015613ffe5760005b600085604051613e4a91906155f3565b908152602001604051809103902060020154811015613fea57613f5c600086604051613e7691906155f3565b9081526020016040518091039020600501600086815260200190815260200160002060020160008381526020019081526020016000206000018054613eba90615639565b80601f0160208091040260200160405190810160405280929190818152602001828054613ee690615639565b8015613f335780601f10613f0857610100808354040283529160200191613f33565b820191906000526020600020905b815481529060010190602001808311613f1657829003601f168201915b5050505050848481518110613f4b57613f4a6158e8565b5b602002602001015160000151613912565b15613fd757828281518110613f7457613f736158e8565b5b602002602001015160200151600086604051613f9091906155f3565b9081526020016040518091039020600501600086815260200190815260200160002060020160008381526020019081526020016000206001019081613fd59190615816565b505b8080613fe290615946565b915050613e3a565b508080613ff690615946565b915050613e2e565b50505050565b604051806040016040528060608152602001606081525090565b604051806040016040528060608152602001606081525090565b6040518060c001604052806060815260200160008152602001606081526020016060815260200160608152602001606081525090565b6040518060400160405280606081526020016140886140ae565b81525090565b6040518060400160405280606081526020016140a86140ae565b81525090565b6040518060a0016040528060608152602001606081526020016060815260200160608152602001606081525090565b6000604051905090565b600080fd5b600080fd5b600080fd5b6000601f19601f8301169050919050565b7f4e487b7100000000000000000000000000000000000000000000000000000000600052604160045260246000fd5b61413f826140f6565b810181811067ffffffffffffffff8211171561415e5761415d614107565b5b80604052505050565b60006141716140dd565b905061417d8282614136565b919050565b600080fd5b600080fd5b600080fd5b600067ffffffffffffffff8211156141ac576141ab614107565b5b6141b5826140f6565b9050602081019050919050565b82818337600083830152505050565b60006141e46141df84614191565b614167565b905082815260208101848484011115614200576141ff61418c565b5b61420b8482856141c2565b509392505050565b600082601f83011261422857614227614187565b5b81356142388482602086016141d1565b91505092915050565b600067ffffffffffffffff82111561425c5761425b614107565b5b602082029050602081019050919050565b600080fd5b600060408284031215614288576142876140f1565b5b6142926040614167565b9050600082013567ffffffffffffffff8111156142b2576142b1614182565b5b6142be84828501614213565b600083015250602082013567ffffffffffffffff8111156142e2576142e1614182565b5b6142ee84828501614213565b60208301525092915050565b6000819050919050565b61430d816142fa565b811461431857600080fd5b50565b60008135905061432a81614304565b92915050565b600060408284031215614346576143456140f1565b5b6143506040614167565b9050600082013567ffffffffffffffff8111156143705761436f614182565b5b61437c84828501614272565b60008301525060206143908482850161431b565b60208301525092915050565b60006143af6143aa84614241565b614167565b905080838252602082019050602084028301858111156143d2576143d161426d565b5b835b8181101561441957803567ffffffffffffffff8111156143f7576143f6614187565b5b8086016144048982614330565b855260208501945050506020810190506143d4565b5050509392505050565b600082601f83011261443857614437614187565b5b813561444884826020860161439c565b91505092915050565b600067ffffffffffffffff82111561446c5761446b614107565b5b602082029050602081019050919050565b600067ffffffffffffffff82111561449857614497614107565b5b602082029050602081019050919050565b60006144bc6144b78461447d565b614167565b905080838252602082019050602084028301858111156144df576144de61426d565b5b835b8181101561452657803567ffffffffffffffff81111561450457614503614187565b5b8086016145118982614272565b855260208501945050506020810190506144e1565b5050509392505050565b600082601f83011261454557614544614187565b5b81356145558482602086016144a9565b91505092915050565b600060608284031215614574576145736140f1565b5b61457e6060614167565b9050600082013567ffffffffffffffff81111561459e5761459d614182565b5b6145aa84828501614213565b60008301525060206145be8482850161431b565b602083015250604082013567ffffffffffffffff8111156145e2576145e1614182565b5b6145ee84828501614530565b60408301525092915050565b600061460d61460884614451565b614167565b905080838252602082019050602084028301858111156146305761462f61426d565b5b835b8181101561467757803567ffffffffffffffff81111561465557614654614187565b5b808601614662898261455e565b85526020850194505050602081019050614632565b5050509392505050565b600082601f83011261469657614695614187565b5b81356146a68482602086016145fa565b91505092915050565b6000606082840312156146c5576146c46140f1565b5b6146cf6060614167565b9050600082013567ffffffffffffffff8111156146ef576146ee614182565b5b6146fb84828501614213565b600083015250602082013567ffffffffffffffff81111561471f5761471e614182565b5b61472b84828501614423565b602083015250604082013567ffffffffffffffff81111561474f5761474e614182565b5b61475b84828501614681565b60408301525092915050565b60006020828403121561477d5761477c6140e7565b5b600082013567ffffffffffffffff81111561479b5761479a6140ec565b5b6147a7848285016146af565b91505092915050565b6000819050919050565b6147c3816147b0565b81146147ce57600080fd5b50565b6000813590506147e0816147ba565b92915050565b600080604083850312156147fd576147fc6140e7565b5b600083013567ffffffffffffffff81111561481b5761481a6140ec565b5b61482785828601614213565b9250506020614838858286016147d1565b9150509250929050565b60008060408385031215614859576148586140e7565b5b600083013567ffffffffffffffff811115614877576148766140ec565b5b61488385828601614213565b925050602083013567ffffffffffffffff8111156148a4576148a36140ec565b5b6148b085828601614213565b9150509250929050565b600081519050919050565b600082825260208201905092915050565b60005b838110156148f45780820151818401526020810190506148d9565b83811115614903576000848401525b50505050565b6000614914826148ba565b61491e81856148c5565b935061492e8185602086016148d6565b614937816140f6565b840191505092915050565b600081519050919050565b600082825260208201905092915050565b6000819050602082019050919050565b6000604083016000830151848203600086015261498b8282614909565b915050602083015184820360208601526149a58282614909565b9150508091505092915050565b60006149be838361496e565b905092915050565b6000602082019050919050565b60006149de82614942565b6149e8818561494d565b9350836020820285016149fa8561495e565b8060005b85811015614a365784840389528151614a1785826149b2565b9450614a22836149c6565b925060208a019950506001810190506149fe565b50829750879550505050505092915050565b60006040830160008301518482036000860152614a658282614909565b91505060208301518482036020860152614a7f82826149d3565b9150508091505092915050565b60006020820190508181036000830152614aa68184614a48565b905092915050565b600067ffffffffffffffff821115614ac957614ac8614107565b5b602082029050602081019050919050565b6000614aed614ae884614aae565b614167565b90508083825260208201905060208402830185811115614b1057614b0f61426d565b5b835b81811015614b5757803567ffffffffffffffff811115614b3557614b34614187565b5b808601614b428982614213565b85526020850194505050602081019050614b12565b5050509392505050565b600082601f830112614b7657614b75614187565b5b8135614b86848260208601614ada565b91505092915050565b600060a08284031215614ba557614ba46140f1565b5b614baf60a0614167565b9050600082013567ffffffffffffffff811115614bcf57614bce614182565b5b614bdb84828501614213565b600083015250602082013567ffffffffffffffff811115614bff57614bfe614182565b5b614c0b84828501614213565b602083015250604082013567ffffffffffffffff811115614c2f57614c2e614182565b5b614c3b84828501614213565b604083015250606082013567ffffffffffffffff811115614c5f57614c5e614182565b5b614c6b84828501614213565b606083015250608082013567ffffffffffffffff811115614c8f57614c8e614182565b5b614c9b84828501614213565b60808301525092915050565b600060408284031215614cbd57614cbc6140f1565b5b614cc76040614167565b9050600082013567ffffffffffffffff811115614ce757614ce6614182565b5b614cf384828501614b61565b600083015250602082013567ffffffffffffffff811115614d1757614d16614182565b5b614d2384828501614b8f565b60208301525092915050565b600060208284031215614d4557614d446140e7565b5b600082013567ffffffffffffffff811115614d6357614d626140ec565b5b614d6f84828501614ca7565b91505092915050565b600060208284031215614d8e57614d8d6140e7565b5b600082013567ffffffffffffffff811115614dac57614dab6140ec565b5b614db884828501614213565b91505092915050565b614dca816147b0565b82525050565b600081519050919050565b600082825260208201905092915050565b6000819050602082019050919050565b60006040830160008301518482036000860152614e198282614909565b91505060208301518482036020860152614e3382826149d3565b9150508091505092915050565b6000614e4c8383614dfc565b905092915050565b6000602082019050919050565b6000614e6c82614dd0565b614e768185614ddb565b935083602082028501614e8885614dec565b8060005b85811015614ec45784840389528151614ea58582614e40565b9450614eb083614e54565b925060208a01995050600181019050614e8c565b50829750879550505050505092915050565b600081519050919050565b600082825260208201905092915050565b6000819050602082019050919050565b600081519050919050565b600082825260208201905092915050565b6000819050602082019050919050565b6000614f3a8383614909565b905092915050565b6000602082019050919050565b6000614f5a82614f02565b614f648185614f0d565b935083602082028501614f7685614f1e565b8060005b85811015614fb25784840389528151614f938582614f2e565b9450614f9e83614f42565b925060208a01995050600181019050614f7a565b50829750879550505050505092915050565b600060a0830160008301518482036000860152614fe18282614909565b91505060208301518482036020860152614ffb8282614909565b915050604083015184820360408601526150158282614909565b9150506060830151848203606086015261502f8282614909565b915050608083015184820360808601526150498282614909565b9150508091505092915050565b600060408301600083015184820360008601526150738282614f4f565b9150506020830151848203602086015261508d8282614fc4565b9150508091505092915050565b60006150a68383615056565b905092915050565b6000602082019050919050565b60006150c682614ed6565b6150d08185614ee1565b9350836020820285016150e285614ef2565b8060005b8581101561511e57848403895281516150ff858261509a565b945061510a836150ae565b925060208a019950506001810190506150e6565b50829750879550505050505092915050565b600081519050919050565b600082825260208201905092915050565b6000819050602082019050919050565b6000604083016000830151848203600086015261517982826149d3565b915050602083015184820360208601526151938282614fc4565b9150508091505092915050565b60006151ac838361515c565b905092915050565b6000602082019050919050565b60006151cc82615130565b6151d6818561513b565b9350836020820285016151e88561514c565b8060005b85811015615224578484038952815161520585826151a0565b9450615210836151b4565b925060208a019950506001810190506151ec565b50829750879550505050505092915050565b600060c08301600083015184820360008601526152538282614909565b91505060208301516152686020860182614dc1565b506040830151848203604086015261528082826149d3565b9150506060830151848203606086015261529a8282614e61565b915050608083015184820360808601526152b482826150bb565b91505060a083015184820360a08601526152ce82826151c1565b9150508091505092915050565b600060208201905081810360008301526152f58184615236565b905092915050565b600060408284031215615313576153126140f1565b5b61531d6040614167565b9050600082013567ffffffffffffffff81111561533d5761533c614182565b5b61534984828501614530565b600083015250602082013567ffffffffffffffff81111561536d5761536c614182565b5b61537984828501614b8f565b60208301525092915050565b6000806040838503121561539c5761539b6140e7565b5b600083013567ffffffffffffffff8111156153ba576153b96140ec565b5b6153c685828601614213565b925050602083013567ffffffffffffffff8111156153e7576153e66140ec565b5b6153f3858286016152fd565b9150509250929050565b6000819050919050565b615410816153fd565b82525050565b600060208201905061542b6000830184615407565b92915050565b6000604083016000830151848203600086015261544e82826149d3565b915050602083015184820360208601526154688282614fc4565b9150508091505092915050565b6000602082019050818103600083015261548f8184615431565b905092915050565b600080604083850312156154ae576154ad6140e7565b5b600083013567ffffffffffffffff8111156154cc576154cb6140ec565b5b6154d885828601614213565b925050602083013567ffffffffffffffff8111156154f9576154f86140ec565b5b61550585828601614530565b9150509250929050565b600082825260208201905092915050565b600061552b82614942565b615535818561550f565b9350836020820285016155478561495e565b8060005b85811015615583578484038952815161556485826149b2565b945061556f836149c6565b925060208a0199505060018101905061554b565b50829750879550505050505092915050565b600060208201905081810360008301526155af8184615520565b905092915050565b600081905092915050565b60006155cd826148ba565b6155d781856155b7565b93506155e78185602086016148d6565b80840191505092915050565b60006155ff82846155c2565b915081905092915050565b7f4e487b7100000000000000000000000000000000000000000000000000000000600052602260045260246000fd5b6000600282049050600182168061565157607f821691505b6020821081036156645761566361560a565b5b50919050565b60008190508160005260206000209050919050565b60006020601f8301049050919050565b600082821b905092915050565b6000600883026156cc7fffffffffffffffffffffffffffffffffffffffffffffffffffffffffffffffff8261568f565b6156d6868361568f565b95508019841693508086168417925050509392505050565b6000819050919050565b600061571361570e615709846147b0565b6156ee565b6147b0565b9050919050565b6000819050919050565b61572d836156f8565b6157416157398261571a565b84845461569c565b825550505050565b600090565b615756615749565b615761818484615724565b505050565b5b818110156157855761577a60008261574e565b600181019050615767565b5050565b601f8211156157ca5761579b8161566a565b6157a48461567f565b810160208510156157b3578190505b6157c76157bf8561567f565b830182615766565b50505b505050565b600082821c905092915050565b60006157ed600019846008026157cf565b1980831691505092915050565b600061580683836157dc565b9150826002028217905092915050565b61581f826148ba565b67ffffffffffffffff81111561583857615837614107565b5b6158428254615639565b61584d828285615789565b600060209050601f831160018114615880576000841561586e578287015190505b61587885826157fa565b8655506158e0565b601f19841661588e8661566a565b60005b828110156158b657848901518255600182019150602085019450602081019050615891565b868310156158d357848901516158cf601f8916826157dc565b8355505b6001600288020188555050505b505050505050565b7f4e487b7100000000000000000000000000000000000000000000000000000000600052603260045260246000fd5b7f4e487b7100000000000000000000000000000000000000000000000000000000600052601160045260246000fd5b6000615951826147b0565b91507fffffffffffffffffffffffffffffffffffffffffffffffffffffffffffffffff820361598357615982615917565b5b600182019050919050565b6000615999826147b0565b91506159a4836147b0565b9250827fffffffffffffffffffffffffffffffffffffffffffffffffffffffffffffffff038211156159d9576159d8615917565b5b82820190509291505056fea26469706673582212204610f4b1065ef11bfeb7309b34edebfdd938c32567f6b2c1847723e22ece21ac64736f6c634300080f0033",
  "immutableReferences": {},
  "source": "pragma solidity >=0.8.9;\r\n\r\n//SPDX-License-Identifier: UNLICENSED\r\n\r\ncontract UserDataContract {\r\n\r\n    /*\r\n    * ============================================== USER DATA SUBSECTION ==============================================\r\n    * Functions concerned with anything and everything to do with a User's data.\r\n    */ \r\n\r\n    /* Attributes stored in UserData and Credential. */\r\n    struct Attribute {\r\n        string name;\r\n        string value;\r\n    }\r\n\r\n    /* Credential consisting of attributes and an organization name. */\r\n    struct Credential {\r\n        string organization;\r\n        uint attributeCount;\r\n        mapping (uint => Attribute) attributes;\r\n    }\r\n\r\n    /* UserData is where the bulk of user's data will be stored using Credential and Attribute. */\r\n    struct UserData {\r\n        string id;\r\n\r\n        uint balance;\r\n\r\n        uint attributeCount;\r\n        mapping (uint => Attribute) attributes;\r\n\r\n        uint credentialCount;\r\n        mapping (uint => Credential) credentials;\r\n\r\n        uint transactionRequestCount;\r\n        mapping (uint => TransactionRequestStringMapping) transactionRequests;\r\n\r\n        uint approvedTransactionCount;\r\n        mapping (uint => TransactionApprovedStorage) approvedTransactions;\r\n\r\n        uint credentialRequestCount;\r\n        mapping (uint => CredentialRequest) credentialRequests;\r\n    }\r\n\r\n    /* What will be returned in place of a Credential struct. */\r\n    struct CredentialResponse {\r\n        string organization;\r\n        Attribute[] attributes;\r\n    }\r\n\r\n    /* What will be returned in place of a UserData struct. */\r\n    struct UserDataResponse{\r\n        string id;\r\n        uint balance;\r\n        Attribute[] attributes;\r\n        CredentialResponse[] credentials;\r\n        TransactionRequest[] transactionRequests;\r\n        TransactionResponse[] approvedTransactions;\r\n    }\r\n\r\n    /* Received in paramets to update attributes, this improves gas usage by knowing when to insert and when to update. */\r\n    struct AttributeUpdate {\r\n        Attribute attribute;\r\n        int index;\r\n    }\r\n\r\n    /* Received in paramets to update credentials, this improves gas usage by knowing when to insert and when to update */\r\n    struct CredentialUpdate {\r\n        string organization;\r\n        int index;\r\n        Attribute[] attributes;\r\n    }\r\n\r\n    /* Single functions for update to test integration methods */\r\n    struct Update {\r\n        string id;\r\n        AttributeUpdate[] attributes;\r\n        CredentialUpdate[] credentials;\r\n    }\r\n\r\n    /* All stored user's data can be accessed through the allUserData attribute. */\r\n    mapping (string => UserData) allUserData;\r\n\r\n    /* Initialize a new user's storage data. */\r\n    function createUser(string memory _id) public {\r\n\r\n        auth();\r\n\r\n        allUserData[_id].id = _id;\r\n        allUserData[_id].attributeCount = 0;\r\n        allUserData[_id].credentialCount = 0;\r\n        allUserData[_id].transactionRequestCount = 0;\r\n        allUserData[_id].approvedTransactionCount = 0;\r\n        allUserData[_id].credentialRequestCount = 0;\r\n    }\r\n\r\n    /* Add and Update UserData by id. */\r\n    function updateUser(Update memory update) public {\r\n\r\n        auth();\r\n        \r\n        //add/update all new attributes\r\n        if (update.attributes.length > 0) updateAttributes(update.id, update.attributes);\r\n\r\n        //add and update all new credentials\r\n        if (update.credentials.length > 0) updateCredentials(update.id, update.credentials);\r\n\r\n    }\r\n\r\n    /* Returns the enitre UserData for the specified id. */\r\n    function getUserData(string memory _id) public view returns (UserDataResponse memory) {\r\n\r\n        auth();\r\n        \r\n        //Create Attribute array\r\n        uint size = allUserData[_id].attributeCount;\r\n        Attribute[] memory attrs = new Attribute[](size);\r\n        \r\n        for (uint i=0; i<allUserData[_id].attributeCount; i++) {\r\n            attrs[i].name = allUserData[_id].attributes[i].name;\r\n            attrs[i].value = allUserData[_id].attributes[i].value;\r\n        }\r\n\r\n        //Create Attribute arrays for Credential arrays\r\n        size = allUserData[_id].credentialCount;\r\n        CredentialResponse[] memory creds = new CredentialResponse[](size);\r\n\r\n        for (uint i=0; i<allUserData[_id].credentialCount; i++) {\r\n\r\n            creds[i].organization = allUserData[_id].credentials[i].organization;\r\n            creds[i].attributes = new Attribute[](allUserData[_id].credentials[i].attributeCount);\r\n\r\n            for (uint k=0; k<allUserData[_id].credentials[i].attributeCount; k++) {\r\n                creds[i].attributes[k].name = allUserData[_id].credentials[i].attributes[k].name;\r\n                creds[i].attributes[k].value = allUserData[_id].credentials[i].attributes[k].value;\r\n            }\r\n        }\r\n\r\n        //create TransactionRequest array\r\n        size = allUserData[_id].transactionRequestCount;\r\n        TransactionRequest[] memory transactionRequests = new TransactionRequest[](allUserData[_id].transactionRequestCount);\r\n\r\n        for (uint i=0; i<size; i++) {\r\n\r\n            transactionRequests[i].stamp.toID = allUserData[_id].transactionRequests[i].stamp.toID;\r\n            transactionRequests[i].stamp.fromID = allUserData[_id].transactionRequests[i].stamp.fromID;\r\n            transactionRequests[i].stamp.message = allUserData[_id].transactionRequests[i].stamp.message;\r\n            transactionRequests[i].stamp.date = allUserData[_id].transactionRequests[i].stamp.date;\r\n            transactionRequests[i].stamp.status = allUserData[_id].transactionRequests[i].stamp.status;\r\n\r\n            uint attrSize = allUserData[_id].transactionRequests[i].attributeCount;\r\n            transactionRequests[i].attributes = new string[](attrSize);\r\n\r\n            for (uint k=0; k<attrSize; k++) {\r\n                transactionRequests[i].attributes[k] = allUserData[_id].transactionRequests[i].attributes[k];\r\n            }\r\n        }\r\n\r\n        //create Approved Transaction array\r\n        size = allUserData[_id].approvedTransactionCount;\r\n        TransactionResponse[] memory approvedTransactions = new TransactionResponse[](size);\r\n\r\n        for (uint i=0; i<size; i++) {\r\n\r\n            approvedTransactions[i].stamp.toID = allUserData[_id].approvedTransactions[i].stamp.toID;\r\n            approvedTransactions[i].stamp.fromID = allUserData[_id].approvedTransactions[i].stamp.fromID;\r\n            approvedTransactions[i].stamp.message = allUserData[_id].approvedTransactions[i].stamp.message;\r\n            approvedTransactions[i].stamp.date = allUserData[_id].approvedTransactions[i].stamp.date;\r\n            approvedTransactions[i].stamp.status = allUserData[_id].approvedTransactions[i].stamp.status;\r\n\r\n            uint attrSize = allUserData[_id].approvedTransactions[i].attributeCount;\r\n            approvedTransactions[i].attributes = new Attribute[](attrSize);\r\n\r\n            for (uint k=0; k<attrSize; k++) {\r\n                approvedTransactions[i].attributes[k].name = allUserData[_id].approvedTransactions[i].attributes[k].name;\r\n                approvedTransactions[i].attributes[k].value = allUserData[_id].approvedTransactions[i].attributes[k].value;\r\n            }\r\n        }\r\n\r\n\r\n        //Create UserDataResponse\r\n        return (UserDataResponse({\r\n            id: allUserData[_id].id,\r\n            balance: allUserData[_id].balance,\r\n            attributes: attrs,\r\n            credentials: creds,\r\n            transactionRequests: transactionRequests,\r\n            approvedTransactions: approvedTransactions\r\n        }));\r\n    }\r\n\r\n    /* Updates the relevant attributes for the appropriate credentials. */\r\n    function updateCredentials(string memory _id, CredentialUpdate[] memory credentials) private {\r\n\r\n        for (uint i=0; i<credentials.length; i++) {\r\n\r\n            //update existing credentials\r\n            if (credentials[i].index != -1) {\r\n                updateCredentialAttributes(_id, uint(credentials[i].index), credentials[i].attributes);\r\n                continue;\r\n            }\r\n\r\n            //insert new credentials\r\n            uint index = allUserData[_id].credentialCount++;\r\n            allUserData[_id].credentials[index].organization = credentials[i].organization;\r\n            allUserData[_id].credentials[index].attributeCount = credentials[i].attributes.length;\r\n\r\n            for (uint k=0; k<credentials[i].attributes.length; k++) {\r\n                allUserData[_id].credentials[index].attributes[k].name = credentials[i].attributes[k].name;\r\n                allUserData[_id].credentials[index].attributes[k].value = credentials[i].attributes[k].value;\r\n            }\r\n        }   \r\n\r\n    }\r\n\r\n    /* Updates relevant Attributes for specified credential and organization in storage. */\r\n    function updateCredentialAttributes(string memory _id, uint org, Attribute[] memory attributes) private {\r\n        \r\n        for (uint i=0; i<attributes.length; i++) {\r\n            for (uint k=0; k<allUserData[_id].attributeCount; k++) {\r\n                if (stringCompare(allUserData[_id].credentials[org].attributes[k].name, attributes[i].name)) {\r\n                    allUserData[_id].credentials[org].attributes[k].value = attributes[i].value;\r\n                }\r\n            }\r\n        }\r\n    }\r\n\r\n    /* Updates relevant Attribute values in storage. */\r\n    function updateAttributes(string memory _id, AttributeUpdate[] memory attributes) private {\r\n        \r\n        for (uint i=0; i<attributes.length; i++) {\r\n\r\n            //update existing attribute\r\n            if (attributes[i].index != -1) {\r\n                uint k = uint(attributes[i].index);\r\n                allUserData[_id].attributes[k].name = attributes[i].attribute.name;\r\n                allUserData[_id].attributes[k].value = attributes[i].attribute.value;\r\n                continue;\r\n            }\r\n\r\n            //add new attribute\r\n            uint index = allUserData[_id].attributeCount;\r\n            allUserData[_id].attributeCount++;\r\n            allUserData[_id].attributes[index].name = attributes[i].attribute.name;\r\n            allUserData[_id].attributes[index].value = attributes[i].attribute.value;\r\n        }\r\n\r\n    }\r\n\r\n    function getCredential(string memory id, string memory organization) public view returns (CredentialResponse memory) {\r\n        \r\n        CredentialResponse memory cr;\r\n        \r\n        for (uint i=0; i<allUserData[id].credentialCount; i++) {\r\n            if (stringCompare(allUserData[id].credentials[i].organization, organization)) {\r\n\r\n                cr.organization = organization;\r\n                uint size = allUserData[id].credentials[i].attributeCount;\r\n\r\n                Attribute[] memory attrs = new Attribute[](size);\r\n\r\n                for (uint k=0; k<size; k++) {\r\n                    attrs[k].name = allUserData[id].credentials[i].attributes[k].name;\r\n                    attrs[k].value = allUserData[id].credentials[i].attributes[k].value;\r\n                }\r\n\r\n                cr.attributes = attrs;\r\n\r\n                return cr;\r\n            }\r\n        }\r\n\r\n        return cr;\r\n\r\n    }\r\n\r\n    function updateBalance(string memory _id, uint amount) public {\r\n\r\n        auth();\r\n\r\n        allUserData[_id].balance += amount;\r\n    }\r\n\r\n    /*\r\n    * ============================================== TRANSACTION SUBSECTION ==============================================\r\n    * This is where all transactions between users have operations capable of carrying out the needed functions.\r\n    */ \r\n\r\n    /* Data to describe transaction information. */\r\n    struct TransactionStamp {\r\n        string fromID;\r\n        string toID;\r\n        string date;\r\n        string message;\r\n        string status;\r\n    }\r\n\r\n    /* Request to get Attribute data from a user. */\r\n    struct TransactionRequest {\r\n        string[] attributes;\r\n        TransactionStamp stamp;\r\n    }\r\n\r\n    struct TransactionRequestStringMapping {\r\n        uint attributeCount;\r\n        mapping (uint => string) attributes;\r\n        TransactionStamp stamp;\r\n    }\r\n\r\n    struct TransactionResponse {\r\n        Attribute[] attributes;\r\n        TransactionStamp stamp;\r\n    }\r\n\r\n    struct TransactionApprovedStorage {\r\n        uint attributeCount;\r\n        mapping (uint => Attribute) attributes;\r\n        TransactionStamp stamp;\r\n    }\r\n\r\n    /* Request to get Credential data from a user. */\r\n    struct CredentialRequest {\r\n        string organization;\r\n        TransactionStamp stamp;\r\n    }\r\n\r\n    /* Stores the pending transaction with the appropriate user. */\r\n    function newTransactionRequest(TransactionRequest memory request) public {\r\n        auth();\r\n        addTransactionRequest(request);\r\n    }\r\n\r\n    /* Adds a new transaction as pending to the user's data. */\r\n    function addTransactionRequest(TransactionRequest memory request) private {\r\n        string memory id = request.stamp.toID;\r\n        uint index = allUserData[id].transactionRequestCount++;\r\n        allUserData[id].transactionRequests[index].stamp.fromID = request.stamp.fromID;\r\n        allUserData[id].transactionRequests[index].stamp.toID = request.stamp.toID;\r\n        allUserData[id].transactionRequests[index].stamp.date = request.stamp.date;\r\n        allUserData[id].transactionRequests[index].stamp.message = request.stamp.message;\r\n        allUserData[id].transactionRequests[index].stamp.status = \"pending\";\r\n\r\n        //allUserData[id].transactionRequests[index].attributes = new string[](request.attributes.length);\r\n        allUserData[id].transactionRequests[index].attributeCount = request.attributes.length;\r\n\r\n\r\n        for (uint i=0; i<request.attributes.length; i++) {\r\n            allUserData[id].transactionRequests[index].attributes[i] = request.attributes[i];\r\n        }\r\n    }\r\n\r\n    function declineTransaction(string memory _id, uint index) public {\r\n        auth();\r\n        allUserData[_id].transactionRequests[index].stamp.status = \"declined\";\r\n\r\n        // string memory id = allUserData[_id].transactionRequests[index].stamp.fromID;\r\n\r\n        // uint indexS = allUserData[id].approvedTransactionCount++;\r\n        // uint size = allUserData[_id].transactionRequests[index].attributeCount;\r\n\r\n        // allUserData[id].approvedTransactions[indexS].stamp.fromID = allUserData[_id].transactionRequests[index].stamp.fromID;\r\n        // allUserData[id].approvedTransactions[indexS].stamp.toID = allUserData[_id].transactionRequests[index].stamp.toID;\r\n        // allUserData[id].approvedTransactions[indexS].stamp.date = allUserData[_id].transactionRequests[index].stamp.date;\r\n        // allUserData[id].approvedTransactions[indexS].stamp.message = allUserData[_id].transactionRequests[index].stamp.message;\r\n        // allUserData[id].approvedTransactions[indexS].stamp.status = allUserData[_id].transactionRequests[index].stamp.status;\r\n\r\n        // allUserData[id].approvedTransactions[indexS].attributeCount = size;\r\n\r\n        // for (uint i=0; i<size; i++) {\r\n        //     allUserData[id].approvedTransactions[indexS].attributes[i].name = allUserData[_id].transactionRequests[index].attributes[i];\r\n        // }\r\n        \r\n    }\r\n\r\n    function approveTransactionStageA(string memory _id, uint index) public {\r\n        auth();\r\n        allUserData[_id].transactionRequests[index].stamp.status = \"approved\";\r\n    }\r\n\r\n    /* Approves the pending transaction by returning the data to the API for decryption. */\r\n    function approveTransactionStageB(string memory _id, uint index) public view returns (TransactionResponse memory) {\r\n\r\n        auth();\r\n\r\n        TransactionResponse memory ret;\r\n        \r\n        ret.stamp.toID = allUserData[_id].transactionRequests[index].stamp.toID;\r\n        ret.stamp.fromID = allUserData[_id].transactionRequests[index].stamp.fromID;\r\n        ret.stamp.message = allUserData[_id].transactionRequests[index].stamp.message;\r\n        ret.stamp.date = allUserData[_id].transactionRequests[index].stamp.date;\r\n        ret.stamp.status = allUserData[_id].transactionRequests[index].stamp.status;\r\n\r\n        uint attrSize = allUserData[_id].transactionRequests[index].attributeCount;\r\n        ret.attributes = new Attribute[](attrSize);\r\n\r\n        for (uint k=0; k<attrSize; k++) {\r\n            ret.attributes[k].name = allUserData[_id].transactionRequests[index].attributes[k];\r\n            ret.attributes[k].value = findAttribute(_id, allUserData[_id].transactionRequests[index].attributes[k]);\r\n        }\r\n\r\n        return ret;\r\n    }\r\n\r\n    function approveTransactionStageC(string memory _id, TransactionResponse memory transaction) public {\r\n\r\n        auth();\r\n\r\n        uint index = allUserData[_id].approvedTransactionCount++;\r\n        uint size = transaction.attributes.length;\r\n\r\n        allUserData[_id].approvedTransactions[index].stamp.fromID = transaction.stamp.fromID;\r\n        allUserData[_id].approvedTransactions[index].stamp.toID = transaction.stamp.toID;\r\n        allUserData[_id].approvedTransactions[index].stamp.date = transaction.stamp.date;\r\n        allUserData[_id].approvedTransactions[index].stamp.message = transaction.stamp.message;\r\n        allUserData[_id].approvedTransactions[index].stamp.status = transaction.stamp.status;\r\n\r\n        //allUserData[_id].approvedTransactions[index].attributes = new Attribute[](size);\r\n        allUserData[_id].approvedTransactions[index].attributeCount = size;\r\n\r\n        for (uint i=0; i<size; i++) {\r\n            allUserData[_id].approvedTransactions[index].attributes[i].name = transaction.attributes[i].name;\r\n            allUserData[_id].approvedTransactions[index].attributes[i].value = transaction.attributes[i].value;\r\n        }\r\n    }\r\n\r\n    function findAttribute(string memory id, string memory name) private view returns (string memory) {\r\n\r\n        auth();\r\n\r\n        for (uint i=0; i<allUserData[id].attributeCount; i++) {\r\n            if (stringCompare(allUserData[id].attributes[i].name, name))\r\n                return allUserData[id].attributes[i].value;\r\n        }\r\n\r\n        return \"N/A\";\r\n    }\r\n\r\n    /* Returns the desired attributes for requested data. */\r\n    function getAttributesTransaction(string memory _id, Attribute[] memory attributes) public view returns (Attribute[] memory) {\r\n\r\n        auth();\r\n\r\n        Attribute[] memory res = new Attribute[](attributes.length);\r\n\r\n        for (uint i=0; i<attributes.length; i++) {\r\n            for (uint k=0; k<allUserData[_id].attributeCount; k++) {\r\n                if (stringCompare(allUserData[_id].attributes[k].name, attributes[i].name)) {\r\n                    res[i].name = allUserData[_id].attributes[k].name;\r\n                    res[i].value = allUserData[_id].attributes[k].value;\r\n                    continue;\r\n                }\r\n            }\r\n        }\r\n\r\n        return res;\r\n    }\r\n\r\n    /* Returns the desired Credential and its associated attributes. */\r\n    function getCredentialTransaction(string memory _id, string memory organization) public view returns (CredentialResponse memory) {\r\n\r\n        auth();\r\n\r\n        CredentialResponse[] memory cred = new CredentialResponse[](1);\r\n\r\n        for (uint i=0; i<allUserData[_id].credentialCount; i++) {\r\n            if (stringCompare(allUserData[_id].credentials[i].organization, organization)) {\r\n                cred[0].organization = organization;\r\n\r\n                cred[0].attributes = new Attribute[](allUserData[_id].credentials[i].attributeCount);\r\n\r\n                for (uint k=0; k<allUserData[_id].credentials[i].attributeCount; k++) {\r\n                    cred[0].attributes[k].name = allUserData[_id].credentials[i].attributes[k].name;\r\n                    cred[0].attributes[k].value = allUserData[_id].credentials[i].attributes[k].value;\r\n                }\r\n            }\r\n        }\r\n\r\n        return cred[0];\r\n    }\r\n\r\n    /*\r\n    * ============================================== GENERAL SUBSECTION ==============================================\r\n    */ \r\n\r\n    /* Compares two strings to see if they're equal or not. */\r\n    function stringCompare(string memory a, string memory b) private pure returns (bool) {\r\n        if (keccak256(bytes(a)) == keccak256(bytes(b)))\r\n            return true;\r\n        return false;\r\n    }\r\n\r\n    function stringToBytes32(string memory source) public pure returns (bytes32 result) {\r\n    bytes memory tempEmptyStringTest = bytes(source);\r\n    if (tempEmptyStringTest.length == 0) {\r\n        return 0x0;\r\n    }\r\n\r\n    assembly {\r\n        result := mload(add(source, 32))\r\n    }\r\n}\r\n\r\n    function auth() private view {\r\n\r\n        //3e98b6bb38b408149c43d9d74df82ba4ceaa09b8a5609d849c025c91163ef540 : with 0x\r\n        //8d175b8c26b78c98cd2b09d5f8b812b5af308418ab4ec505184318da3c813cd5 : without 0x\r\n        // string memory hashedAPI = \"8d175b8c26b78c98cd2b09d5f8b812b5af308418ab4ec505184318da3c813cd5\";\r\n\r\n        // if (keccak256(abi.encodePacked(msg.sender)) == stringToBytes32(hashedAPI)) {\r\n        //     return;\r\n        // }\r\n        // else {\r\n        //     revert();\r\n        // }\r\n\r\n        address API = 0x94618601FE6cb8912b274E5a00453949A57f8C1e;\r\n\r\n        if (msg.sender == API) {\r\n            return;\r\n        }\r\n        else {\r\n            //revert();\r\n        }\r\n    }\r\n\r\n}",
  "sourcePath": "C:\\Users\\bbdnet2552\\Desktop\\University\\Capstone\\Repo\\Exploring-Self-Sovereign-Identity\\LocalBlockchain\\contracts\\UserDataContract.sol",
  "compiler": {
    "name": "solc",
    "version": "0.8.15+commit.e14f2714.Emscripten.clang"
  },
  "schemaVersion": "3.4.8",
  "updatedAt": "2022-09-22T15:34:12.691Z",
  "devdoc": {
    "kind": "dev",
    "methods": {},
    "version": 1
  },
  "userdoc": {
    "kind": "user",
    "methods": {},
    "version": 1
  }
}