{
  "contractName": "UserDataContract",
  "abi": [
    {
      "inputs": [
        {
          "internalType": "string",
          "name": "_id",
          "type": "string"
        }
      ],
      "name": "createUser",
      "outputs": [],
      "stateMutability": "nonpayable",
      "type": "function"
    },
    {
      "inputs": [
        {
          "components": [
            {
              "internalType": "string",
              "name": "id",
              "type": "string"
            },
            {
              "components": [
                {
                  "components": [
                    {
                      "internalType": "string",
                      "name": "name",
                      "type": "string"
                    },
                    {
                      "internalType": "string",
                      "name": "value",
                      "type": "string"
                    }
                  ],
                  "internalType": "struct UserDataContract.Attribute",
                  "name": "attribute",
                  "type": "tuple"
                },
                {
                  "internalType": "int256",
                  "name": "index",
                  "type": "int256"
                }
              ],
              "internalType": "struct UserDataContract.AttributeUpdate[]",
              "name": "attributes",
              "type": "tuple[]"
            },
            {
              "components": [
                {
                  "internalType": "string",
                  "name": "organization",
                  "type": "string"
                },
                {
                  "internalType": "int256",
                  "name": "index",
                  "type": "int256"
                },
                {
                  "components": [
                    {
                      "internalType": "string",
                      "name": "name",
                      "type": "string"
                    },
                    {
                      "internalType": "string",
                      "name": "value",
                      "type": "string"
                    }
                  ],
                  "internalType": "struct UserDataContract.Attribute[]",
                  "name": "attributes",
                  "type": "tuple[]"
                }
              ],
              "internalType": "struct UserDataContract.CredentialUpdate[]",
              "name": "credentials",
              "type": "tuple[]"
            }
          ],
          "internalType": "struct UserDataContract.Update",
          "name": "update",
          "type": "tuple"
        }
      ],
      "name": "updateUser",
      "outputs": [],
      "stateMutability": "nonpayable",
      "type": "function"
    },
    {
      "inputs": [
        {
          "internalType": "string",
          "name": "_id",
          "type": "string"
        }
      ],
      "name": "getUserData",
      "outputs": [
        {
          "components": [
            {
              "internalType": "string",
              "name": "id",
              "type": "string"
            },
            {
              "components": [
                {
                  "internalType": "string",
                  "name": "name",
                  "type": "string"
                },
                {
                  "internalType": "string",
                  "name": "value",
                  "type": "string"
                }
              ],
              "internalType": "struct UserDataContract.Attribute[]",
              "name": "attributes",
              "type": "tuple[]"
            },
            {
              "components": [
                {
                  "internalType": "string",
                  "name": "organization",
                  "type": "string"
                },
                {
                  "components": [
                    {
                      "internalType": "string",
                      "name": "name",
                      "type": "string"
                    },
                    {
                      "internalType": "string",
                      "name": "value",
                      "type": "string"
                    }
                  ],
                  "internalType": "struct UserDataContract.Attribute[]",
                  "name": "attributes",
                  "type": "tuple[]"
                }
              ],
              "internalType": "struct UserDataContract.CredentialResponse[]",
              "name": "credentials",
              "type": "tuple[]"
            },
            {
              "components": [
                {
                  "internalType": "string[]",
                  "name": "attributes",
                  "type": "string[]"
                },
                {
                  "components": [
                    {
                      "internalType": "string",
                      "name": "fromID",
                      "type": "string"
                    },
                    {
                      "internalType": "string",
                      "name": "toID",
                      "type": "string"
                    },
                    {
                      "internalType": "string",
                      "name": "date",
                      "type": "string"
                    },
                    {
                      "internalType": "string",
                      "name": "message",
                      "type": "string"
                    },
                    {
                      "internalType": "string",
                      "name": "status",
                      "type": "string"
                    }
                  ],
                  "internalType": "struct UserDataContract.TransactionStamp",
                  "name": "stamp",
                  "type": "tuple"
                }
              ],
              "internalType": "struct UserDataContract.TransactionRequest[]",
              "name": "transactionRequests",
              "type": "tuple[]"
            },
            {
              "components": [
                {
                  "components": [
                    {
                      "internalType": "string",
                      "name": "name",
                      "type": "string"
                    },
                    {
                      "internalType": "string",
                      "name": "value",
                      "type": "string"
                    }
                  ],
                  "internalType": "struct UserDataContract.Attribute[]",
                  "name": "attributes",
                  "type": "tuple[]"
                },
                {
                  "components": [
                    {
                      "internalType": "string",
                      "name": "fromID",
                      "type": "string"
                    },
                    {
                      "internalType": "string",
                      "name": "toID",
                      "type": "string"
                    },
                    {
                      "internalType": "string",
                      "name": "date",
                      "type": "string"
                    },
                    {
                      "internalType": "string",
                      "name": "message",
                      "type": "string"
                    },
                    {
                      "internalType": "string",
                      "name": "status",
                      "type": "string"
                    }
                  ],
                  "internalType": "struct UserDataContract.TransactionStamp",
                  "name": "stamp",
                  "type": "tuple"
                }
              ],
              "internalType": "struct UserDataContract.TransactionResponse[]",
              "name": "approvedTransactions",
              "type": "tuple[]"
            }
          ],
          "internalType": "struct UserDataContract.UserDataResponse",
          "name": "",
          "type": "tuple"
        }
      ],
      "stateMutability": "view",
      "type": "function",
      "constant": true
    },
    {
      "inputs": [
        {
          "components": [
            {
              "internalType": "string[]",
              "name": "attributes",
              "type": "string[]"
            },
            {
              "components": [
                {
                  "internalType": "string",
                  "name": "fromID",
                  "type": "string"
                },
                {
                  "internalType": "string",
                  "name": "toID",
                  "type": "string"
                },
                {
                  "internalType": "string",
                  "name": "date",
                  "type": "string"
                },
                {
                  "internalType": "string",
                  "name": "message",
                  "type": "string"
                },
                {
                  "internalType": "string",
                  "name": "status",
                  "type": "string"
                }
              ],
              "internalType": "struct UserDataContract.TransactionStamp",
              "name": "stamp",
              "type": "tuple"
            }
          ],
          "internalType": "struct UserDataContract.TransactionRequest",
          "name": "request",
          "type": "tuple"
        }
      ],
      "name": "newTransactionRequest",
      "outputs": [],
      "stateMutability": "nonpayable",
      "type": "function"
    },
    {
      "inputs": [
        {
          "internalType": "string",
          "name": "_id",
          "type": "string"
        },
        {
          "internalType": "uint256",
          "name": "index",
          "type": "uint256"
        }
      ],
      "name": "approveTransactionStageA",
      "outputs": [],
      "stateMutability": "nonpayable",
      "type": "function"
    },
    {
      "inputs": [
        {
          "internalType": "string",
          "name": "_id",
          "type": "string"
        },
        {
          "internalType": "uint256",
          "name": "index",
          "type": "uint256"
        }
      ],
      "name": "approveTransactionStageB",
      "outputs": [
        {
          "components": [
            {
              "components": [
                {
                  "internalType": "string",
                  "name": "name",
                  "type": "string"
                },
                {
                  "internalType": "string",
                  "name": "value",
                  "type": "string"
                }
              ],
              "internalType": "struct UserDataContract.Attribute[]",
              "name": "attributes",
              "type": "tuple[]"
            },
            {
              "components": [
                {
                  "internalType": "string",
                  "name": "fromID",
                  "type": "string"
                },
                {
                  "internalType": "string",
                  "name": "toID",
                  "type": "string"
                },
                {
                  "internalType": "string",
                  "name": "date",
                  "type": "string"
                },
                {
                  "internalType": "string",
                  "name": "message",
                  "type": "string"
                },
                {
                  "internalType": "string",
                  "name": "status",
                  "type": "string"
                }
              ],
              "internalType": "struct UserDataContract.TransactionStamp",
              "name": "stamp",
              "type": "tuple"
            }
          ],
          "internalType": "struct UserDataContract.TransactionResponse",
          "name": "",
          "type": "tuple"
        }
      ],
      "stateMutability": "view",
      "type": "function",
      "constant": true
    },
    {
      "inputs": [
        {
          "internalType": "string",
          "name": "_id",
          "type": "string"
        },
        {
          "components": [
            {
              "components": [
                {
                  "internalType": "string",
                  "name": "name",
                  "type": "string"
                },
                {
                  "internalType": "string",
                  "name": "value",
                  "type": "string"
                }
              ],
              "internalType": "struct UserDataContract.Attribute[]",
              "name": "attributes",
              "type": "tuple[]"
            },
            {
              "components": [
                {
                  "internalType": "string",
                  "name": "fromID",
                  "type": "string"
                },
                {
                  "internalType": "string",
                  "name": "toID",
                  "type": "string"
                },
                {
                  "internalType": "string",
                  "name": "date",
                  "type": "string"
                },
                {
                  "internalType": "string",
                  "name": "message",
                  "type": "string"
                },
                {
                  "internalType": "string",
                  "name": "status",
                  "type": "string"
                }
              ],
              "internalType": "struct UserDataContract.TransactionStamp",
              "name": "stamp",
              "type": "tuple"
            }
          ],
          "internalType": "struct UserDataContract.TransactionResponse",
          "name": "transaction",
          "type": "tuple"
        }
      ],
      "name": "approveTransactionStageC",
      "outputs": [],
      "stateMutability": "nonpayable",
      "type": "function"
    },
    {
      "inputs": [
        {
          "internalType": "string",
          "name": "_id",
          "type": "string"
        },
        {
          "components": [
            {
              "internalType": "string",
              "name": "name",
              "type": "string"
            },
            {
              "internalType": "string",
              "name": "value",
              "type": "string"
            }
          ],
          "internalType": "struct UserDataContract.Attribute[]",
          "name": "attributes",
          "type": "tuple[]"
        }
      ],
      "name": "getAttributesTransaction",
      "outputs": [
        {
          "components": [
            {
              "internalType": "string",
              "name": "name",
              "type": "string"
            },
            {
              "internalType": "string",
              "name": "value",
              "type": "string"
            }
          ],
          "internalType": "struct UserDataContract.Attribute[]",
          "name": "",
          "type": "tuple[]"
        }
      ],
      "stateMutability": "view",
      "type": "function",
      "constant": true
    },
    {
      "inputs": [
        {
          "internalType": "string",
          "name": "_id",
          "type": "string"
        },
        {
          "internalType": "string",
          "name": "organization",
          "type": "string"
        }
      ],
      "name": "getCredentialTransaction",
      "outputs": [
        {
          "components": [
            {
              "internalType": "string",
              "name": "organization",
              "type": "string"
            },
            {
              "components": [
                {
                  "internalType": "string",
                  "name": "name",
                  "type": "string"
                },
                {
                  "internalType": "string",
                  "name": "value",
                  "type": "string"
                }
              ],
              "internalType": "struct UserDataContract.Attribute[]",
              "name": "attributes",
              "type": "tuple[]"
            }
          ],
          "internalType": "struct UserDataContract.CredentialResponse",
          "name": "",
          "type": "tuple"
        }
      ],
      "stateMutability": "view",
      "type": "function",
      "constant": true
    }
  ],
  "bytecode": "0x608060405234801561001057600080fd5b50615125806100206000396000f3fe608060405234801561001057600080fd5b50600436106100935760003560e01c8063af1a404f11610066578063af1a404f1461011c578063b957297514610138578063d4b94b0e14610168578063d78ab46f14610184578063fa1868ff146101b457610093565b80630176066914610098578063438e644e146100b4578063507ffba5146100d057806354ab2403146100ec575b600080fd5b6100b260048036038101906100ad9190613f1e565b6101e4565b005b6100ce60048036038101906100c991906141e8565b610229565b005b6100ea60048036038101906100e59190614231565b610235565b005b61010660048036038101906101019190614231565b610325565b6040516101139190614900565b60405180910390f35b610136600480360381019061013191906149aa565b6119bf565b005b610152600480360381019061014d9190614a22565b611cd9565b60405161015f9190614ade565b60405180910390f35b610182600480360381019061017d9190614b36565b6121b6565b005b61019e60048036038101906101999190614b36565b612235565b6040516101ab9190614bd6565b60405180910390f35b6101ce60048036038101906101c99190614bf8565b61284c565b6040516101db9190614cf6565b60405180910390f35b600081602001515111156102055761020481600001518260200151612bc1565b5b600081604001515111156102265761022581600001518260400151612e45565b5b50565b61023281613153565b50565b806000826040516102469190614d54565b908152602001604051809103902060000190816102639190614f77565b50600080826040516102759190614d54565b9081526020016040518091039020600101819055506000808260405161029b9190614d54565b908152602001604051809103902060030181905550600080826040516102c19190614d54565b908152602001604051809103902060050181905550600080826040516102e79190614d54565b9081526020016040518091039020600701819055506000808260405161030d9190614d54565b90815260200160405180910390206009018190555050565b61032d6137c2565b6000808360405161033e9190614d54565b908152602001604051809103902060010154905060008167ffffffffffffffff81111561036e5761036d6138be565b5b6040519080825280602002602001820160405280156103a757816020015b6103946137f1565b81526020019060019003908161038c5790505b50905060005b6000856040516103bd9190614d54565b9081526020016040518091039020600101548110156105a9576000856040516103e69190614d54565b90815260200160405180910390206002016000828152602001908152602001600020600001805461041690614d9a565b80601f016020809104026020016040519081016040528092919081815260200182805461044290614d9a565b801561048f5780601f106104645761010080835404028352916020019161048f565b820191906000526020600020905b81548152906001019060200180831161047257829003601f168201915b50505050508282815181106104a7576104a6615049565b5b6020026020010151600001819052506000856040516104c69190614d54565b9081526020016040518091039020600201600082815260200190815260200160002060010180546104f690614d9a565b80601f016020809104026020016040519081016040528092919081815260200182805461052290614d9a565b801561056f5780601f106105445761010080835404028352916020019161056f565b820191906000526020600020905b81548152906001019060200180831161055257829003601f168201915b505050505082828151811061058757610586615049565b5b60200260200101516020018190525080806105a1906150a7565b9150506103ad565b506000846040516105ba9190614d54565b908152602001604051809103902060030154915060008267ffffffffffffffff8111156105ea576105e96138be565b5b60405190808252806020026020018201604052801561062357816020015b61061061380b565b8152602001906001900390816106085790505b50905060005b6000866040516106399190614d54565b908152602001604051809103902060030154811015610a68576000866040516106629190614d54565b90815260200160405180910390206004016000828152602001908152602001600020600001805461069290614d9a565b80601f01602080910402602001604051908101604052809291908181526020018280546106be90614d9a565b801561070b5780601f106106e05761010080835404028352916020019161070b565b820191906000526020600020905b8154815290600101906020018083116106ee57829003601f168201915b505050505082828151811061072357610722615049565b5b6020026020010151600001819052506000866040516107429190614d54565b908152602001604051809103902060040160008281526020019081526020016000206001015467ffffffffffffffff811115610781576107806138be565b5b6040519080825280602002602001820160405280156107ba57816020015b6107a76137f1565b81526020019060019003908161079f5790505b508282815181106107ce576107cd615049565b5b60200260200101516020018190525060005b6000876040516107f09190614d54565b9081526020016040518091039020600401600083815260200190815260200160002060010154811015610a545760008760405161082d9190614d54565b908152602001604051809103902060040160008381526020019081526020016000206002016000828152602001908152602001600020600001805461087190614d9a565b80601f016020809104026020016040519081016040528092919081815260200182805461089d90614d9a565b80156108ea5780601f106108bf576101008083540402835291602001916108ea565b820191906000526020600020905b8154815290600101906020018083116108cd57829003601f168201915b505050505083838151811061090257610901615049565b5b60200260200101516020015182815181106109205761091f615049565b5b60200260200101516000018190525060008760405161093f9190614d54565b908152602001604051809103902060040160008381526020019081526020016000206002016000828152602001908152602001600020600101805461098390614d9a565b80601f01602080910402602001604051908101604052809291908181526020018280546109af90614d9a565b80156109fc5780601f106109d1576101008083540402835291602001916109fc565b820191906000526020600020905b8154815290600101906020018083116109df57829003601f168201915b5050505050838381518110610a1457610a13615049565b5b6020026020010151602001518281518110610a3257610a31615049565b5b6020026020010151602001819052508080610a4c906150a7565b9150506107e0565b508080610a60906150a7565b915050610629565b50600085604051610a799190614d54565b908152602001604051809103902060050154925060008086604051610a9e9190614d54565b90815260200160405180910390206005015467ffffffffffffffff811115610ac957610ac86138be565b5b604051908082528060200260200182016040528015610b0257816020015b610aef613825565b815260200190600190039081610ae75790505b50905060005b8481101561117a57600087604051610b209190614d54565b908152602001604051809103902060060160008281526020019081526020016000206002016001018054610b5390614d9a565b80601f0160208091040260200160405190810160405280929190818152602001828054610b7f90614d9a565b8015610bcc5780601f10610ba157610100808354040283529160200191610bcc565b820191906000526020600020905b815481529060010190602001808311610baf57829003601f168201915b5050505050828281518110610be457610be3615049565b5b60200260200101516020015160200181905250600087604051610c079190614d54565b908152602001604051809103902060060160008281526020019081526020016000206002016000018054610c3a90614d9a565b80601f0160208091040260200160405190810160405280929190818152602001828054610c6690614d9a565b8015610cb35780601f10610c8857610100808354040283529160200191610cb3565b820191906000526020600020905b815481529060010190602001808311610c9657829003601f168201915b5050505050828281518110610ccb57610cca615049565b5b60200260200101516020015160000181905250600087604051610cee9190614d54565b908152602001604051809103902060060160008281526020019081526020016000206002016003018054610d2190614d9a565b80601f0160208091040260200160405190810160405280929190818152602001828054610d4d90614d9a565b8015610d9a5780601f10610d6f57610100808354040283529160200191610d9a565b820191906000526020600020905b815481529060010190602001808311610d7d57829003601f168201915b5050505050828281518110610db257610db1615049565b5b60200260200101516020015160600181905250600087604051610dd59190614d54565b908152602001604051809103902060060160008281526020019081526020016000206002016002018054610e0890614d9a565b80601f0160208091040260200160405190810160405280929190818152602001828054610e3490614d9a565b8015610e815780601f10610e5657610100808354040283529160200191610e81565b820191906000526020600020905b815481529060010190602001808311610e6457829003601f168201915b5050505050828281518110610e9957610e98615049565b5b60200260200101516020015160400181905250600087604051610ebc9190614d54565b908152602001604051809103902060060160008281526020019081526020016000206002016004018054610eef90614d9a565b80601f0160208091040260200160405190810160405280929190818152602001828054610f1b90614d9a565b8015610f685780601f10610f3d57610100808354040283529160200191610f68565b820191906000526020600020905b815481529060010190602001808311610f4b57829003601f168201915b5050505050828281518110610f8057610f7f615049565b5b6020026020010151602001516080018190525060008088604051610fa49190614d54565b908152602001604051809103902060060160008381526020019081526020016000206000015490508067ffffffffffffffff811115610fe657610fe56138be565b5b60405190808252806020026020018201604052801561101957816020015b60608152602001906001900390816110045790505b5083838151811061102d5761102c615049565b5b60200260200101516000018190525060005b81811015611165576000896040516110579190614d54565b908152602001604051809103902060060160008481526020019081526020016000206001016000828152602001908152602001600020805461109890614d9a565b80601f01602080910402602001604051908101604052809291908181526020018280546110c490614d9a565b80156111115780601f106110e657610100808354040283529160200191611111565b820191906000526020600020905b8154815290600101906020018083116110f457829003601f168201915b505050505084848151811061112957611128615049565b5b602002602001015160000151828151811061114757611146615049565b5b6020026020010181905250808061115d906150a7565b91505061103f565b50508080611172906150a7565b915050610b08565b5060008660405161118b9190614d54565b908152602001604051809103902060070154935060008467ffffffffffffffff8111156111bb576111ba6138be565b5b6040519080825280602002602001820160405280156111f457816020015b6111e1613845565b8152602001906001900390816111d95790505b50905060005b8581101561198b576000886040516112129190614d54565b90815260200160405180910390206008016000828152602001908152602001600020600201600101805461124590614d9a565b80601f016020809104026020016040519081016040528092919081815260200182805461127190614d9a565b80156112be5780601f10611293576101008083540402835291602001916112be565b820191906000526020600020905b8154815290600101906020018083116112a157829003601f168201915b50505050508282815181106112d6576112d5615049565b5b602002602001015160200151602001819052506000886040516112f99190614d54565b90815260200160405180910390206008016000828152602001908152602001600020600201600001805461132c90614d9a565b80601f016020809104026020016040519081016040528092919081815260200182805461135890614d9a565b80156113a55780601f1061137a576101008083540402835291602001916113a5565b820191906000526020600020905b81548152906001019060200180831161138857829003601f168201915b50505050508282815181106113bd576113bc615049565b5b602002602001015160200151600001819052506000886040516113e09190614d54565b90815260200160405180910390206008016000828152602001908152602001600020600201600301805461141390614d9a565b80601f016020809104026020016040519081016040528092919081815260200182805461143f90614d9a565b801561148c5780601f106114615761010080835404028352916020019161148c565b820191906000526020600020905b81548152906001019060200180831161146f57829003601f168201915b50505050508282815181106114a4576114a3615049565b5b602002602001015160200151606001819052506000886040516114c79190614d54565b9081526020016040518091039020600801600082815260200190815260200160002060020160020180546114fa90614d9a565b80601f016020809104026020016040519081016040528092919081815260200182805461152690614d9a565b80156115735780601f1061154857610100808354040283529160200191611573565b820191906000526020600020905b81548152906001019060200180831161155657829003601f168201915b505050505082828151811061158b5761158a615049565b5b602002602001015160200151604001819052506000886040516115ae9190614d54565b9081526020016040518091039020600801600082815260200190815260200160002060020160040180546115e190614d9a565b80601f016020809104026020016040519081016040528092919081815260200182805461160d90614d9a565b801561165a5780601f1061162f5761010080835404028352916020019161165a565b820191906000526020600020905b81548152906001019060200180831161163d57829003601f168201915b505050505082828151811061167257611671615049565b5b60200260200101516020015160800181905250600080896040516116969190614d54565b908152602001604051809103902060080160008381526020019081526020016000206000015490508067ffffffffffffffff8111156116d8576116d76138be565b5b60405190808252806020026020018201604052801561171157816020015b6116fe6137f1565b8152602001906001900390816116f65790505b5083838151811061172557611724615049565b5b60200260200101516000018190525060005b818110156119765760008a60405161174f9190614d54565b908152602001604051809103902060080160008481526020019081526020016000206001016000828152602001908152602001600020600001805461179390614d9a565b80601f01602080910402602001604051908101604052809291908181526020018280546117bf90614d9a565b801561180c5780601f106117e15761010080835404028352916020019161180c565b820191906000526020600020905b8154815290600101906020018083116117ef57829003601f168201915b505050505084848151811061182457611823615049565b5b602002602001015160000151828151811061184257611841615049565b5b60200260200101516000018190525060008a6040516118619190614d54565b90815260200160405180910390206008016000848152602001908152602001600020600101600082815260200190815260200160002060010180546118a590614d9a565b80601f01602080910402602001604051908101604052809291908181526020018280546118d190614d9a565b801561191e5780601f106118f35761010080835404028352916020019161191e565b820191906000526020600020905b81548152906001019060200180831161190157829003601f168201915b505050505084848151811061193657611935615049565b5b602002602001015160000151828151811061195457611953615049565b5b602002602001015160200181905250808061196e906150a7565b915050611737565b50508080611983906150a7565b9150506111fa565b506040518060a001604052808881526020018581526020018481526020018381526020018281525095505050505050919050565b600080836040516119d09190614d54565b908152602001604051809103902060070160008154809291906119f2906150a7565b91905055905060008260000151519050826020015160000151600085604051611a1b9190614d54565b908152602001604051809103902060080160008481526020019081526020016000206002016000019081611a4f9190614f77565b50826020015160200151600085604051611a699190614d54565b908152602001604051809103902060080160008481526020019081526020016000206002016001019081611a9d9190614f77565b50826020015160400151600085604051611ab79190614d54565b908152602001604051809103902060080160008481526020019081526020016000206002016002019081611aeb9190614f77565b50826020015160600151600085604051611b059190614d54565b908152602001604051809103902060080160008481526020019081526020016000206002016003019081611b399190614f77565b50826020015160800151600085604051611b539190614d54565b908152602001604051809103902060080160008481526020019081526020016000206002016004019081611b879190614f77565b5080600085604051611b999190614d54565b908152602001604051809103902060080160008481526020019081526020016000206000018190555060005b81811015611cd25783600001518181518110611be457611be3615049565b5b602002602001015160000151600086604051611c009190614d54565b9081526020016040518091039020600801600085815260200190815260200160002060010160008381526020019081526020016000206000019081611c459190614f77565b5083600001518181518110611c5d57611c5c615049565b5b602002602001015160200151600086604051611c799190614d54565b9081526020016040518091039020600801600085815260200190815260200160002060010160008381526020019081526020016000206001019081611cbe9190614f77565b508080611cca906150a7565b915050611bc5565b5050505050565b611ce161380b565b6000600167ffffffffffffffff811115611cfe57611cfd6138be565b5b604051908082528060200260200182016040528015611d3757816020015b611d2461380b565b815260200190600190039081611d1c5790505b50905060005b600085604051611d4d9190614d54565b90815260200160405180910390206003015481101561219057611e2d600086604051611d799190614d54565b908152602001604051809103902060040160008381526020019081526020016000206000018054611da990614d9a565b80601f0160208091040260200160405190810160405280929190818152602001828054611dd590614d9a565b8015611e225780601f10611df757610100808354040283529160200191611e22565b820191906000526020600020905b815481529060010190602001808311611e0557829003601f168201915b5050505050856133ab565b1561217d578382600081518110611e4757611e46615049565b5b602002602001015160000181905250600085604051611e669190614d54565b908152602001604051809103902060040160008281526020019081526020016000206001015467ffffffffffffffff811115611ea557611ea46138be565b5b604051908082528060200260200182016040528015611ede57816020015b611ecb6137f1565b815260200190600190039081611ec35790505b5082600081518110611ef357611ef2615049565b5b60200260200101516020018190525060005b600086604051611f159190614d54565b908152602001604051809103902060040160008381526020019081526020016000206001015481101561217b57600086604051611f529190614d54565b9081526020016040518091039020600401600083815260200190815260200160002060020160008281526020019081526020016000206000018054611f9690614d9a565b80601f0160208091040260200160405190810160405280929190818152602001828054611fc290614d9a565b801561200f5780601f10611fe45761010080835404028352916020019161200f565b820191906000526020600020905b815481529060010190602001808311611ff257829003601f168201915b50505050508360008151811061202857612027615049565b5b602002602001015160200151828151811061204657612045615049565b5b6020026020010151600001819052506000866040516120659190614d54565b90815260200160405180910390206004016000838152602001908152602001600020600201600082815260200190815260200160002060010180546120a990614d9a565b80601f01602080910402602001604051908101604052809291908181526020018280546120d590614d9a565b80156121225780601f106120f757610100808354040283529160200191612122565b820191906000526020600020905b81548152906001019060200180831161210557829003601f168201915b50505050508360008151811061213b5761213a615049565b5b602002602001015160200151828151811061215957612158615049565b5b6020026020010151602001819052508080612173906150a7565b915050611f05565b505b8080612188906150a7565b915050611d3d565b50806000815181106121a5576121a4615049565b5b602002602001015191505092915050565b6040518060400160405280600881526020017f617070726f7665640000000000000000000000000000000000000000000000008152506000836040516121fc9190614d54565b9081526020016040518091039020600601600083815260200190815260200160002060020160040190816122309190614f77565b505050565b61223d613845565b612245613845565b6000846040516122559190614d54565b90815260200160405180910390206006016000848152602001908152602001600020600201600101805461228890614d9a565b80601f01602080910402602001604051908101604052809291908181526020018280546122b490614d9a565b80156123015780601f106122d657610100808354040283529160200191612301565b820191906000526020600020905b8154815290600101906020018083116122e457829003601f168201915b50505050508160200151602001819052506000846040516123229190614d54565b90815260200160405180910390206006016000848152602001908152602001600020600201600001805461235590614d9a565b80601f016020809104026020016040519081016040528092919081815260200182805461238190614d9a565b80156123ce5780601f106123a3576101008083540402835291602001916123ce565b820191906000526020600020905b8154815290600101906020018083116123b157829003601f168201915b50505050508160200151600001819052506000846040516123ef9190614d54565b90815260200160405180910390206006016000848152602001908152602001600020600201600301805461242290614d9a565b80601f016020809104026020016040519081016040528092919081815260200182805461244e90614d9a565b801561249b5780601f106124705761010080835404028352916020019161249b565b820191906000526020600020905b81548152906001019060200180831161247e57829003601f168201915b50505050508160200151606001819052506000846040516124bc9190614d54565b9081526020016040518091039020600601600084815260200190815260200160002060020160020180546124ef90614d9a565b80601f016020809104026020016040519081016040528092919081815260200182805461251b90614d9a565b80156125685780601f1061253d57610100808354040283529160200191612568565b820191906000526020600020905b81548152906001019060200180831161254b57829003601f168201915b50505050508160200151604001819052506000846040516125899190614d54565b9081526020016040518091039020600601600084815260200190815260200160002060020160040180546125bc90614d9a565b80601f01602080910402602001604051908101604052809291908181526020018280546125e890614d9a565b80156126355780601f1061260a57610100808354040283529160200191612635565b820191906000526020600020905b81548152906001019060200180831161261857829003601f168201915b5050505050816020015160800181905250600080856040516126579190614d54565b908152602001604051809103902060060160008581526020019081526020016000206000015490508067ffffffffffffffff811115612699576126986138be565b5b6040519080825280602002602001820160405280156126d257816020015b6126bf6137f1565b8152602001906001900390816126b75790505b50826000018190525060005b81811015612840576000866040516126f69190614d54565b908152602001604051809103902060060160008681526020019081526020016000206001016000828152602001908152602001600020805461273790614d9a565b80601f016020809104026020016040519081016040528092919081815260200182805461276390614d9a565b80156127b05780601f10612785576101008083540402835291602001916127b0565b820191906000526020600020905b81548152906001019060200180831161279357829003601f168201915b5050505050836000015182815181106127cc576127cb615049565b5b60200260200101516000018190525061280786846000015183815181106127f6576127f5615049565b5b6020026020010151600001516133d6565b8360000151828151811061281e5761281d615049565b5b6020026020010151602001819052508080612838906150a7565b9150506126de565b50819250505092915050565b60606000825167ffffffffffffffff81111561286b5761286a6138be565b5b6040519080825280602002602001820160405280156128a457816020015b6128916137f1565b8152602001906001900390816128895790505b50905060005b8351811015612bb65760005b6000866040516128c69190614d54565b908152602001604051809103902060010154811015612ba2576129c46000876040516128f29190614d54565b90815260200160405180910390206002016000838152602001908152602001600020600001805461292290614d9a565b80601f016020809104026020016040519081016040528092919081815260200182805461294e90614d9a565b801561299b5780601f106129705761010080835404028352916020019161299b565b820191906000526020600020905b81548152906001019060200180831161297e57829003601f168201915b50505050508684815181106129b3576129b2615049565b5b6020026020010151600001516133ab565b15612b8e576000866040516129d99190614d54565b908152602001604051809103902060020160008281526020019081526020016000206000018054612a0990614d9a565b80601f0160208091040260200160405190810160405280929190818152602001828054612a3590614d9a565b8015612a825780601f10612a5757610100808354040283529160200191612a82565b820191906000526020600020905b815481529060010190602001808311612a6557829003601f168201915b5050505050838381518110612a9a57612a99615049565b5b602002602001015160000181905250600086604051612ab99190614d54565b908152602001604051809103902060020160008281526020019081526020016000206001018054612ae990614d9a565b80601f0160208091040260200160405190810160405280929190818152602001828054612b1590614d9a565b8015612b625780601f10612b3757610100808354040283529160200191612b62565b820191906000526020600020905b815481529060010190602001808311612b4557829003601f168201915b5050505050838381518110612b7a57612b79615049565b5b602002602001015160200181905250612b8f565b5b8080612b9a906150a7565b9150506128b6565b508080612bae906150a7565b9150506128aa565b508091505092915050565b60005b8151811015612e40577fffffffffffffffffffffffffffffffffffffffffffffffffffffffffffffffff828281518110612c0157612c00615049565b5b60200260200101516020015114612d05576000828281518110612c2757612c26615049565b5b6020026020010151602001519050828281518110612c4857612c47615049565b5b60200260200101516000015160000151600085604051612c689190614d54565b908152602001604051809103902060020160008381526020019081526020016000206000019081612c999190614f77565b50828281518110612cad57612cac615049565b5b60200260200101516000015160200151600085604051612ccd9190614d54565b908152602001604051809103902060020160008381526020019081526020016000206001019081612cfe9190614f77565b5050612e2d565b60008084604051612d169190614d54565b9081526020016040518091039020600101549050600084604051612d3a9190614d54565b90815260200160405180910390206001016000815480929190612d5c906150a7565b9190505550828281518110612d7457612d73615049565b5b60200260200101516000015160000151600085604051612d949190614d54565b908152602001604051809103902060020160008381526020019081526020016000206000019081612dc59190614f77565b50828281518110612dd957612dd8615049565b5b60200260200101516000015160200151600085604051612df99190614d54565b908152602001604051809103902060020160008381526020019081526020016000206001019081612e2a9190614f77565b50505b8080612e38906150a7565b915050612bc4565b505050565b60005b815181101561314e577fffffffffffffffffffffffffffffffffffffffffffffffffffffffffffffffff828281518110612e8557612e84615049565b5b60200260200101516020015114612ee257612edd83838381518110612ead57612eac615049565b5b602002602001015160200151848481518110612ecc57612ecb615049565b5b6020026020010151604001516135e9565b61313b565b60008084604051612ef39190614d54565b90815260200160405180910390206003016000815480929190612f15906150a7565b919050559050828281518110612f2e57612f2d615049565b5b602002602001015160000151600085604051612f4a9190614d54565b908152602001604051809103902060040160008381526020019081526020016000206000019081612f7b9190614f77565b50828281518110612f8f57612f8e615049565b5b60200260200101516040015151600085604051612fac9190614d54565b908152602001604051809103902060040160008381526020019081526020016000206001018190555060005b838381518110612feb57612fea615049565b5b602002602001015160400151518110156131385783838151811061301257613011615049565b5b60200260200101516040015181815181106130305761302f615049565b5b60200260200101516000015160008660405161304c9190614d54565b90815260200160405180910390206004016000848152602001908152602001600020600201600083815260200190815260200160002060000190816130919190614f77565b508383815181106130a5576130a4615049565b5b60200260200101516040015181815181106130c3576130c2615049565b5b6020026020010151602001516000866040516130df9190614d54565b90815260200160405180910390206004016000848152602001908152602001600020600201600083815260200190815260200160002060010190816131249190614f77565b508080613130906150a7565b915050612fd8565b50505b8080613146906150a7565b915050612e48565b505050565b60008160200151602001519050600080826040516131719190614d54565b90815260200160405180910390206005016000815480929190613193906150a7565b9190505590508260200151600001516000836040516131b29190614d54565b9081526020016040518091039020600601600083815260200190815260200160002060020160000190816131e69190614f77565b508260200151602001516000836040516132009190614d54565b9081526020016040518091039020600601600083815260200190815260200160002060020160010190816132349190614f77565b5082602001516040015160008360405161324e9190614d54565b9081526020016040518091039020600601600083815260200190815260200160002060020160020190816132829190614f77565b5082602001516060015160008360405161329c9190614d54565b9081526020016040518091039020600601600083815260200190815260200160002060020160030190816132d09190614f77565b508260000151516000836040516132e79190614d54565b908152602001604051809103902060060160008381526020019081526020016000206000018190555060005b8360000151518110156133a5578360000151818151811061333757613336615049565b5b602002602001015160008460405161334f9190614d54565b90815260200160405180910390206006016000848152602001908152602001600020600101600083815260200190815260200160002090816133919190614f77565b50808061339d906150a7565b915050613313565b50505050565b600081805190602001208380519060200120036133cb57600190506133d0565b600090505b92915050565b606060005b6000846040516133eb9190614d54565b9081526020016040518091039020600101548110156135a9576134cb6000856040516134179190614d54565b90815260200160405180910390206002016000838152602001908152602001600020600001805461344790614d9a565b80601f016020809104026020016040519081016040528092919081815260200182805461347390614d9a565b80156134c05780601f10613495576101008083540402835291602001916134c0565b820191906000526020600020905b8154815290600101906020018083116134a357829003601f168201915b5050505050846133ab565b15613596576000846040516134e09190614d54565b90815260200160405180910390206002016000828152602001908152602001600020600101805461351090614d9a565b80601f016020809104026020016040519081016040528092919081815260200182805461353c90614d9a565b80156135895780601f1061355e57610100808354040283529160200191613589565b820191906000526020600020905b81548152906001019060200180831161356c57829003601f168201915b50505050509150506135e3565b80806135a1906150a7565b9150506133db565b506040518060400160405280600381526020017f4e2f41000000000000000000000000000000000000000000000000000000000081525090505b92915050565b60005b81518110156137bc5760005b6000856040516136089190614d54565b9081526020016040518091039020600101548110156137a85761371a6000866040516136349190614d54565b908152602001604051809103902060040160008681526020019081526020016000206002016000838152602001908152602001600020600001805461367890614d9a565b80601f01602080910402602001604051908101604052809291908181526020018280546136a490614d9a565b80156136f15780601f106136c6576101008083540402835291602001916136f1565b820191906000526020600020905b8154815290600101906020018083116136d457829003601f168201915b505050505084848151811061370957613708615049565b5b6020026020010151600001516133ab565b156137955782828151811061373257613731615049565b5b60200260200101516020015160008660405161374e9190614d54565b90815260200160405180910390206004016000868152602001908152602001600020600201600083815260200190815260200160002060010190816137939190614f77565b505b80806137a0906150a7565b9150506135f8565b5080806137b4906150a7565b9150506135ec565b50505050565b6040518060a0016040528060608152602001606081526020016060815260200160608152602001606081525090565b604051806040016040528060608152602001606081525090565b604051806040016040528060608152602001606081525090565b60405180604001604052806060815260200161383f613865565b81525090565b60405180604001604052806060815260200161385f613865565b81525090565b6040518060a0016040528060608152602001606081526020016060815260200160608152602001606081525090565b6000604051905090565b600080fd5b600080fd5b600080fd5b6000601f19601f8301169050919050565b7f4e487b7100000000000000000000000000000000000000000000000000000000600052604160045260246000fd5b6138f6826138ad565b810181811067ffffffffffffffff82111715613915576139146138be565b5b80604052505050565b6000613928613894565b905061393482826138ed565b919050565b600080fd5b600080fd5b600080fd5b600067ffffffffffffffff821115613963576139626138be565b5b61396c826138ad565b9050602081019050919050565b82818337600083830152505050565b600061399b61399684613948565b61391e565b9050828152602081018484840111156139b7576139b6613943565b5b6139c2848285613979565b509392505050565b600082601f8301126139df576139de61393e565b5b81356139ef848260208601613988565b91505092915050565b600067ffffffffffffffff821115613a1357613a126138be565b5b602082029050602081019050919050565b600080fd5b600060408284031215613a3f57613a3e6138a8565b5b613a49604061391e565b9050600082013567ffffffffffffffff811115613a6957613a68613939565b5b613a75848285016139ca565b600083015250602082013567ffffffffffffffff811115613a9957613a98613939565b5b613aa5848285016139ca565b60208301525092915050565b6000819050919050565b613ac481613ab1565b8114613acf57600080fd5b50565b600081359050613ae181613abb565b92915050565b600060408284031215613afd57613afc6138a8565b5b613b07604061391e565b9050600082013567ffffffffffffffff811115613b2757613b26613939565b5b613b3384828501613a29565b6000830152506020613b4784828501613ad2565b60208301525092915050565b6000613b66613b61846139f8565b61391e565b90508083825260208201905060208402830185811115613b8957613b88613a24565b5b835b81811015613bd057803567ffffffffffffffff811115613bae57613bad61393e565b5b808601613bbb8982613ae7565b85526020850194505050602081019050613b8b565b5050509392505050565b600082601f830112613bef57613bee61393e565b5b8135613bff848260208601613b53565b91505092915050565b600067ffffffffffffffff821115613c2357613c226138be565b5b602082029050602081019050919050565b600067ffffffffffffffff821115613c4f57613c4e6138be565b5b602082029050602081019050919050565b6000613c73613c6e84613c34565b61391e565b90508083825260208201905060208402830185811115613c9657613c95613a24565b5b835b81811015613cdd57803567ffffffffffffffff811115613cbb57613cba61393e565b5b808601613cc88982613a29565b85526020850194505050602081019050613c98565b5050509392505050565b600082601f830112613cfc57613cfb61393e565b5b8135613d0c848260208601613c60565b91505092915050565b600060608284031215613d2b57613d2a6138a8565b5b613d35606061391e565b9050600082013567ffffffffffffffff811115613d5557613d54613939565b5b613d61848285016139ca565b6000830152506020613d7584828501613ad2565b602083015250604082013567ffffffffffffffff811115613d9957613d98613939565b5b613da584828501613ce7565b60408301525092915050565b6000613dc4613dbf84613c08565b61391e565b90508083825260208201905060208402830185811115613de757613de6613a24565b5b835b81811015613e2e57803567ffffffffffffffff811115613e0c57613e0b61393e565b5b808601613e198982613d15565b85526020850194505050602081019050613de9565b5050509392505050565b600082601f830112613e4d57613e4c61393e565b5b8135613e5d848260208601613db1565b91505092915050565b600060608284031215613e7c57613e7b6138a8565b5b613e86606061391e565b9050600082013567ffffffffffffffff811115613ea657613ea5613939565b5b613eb2848285016139ca565b600083015250602082013567ffffffffffffffff811115613ed657613ed5613939565b5b613ee284828501613bda565b602083015250604082013567ffffffffffffffff811115613f0657613f05613939565b5b613f1284828501613e38565b60408301525092915050565b600060208284031215613f3457613f3361389e565b5b600082013567ffffffffffffffff811115613f5257613f516138a3565b5b613f5e84828501613e66565b91505092915050565b600067ffffffffffffffff821115613f8257613f816138be565b5b602082029050602081019050919050565b6000613fa6613fa184613f67565b61391e565b90508083825260208201905060208402830185811115613fc957613fc8613a24565b5b835b8181101561401057803567ffffffffffffffff811115613fee57613fed61393e565b5b808601613ffb89826139ca565b85526020850194505050602081019050613fcb565b5050509392505050565b600082601f83011261402f5761402e61393e565b5b813561403f848260208601613f93565b91505092915050565b600060a0828403121561405e5761405d6138a8565b5b61406860a061391e565b9050600082013567ffffffffffffffff81111561408857614087613939565b5b614094848285016139ca565b600083015250602082013567ffffffffffffffff8111156140b8576140b7613939565b5b6140c4848285016139ca565b602083015250604082013567ffffffffffffffff8111156140e8576140e7613939565b5b6140f4848285016139ca565b604083015250606082013567ffffffffffffffff81111561411857614117613939565b5b614124848285016139ca565b606083015250608082013567ffffffffffffffff81111561414857614147613939565b5b614154848285016139ca565b60808301525092915050565b600060408284031215614176576141756138a8565b5b614180604061391e565b9050600082013567ffffffffffffffff8111156141a05761419f613939565b5b6141ac8482850161401a565b600083015250602082013567ffffffffffffffff8111156141d0576141cf613939565b5b6141dc84828501614048565b60208301525092915050565b6000602082840312156141fe576141fd61389e565b5b600082013567ffffffffffffffff81111561421c5761421b6138a3565b5b61422884828501614160565b91505092915050565b6000602082840312156142475761424661389e565b5b600082013567ffffffffffffffff811115614265576142646138a3565b5b614271848285016139ca565b91505092915050565b600081519050919050565b600082825260208201905092915050565b60005b838110156142b4578082015181840152602081019050614299565b838111156142c3576000848401525b50505050565b60006142d48261427a565b6142de8185614285565b93506142ee818560208601614296565b6142f7816138ad565b840191505092915050565b600081519050919050565b600082825260208201905092915050565b6000819050602082019050919050565b6000604083016000830151848203600086015261434b82826142c9565b9150506020830151848203602086015261436582826142c9565b9150508091505092915050565b600061437e838361432e565b905092915050565b6000602082019050919050565b600061439e82614302565b6143a8818561430d565b9350836020820285016143ba8561431e565b8060005b858110156143f657848403895281516143d78582614372565b94506143e283614386565b925060208a019950506001810190506143be565b50829750879550505050505092915050565b600081519050919050565b600082825260208201905092915050565b6000819050602082019050919050565b6000604083016000830151848203600086015261445182826142c9565b9150506020830151848203602086015261446b8282614393565b9150508091505092915050565b60006144848383614434565b905092915050565b6000602082019050919050565b60006144a482614408565b6144ae8185614413565b9350836020820285016144c085614424565b8060005b858110156144fc57848403895281516144dd8582614478565b94506144e88361448c565b925060208a019950506001810190506144c4565b50829750879550505050505092915050565b600081519050919050565b600082825260208201905092915050565b6000819050602082019050919050565b600081519050919050565b600082825260208201905092915050565b6000819050602082019050919050565b600061457283836142c9565b905092915050565b6000602082019050919050565b60006145928261453a565b61459c8185614545565b9350836020820285016145ae85614556565b8060005b858110156145ea57848403895281516145cb8582614566565b94506145d68361457a565b925060208a019950506001810190506145b2565b50829750879550505050505092915050565b600060a083016000830151848203600086015261461982826142c9565b9150506020830151848203602086015261463382826142c9565b9150506040830151848203604086015261464d82826142c9565b9150506060830151848203606086015261466782826142c9565b9150506080830151848203608086015261468182826142c9565b9150508091505092915050565b600060408301600083015184820360008601526146ab8282614587565b915050602083015184820360208601526146c582826145fc565b9150508091505092915050565b60006146de838361468e565b905092915050565b6000602082019050919050565b60006146fe8261450e565b6147088185614519565b93508360208202850161471a8561452a565b8060005b85811015614756578484038952815161473785826146d2565b9450614742836146e6565b925060208a0199505060018101905061471e565b50829750879550505050505092915050565b600081519050919050565b600082825260208201905092915050565b6000819050602082019050919050565b600060408301600083015184820360008601526147b18282614393565b915050602083015184820360208601526147cb82826145fc565b9150508091505092915050565b60006147e48383614794565b905092915050565b6000602082019050919050565b600061480482614768565b61480e8185614773565b93508360208202850161482085614784565b8060005b8581101561485c578484038952815161483d85826147d8565b9450614848836147ec565b925060208a01995050600181019050614824565b50829750879550505050505092915050565b600060a083016000830151848203600086015261488b82826142c9565b915050602083015184820360208601526148a58282614393565b915050604083015184820360408601526148bf8282614499565b915050606083015184820360608601526148d982826146f3565b915050608083015184820360808601526148f382826147f9565b9150508091505092915050565b6000602082019050818103600083015261491a818461486e565b905092915050565b600060408284031215614938576149376138a8565b5b614942604061391e565b9050600082013567ffffffffffffffff81111561496257614961613939565b5b61496e84828501613ce7565b600083015250602082013567ffffffffffffffff81111561499257614991613939565b5b61499e84828501614048565b60208301525092915050565b600080604083850312156149c1576149c061389e565b5b600083013567ffffffffffffffff8111156149df576149de6138a3565b5b6149eb858286016139ca565b925050602083013567ffffffffffffffff811115614a0c57614a0b6138a3565b5b614a1885828601614922565b9150509250929050565b60008060408385031215614a3957614a3861389e565b5b600083013567ffffffffffffffff811115614a5757614a566138a3565b5b614a63858286016139ca565b925050602083013567ffffffffffffffff811115614a8457614a836138a3565b5b614a90858286016139ca565b9150509250929050565b60006040830160008301518482036000860152614ab782826142c9565b91505060208301518482036020860152614ad18282614393565b9150508091505092915050565b60006020820190508181036000830152614af88184614a9a565b905092915050565b6000819050919050565b614b1381614b00565b8114614b1e57600080fd5b50565b600081359050614b3081614b0a565b92915050565b60008060408385031215614b4d57614b4c61389e565b5b600083013567ffffffffffffffff811115614b6b57614b6a6138a3565b5b614b77858286016139ca565b9250506020614b8885828601614b21565b9150509250929050565b60006040830160008301518482036000860152614baf8282614393565b91505060208301518482036020860152614bc982826145fc565b9150508091505092915050565b60006020820190508181036000830152614bf08184614b92565b905092915050565b60008060408385031215614c0f57614c0e61389e565b5b600083013567ffffffffffffffff811115614c2d57614c2c6138a3565b5b614c39858286016139ca565b925050602083013567ffffffffffffffff811115614c5a57614c596138a3565b5b614c6685828601613ce7565b9150509250929050565b600082825260208201905092915050565b6000614c8c82614302565b614c968185614c70565b935083602082028501614ca88561431e565b8060005b85811015614ce45784840389528151614cc58582614372565b9450614cd083614386565b925060208a01995050600181019050614cac565b50829750879550505050505092915050565b60006020820190508181036000830152614d108184614c81565b905092915050565b600081905092915050565b6000614d2e8261427a565b614d388185614d18565b9350614d48818560208601614296565b80840191505092915050565b6000614d608284614d23565b915081905092915050565b7f4e487b7100000000000000000000000000000000000000000000000000000000600052602260045260246000fd5b60006002820490506001821680614db257607f821691505b602082108103614dc557614dc4614d6b565b5b50919050565b60008190508160005260206000209050919050565b60006020601f8301049050919050565b600082821b905092915050565b600060088302614e2d7fffffffffffffffffffffffffffffffffffffffffffffffffffffffffffffffff82614df0565b614e378683614df0565b95508019841693508086168417925050509392505050565b6000819050919050565b6000614e74614e6f614e6a84614b00565b614e4f565b614b00565b9050919050565b6000819050919050565b614e8e83614e59565b614ea2614e9a82614e7b565b848454614dfd565b825550505050565b600090565b614eb7614eaa565b614ec2818484614e85565b505050565b5b81811015614ee657614edb600082614eaf565b600181019050614ec8565b5050565b601f821115614f2b57614efc81614dcb565b614f0584614de0565b81016020851015614f14578190505b614f28614f2085614de0565b830182614ec7565b50505b505050565b600082821c905092915050565b6000614f4e60001984600802614f30565b1980831691505092915050565b6000614f678383614f3d565b9150826002028217905092915050565b614f808261427a565b67ffffffffffffffff811115614f9957614f986138be565b5b614fa38254614d9a565b614fae828285614eea565b600060209050601f831160018114614fe15760008415614fcf578287015190505b614fd98582614f5b565b865550615041565b601f198416614fef86614dcb565b60005b8281101561501757848901518255600182019150602085019450602081019050614ff2565b868310156150345784890151615030601f891682614f3d565b8355505b6001600288020188555050505b505050505050565b7f4e487b7100000000000000000000000000000000000000000000000000000000600052603260045260246000fd5b7f4e487b7100000000000000000000000000000000000000000000000000000000600052601160045260246000fd5b60006150b282614b00565b91507fffffffffffffffffffffffffffffffffffffffffffffffffffffffffffffffff82036150e4576150e3615078565b5b60018201905091905056fea2646970667358221220070a67638358cd88541dc84218f467f1fd49a33aca86fc0e5fbe85a94f21e13564736f6c634300080f0033",
  "immutableReferences": {},
  "source": "pragma solidity >=0.8.9;\r\n\r\n//SPDX-License-Identifier: UNLICENSED\r\n\r\ncontract UserDataContract {\r\n\r\n    /*\r\n    * ============================================== USER DATA SUBSECTION ==============================================\r\n    * Functions concerned with anything and everything to do with a User's data.\r\n    */ \r\n\r\n    /* Attributes stored in UserData and Credential. */\r\n    struct Attribute {\r\n        string name;\r\n        string value;\r\n    }\r\n\r\n    /* Credential consisting of attributes and an organization name. */\r\n    struct Credential {\r\n        string organization;\r\n        uint attributeCount;\r\n        mapping (uint => Attribute) attributes;\r\n    }\r\n\r\n    /* UserData is where the bulk of user's data will be stored using Credential and Attribute. */\r\n    struct UserData {\r\n        string id;\r\n\r\n        uint attributeCount;\r\n        mapping (uint => Attribute) attributes;\r\n\r\n        uint credentialCount;\r\n        mapping (uint => Credential) credentials;\r\n\r\n        uint transactionRequestCount;\r\n        mapping (uint => TransactionRequestStringMapping) transactionRequests;\r\n\r\n        uint approvedTransactionCount;\r\n        mapping (uint => TransactionApprovedStorage) approvedTransactions;\r\n\r\n        uint credentialRequestCount;\r\n        mapping (uint => CredentialRequest) credentialRequests;\r\n    }\r\n\r\n    /* What will be returned in place of a Credential struct. */\r\n    struct CredentialResponse {\r\n        string organization;\r\n        Attribute[] attributes;\r\n    }\r\n\r\n    /* What will be returned in place of a UserData struct. */\r\n    struct UserDataResponse{\r\n        string id;\r\n        Attribute[] attributes;\r\n        CredentialResponse[] credentials;\r\n        TransactionRequest[] transactionRequests;\r\n        TransactionResponse[] approvedTransactions;\r\n    }\r\n\r\n    /* Received in paramets to update attributes, this improves gas usage by knowing when to insert and when to update. */\r\n    struct AttributeUpdate {\r\n        Attribute attribute;\r\n        int index;\r\n    }\r\n\r\n    /* Received in paramets to update credentials, this improves gas usage by knowing when to insert and when to update */\r\n    struct CredentialUpdate {\r\n        string organization;\r\n        int index;\r\n        Attribute[] attributes;\r\n    }\r\n\r\n    /* Single functions for update to test integration methods */\r\n    struct Update {\r\n        string id;\r\n        AttributeUpdate[] attributes;\r\n        CredentialUpdate[] credentials;\r\n    }\r\n\r\n    /* All stored user's data can be accessed through the allUserData attribute. */\r\n    mapping (string => UserData) allUserData;\r\n\r\n    /* Initialize a new user's storage data. */\r\n    function createUser(string memory _id) public {\r\n        allUserData[_id].id = _id;\r\n        allUserData[_id].attributeCount = 0;\r\n        allUserData[_id].credentialCount = 0;\r\n        allUserData[_id].transactionRequestCount = 0;\r\n        allUserData[_id].approvedTransactionCount = 0;\r\n        allUserData[_id].credentialRequestCount = 0;\r\n    }\r\n\r\n    /* Add and Update UserData by id. */\r\n    function updateUser(Update memory update) public {\r\n        \r\n        //add/update all new attributes\r\n        if (update.attributes.length > 0) updateAttributes(update.id, update.attributes);\r\n\r\n        //add and update all new credentials\r\n        if (update.credentials.length > 0) updateCredentials(update.id, update.credentials);\r\n\r\n    }\r\n\r\n    /* Returns the enitre UserData for the specified id. */\r\n    function getUserData(string memory _id) public view returns (UserDataResponse memory) {\r\n        \r\n        //Create Attribute array\r\n        uint size = allUserData[_id].attributeCount;\r\n        Attribute[] memory attrs = new Attribute[](size);\r\n        \r\n        for (uint i=0; i<allUserData[_id].attributeCount; i++) {\r\n            attrs[i].name = allUserData[_id].attributes[i].name;\r\n            attrs[i].value = allUserData[_id].attributes[i].value;\r\n        }\r\n\r\n        //Create Attribute arrays for Credential arrays\r\n        size = allUserData[_id].credentialCount;\r\n        CredentialResponse[] memory creds = new CredentialResponse[](size);\r\n\r\n        for (uint i=0; i<allUserData[_id].credentialCount; i++) {\r\n\r\n            creds[i].organization = allUserData[_id].credentials[i].organization;\r\n            creds[i].attributes = new Attribute[](allUserData[_id].credentials[i].attributeCount);\r\n\r\n            for (uint k=0; k<allUserData[_id].credentials[i].attributeCount; k++) {\r\n                creds[i].attributes[k].name = allUserData[_id].credentials[i].attributes[k].name;\r\n                creds[i].attributes[k].value = allUserData[_id].credentials[i].attributes[k].value;\r\n            }\r\n        }\r\n\r\n        //create TransactionRequest array\r\n        size = allUserData[_id].transactionRequestCount;\r\n        TransactionRequest[] memory transactionRequests = new TransactionRequest[](allUserData[_id].transactionRequestCount);\r\n\r\n        for (uint i=0; i<size; i++) {\r\n\r\n            transactionRequests[i].stamp.toID = allUserData[_id].transactionRequests[i].stamp.toID;\r\n            transactionRequests[i].stamp.fromID = allUserData[_id].transactionRequests[i].stamp.fromID;\r\n            transactionRequests[i].stamp.message = allUserData[_id].transactionRequests[i].stamp.message;\r\n            transactionRequests[i].stamp.date = allUserData[_id].transactionRequests[i].stamp.date;\r\n            transactionRequests[i].stamp.status = allUserData[_id].transactionRequests[i].stamp.status;\r\n\r\n            uint attrSize = allUserData[_id].transactionRequests[i].attributeCount;\r\n            transactionRequests[i].attributes = new string[](attrSize);\r\n\r\n            for (uint k=0; k<attrSize; k++) {\r\n                transactionRequests[i].attributes[k] = allUserData[_id].transactionRequests[i].attributes[k];\r\n            }\r\n        }\r\n\r\n        //create Approved Transaction array\r\n        size = allUserData[_id].approvedTransactionCount;\r\n        TransactionResponse[] memory approvedTransactions = new TransactionResponse[](size);\r\n\r\n        for (uint i=0; i<size; i++) {\r\n\r\n            approvedTransactions[i].stamp.toID = allUserData[_id].approvedTransactions[i].stamp.toID;\r\n            approvedTransactions[i].stamp.fromID = allUserData[_id].approvedTransactions[i].stamp.fromID;\r\n            approvedTransactions[i].stamp.message = allUserData[_id].approvedTransactions[i].stamp.message;\r\n            approvedTransactions[i].stamp.date = allUserData[_id].approvedTransactions[i].stamp.date;\r\n            approvedTransactions[i].stamp.status = allUserData[_id].approvedTransactions[i].stamp.status;\r\n\r\n            uint attrSize = allUserData[_id].approvedTransactions[i].attributeCount;\r\n            approvedTransactions[i].attributes = new Attribute[](attrSize);\r\n\r\n            for (uint k=0; k<attrSize; k++) {\r\n                approvedTransactions[i].attributes[k].name = allUserData[_id].approvedTransactions[i].attributes[k].name;\r\n                approvedTransactions[i].attributes[k].value = allUserData[_id].approvedTransactions[i].attributes[k].value;\r\n            }\r\n        }\r\n\r\n        //Create UserDataResponse\r\n        return (UserDataResponse({\r\n            id: _id,\r\n            attributes: attrs,\r\n            credentials: creds,\r\n            transactionRequests: transactionRequests,\r\n            approvedTransactions: approvedTransactions\r\n        }));\r\n    }\r\n\r\n    /* Updates the relevant attributes for the appropriate credentials. */\r\n    function updateCredentials(string memory _id, CredentialUpdate[] memory credentials) private {\r\n\r\n        for (uint i=0; i<credentials.length; i++) {\r\n\r\n            //update existing credentials\r\n            if (credentials[i].index != -1) {\r\n                updateCredentialAttributes(_id, uint(credentials[i].index), credentials[i].attributes);\r\n                continue;\r\n            }\r\n\r\n            //insert new credentials\r\n            uint index = allUserData[_id].credentialCount++;\r\n            allUserData[_id].credentials[index].organization = credentials[i].organization;\r\n            allUserData[_id].credentials[index].attributeCount = credentials[i].attributes.length;\r\n\r\n            for (uint k=0; k<credentials[i].attributes.length; k++) {\r\n                allUserData[_id].credentials[index].attributes[k].name = credentials[i].attributes[k].name;\r\n                allUserData[_id].credentials[index].attributes[k].value = credentials[i].attributes[k].value;\r\n            }\r\n        }   \r\n\r\n    }\r\n\r\n    /* Updates relevant Attributes for specified credential and organization in storage. */\r\n    function updateCredentialAttributes(string memory _id, uint org, Attribute[] memory attributes) private {\r\n        \r\n        for (uint i=0; i<attributes.length; i++) {\r\n            for (uint k=0; k<allUserData[_id].attributeCount; k++) {\r\n                if (stringCompare(allUserData[_id].credentials[org].attributes[k].name, attributes[i].name)) {\r\n                    allUserData[_id].credentials[org].attributes[k].value = attributes[i].value;\r\n                }\r\n            }\r\n        }\r\n    }\r\n\r\n    /* Updates relevant Attribute values in storage. */\r\n    function updateAttributes(string memory _id, AttributeUpdate[] memory attributes) private {\r\n        \r\n        for (uint i=0; i<attributes.length; i++) {\r\n\r\n            //update existing attribute\r\n            if (attributes[i].index != -1) {\r\n                uint k = uint(attributes[i].index);\r\n                allUserData[_id].attributes[k].name = attributes[i].attribute.name;\r\n                allUserData[_id].attributes[k].value = attributes[i].attribute.value;\r\n                continue;\r\n            }\r\n\r\n            //add new attribute\r\n            uint index = allUserData[_id].attributeCount;\r\n            allUserData[_id].attributeCount++;\r\n            allUserData[_id].attributes[index].name = attributes[i].attribute.name;\r\n            allUserData[_id].attributes[index].value = attributes[i].attribute.value;\r\n        }\r\n\r\n    }\r\n\r\n    /*\r\n    * ============================================== TRANSACTION SUBSECTION ==============================================\r\n    * This is where all transactions between users have operations capable of carrying out the needed functions.\r\n    */ \r\n\r\n    /* Data to describe transaction information. */\r\n    struct TransactionStamp {\r\n        string fromID;\r\n        string toID;\r\n        string date;\r\n        string message;\r\n        string status;\r\n    }\r\n\r\n    /* Request to get Attribute data from a user. */\r\n    struct TransactionRequest {\r\n        string[] attributes;\r\n        TransactionStamp stamp;\r\n    }\r\n\r\n    struct TransactionRequestStringMapping {\r\n        uint attributeCount;\r\n        mapping (uint => string) attributes;\r\n        TransactionStamp stamp;\r\n    }\r\n\r\n    struct TransactionResponse {\r\n        Attribute[] attributes;\r\n        TransactionStamp stamp;\r\n    }\r\n\r\n    struct TransactionApprovedStorage {\r\n        uint attributeCount;\r\n        mapping (uint => Attribute) attributes;\r\n        TransactionStamp stamp;\r\n    }\r\n\r\n    /* Request to get Credential data from a user. */\r\n    struct CredentialRequest {\r\n        string organization;\r\n        TransactionStamp stamp;\r\n    }\r\n\r\n    /* Stores the pending transaction with the appropriate user. */\r\n    function newTransactionRequest(TransactionRequest memory request) public {\r\n        addTransactionRequest(request);\r\n    }\r\n\r\n    /* Adds a new transaction as pending to the user's data. */\r\n    function addTransactionRequest(TransactionRequest memory request) private {\r\n        string memory id = request.stamp.toID;\r\n        uint index = allUserData[id].transactionRequestCount++;\r\n        allUserData[id].transactionRequests[index].stamp.fromID = request.stamp.fromID;\r\n        allUserData[id].transactionRequests[index].stamp.toID = request.stamp.toID;\r\n        allUserData[id].transactionRequests[index].stamp.date = request.stamp.date;\r\n        allUserData[id].transactionRequests[index].stamp.message = request.stamp.message;\r\n\r\n        //allUserData[id].transactionRequests[index].attributes = new string[](request.attributes.length);\r\n        allUserData[id].transactionRequests[index].attributeCount = request.attributes.length;\r\n\r\n\r\n        for (uint i=0; i<request.attributes.length; i++) {\r\n            allUserData[id].transactionRequests[index].attributes[i] = request.attributes[i];\r\n        }\r\n    }\r\n\r\n    function approveTransactionStageA(string memory _id, uint index) public {\r\n        allUserData[_id].transactionRequests[index].stamp.status = \"approved\";\r\n    }\r\n\r\n    /* Approves the pending transaction by returning the data to the API for decryption. */\r\n    function approveTransactionStageB(string memory _id, uint index) public view returns (TransactionResponse memory) {\r\n        TransactionResponse memory ret;\r\n        \r\n        ret.stamp.toID = allUserData[_id].transactionRequests[index].stamp.toID;\r\n        ret.stamp.fromID = allUserData[_id].transactionRequests[index].stamp.fromID;\r\n        ret.stamp.message = allUserData[_id].transactionRequests[index].stamp.message;\r\n        ret.stamp.date = allUserData[_id].transactionRequests[index].stamp.date;\r\n        ret.stamp.status = allUserData[_id].transactionRequests[index].stamp.status;\r\n\r\n        uint attrSize = allUserData[_id].transactionRequests[index].attributeCount;\r\n        ret.attributes = new Attribute[](attrSize);\r\n\r\n        for (uint k=0; k<attrSize; k++) {\r\n            ret.attributes[k].name = allUserData[_id].transactionRequests[index].attributes[k];\r\n            ret.attributes[k].value = findAttribute(_id, ret.attributes[k].name);\r\n        }\r\n\r\n        return ret;\r\n    }\r\n\r\n    function approveTransactionStageC(string memory _id, TransactionResponse memory transaction) public {\r\n\r\n        uint index = allUserData[_id].approvedTransactionCount++;\r\n        uint size = transaction.attributes.length;\r\n\r\n        allUserData[_id].approvedTransactions[index].stamp.fromID = transaction.stamp.fromID;\r\n        allUserData[_id].approvedTransactions[index].stamp.toID = transaction.stamp.toID;\r\n        allUserData[_id].approvedTransactions[index].stamp.date = transaction.stamp.date;\r\n        allUserData[_id].approvedTransactions[index].stamp.message = transaction.stamp.message;\r\n        allUserData[_id].approvedTransactions[index].stamp.status = transaction.stamp.status;\r\n\r\n        //allUserData[_id].approvedTransactions[index].attributes = new Attribute[](size);\r\n        allUserData[_id].approvedTransactions[index].attributeCount = size;\r\n\r\n        for (uint i=0; i<size; i++) {\r\n            allUserData[_id].approvedTransactions[index].attributes[i].name = transaction.attributes[i].name;\r\n            allUserData[_id].approvedTransactions[index].attributes[i].value = transaction.attributes[i].value;\r\n        }\r\n    }\r\n\r\n    function findAttribute(string memory id, string memory name) private view returns (string memory) {\r\n\r\n        for (uint i=0; i<allUserData[id].attributeCount; i++) {\r\n            if (stringCompare(allUserData[id].attributes[i].name, name))\r\n                return allUserData[id].attributes[i].value;\r\n        }\r\n\r\n        return \"N/A\";\r\n    }\r\n\r\n    /* Returns the desired attributes for requested data. */\r\n    function getAttributesTransaction(string memory _id, Attribute[] memory attributes) public view returns (Attribute[] memory) {\r\n\r\n        Attribute[] memory res = new Attribute[](attributes.length);\r\n\r\n        for (uint i=0; i<attributes.length; i++) {\r\n            for (uint k=0; k<allUserData[_id].attributeCount; k++) {\r\n                if (stringCompare(allUserData[_id].attributes[k].name, attributes[i].name)) {\r\n                    res[i].name = allUserData[_id].attributes[k].name;\r\n                    res[i].value = allUserData[_id].attributes[k].value;\r\n                    continue;\r\n                }\r\n            }\r\n        }\r\n\r\n        return res;\r\n    }\r\n\r\n    /* Returns the desired Credential and its associated attributes. */\r\n    function getCredentialTransaction(string memory _id, string memory organization) public view returns (CredentialResponse memory) {\r\n\r\n        CredentialResponse[] memory cred = new CredentialResponse[](1);\r\n\r\n        for (uint i=0; i<allUserData[_id].credentialCount; i++) {\r\n            if (stringCompare(allUserData[_id].credentials[i].organization, organization)) {\r\n                cred[0].organization = organization;\r\n\r\n                cred[0].attributes = new Attribute[](allUserData[_id].credentials[i].attributeCount);\r\n\r\n                for (uint k=0; k<allUserData[_id].credentials[i].attributeCount; k++) {\r\n                    cred[0].attributes[k].name = allUserData[_id].credentials[i].attributes[k].name;\r\n                    cred[0].attributes[k].value = allUserData[_id].credentials[i].attributes[k].value;\r\n                }\r\n            }\r\n        }\r\n\r\n        return cred[0];\r\n    }\r\n\r\n    /*\r\n    * ============================================== GENERAL SUBSECTION ==============================================\r\n    */ \r\n\r\n    /* Compares two strings to see if they're equal or not. */\r\n    function stringCompare(string memory a, string memory b) private pure returns (bool) {\r\n        if (keccak256(bytes(a)) == keccak256(bytes(b)))\r\n            return true;\r\n        return false;\r\n    }\r\n\r\n}",
  "sourcePath": "C:\\Users\\hjvdg\\Documents\\Git\\Exploring-Self-Sovereign-Identity\\LocalBlockchain\\contracts\\UserDataContract.sol",
  "compiler": {
    "name": "solc",
    "version": "0.8.15+commit.e14f2714.Emscripten.clang"
  },
  "schemaVersion": "3.4.10",
  "updatedAt": "2022-09-16T09:33:09.227Z",
  "networkType": "ethereum",
  "devdoc": {
    "kind": "dev",
    "methods": {},
    "version": 1
  },
  "userdoc": {
    "kind": "user",
    "methods": {},
    "version": 1
  }
}