{
  "contractName": "UserDataContract",
  "abi": [
    {
      "inputs": [
        {
          "internalType": "string",
          "name": "_id",
          "type": "string"
        }
      ],
      "name": "createUser",
      "outputs": [],
      "stateMutability": "nonpayable",
      "type": "function"
    },
    {
      "inputs": [
        {
          "components": [
            {
              "internalType": "string",
              "name": "id",
              "type": "string"
            },
            {
              "components": [
                {
                  "components": [
                    {
                      "internalType": "string",
                      "name": "name",
                      "type": "string"
                    },
                    {
                      "internalType": "string",
                      "name": "value",
                      "type": "string"
                    }
                  ],
                  "internalType": "struct UserDataContract.Attribute",
                  "name": "attribute",
                  "type": "tuple"
                },
                {
                  "internalType": "int256",
                  "name": "index",
                  "type": "int256"
                }
              ],
              "internalType": "struct UserDataContract.AttributeUpdate[]",
              "name": "attributes",
              "type": "tuple[]"
            },
            {
              "components": [
                {
                  "internalType": "string",
                  "name": "organization",
                  "type": "string"
                },
                {
                  "internalType": "int256",
                  "name": "index",
                  "type": "int256"
                },
                {
                  "components": [
                    {
                      "internalType": "string",
                      "name": "name",
                      "type": "string"
                    },
                    {
                      "internalType": "string",
                      "name": "value",
                      "type": "string"
                    }
                  ],
                  "internalType": "struct UserDataContract.Attribute[]",
                  "name": "attributes",
                  "type": "tuple[]"
                }
              ],
              "internalType": "struct UserDataContract.CredentialUpdate[]",
              "name": "credentials",
              "type": "tuple[]"
            }
          ],
          "internalType": "struct UserDataContract.Update",
          "name": "update",
          "type": "tuple"
        }
      ],
      "name": "updateUser",
      "outputs": [],
      "stateMutability": "nonpayable",
      "type": "function"
    },
    {
      "inputs": [
        {
          "internalType": "string",
          "name": "_id",
          "type": "string"
        }
      ],
      "name": "getUserData",
      "outputs": [
        {
          "components": [
            {
              "internalType": "string",
              "name": "id",
              "type": "string"
            },
            {
              "components": [
                {
                  "internalType": "string",
                  "name": "name",
                  "type": "string"
                },
                {
                  "internalType": "string",
                  "name": "value",
                  "type": "string"
                }
              ],
              "internalType": "struct UserDataContract.Attribute[]",
              "name": "attributes",
              "type": "tuple[]"
            },
            {
              "components": [
                {
                  "internalType": "string",
                  "name": "organization",
                  "type": "string"
                },
                {
                  "components": [
                    {
                      "internalType": "string",
                      "name": "name",
                      "type": "string"
                    },
                    {
                      "internalType": "string",
                      "name": "value",
                      "type": "string"
                    }
                  ],
                  "internalType": "struct UserDataContract.Attribute[]",
                  "name": "attributes",
                  "type": "tuple[]"
                }
              ],
              "internalType": "struct UserDataContract.CredentialResponse[]",
              "name": "credentials",
              "type": "tuple[]"
            },
            {
              "components": [
                {
                  "internalType": "string[]",
                  "name": "attributes",
                  "type": "string[]"
                },
                {
                  "components": [
                    {
                      "internalType": "string",
                      "name": "fromID",
                      "type": "string"
                    },
                    {
                      "internalType": "string",
                      "name": "toID",
                      "type": "string"
                    },
                    {
                      "internalType": "string",
                      "name": "date",
                      "type": "string"
                    },
                    {
                      "internalType": "string",
                      "name": "message",
                      "type": "string"
                    },
                    {
                      "internalType": "string",
                      "name": "status",
                      "type": "string"
                    }
                  ],
                  "internalType": "struct UserDataContract.TransactionStamp",
                  "name": "stamp",
                  "type": "tuple"
                }
              ],
              "internalType": "struct UserDataContract.TransactionRequest[]",
              "name": "transactionRequests",
              "type": "tuple[]"
            },
            {
              "components": [
                {
                  "components": [
                    {
                      "internalType": "string",
                      "name": "name",
                      "type": "string"
                    },
                    {
                      "internalType": "string",
                      "name": "value",
                      "type": "string"
                    }
                  ],
                  "internalType": "struct UserDataContract.Attribute[]",
                  "name": "attributes",
                  "type": "tuple[]"
                },
                {
                  "components": [
                    {
                      "internalType": "string",
                      "name": "fromID",
                      "type": "string"
                    },
                    {
                      "internalType": "string",
                      "name": "toID",
                      "type": "string"
                    },
                    {
                      "internalType": "string",
                      "name": "date",
                      "type": "string"
                    },
                    {
                      "internalType": "string",
                      "name": "message",
                      "type": "string"
                    },
                    {
                      "internalType": "string",
                      "name": "status",
                      "type": "string"
                    }
                  ],
                  "internalType": "struct UserDataContract.TransactionStamp",
                  "name": "stamp",
                  "type": "tuple"
                }
              ],
              "internalType": "struct UserDataContract.TransactionResponse[]",
              "name": "approvedTransactions",
              "type": "tuple[]"
            }
          ],
          "internalType": "struct UserDataContract.UserDataResponse",
          "name": "",
          "type": "tuple"
        }
      ],
      "stateMutability": "view",
      "type": "function",
      "constant": true
    },
    {
      "inputs": [
        {
          "components": [
            {
              "internalType": "string[]",
              "name": "attributes",
              "type": "string[]"
            },
            {
              "components": [
                {
                  "internalType": "string",
                  "name": "fromID",
                  "type": "string"
                },
                {
                  "internalType": "string",
                  "name": "toID",
                  "type": "string"
                },
                {
                  "internalType": "string",
                  "name": "date",
                  "type": "string"
                },
                {
                  "internalType": "string",
                  "name": "message",
                  "type": "string"
                },
                {
                  "internalType": "string",
                  "name": "status",
                  "type": "string"
                }
              ],
              "internalType": "struct UserDataContract.TransactionStamp",
              "name": "stamp",
              "type": "tuple"
            }
          ],
          "internalType": "struct UserDataContract.TransactionRequest",
          "name": "request",
          "type": "tuple"
        }
      ],
      "name": "newTransactionRequest",
      "outputs": [],
      "stateMutability": "nonpayable",
      "type": "function"
    },
    {
      "inputs": [
        {
          "internalType": "string",
          "name": "_id",
          "type": "string"
        },
        {
          "internalType": "uint256",
          "name": "index",
          "type": "uint256"
        }
      ],
      "name": "approveTransactionStageA",
      "outputs": [],
      "stateMutability": "nonpayable",
      "type": "function"
    },
    {
      "inputs": [
        {
          "internalType": "string",
          "name": "_id",
          "type": "string"
        },
        {
          "internalType": "uint256",
          "name": "index",
          "type": "uint256"
        }
      ],
      "name": "approveTransactionStageB",
      "outputs": [
        {
          "components": [
            {
              "components": [
                {
                  "internalType": "string",
                  "name": "name",
                  "type": "string"
                },
                {
                  "internalType": "string",
                  "name": "value",
                  "type": "string"
                }
              ],
              "internalType": "struct UserDataContract.Attribute[]",
              "name": "attributes",
              "type": "tuple[]"
            },
            {
              "components": [
                {
                  "internalType": "string",
                  "name": "fromID",
                  "type": "string"
                },
                {
                  "internalType": "string",
                  "name": "toID",
                  "type": "string"
                },
                {
                  "internalType": "string",
                  "name": "date",
                  "type": "string"
                },
                {
                  "internalType": "string",
                  "name": "message",
                  "type": "string"
                },
                {
                  "internalType": "string",
                  "name": "status",
                  "type": "string"
                }
              ],
              "internalType": "struct UserDataContract.TransactionStamp",
              "name": "stamp",
              "type": "tuple"
            }
          ],
          "internalType": "struct UserDataContract.TransactionResponse",
          "name": "",
          "type": "tuple"
        }
      ],
      "stateMutability": "view",
      "type": "function",
      "constant": true
    },
    {
      "inputs": [
        {
          "internalType": "string",
          "name": "_id",
          "type": "string"
        },
        {
          "components": [
            {
              "components": [
                {
                  "internalType": "string",
                  "name": "name",
                  "type": "string"
                },
                {
                  "internalType": "string",
                  "name": "value",
                  "type": "string"
                }
              ],
              "internalType": "struct UserDataContract.Attribute[]",
              "name": "attributes",
              "type": "tuple[]"
            },
            {
              "components": [
                {
                  "internalType": "string",
                  "name": "fromID",
                  "type": "string"
                },
                {
                  "internalType": "string",
                  "name": "toID",
                  "type": "string"
                },
                {
                  "internalType": "string",
                  "name": "date",
                  "type": "string"
                },
                {
                  "internalType": "string",
                  "name": "message",
                  "type": "string"
                },
                {
                  "internalType": "string",
                  "name": "status",
                  "type": "string"
                }
              ],
              "internalType": "struct UserDataContract.TransactionStamp",
              "name": "stamp",
              "type": "tuple"
            }
          ],
          "internalType": "struct UserDataContract.TransactionResponse",
          "name": "transaction",
          "type": "tuple"
        }
      ],
      "name": "approveTransactionStageC",
      "outputs": [],
      "stateMutability": "nonpayable",
      "type": "function"
    },
    {
      "inputs": [
        {
          "internalType": "string",
          "name": "_id",
          "type": "string"
        },
        {
          "components": [
            {
              "internalType": "string",
              "name": "name",
              "type": "string"
            },
            {
              "internalType": "string",
              "name": "value",
              "type": "string"
            }
          ],
          "internalType": "struct UserDataContract.Attribute[]",
          "name": "attributes",
          "type": "tuple[]"
        }
      ],
      "name": "getAttributesTransaction",
      "outputs": [
        {
          "components": [
            {
              "internalType": "string",
              "name": "name",
              "type": "string"
            },
            {
              "internalType": "string",
              "name": "value",
              "type": "string"
            }
          ],
          "internalType": "struct UserDataContract.Attribute[]",
          "name": "",
          "type": "tuple[]"
        }
      ],
      "stateMutability": "view",
      "type": "function",
      "constant": true
    },
    {
      "inputs": [
        {
          "internalType": "string",
          "name": "_id",
          "type": "string"
        },
        {
          "internalType": "string",
          "name": "organization",
          "type": "string"
        }
      ],
      "name": "getCredentialTransaction",
      "outputs": [
        {
          "components": [
            {
              "internalType": "string",
              "name": "organization",
              "type": "string"
            },
            {
              "components": [
                {
                  "internalType": "string",
                  "name": "name",
                  "type": "string"
                },
                {
                  "internalType": "string",
                  "name": "value",
                  "type": "string"
                }
              ],
              "internalType": "struct UserDataContract.Attribute[]",
              "name": "attributes",
              "type": "tuple[]"
            }
          ],
          "internalType": "struct UserDataContract.CredentialResponse",
          "name": "",
          "type": "tuple"
        }
      ],
      "stateMutability": "view",
      "type": "function",
      "constant": true
    }
  ],
  "bytecode": "0x608060405234801561001057600080fd5b50615283806100206000396000f3fe608060405234801561001057600080fd5b50600436106100935760003560e01c8063af1a404f11610066578063af1a404f1461011c578063b957297514610138578063d4b94b0e14610168578063d78ab46f14610184578063fa1868ff146101b457610093565b80630176066914610098578063438e644e146100b4578063507ffba5146100d057806354ab2403146100ec575b600080fd5b6100b260048036038101906100ad919061407c565b6101e4565b005b6100ce60048036038101906100c99190614346565b610229565b005b6100ea60048036038101906100e5919061438f565b610235565b005b6101066004803603810190610101919061438f565b610325565b6040516101139190614a5e565b60405180910390f35b61013660048036038101906101319190614b08565b6119cd565b005b610152600480360381019061014d9190614b80565b611ce7565b60405161015f9190614c3c565b60405180910390f35b610182600480360381019061017d9190614c94565b6121c4565b005b61019e60048036038101906101999190614c94565b612243565b6040516101ab9190614d34565b60405180910390f35b6101ce60048036038101906101c99190614d56565b612868565b6040516101db9190614e54565b60405180910390f35b600081602001515111156102055761020481600001518260200151612bdd565b5b600081604001515111156102265761022581600001518260400151612e61565b5b50565b6102328161316f565b50565b806000826040516102469190614eb2565b9081526020016040518091039020600001908161026391906150d5565b50600080826040516102759190614eb2565b9081526020016040518091039020600101819055506000808260405161029b9190614eb2565b908152602001604051809103902060030181905550600080826040516102c19190614eb2565b908152602001604051809103902060050181905550600080826040516102e79190614eb2565b9081526020016040518091039020600701819055506000808260405161030d9190614eb2565b90815260200160405180910390206009018190555050565b61032d613846565b6000808360405161033e9190614eb2565b908152602001604051809103902060010154905060008167ffffffffffffffff81111561036e5761036d613a1c565b5b6040519080825280602002602001820160405280156103a757816020015b610394613875565b81526020019060019003908161038c5790505b50905060005b6000856040516103bd9190614eb2565b9081526020016040518091039020600101548110156105a9576000856040516103e69190614eb2565b90815260200160405180910390206002016000828152602001908152602001600020600001805461041690614ef8565b80601f016020809104026020016040519081016040528092919081815260200182805461044290614ef8565b801561048f5780601f106104645761010080835404028352916020019161048f565b820191906000526020600020905b81548152906001019060200180831161047257829003601f168201915b50505050508282815181106104a7576104a66151a7565b5b6020026020010151600001819052506000856040516104c69190614eb2565b9081526020016040518091039020600201600082815260200190815260200160002060010180546104f690614ef8565b80601f016020809104026020016040519081016040528092919081815260200182805461052290614ef8565b801561056f5780601f106105445761010080835404028352916020019161056f565b820191906000526020600020905b81548152906001019060200180831161055257829003601f168201915b5050505050828281518110610587576105866151a7565b5b60200260200101516020018190525080806105a190615205565b9150506103ad565b506000846040516105ba9190614eb2565b908152602001604051809103902060030154915060008267ffffffffffffffff8111156105ea576105e9613a1c565b5b60405190808252806020026020018201604052801561062357816020015b61061061388f565b8152602001906001900390816106085790505b50905060005b6000866040516106399190614eb2565b908152602001604051809103902060030154811015610a68576000866040516106629190614eb2565b90815260200160405180910390206004016000828152602001908152602001600020600001805461069290614ef8565b80601f01602080910402602001604051908101604052809291908181526020018280546106be90614ef8565b801561070b5780601f106106e05761010080835404028352916020019161070b565b820191906000526020600020905b8154815290600101906020018083116106ee57829003601f168201915b5050505050828281518110610723576107226151a7565b5b6020026020010151600001819052506000866040516107429190614eb2565b908152602001604051809103902060040160008281526020019081526020016000206001015467ffffffffffffffff81111561078157610780613a1c565b5b6040519080825280602002602001820160405280156107ba57816020015b6107a7613875565b81526020019060019003908161079f5790505b508282815181106107ce576107cd6151a7565b5b60200260200101516020018190525060005b6000876040516107f09190614eb2565b9081526020016040518091039020600401600083815260200190815260200160002060010154811015610a545760008760405161082d9190614eb2565b908152602001604051809103902060040160008381526020019081526020016000206002016000828152602001908152602001600020600001805461087190614ef8565b80601f016020809104026020016040519081016040528092919081815260200182805461089d90614ef8565b80156108ea5780601f106108bf576101008083540402835291602001916108ea565b820191906000526020600020905b8154815290600101906020018083116108cd57829003601f168201915b5050505050838381518110610902576109016151a7565b5b60200260200101516020015182815181106109205761091f6151a7565b5b60200260200101516000018190525060008760405161093f9190614eb2565b908152602001604051809103902060040160008381526020019081526020016000206002016000828152602001908152602001600020600101805461098390614ef8565b80601f01602080910402602001604051908101604052809291908181526020018280546109af90614ef8565b80156109fc5780601f106109d1576101008083540402835291602001916109fc565b820191906000526020600020905b8154815290600101906020018083116109df57829003601f168201915b5050505050838381518110610a1457610a136151a7565b5b6020026020010151602001518281518110610a3257610a316151a7565b5b6020026020010151602001819052508080610a4c90615205565b9150506107e0565b508080610a6090615205565b915050610629565b50600085604051610a799190614eb2565b908152602001604051809103902060050154925060008086604051610a9e9190614eb2565b90815260200160405180910390206005015467ffffffffffffffff811115610ac957610ac8613a1c565b5b604051908082528060200260200182016040528015610b0257816020015b610aef6138a9565b815260200190600190039081610ae75790505b50905060005b8481101561118857600087604051610b209190614eb2565b908152602001604051809103902060060160008281526020019081526020016000206001016001018054610b5390614ef8565b80601f0160208091040260200160405190810160405280929190818152602001828054610b7f90614ef8565b8015610bcc5780601f10610ba157610100808354040283529160200191610bcc565b820191906000526020600020905b815481529060010190602001808311610baf57829003601f168201915b5050505050828281518110610be457610be36151a7565b5b60200260200101516020015160200181905250600087604051610c079190614eb2565b908152602001604051809103902060060160008281526020019081526020016000206001016000018054610c3a90614ef8565b80601f0160208091040260200160405190810160405280929190818152602001828054610c6690614ef8565b8015610cb35780601f10610c8857610100808354040283529160200191610cb3565b820191906000526020600020905b815481529060010190602001808311610c9657829003601f168201915b5050505050828281518110610ccb57610cca6151a7565b5b60200260200101516020015160000181905250600087604051610cee9190614eb2565b908152602001604051809103902060060160008281526020019081526020016000206001016003018054610d2190614ef8565b80601f0160208091040260200160405190810160405280929190818152602001828054610d4d90614ef8565b8015610d9a5780601f10610d6f57610100808354040283529160200191610d9a565b820191906000526020600020905b815481529060010190602001808311610d7d57829003601f168201915b5050505050828281518110610db257610db16151a7565b5b60200260200101516020015160600181905250600087604051610dd59190614eb2565b908152602001604051809103902060060160008281526020019081526020016000206001016002018054610e0890614ef8565b80601f0160208091040260200160405190810160405280929190818152602001828054610e3490614ef8565b8015610e815780601f10610e5657610100808354040283529160200191610e81565b820191906000526020600020905b815481529060010190602001808311610e6457829003601f168201915b5050505050828281518110610e9957610e986151a7565b5b60200260200101516020015160400181905250600087604051610ebc9190614eb2565b908152602001604051809103902060060160008281526020019081526020016000206001016004018054610eef90614ef8565b80601f0160208091040260200160405190810160405280929190818152602001828054610f1b90614ef8565b8015610f685780601f10610f3d57610100808354040283529160200191610f68565b820191906000526020600020905b815481529060010190602001808311610f4b57829003601f168201915b5050505050828281518110610f8057610f7f6151a7565b5b6020026020010151602001516080018190525060008088604051610fa49190614eb2565b908152602001604051809103902060060160008381526020019081526020016000206000018054905090508067ffffffffffffffff811115610fe957610fe8613a1c565b5b60405190808252806020026020018201604052801561101c57816020015b60608152602001906001900390816110075790505b508383815181106110305761102f6151a7565b5b60200260200101516000018190525060005b818110156111735760008960405161105a9190614eb2565b908152602001604051809103902060060160008481526020019081526020016000206000018181548110611091576110906151a7565b5b9060005260206000200180546110a690614ef8565b80601f01602080910402602001604051908101604052809291908181526020018280546110d290614ef8565b801561111f5780601f106110f45761010080835404028352916020019161111f565b820191906000526020600020905b81548152906001019060200180831161110257829003601f168201915b5050505050848481518110611137576111366151a7565b5b6020026020010151600001518281518110611155576111546151a7565b5b6020026020010181905250808061116b90615205565b915050611042565b5050808061118090615205565b915050610b08565b506000866040516111999190614eb2565b908152602001604051809103902060070154935060008467ffffffffffffffff8111156111c9576111c8613a1c565b5b60405190808252806020026020018201604052801561120257816020015b6111ef6138c9565b8152602001906001900390816111e75790505b50905060005b85811015611999576000886040516112209190614eb2565b90815260200160405180910390206008016000828152602001908152602001600020600201600101805461125390614ef8565b80601f016020809104026020016040519081016040528092919081815260200182805461127f90614ef8565b80156112cc5780601f106112a1576101008083540402835291602001916112cc565b820191906000526020600020905b8154815290600101906020018083116112af57829003601f168201915b50505050508282815181106112e4576112e36151a7565b5b602002602001015160200151602001819052506000886040516113079190614eb2565b90815260200160405180910390206008016000828152602001908152602001600020600201600001805461133a90614ef8565b80601f016020809104026020016040519081016040528092919081815260200182805461136690614ef8565b80156113b35780601f10611388576101008083540402835291602001916113b3565b820191906000526020600020905b81548152906001019060200180831161139657829003601f168201915b50505050508282815181106113cb576113ca6151a7565b5b602002602001015160200151600001819052506000886040516113ee9190614eb2565b90815260200160405180910390206008016000828152602001908152602001600020600201600301805461142190614ef8565b80601f016020809104026020016040519081016040528092919081815260200182805461144d90614ef8565b801561149a5780601f1061146f5761010080835404028352916020019161149a565b820191906000526020600020905b81548152906001019060200180831161147d57829003601f168201915b50505050508282815181106114b2576114b16151a7565b5b602002602001015160200151606001819052506000886040516114d59190614eb2565b90815260200160405180910390206008016000828152602001908152602001600020600201600201805461150890614ef8565b80601f016020809104026020016040519081016040528092919081815260200182805461153490614ef8565b80156115815780601f1061155657610100808354040283529160200191611581565b820191906000526020600020905b81548152906001019060200180831161156457829003601f168201915b5050505050828281518110611599576115986151a7565b5b602002602001015160200151604001819052506000886040516115bc9190614eb2565b9081526020016040518091039020600801600082815260200190815260200160002060020160040180546115ef90614ef8565b80601f016020809104026020016040519081016040528092919081815260200182805461161b90614ef8565b80156116685780601f1061163d57610100808354040283529160200191611668565b820191906000526020600020905b81548152906001019060200180831161164b57829003601f168201915b50505050508282815181106116805761167f6151a7565b5b60200260200101516020015160800181905250600080896040516116a49190614eb2565b908152602001604051809103902060080160008381526020019081526020016000206000015490508067ffffffffffffffff8111156116e6576116e5613a1c565b5b60405190808252806020026020018201604052801561171f57816020015b61170c613875565b8152602001906001900390816117045790505b50838381518110611733576117326151a7565b5b60200260200101516000018190525060005b818110156119845760008a60405161175d9190614eb2565b90815260200160405180910390206008016000848152602001908152602001600020600101600082815260200190815260200160002060000180546117a190614ef8565b80601f01602080910402602001604051908101604052809291908181526020018280546117cd90614ef8565b801561181a5780601f106117ef5761010080835404028352916020019161181a565b820191906000526020600020905b8154815290600101906020018083116117fd57829003601f168201915b5050505050848481518110611832576118316151a7565b5b60200260200101516000015182815181106118505761184f6151a7565b5b60200260200101516000018190525060008a60405161186f9190614eb2565b90815260200160405180910390206008016000848152602001908152602001600020600101600082815260200190815260200160002060010180546118b390614ef8565b80601f01602080910402602001604051908101604052809291908181526020018280546118df90614ef8565b801561192c5780601f106119015761010080835404028352916020019161192c565b820191906000526020600020905b81548152906001019060200180831161190f57829003601f168201915b5050505050848481518110611944576119436151a7565b5b6020026020010151600001518281518110611962576119616151a7565b5b602002602001015160200181905250808061197c90615205565b915050611745565b5050808061199190615205565b915050611208565b506040518060a001604052808881526020018581526020018481526020018381526020018281525095505050505050919050565b600080836040516119de9190614eb2565b90815260200160405180910390206007016000815480929190611a0090615205565b91905055905060008260000151519050826020015160000151600085604051611a299190614eb2565b908152602001604051809103902060080160008481526020019081526020016000206002016000019081611a5d91906150d5565b50826020015160200151600085604051611a779190614eb2565b908152602001604051809103902060080160008481526020019081526020016000206002016001019081611aab91906150d5565b50826020015160400151600085604051611ac59190614eb2565b908152602001604051809103902060080160008481526020019081526020016000206002016002019081611af991906150d5565b50826020015160600151600085604051611b139190614eb2565b908152602001604051809103902060080160008481526020019081526020016000206002016003019081611b4791906150d5565b50826020015160800151600085604051611b619190614eb2565b908152602001604051809103902060080160008481526020019081526020016000206002016004019081611b9591906150d5565b5080600085604051611ba79190614eb2565b908152602001604051809103902060080160008481526020019081526020016000206000018190555060005b81811015611ce05783600001518181518110611bf257611bf16151a7565b5b602002602001015160000151600086604051611c0e9190614eb2565b9081526020016040518091039020600801600085815260200190815260200160002060010160008381526020019081526020016000206000019081611c5391906150d5565b5083600001518181518110611c6b57611c6a6151a7565b5b602002602001015160200151600086604051611c879190614eb2565b9081526020016040518091039020600801600085815260200190815260200160002060010160008381526020019081526020016000206001019081611ccc91906150d5565b508080611cd890615205565b915050611bd3565b5050505050565b611cef61388f565b6000600167ffffffffffffffff811115611d0c57611d0b613a1c565b5b604051908082528060200260200182016040528015611d4557816020015b611d3261388f565b815260200190600190039081611d2a5790505b50905060005b600085604051611d5b9190614eb2565b90815260200160405180910390206003015481101561219e57611e3b600086604051611d879190614eb2565b908152602001604051809103902060040160008381526020019081526020016000206000018054611db790614ef8565b80601f0160208091040260200160405190810160405280929190818152602001828054611de390614ef8565b8015611e305780601f10611e0557610100808354040283529160200191611e30565b820191906000526020600020905b815481529060010190602001808311611e1357829003601f168201915b50505050508561342f565b1561218b578382600081518110611e5557611e546151a7565b5b602002602001015160000181905250600085604051611e749190614eb2565b908152602001604051809103902060040160008281526020019081526020016000206001015467ffffffffffffffff811115611eb357611eb2613a1c565b5b604051908082528060200260200182016040528015611eec57816020015b611ed9613875565b815260200190600190039081611ed15790505b5082600081518110611f0157611f006151a7565b5b60200260200101516020018190525060005b600086604051611f239190614eb2565b908152602001604051809103902060040160008381526020019081526020016000206001015481101561218957600086604051611f609190614eb2565b9081526020016040518091039020600401600083815260200190815260200160002060020160008281526020019081526020016000206000018054611fa490614ef8565b80601f0160208091040260200160405190810160405280929190818152602001828054611fd090614ef8565b801561201d5780601f10611ff25761010080835404028352916020019161201d565b820191906000526020600020905b81548152906001019060200180831161200057829003601f168201915b505050505083600081518110612036576120356151a7565b5b6020026020010151602001518281518110612054576120536151a7565b5b6020026020010151600001819052506000866040516120739190614eb2565b90815260200160405180910390206004016000838152602001908152602001600020600201600082815260200190815260200160002060010180546120b790614ef8565b80601f01602080910402602001604051908101604052809291908181526020018280546120e390614ef8565b80156121305780601f1061210557610100808354040283529160200191612130565b820191906000526020600020905b81548152906001019060200180831161211357829003601f168201915b505050505083600081518110612149576121486151a7565b5b6020026020010151602001518281518110612167576121666151a7565b5b602002602001015160200181905250808061218190615205565b915050611f13565b505b808061219690615205565b915050611d4b565b50806000815181106121b3576121b26151a7565b5b602002602001015191505092915050565b6040518060400160405280600881526020017f617070726f76656400000000000000000000000000000000000000000000000081525060008360405161220a9190614eb2565b90815260200160405180910390206006016000838152602001908152602001600020600101600401908161223e91906150d5565b505050565b61224b6138c9565b6122536138c9565b6000846040516122639190614eb2565b90815260200160405180910390206006016000848152602001908152602001600020600101600101805461229690614ef8565b80601f01602080910402602001604051908101604052809291908181526020018280546122c290614ef8565b801561230f5780601f106122e45761010080835404028352916020019161230f565b820191906000526020600020905b8154815290600101906020018083116122f257829003601f168201915b50505050508160200151602001819052506000846040516123309190614eb2565b90815260200160405180910390206006016000848152602001908152602001600020600101600001805461236390614ef8565b80601f016020809104026020016040519081016040528092919081815260200182805461238f90614ef8565b80156123dc5780601f106123b1576101008083540402835291602001916123dc565b820191906000526020600020905b8154815290600101906020018083116123bf57829003601f168201915b50505050508160200151600001819052506000846040516123fd9190614eb2565b90815260200160405180910390206006016000848152602001908152602001600020600101600301805461243090614ef8565b80601f016020809104026020016040519081016040528092919081815260200182805461245c90614ef8565b80156124a95780601f1061247e576101008083540402835291602001916124a9565b820191906000526020600020905b81548152906001019060200180831161248c57829003601f168201915b50505050508160200151606001819052506000846040516124ca9190614eb2565b9081526020016040518091039020600601600084815260200190815260200160002060010160020180546124fd90614ef8565b80601f016020809104026020016040519081016040528092919081815260200182805461252990614ef8565b80156125765780601f1061254b57610100808354040283529160200191612576565b820191906000526020600020905b81548152906001019060200180831161255957829003601f168201915b50505050508160200151604001819052506000846040516125979190614eb2565b9081526020016040518091039020600601600084815260200190815260200160002060010160040180546125ca90614ef8565b80601f01602080910402602001604051908101604052809291908181526020018280546125f690614ef8565b80156126435780601f1061261857610100808354040283529160200191612643565b820191906000526020600020905b81548152906001019060200180831161262657829003601f168201915b5050505050816020015160800181905250600080856040516126659190614eb2565b908152602001604051809103902060060160008581526020019081526020016000206000018054905090508067ffffffffffffffff8111156126aa576126a9613a1c565b5b6040519080825280602002602001820160405280156126e357816020015b6126d0613875565b8152602001906001900390816126c85790505b50826000018190525060005b8181101561285c576000866040516127079190614eb2565b90815260200160405180910390206006016000868152602001908152602001600020600001818154811061273e5761273d6151a7565b5b90600052602060002001805461275390614ef8565b80601f016020809104026020016040519081016040528092919081815260200182805461277f90614ef8565b80156127cc5780601f106127a1576101008083540402835291602001916127cc565b820191906000526020600020905b8154815290600101906020018083116127af57829003601f168201915b5050505050836000015182815181106127e8576127e76151a7565b5b6020026020010151600001819052506128238684600001518381518110612812576128116151a7565b5b60200260200101516000015161345a565b8360000151828151811061283a576128396151a7565b5b602002602001015160200181905250808061285490615205565b9150506126ef565b50819250505092915050565b60606000825167ffffffffffffffff81111561288757612886613a1c565b5b6040519080825280602002602001820160405280156128c057816020015b6128ad613875565b8152602001906001900390816128a55790505b50905060005b8351811015612bd25760005b6000866040516128e29190614eb2565b908152602001604051809103902060010154811015612bbe576129e060008760405161290e9190614eb2565b90815260200160405180910390206002016000838152602001908152602001600020600001805461293e90614ef8565b80601f016020809104026020016040519081016040528092919081815260200182805461296a90614ef8565b80156129b75780601f1061298c576101008083540402835291602001916129b7565b820191906000526020600020905b81548152906001019060200180831161299a57829003601f168201915b50505050508684815181106129cf576129ce6151a7565b5b60200260200101516000015161342f565b15612baa576000866040516129f59190614eb2565b908152602001604051809103902060020160008281526020019081526020016000206000018054612a2590614ef8565b80601f0160208091040260200160405190810160405280929190818152602001828054612a5190614ef8565b8015612a9e5780601f10612a7357610100808354040283529160200191612a9e565b820191906000526020600020905b815481529060010190602001808311612a8157829003601f168201915b5050505050838381518110612ab657612ab56151a7565b5b602002602001015160000181905250600086604051612ad59190614eb2565b908152602001604051809103902060020160008281526020019081526020016000206001018054612b0590614ef8565b80601f0160208091040260200160405190810160405280929190818152602001828054612b3190614ef8565b8015612b7e5780601f10612b5357610100808354040283529160200191612b7e565b820191906000526020600020905b815481529060010190602001808311612b6157829003601f168201915b5050505050838381518110612b9657612b956151a7565b5b602002602001015160200181905250612bab565b5b8080612bb690615205565b9150506128d2565b508080612bca90615205565b9150506128c6565b508091505092915050565b60005b8151811015612e5c577fffffffffffffffffffffffffffffffffffffffffffffffffffffffffffffffff828281518110612c1d57612c1c6151a7565b5b60200260200101516020015114612d21576000828281518110612c4357612c426151a7565b5b6020026020010151602001519050828281518110612c6457612c636151a7565b5b60200260200101516000015160000151600085604051612c849190614eb2565b908152602001604051809103902060020160008381526020019081526020016000206000019081612cb591906150d5565b50828281518110612cc957612cc86151a7565b5b60200260200101516000015160200151600085604051612ce99190614eb2565b908152602001604051809103902060020160008381526020019081526020016000206001019081612d1a91906150d5565b5050612e49565b60008084604051612d329190614eb2565b9081526020016040518091039020600101549050600084604051612d569190614eb2565b90815260200160405180910390206001016000815480929190612d7890615205565b9190505550828281518110612d9057612d8f6151a7565b5b60200260200101516000015160000151600085604051612db09190614eb2565b908152602001604051809103902060020160008381526020019081526020016000206000019081612de191906150d5565b50828281518110612df557612df46151a7565b5b60200260200101516000015160200151600085604051612e159190614eb2565b908152602001604051809103902060020160008381526020019081526020016000206001019081612e4691906150d5565b50505b8080612e5490615205565b915050612be0565b505050565b60005b815181101561316a577fffffffffffffffffffffffffffffffffffffffffffffffffffffffffffffffff828281518110612ea157612ea06151a7565b5b60200260200101516020015114612efe57612ef983838381518110612ec957612ec86151a7565b5b602002602001015160200151848481518110612ee857612ee76151a7565b5b60200260200101516040015161366d565b613157565b60008084604051612f0f9190614eb2565b90815260200160405180910390206003016000815480929190612f3190615205565b919050559050828281518110612f4a57612f496151a7565b5b602002602001015160000151600085604051612f669190614eb2565b908152602001604051809103902060040160008381526020019081526020016000206000019081612f9791906150d5565b50828281518110612fab57612faa6151a7565b5b60200260200101516040015151600085604051612fc89190614eb2565b908152602001604051809103902060040160008381526020019081526020016000206001018190555060005b838381518110613007576130066151a7565b5b602002602001015160400151518110156131545783838151811061302e5761302d6151a7565b5b602002602001015160400151818151811061304c5761304b6151a7565b5b6020026020010151600001516000866040516130689190614eb2565b90815260200160405180910390206004016000848152602001908152602001600020600201600083815260200190815260200160002060000190816130ad91906150d5565b508383815181106130c1576130c06151a7565b5b60200260200101516040015181815181106130df576130de6151a7565b5b6020026020010151602001516000866040516130fb9190614eb2565b908152602001604051809103902060040160008481526020019081526020016000206002016000838152602001908152602001600020600101908161314091906150d5565b50808061314c90615205565b915050612ff4565b50505b808061316290615205565b915050612e64565b505050565b600081602001516020015190506000808260405161318d9190614eb2565b908152602001604051809103902060050160008154809291906131af90615205565b9190505590508260200151600001516000836040516131ce9190614eb2565b90815260200160405180910390206006016000838152602001908152602001600020600101600001908161320291906150d5565b5082602001516020015160008360405161321c9190614eb2565b90815260200160405180910390206006016000838152602001908152602001600020600101600101908161325091906150d5565b5082602001516040015160008360405161326a9190614eb2565b90815260200160405180910390206006016000838152602001908152602001600020600101600201908161329e91906150d5565b508260200151606001516000836040516132b89190614eb2565b9081526020016040518091039020600601600083815260200190815260200160002060010160030190816132ec91906150d5565b5082600001515167ffffffffffffffff81111561330c5761330b613a1c565b5b60405190808252806020026020018201604052801561333f57816020015b606081526020019060019003908161332a5790505b506000836040516133509190614eb2565b9081526020016040518091039020600601600083815260200190815260200160002060000190805190602001906133889291906138e9565b5060005b83600001515181101561342957836000015181815181106133b0576133af6151a7565b5b60200260200101516000846040516133c89190614eb2565b9081526020016040518091039020600601600084815260200190815260200160002060000182815481106133ff576133fe6151a7565b5b90600052602060002001908161341591906150d5565b50808061342190615205565b91505061338c565b50505050565b6000818051906020012083805190602001200361344f5760019050613454565b600090505b92915050565b606060005b60008460405161346f9190614eb2565b90815260200160405180910390206001015481101561362d5761354f60008560405161349b9190614eb2565b9081526020016040518091039020600201600083815260200190815260200160002060000180546134cb90614ef8565b80601f01602080910402602001604051908101604052809291908181526020018280546134f790614ef8565b80156135445780601f1061351957610100808354040283529160200191613544565b820191906000526020600020905b81548152906001019060200180831161352757829003601f168201915b50505050508461342f565b1561361a576000846040516135649190614eb2565b90815260200160405180910390206002016000828152602001908152602001600020600101805461359490614ef8565b80601f01602080910402602001604051908101604052809291908181526020018280546135c090614ef8565b801561360d5780601f106135e25761010080835404028352916020019161360d565b820191906000526020600020905b8154815290600101906020018083116135f057829003601f168201915b5050505050915050613667565b808061362590615205565b91505061345f565b506040518060400160405280600381526020017f4e2f41000000000000000000000000000000000000000000000000000000000081525090505b92915050565b60005b81518110156138405760005b60008560405161368c9190614eb2565b90815260200160405180910390206001015481101561382c5761379e6000866040516136b89190614eb2565b90815260200160405180910390206004016000868152602001908152602001600020600201600083815260200190815260200160002060000180546136fc90614ef8565b80601f016020809104026020016040519081016040528092919081815260200182805461372890614ef8565b80156137755780601f1061374a57610100808354040283529160200191613775565b820191906000526020600020905b81548152906001019060200180831161375857829003601f168201915b505050505084848151811061378d5761378c6151a7565b5b60200260200101516000015161342f565b15613819578282815181106137b6576137b56151a7565b5b6020026020010151602001516000866040516137d29190614eb2565b908152602001604051809103902060040160008681526020019081526020016000206002016000838152602001908152602001600020600101908161381791906150d5565b505b808061382490615205565b91505061367c565b50808061383890615205565b915050613670565b50505050565b6040518060a0016040528060608152602001606081526020016060815260200160608152602001606081525090565b604051806040016040528060608152602001606081525090565b604051806040016040528060608152602001606081525090565b6040518060400160405280606081526020016138c3613942565b81525090565b6040518060400160405280606081526020016138e3613942565b81525090565b828054828255906000526020600020908101928215613931579160200282015b8281111561393057825182908161392091906150d5565b5091602001919060010190613909565b5b50905061393e9190613971565b5090565b6040518060a0016040528060608152602001606081526020016060815260200160608152602001606081525090565b5b8082111561399157600081816139889190613995565b50600101613972565b5090565b5080546139a190614ef8565b6000825580601f106139b357506139d2565b601f0160209004906000526020600020908101906139d191906139d5565b5b50565b5b808211156139ee5760008160009055506001016139d6565b5090565b6000604051905090565b600080fd5b600080fd5b600080fd5b6000601f19601f8301169050919050565b7f4e487b7100000000000000000000000000000000000000000000000000000000600052604160045260246000fd5b613a5482613a0b565b810181811067ffffffffffffffff82111715613a7357613a72613a1c565b5b80604052505050565b6000613a866139f2565b9050613a928282613a4b565b919050565b600080fd5b600080fd5b600080fd5b600067ffffffffffffffff821115613ac157613ac0613a1c565b5b613aca82613a0b565b9050602081019050919050565b82818337600083830152505050565b6000613af9613af484613aa6565b613a7c565b905082815260208101848484011115613b1557613b14613aa1565b5b613b20848285613ad7565b509392505050565b600082601f830112613b3d57613b3c613a9c565b5b8135613b4d848260208601613ae6565b91505092915050565b600067ffffffffffffffff821115613b7157613b70613a1c565b5b602082029050602081019050919050565b600080fd5b600060408284031215613b9d57613b9c613a06565b5b613ba76040613a7c565b9050600082013567ffffffffffffffff811115613bc757613bc6613a97565b5b613bd384828501613b28565b600083015250602082013567ffffffffffffffff811115613bf757613bf6613a97565b5b613c0384828501613b28565b60208301525092915050565b6000819050919050565b613c2281613c0f565b8114613c2d57600080fd5b50565b600081359050613c3f81613c19565b92915050565b600060408284031215613c5b57613c5a613a06565b5b613c656040613a7c565b9050600082013567ffffffffffffffff811115613c8557613c84613a97565b5b613c9184828501613b87565b6000830152506020613ca584828501613c30565b60208301525092915050565b6000613cc4613cbf84613b56565b613a7c565b90508083825260208201905060208402830185811115613ce757613ce6613b82565b5b835b81811015613d2e57803567ffffffffffffffff811115613d0c57613d0b613a9c565b5b808601613d198982613c45565b85526020850194505050602081019050613ce9565b5050509392505050565b600082601f830112613d4d57613d4c613a9c565b5b8135613d5d848260208601613cb1565b91505092915050565b600067ffffffffffffffff821115613d8157613d80613a1c565b5b602082029050602081019050919050565b600067ffffffffffffffff821115613dad57613dac613a1c565b5b602082029050602081019050919050565b6000613dd1613dcc84613d92565b613a7c565b90508083825260208201905060208402830185811115613df457613df3613b82565b5b835b81811015613e3b57803567ffffffffffffffff811115613e1957613e18613a9c565b5b808601613e268982613b87565b85526020850194505050602081019050613df6565b5050509392505050565b600082601f830112613e5a57613e59613a9c565b5b8135613e6a848260208601613dbe565b91505092915050565b600060608284031215613e8957613e88613a06565b5b613e936060613a7c565b9050600082013567ffffffffffffffff811115613eb357613eb2613a97565b5b613ebf84828501613b28565b6000830152506020613ed384828501613c30565b602083015250604082013567ffffffffffffffff811115613ef757613ef6613a97565b5b613f0384828501613e45565b60408301525092915050565b6000613f22613f1d84613d66565b613a7c565b90508083825260208201905060208402830185811115613f4557613f44613b82565b5b835b81811015613f8c57803567ffffffffffffffff811115613f6a57613f69613a9c565b5b808601613f778982613e73565b85526020850194505050602081019050613f47565b5050509392505050565b600082601f830112613fab57613faa613a9c565b5b8135613fbb848260208601613f0f565b91505092915050565b600060608284031215613fda57613fd9613a06565b5b613fe46060613a7c565b9050600082013567ffffffffffffffff81111561400457614003613a97565b5b61401084828501613b28565b600083015250602082013567ffffffffffffffff81111561403457614033613a97565b5b61404084828501613d38565b602083015250604082013567ffffffffffffffff81111561406457614063613a97565b5b61407084828501613f96565b60408301525092915050565b600060208284031215614092576140916139fc565b5b600082013567ffffffffffffffff8111156140b0576140af613a01565b5b6140bc84828501613fc4565b91505092915050565b600067ffffffffffffffff8211156140e0576140df613a1c565b5b602082029050602081019050919050565b60006141046140ff846140c5565b613a7c565b9050808382526020820190506020840283018581111561412757614126613b82565b5b835b8181101561416e57803567ffffffffffffffff81111561414c5761414b613a9c565b5b8086016141598982613b28565b85526020850194505050602081019050614129565b5050509392505050565b600082601f83011261418d5761418c613a9c565b5b813561419d8482602086016140f1565b91505092915050565b600060a082840312156141bc576141bb613a06565b5b6141c660a0613a7c565b9050600082013567ffffffffffffffff8111156141e6576141e5613a97565b5b6141f284828501613b28565b600083015250602082013567ffffffffffffffff81111561421657614215613a97565b5b61422284828501613b28565b602083015250604082013567ffffffffffffffff81111561424657614245613a97565b5b61425284828501613b28565b604083015250606082013567ffffffffffffffff81111561427657614275613a97565b5b61428284828501613b28565b606083015250608082013567ffffffffffffffff8111156142a6576142a5613a97565b5b6142b284828501613b28565b60808301525092915050565b6000604082840312156142d4576142d3613a06565b5b6142de6040613a7c565b9050600082013567ffffffffffffffff8111156142fe576142fd613a97565b5b61430a84828501614178565b600083015250602082013567ffffffffffffffff81111561432e5761432d613a97565b5b61433a848285016141a6565b60208301525092915050565b60006020828403121561435c5761435b6139fc565b5b600082013567ffffffffffffffff81111561437a57614379613a01565b5b614386848285016142be565b91505092915050565b6000602082840312156143a5576143a46139fc565b5b600082013567ffffffffffffffff8111156143c3576143c2613a01565b5b6143cf84828501613b28565b91505092915050565b600081519050919050565b600082825260208201905092915050565b60005b838110156144125780820151818401526020810190506143f7565b83811115614421576000848401525b50505050565b6000614432826143d8565b61443c81856143e3565b935061444c8185602086016143f4565b61445581613a0b565b840191505092915050565b600081519050919050565b600082825260208201905092915050565b6000819050602082019050919050565b600060408301600083015184820360008601526144a98282614427565b915050602083015184820360208601526144c38282614427565b9150508091505092915050565b60006144dc838361448c565b905092915050565b6000602082019050919050565b60006144fc82614460565b614506818561446b565b9350836020820285016145188561447c565b8060005b85811015614554578484038952815161453585826144d0565b9450614540836144e4565b925060208a0199505060018101905061451c565b50829750879550505050505092915050565b600081519050919050565b600082825260208201905092915050565b6000819050602082019050919050565b600060408301600083015184820360008601526145af8282614427565b915050602083015184820360208601526145c982826144f1565b9150508091505092915050565b60006145e28383614592565b905092915050565b6000602082019050919050565b600061460282614566565b61460c8185614571565b93508360208202850161461e85614582565b8060005b8581101561465a578484038952815161463b85826145d6565b9450614646836145ea565b925060208a01995050600181019050614622565b50829750879550505050505092915050565b600081519050919050565b600082825260208201905092915050565b6000819050602082019050919050565b600081519050919050565b600082825260208201905092915050565b6000819050602082019050919050565b60006146d08383614427565b905092915050565b6000602082019050919050565b60006146f082614698565b6146fa81856146a3565b93508360208202850161470c856146b4565b8060005b85811015614748578484038952815161472985826146c4565b9450614734836146d8565b925060208a01995050600181019050614710565b50829750879550505050505092915050565b600060a08301600083015184820360008601526147778282614427565b915050602083015184820360208601526147918282614427565b915050604083015184820360408601526147ab8282614427565b915050606083015184820360608601526147c58282614427565b915050608083015184820360808601526147df8282614427565b9150508091505092915050565b6000604083016000830151848203600086015261480982826146e5565b91505060208301518482036020860152614823828261475a565b9150508091505092915050565b600061483c83836147ec565b905092915050565b6000602082019050919050565b600061485c8261466c565b6148668185614677565b93508360208202850161487885614688565b8060005b858110156148b457848403895281516148958582614830565b94506148a083614844565b925060208a0199505060018101905061487c565b50829750879550505050505092915050565b600081519050919050565b600082825260208201905092915050565b6000819050602082019050919050565b6000604083016000830151848203600086015261490f82826144f1565b91505060208301518482036020860152614929828261475a565b9150508091505092915050565b600061494283836148f2565b905092915050565b6000602082019050919050565b6000614962826148c6565b61496c81856148d1565b93508360208202850161497e856148e2565b8060005b858110156149ba578484038952815161499b8582614936565b94506149a68361494a565b925060208a01995050600181019050614982565b50829750879550505050505092915050565b600060a08301600083015184820360008601526149e98282614427565b91505060208301518482036020860152614a0382826144f1565b91505060408301518482036040860152614a1d82826145f7565b91505060608301518482036060860152614a378282614851565b91505060808301518482036080860152614a518282614957565b9150508091505092915050565b60006020820190508181036000830152614a7881846149cc565b905092915050565b600060408284031215614a9657614a95613a06565b5b614aa06040613a7c565b9050600082013567ffffffffffffffff811115614ac057614abf613a97565b5b614acc84828501613e45565b600083015250602082013567ffffffffffffffff811115614af057614aef613a97565b5b614afc848285016141a6565b60208301525092915050565b60008060408385031215614b1f57614b1e6139fc565b5b600083013567ffffffffffffffff811115614b3d57614b3c613a01565b5b614b4985828601613b28565b925050602083013567ffffffffffffffff811115614b6a57614b69613a01565b5b614b7685828601614a80565b9150509250929050565b60008060408385031215614b9757614b966139fc565b5b600083013567ffffffffffffffff811115614bb557614bb4613a01565b5b614bc185828601613b28565b925050602083013567ffffffffffffffff811115614be257614be1613a01565b5b614bee85828601613b28565b9150509250929050565b60006040830160008301518482036000860152614c158282614427565b91505060208301518482036020860152614c2f82826144f1565b9150508091505092915050565b60006020820190508181036000830152614c568184614bf8565b905092915050565b6000819050919050565b614c7181614c5e565b8114614c7c57600080fd5b50565b600081359050614c8e81614c68565b92915050565b60008060408385031215614cab57614caa6139fc565b5b600083013567ffffffffffffffff811115614cc957614cc8613a01565b5b614cd585828601613b28565b9250506020614ce685828601614c7f565b9150509250929050565b60006040830160008301518482036000860152614d0d82826144f1565b91505060208301518482036020860152614d27828261475a565b9150508091505092915050565b60006020820190508181036000830152614d4e8184614cf0565b905092915050565b60008060408385031215614d6d57614d6c6139fc565b5b600083013567ffffffffffffffff811115614d8b57614d8a613a01565b5b614d9785828601613b28565b925050602083013567ffffffffffffffff811115614db857614db7613a01565b5b614dc485828601613e45565b9150509250929050565b600082825260208201905092915050565b6000614dea82614460565b614df48185614dce565b935083602082028501614e068561447c565b8060005b85811015614e425784840389528151614e2385826144d0565b9450614e2e836144e4565b925060208a01995050600181019050614e0a565b50829750879550505050505092915050565b60006020820190508181036000830152614e6e8184614ddf565b905092915050565b600081905092915050565b6000614e8c826143d8565b614e968185614e76565b9350614ea68185602086016143f4565b80840191505092915050565b6000614ebe8284614e81565b915081905092915050565b7f4e487b7100000000000000000000000000000000000000000000000000000000600052602260045260246000fd5b60006002820490506001821680614f1057607f821691505b602082108103614f2357614f22614ec9565b5b50919050565b60008190508160005260206000209050919050565b60006020601f8301049050919050565b600082821b905092915050565b600060088302614f8b7fffffffffffffffffffffffffffffffffffffffffffffffffffffffffffffffff82614f4e565b614f958683614f4e565b95508019841693508086168417925050509392505050565b6000819050919050565b6000614fd2614fcd614fc884614c5e565b614fad565b614c5e565b9050919050565b6000819050919050565b614fec83614fb7565b615000614ff882614fd9565b848454614f5b565b825550505050565b600090565b615015615008565b615020818484614fe3565b505050565b5b818110156150445761503960008261500d565b600181019050615026565b5050565b601f8211156150895761505a81614f29565b61506384614f3e565b81016020851015615072578190505b61508661507e85614f3e565b830182615025565b50505b505050565b600082821c905092915050565b60006150ac6000198460080261508e565b1980831691505092915050565b60006150c5838361509b565b9150826002028217905092915050565b6150de826143d8565b67ffffffffffffffff8111156150f7576150f6613a1c565b5b6151018254614ef8565b61510c828285615048565b600060209050601f83116001811461513f576000841561512d578287015190505b61513785826150b9565b86555061519f565b601f19841661514d86614f29565b60005b8281101561517557848901518255600182019150602085019450602081019050615150565b86831015615192578489015161518e601f89168261509b565b8355505b6001600288020188555050505b505050505050565b7f4e487b7100000000000000000000000000000000000000000000000000000000600052603260045260246000fd5b7f4e487b7100000000000000000000000000000000000000000000000000000000600052601160045260246000fd5b600061521082614c5e565b91507fffffffffffffffffffffffffffffffffffffffffffffffffffffffffffffffff8203615242576152416151d6565b5b60018201905091905056fea2646970667358221220e9c28caa2ba72c4d236b669dd3a8ff8a73e2422cfb1241318c52a77386d594a364736f6c634300080f0033",
  "immutableReferences": {},
  "source": "pragma solidity >=0.8.9;\r\n\r\n//SPDX-License-Identifier: UNLICENSED\r\n\r\ncontract UserDataContract {\r\n\r\n    /*\r\n    * ============================================== USER DATA SUBSECTION ==============================================\r\n    */ \r\n\r\n    /* Attributes stored in UserData and Credential. */\r\n    struct Attribute {\r\n        string name;\r\n        string value;\r\n    }\r\n\r\n    /* Credential consisting of attributes and an organization name. */\r\n    struct Credential {\r\n        string organization;\r\n        uint attributeCount;\r\n        mapping (uint => Attribute) attributes;\r\n    }\r\n\r\n    /* UserData is where the bulk of user's data will be stored using Credential and Attribute. */\r\n    struct UserData {\r\n        string id;\r\n\r\n        uint attributeCount;\r\n        mapping (uint => Attribute) attributes;\r\n\r\n        uint credentialCount;\r\n        mapping (uint => Credential) credentials;\r\n\r\n        uint transactionRequestCount;\r\n        mapping (uint => TransactionRequest) transactionRequests;\r\n\r\n        uint approvedTransactionCount;\r\n        mapping (uint => TransactionApprovedStorage) approvedTransactions;\r\n\r\n        uint credentialRequestCount;\r\n        mapping (uint => CredentialRequest) credentialRequests;\r\n    }\r\n\r\n    /* What will be returned in place of a Credential struct. */\r\n    struct CredentialResponse {\r\n        string organization;\r\n        Attribute[] attributes;\r\n    }\r\n\r\n    /* What will be returned in place of a UserData struct. */\r\n    struct UserDataResponse{\r\n        string id;\r\n        Attribute[] attributes;\r\n        CredentialResponse[] credentials;\r\n        TransactionRequest[] transactionRequests;\r\n        TransactionResponse[] approvedTransactions;\r\n    }\r\n\r\n    /* Received in paramets to update attributes, this improves gas usage by knowing when to insert and when to update. */\r\n    struct AttributeUpdate {\r\n        Attribute attribute;\r\n        int index;\r\n    }\r\n\r\n    /* Received in paramets to update credentials, this improves gas usage by knowing when to insert and when to update */\r\n    struct CredentialUpdate {\r\n        string organization;\r\n        int index;\r\n        Attribute[] attributes;\r\n    }\r\n\r\n    /* Single functions for update to test integration methods */\r\n    struct Update {\r\n        string id;\r\n        AttributeUpdate[] attributes;\r\n        CredentialUpdate[] credentials;\r\n    }\r\n\r\n    /* All stored user's data can be accessed through the allUserData attribute. */\r\n    mapping (string => UserData) allUserData;\r\n\r\n    /* Initialize a new user's storage data. */\r\n    function createUser(string memory _id) public {\r\n        allUserData[_id].id = _id;\r\n        allUserData[_id].attributeCount = 0;\r\n        allUserData[_id].credentialCount = 0;\r\n        allUserData[_id].transactionRequestCount = 0;\r\n        allUserData[_id].approvedTransactionCount = 0;\r\n        allUserData[_id].credentialRequestCount = 0;\r\n    }\r\n\r\n    /* Add and Update UserData by id. */\r\n    function updateUser(Update memory update) public {\r\n        \r\n        //add/update all new attributes\r\n        if (update.attributes.length > 0) updateAttributes(update.id, update.attributes);\r\n\r\n        //add and update all new credentials\r\n        if (update.credentials.length > 0) updateCredentials(update.id, update.credentials);\r\n\r\n    }\r\n\r\n    /* Returns the enitre UserData for the specified id. */\r\n    function getUserData(string memory _id) public view returns (UserDataResponse memory) {\r\n        \r\n        //Create Attribute array\r\n        uint size = allUserData[_id].attributeCount;\r\n        Attribute[] memory attrs = new Attribute[](size);\r\n        \r\n        for (uint i=0; i<allUserData[_id].attributeCount; i++) {\r\n            attrs[i].name = allUserData[_id].attributes[i].name;\r\n            attrs[i].value = allUserData[_id].attributes[i].value;\r\n        }\r\n\r\n        //Create Attribute arrays for Credential arrays\r\n        size = allUserData[_id].credentialCount;\r\n        CredentialResponse[] memory creds = new CredentialResponse[](size);\r\n\r\n        for (uint i=0; i<allUserData[_id].credentialCount; i++) {\r\n\r\n            creds[i].organization = allUserData[_id].credentials[i].organization;\r\n            creds[i].attributes = new Attribute[](allUserData[_id].credentials[i].attributeCount);\r\n\r\n            for (uint k=0; k<allUserData[_id].credentials[i].attributeCount; k++) {\r\n                creds[i].attributes[k].name = allUserData[_id].credentials[i].attributes[k].name;\r\n                creds[i].attributes[k].value = allUserData[_id].credentials[i].attributes[k].value;\r\n            }\r\n        }\r\n\r\n        //create TransactionRequest array\r\n        size = allUserData[_id].transactionRequestCount;\r\n        TransactionRequest[] memory transactionRequests = new TransactionRequest[](allUserData[_id].transactionRequestCount);\r\n\r\n        for (uint i=0; i<size; i++) {\r\n\r\n            transactionRequests[i].stamp.toID = allUserData[_id].transactionRequests[i].stamp.toID;\r\n            transactionRequests[i].stamp.fromID = allUserData[_id].transactionRequests[i].stamp.fromID;\r\n            transactionRequests[i].stamp.message = allUserData[_id].transactionRequests[i].stamp.message;\r\n            transactionRequests[i].stamp.date = allUserData[_id].transactionRequests[i].stamp.date;\r\n            transactionRequests[i].stamp.status = allUserData[_id].transactionRequests[i].stamp.status;\r\n\r\n            uint attrSize = allUserData[_id].transactionRequests[i].attributes.length;\r\n            transactionRequests[i].attributes = new string[](attrSize);\r\n\r\n            for (uint k=0; k<attrSize; k++) {\r\n                transactionRequests[i].attributes[k] = allUserData[_id].transactionRequests[i].attributes[k];\r\n            }\r\n        }\r\n\r\n        //create Approved Transaction array\r\n        size = allUserData[_id].approvedTransactionCount;\r\n        TransactionResponse[] memory approvedTransactions = new TransactionResponse[](size);\r\n\r\n        for (uint i=0; i<size; i++) {\r\n\r\n            approvedTransactions[i].stamp.toID = allUserData[_id].approvedTransactions[i].stamp.toID;\r\n            approvedTransactions[i].stamp.fromID = allUserData[_id].approvedTransactions[i].stamp.fromID;\r\n            approvedTransactions[i].stamp.message = allUserData[_id].approvedTransactions[i].stamp.message;\r\n            approvedTransactions[i].stamp.date = allUserData[_id].approvedTransactions[i].stamp.date;\r\n            approvedTransactions[i].stamp.status = allUserData[_id].approvedTransactions[i].stamp.status;\r\n\r\n            uint attrSize = allUserData[_id].approvedTransactions[i].attributeCount;\r\n            approvedTransactions[i].attributes = new Attribute[](attrSize);\r\n\r\n            for (uint k=0; k<attrSize; k++) {\r\n                approvedTransactions[i].attributes[k].name = allUserData[_id].approvedTransactions[i].attributes[k].name;\r\n                approvedTransactions[i].attributes[k].value = allUserData[_id].approvedTransactions[i].attributes[k].value;\r\n            }\r\n        }\r\n\r\n        //Create UserDataResponse\r\n        return (UserDataResponse({\r\n            id: _id,\r\n            attributes: attrs,\r\n            credentials: creds,\r\n            transactionRequests: transactionRequests,\r\n            approvedTransactions: approvedTransactions\r\n        }));\r\n    }\r\n\r\n    /* Updates the relevant attributes for the appropriate credentials. */\r\n    function updateCredentials(string memory _id, CredentialUpdate[] memory credentials) private {\r\n\r\n        for (uint i=0; i<credentials.length; i++) {\r\n\r\n            //update existing credentials\r\n            if (credentials[i].index != -1) {\r\n                updateCredentialAttributes(_id, uint(credentials[i].index), credentials[i].attributes);\r\n                continue;\r\n            }\r\n\r\n            //insert new credentials\r\n            uint index = allUserData[_id].credentialCount++;\r\n            allUserData[_id].credentials[index].organization = credentials[i].organization;\r\n            allUserData[_id].credentials[index].attributeCount = credentials[i].attributes.length;\r\n\r\n            for (uint k=0; k<credentials[i].attributes.length; k++) {\r\n                allUserData[_id].credentials[index].attributes[k].name = credentials[i].attributes[k].name;\r\n                allUserData[_id].credentials[index].attributes[k].value = credentials[i].attributes[k].value;\r\n            }\r\n        }   \r\n\r\n    }\r\n\r\n    /* Updates relevant Attributes for specified credential and organization in storage. */\r\n    function updateCredentialAttributes(string memory _id, uint org, Attribute[] memory attributes) private {\r\n        \r\n        for (uint i=0; i<attributes.length; i++) {\r\n            for (uint k=0; k<allUserData[_id].attributeCount; k++) {\r\n                if (stringCompare(allUserData[_id].credentials[org].attributes[k].name, attributes[i].name)) {\r\n                    allUserData[_id].credentials[org].attributes[k].value = attributes[i].value;\r\n                }\r\n            }\r\n        }\r\n    }\r\n\r\n    /* Updates relevant Attribute values in storage. */\r\n    function updateAttributes(string memory _id, AttributeUpdate[] memory attributes) private {\r\n        \r\n        for (uint i=0; i<attributes.length; i++) {\r\n\r\n            //update existing attribute\r\n            if (attributes[i].index != -1) {\r\n                uint k = uint(attributes[i].index);\r\n                allUserData[_id].attributes[k].name = attributes[i].attribute.name;\r\n                allUserData[_id].attributes[k].value = attributes[i].attribute.value;\r\n                continue;\r\n            }\r\n\r\n            //add new attribute\r\n            uint index = allUserData[_id].attributeCount;\r\n            allUserData[_id].attributeCount++;\r\n            allUserData[_id].attributes[index].name = attributes[i].attribute.name;\r\n            allUserData[_id].attributes[index].value = attributes[i].attribute.value;\r\n        }\r\n\r\n    }\r\n\r\n    /*\r\n    * ============================================== TRANSACTION SUBSECTION ==============================================\r\n    */ \r\n\r\n    /* Data to describe transaction information. */\r\n    struct TransactionStamp {\r\n        string fromID;\r\n        string toID;\r\n        string date;\r\n        string message;\r\n        string status;\r\n    }\r\n\r\n    /* Request to get Attribute data from a user. */\r\n    struct TransactionRequest {\r\n        string[] attributes;\r\n        TransactionStamp stamp;\r\n    }\r\n\r\n    struct TransactionResponse {\r\n        Attribute[] attributes;\r\n        TransactionStamp stamp;\r\n    }\r\n\r\n    struct TransactionApprovedStorage {\r\n        uint attributeCount;\r\n        mapping (uint => Attribute) attributes;\r\n        TransactionStamp stamp;\r\n    }\r\n\r\n    /* Request to get Credential data from a user. */\r\n    struct CredentialRequest {\r\n        string organization;\r\n        TransactionStamp stamp;\r\n    }\r\n\r\n    /* Stores the pending transaction with the appropriate user. */\r\n    function newTransactionRequest(TransactionRequest memory request) public {\r\n        addTransactionRequest(request);\r\n    }\r\n\r\n    /* Adds a new transaction as pending to the user's data. */\r\n    function addTransactionRequest(TransactionRequest memory request) private {\r\n        string memory id = request.stamp.toID;\r\n        uint index = allUserData[id].transactionRequestCount++;\r\n        allUserData[id].transactionRequests[index].stamp.fromID = request.stamp.fromID;\r\n        allUserData[id].transactionRequests[index].stamp.toID = request.stamp.toID;\r\n        allUserData[id].transactionRequests[index].stamp.date = request.stamp.date;\r\n        allUserData[id].transactionRequests[index].stamp.message = request.stamp.message;\r\n\r\n        allUserData[id].transactionRequests[index].attributes = new string[](request.attributes.length);\r\n\r\n        for (uint i=0; i<request.attributes.length; i++) {\r\n            allUserData[id].transactionRequests[index].attributes[i] = request.attributes[i];\r\n        }\r\n    }\r\n\r\n    function approveTransactionStageA(string memory _id, uint index) public {\r\n        allUserData[_id].transactionRequests[index].stamp.status = \"approved\";\r\n    }\r\n\r\n    /* Approves the pending transaction by returning the data to the API for decryption. */\r\n    function approveTransactionStageB(string memory _id, uint index) public view returns (TransactionResponse memory) {\r\n        TransactionResponse memory ret;\r\n        \r\n        ret.stamp.toID = allUserData[_id].transactionRequests[index].stamp.toID;\r\n        ret.stamp.fromID = allUserData[_id].transactionRequests[index].stamp.fromID;\r\n        ret.stamp.message = allUserData[_id].transactionRequests[index].stamp.message;\r\n        ret.stamp.date = allUserData[_id].transactionRequests[index].stamp.date;\r\n        ret.stamp.status = allUserData[_id].transactionRequests[index].stamp.status;\r\n\r\n        uint attrSize = allUserData[_id].transactionRequests[index].attributes.length;\r\n        ret.attributes = new Attribute[](attrSize);\r\n\r\n        for (uint k=0; k<attrSize; k++) {\r\n            ret.attributes[k].name = allUserData[_id].transactionRequests[index].attributes[k];\r\n            ret.attributes[k].value = findAttribute(_id, ret.attributes[k].name);\r\n        }\r\n\r\n        return ret;\r\n    }\r\n\r\n    function approveTransactionStageC(string memory _id, TransactionResponse memory transaction) public {\r\n\r\n        uint index = allUserData[_id].approvedTransactionCount++;\r\n        uint size = transaction.attributes.length;\r\n\r\n        allUserData[_id].approvedTransactions[index].stamp.fromID = transaction.stamp.fromID;\r\n        allUserData[_id].approvedTransactions[index].stamp.toID = transaction.stamp.toID;\r\n        allUserData[_id].approvedTransactions[index].stamp.date = transaction.stamp.date;\r\n        allUserData[_id].approvedTransactions[index].stamp.message = transaction.stamp.message;\r\n        allUserData[_id].approvedTransactions[index].stamp.status = transaction.stamp.status;\r\n\r\n        //allUserData[_id].approvedTransactions[index].attributes = new Attribute[](size);\r\n        allUserData[_id].approvedTransactions[index].attributeCount = size;\r\n\r\n        for (uint i=0; i<size; i++) {\r\n            allUserData[_id].approvedTransactions[index].attributes[i].name = transaction.attributes[i].name;\r\n            allUserData[_id].approvedTransactions[index].attributes[i].value = transaction.attributes[i].value;\r\n        }\r\n    }\r\n\r\n    function findAttribute(string memory id, string memory name) private view returns (string memory) {\r\n\r\n        for (uint i=0; i<allUserData[id].attributeCount; i++) {\r\n            if (stringCompare(allUserData[id].attributes[i].name, name))\r\n                return allUserData[id].attributes[i].value;\r\n        }\r\n\r\n        return \"N/A\";\r\n    }\r\n\r\n    /* Returns the desired attributes for requested data. */\r\n    function getAttributesTransaction(string memory _id, Attribute[] memory attributes) public view returns (Attribute[] memory) {\r\n\r\n        Attribute[] memory res = new Attribute[](attributes.length);\r\n\r\n        for (uint i=0; i<attributes.length; i++) {\r\n            for (uint k=0; k<allUserData[_id].attributeCount; k++) {\r\n                if (stringCompare(allUserData[_id].attributes[k].name, attributes[i].name)) {\r\n                    res[i].name = allUserData[_id].attributes[k].name;\r\n                    res[i].value = allUserData[_id].attributes[k].value;\r\n                    continue;\r\n                }\r\n            }\r\n        }\r\n\r\n        return res;\r\n    }\r\n\r\n    /* Returns the desired Credential and its associated attributes. */\r\n    function getCredentialTransaction(string memory _id, string memory organization) public view returns (CredentialResponse memory) {\r\n\r\n        CredentialResponse[] memory cred = new CredentialResponse[](1);\r\n\r\n        for (uint i=0; i<allUserData[_id].credentialCount; i++) {\r\n            if (stringCompare(allUserData[_id].credentials[i].organization, organization)) {\r\n                cred[0].organization = organization;\r\n\r\n                cred[0].attributes = new Attribute[](allUserData[_id].credentials[i].attributeCount);\r\n\r\n                for (uint k=0; k<allUserData[_id].credentials[i].attributeCount; k++) {\r\n                    cred[0].attributes[k].name = allUserData[_id].credentials[i].attributes[k].name;\r\n                    cred[0].attributes[k].value = allUserData[_id].credentials[i].attributes[k].value;\r\n                }\r\n            }\r\n        }\r\n\r\n        return cred[0];\r\n    }\r\n\r\n    /*\r\n    * ============================================== GENERAL SUBSECTION ==============================================\r\n    */ \r\n\r\n    /* Compares two strings to see if they're equal or not. */\r\n    function stringCompare(string memory a, string memory b) private pure returns (bool) {\r\n        if (keccak256(bytes(a)) == keccak256(bytes(b)))\r\n            return true;\r\n        return false;\r\n    }\r\n\r\n}",
  "sourcePath": "C:\\Users\\bbdnet2552\\Desktop\\University\\Capstone\\Repo\\Exploring-Self-Sovereign-Identity\\LocalBlockchain\\contracts\\UserDataContract.sol",
  "compiler": {
    "name": "solc",
    "version": "0.8.15+commit.e14f2714.Emscripten.clang"
  },
  "schemaVersion": "3.4.8",
  "updatedAt": "2022-08-16T18:12:23.589Z",
  "networkType": "ethereum",
  "devdoc": {
    "kind": "dev",
    "methods": {},
    "version": 1
  },
  "userdoc": {
    "kind": "user",
    "methods": {},
    "version": 1
  }
}