{
  "contractName": "UserDataContract",
  "abi": [
    {
      "inputs": [
        {
          "internalType": "string",
          "name": "_id",
          "type": "string"
        }
      ],
      "name": "createUser",
      "outputs": [],
      "stateMutability": "nonpayable",
      "type": "function"
    },
    {
      "inputs": [
        {
          "internalType": "string",
          "name": "_id",
          "type": "string"
        },
        {
          "internalType": "uint256",
          "name": "index",
          "type": "uint256"
        },
        {
          "internalType": "string",
          "name": "name",
          "type": "string"
        },
        {
          "internalType": "string",
          "name": "value",
          "type": "string"
        }
      ],
      "name": "updateAttribute",
      "outputs": [],
      "stateMutability": "nonpayable",
      "type": "function"
    },
    {
      "inputs": [
        {
          "internalType": "string",
          "name": "_id",
          "type": "string"
        },
        {
          "internalType": "string",
          "name": "name",
          "type": "string"
        },
        {
          "internalType": "string",
          "name": "value",
          "type": "string"
        }
      ],
      "name": "createAttribute",
      "outputs": [],
      "stateMutability": "nonpayable",
      "type": "function"
    },
    {
      "inputs": [
        {
          "internalType": "string",
          "name": "_id",
          "type": "string"
        },
        {
          "components": [
            {
              "components": [
                {
                  "internalType": "string",
                  "name": "name",
                  "type": "string"
                },
                {
                  "internalType": "string",
                  "name": "value",
                  "type": "string"
                }
              ],
              "internalType": "struct UserDataContract.Attribute",
              "name": "attribute",
              "type": "tuple"
            },
            {
              "internalType": "bool",
              "name": "isUpdate",
              "type": "bool"
            }
          ],
          "internalType": "struct UserDataContract.AttributeUpdate[]",
          "name": "attributes",
          "type": "tuple[]"
        },
        {
          "components": [
            {
              "internalType": "string",
              "name": "organization",
              "type": "string"
            },
            {
              "internalType": "bool",
              "name": "isUpdate",
              "type": "bool"
            },
            {
              "components": [
                {
                  "internalType": "string",
                  "name": "name",
                  "type": "string"
                },
                {
                  "internalType": "string",
                  "name": "value",
                  "type": "string"
                }
              ],
              "internalType": "struct UserDataContract.Attribute[]",
              "name": "attributes",
              "type": "tuple[]"
            }
          ],
          "internalType": "struct UserDataContract.CredentialUpdate[]",
          "name": "credentials",
          "type": "tuple[]"
        }
      ],
      "name": "updateUser",
      "outputs": [],
      "stateMutability": "nonpayable",
      "type": "function"
    },
    {
      "inputs": [
        {
          "internalType": "string",
          "name": "_id",
          "type": "string"
        }
      ],
      "name": "getUserData",
      "outputs": [
        {
          "components": [
            {
              "internalType": "string",
              "name": "id",
              "type": "string"
            },
            {
              "components": [
                {
                  "internalType": "string",
                  "name": "name",
                  "type": "string"
                },
                {
                  "internalType": "string",
                  "name": "value",
                  "type": "string"
                }
              ],
              "internalType": "struct UserDataContract.Attribute[]",
              "name": "attributes",
              "type": "tuple[]"
            },
            {
              "components": [
                {
                  "internalType": "string",
                  "name": "organization",
                  "type": "string"
                },
                {
                  "components": [
                    {
                      "internalType": "string",
                      "name": "name",
                      "type": "string"
                    },
                    {
                      "internalType": "string",
                      "name": "value",
                      "type": "string"
                    }
                  ],
                  "internalType": "struct UserDataContract.Attribute[]",
                  "name": "attributes",
                  "type": "tuple[]"
                }
              ],
              "internalType": "struct UserDataContract.CredentialResponse[]",
              "name": "credentials",
              "type": "tuple[]"
            }
          ],
          "internalType": "struct UserDataContract.UserDataResponse",
          "name": "",
          "type": "tuple"
        }
      ],
      "stateMutability": "view",
      "type": "function"
    }
  ],
  "bytecode": "0x608060405234801561001057600080fd5b50612344806100206000396000f3fe608060405234801561001057600080fd5b50600436106100575760003560e01c8063507ffba51461005c57806350daa56a1461007857806354ab240314610094578063d04287a8146100c4578063d7e0a0db146100e0575b600080fd5b61007660048036038101906100719190611521565b6100fc565b005b610092600480360381019061008d919061156a565b61017a565b005b6100ae60048036038101906100a99190611521565b61023f565b6040516100bb9190611903565b60405180910390f35b6100de60048036038101906100d9919061195b565b6109a8565b005b6100fa60048036038101906100f59190611e90565b610a34565b005b8060008260405161010d9190611f73565b9081526020016040518091039020600001908161012a9190612196565b506000808260405161013c9190611f73565b908152602001604051809103902060010181905550600080826040516101629190611f73565b90815260200160405180910390206003018190555050565b6000808460405161018b9190611f73565b908152602001604051809103902060010160008154809291906101ad90612297565b919050559050826000856040516101c49190611f73565b9081526020016040518091039020600201600083815260200190815260200160002060000190816101f59190612196565b50816000856040516102079190611f73565b9081526020016040518091039020600201600083815260200190815260200160002060010190816102389190612196565b5050505050565b610247611372565b600080836040516102589190611f73565b908152602001604051809103902060010154905060008167ffffffffffffffff811115610288576102876113f6565b5b6040519080825280602002602001820160405280156102c157816020015b6102ae611393565b8152602001906001900390816102a65790505b50905060005b6000856040516102d79190611f73565b9081526020016040518091039020600101548110156104c3576000856040516103009190611f73565b90815260200160405180910390206002016000828152602001908152602001600020600001805461033090611fb9565b80601f016020809104026020016040519081016040528092919081815260200182805461035c90611fb9565b80156103a95780601f1061037e576101008083540402835291602001916103a9565b820191906000526020600020905b81548152906001019060200180831161038c57829003601f168201915b50505050508282815181106103c1576103c06122df565b5b6020026020010151600001819052506000856040516103e09190611f73565b90815260200160405180910390206002016000828152602001908152602001600020600101805461041090611fb9565b80601f016020809104026020016040519081016040528092919081815260200182805461043c90611fb9565b80156104895780601f1061045e57610100808354040283529160200191610489565b820191906000526020600020905b81548152906001019060200180831161046c57829003601f168201915b50505050508282815181106104a1576104a06122df565b5b60200260200101516020018190525080806104bb90612297565b9150506102c7565b506000846040516104d49190611f73565b908152602001604051809103902060030154915060008267ffffffffffffffff811115610504576105036113f6565b5b60405190808252806020026020018201604052801561053d57816020015b61052a6113ad565b8152602001906001900390816105225790505b50905060005b6000866040516105539190611f73565b9081526020016040518091039020600301548110156109825760008660405161057c9190611f73565b9081526020016040518091039020600401600082815260200190815260200160002060000180546105ac90611fb9565b80601f01602080910402602001604051908101604052809291908181526020018280546105d890611fb9565b80156106255780601f106105fa57610100808354040283529160200191610625565b820191906000526020600020905b81548152906001019060200180831161060857829003601f168201915b505050505082828151811061063d5761063c6122df565b5b60200260200101516000018190525060008660405161065c9190611f73565b908152602001604051809103902060040160008281526020019081526020016000206001015467ffffffffffffffff81111561069b5761069a6113f6565b5b6040519080825280602002602001820160405280156106d457816020015b6106c1611393565b8152602001906001900390816106b95790505b508282815181106106e8576106e76122df565b5b60200260200101516020018190525060005b60008760405161070a9190611f73565b908152602001604051809103902060040160008381526020019081526020016000206001015481101561096e576000876040516107479190611f73565b908152602001604051809103902060040160008381526020019081526020016000206002016000828152602001908152602001600020600001805461078b90611fb9565b80601f01602080910402602001604051908101604052809291908181526020018280546107b790611fb9565b80156108045780601f106107d957610100808354040283529160200191610804565b820191906000526020600020905b8154815290600101906020018083116107e757829003601f168201915b505050505083838151811061081c5761081b6122df565b5b602002602001015160200151828151811061083a576108396122df565b5b6020026020010151600001819052506000876040516108599190611f73565b908152602001604051809103902060040160008381526020019081526020016000206002016000828152602001908152602001600020600101805461089d90611fb9565b80601f01602080910402602001604051908101604052809291908181526020018280546108c990611fb9565b80156109165780601f106108eb57610100808354040283529160200191610916565b820191906000526020600020905b8154815290600101906020018083116108f957829003601f168201915b505050505083838151811061092e5761092d6122df565b5b602002602001015160200151828151811061094c5761094b6122df565b5b602002602001015160200181905250808061096690612297565b9150506106fa565b50808061097a90612297565b915050610543565b506040518060600160405280868152602001838152602001828152509350505050919050565b816000856040516109b99190611f73565b9081526020016040518091039020600201600085815260200190815260200160002060000190816109ea9190612196565b50806000856040516109fc9190611f73565b908152602001604051809103902060020160008581526020019081526020016000206001019081610a2d9190612196565b5050505050565b600082511115610a4957610a488383610a63565b5b600081511115610a5e57610a5d8382610d70565b5b505050565b60005b8151811015610d6b57818181518110610a8257610a816122df565b5b60200260200101516020015115610c305760005b600084604051610aa69190611f73565b908152602001604051809103902060010154811015610c2a57610ba8600085604051610ad29190611f73565b908152602001604051809103902060020160008381526020019081526020016000206000018054610b0290611fb9565b80601f0160208091040260200160405190810160405280929190818152602001828054610b2e90611fb9565b8015610b7b5780601f10610b5057610100808354040283529160200191610b7b565b820191906000526020600020905b815481529060010190602001808311610b5e57829003601f168201915b5050505050848481518110610b9357610b926122df565b5b6020026020010151600001516000015161116e565b15610c1757828281518110610bc057610bbf6122df565b5b60200260200101516000015160200151600085604051610be09190611f73565b908152602001604051809103902060020160008381526020019081526020016000206001019081610c119190612196565b50610c2a565b8080610c2290612297565b915050610a96565b50610d58565b60008084604051610c419190611f73565b9081526020016040518091039020600101549050600084604051610c659190611f73565b90815260200160405180910390206001016000815480929190610c8790612297565b9190505550828281518110610c9f57610c9e6122df565b5b60200260200101516000015160000151600085604051610cbf9190611f73565b908152602001604051809103902060020160008381526020019081526020016000206000019081610cf09190612196565b50828281518110610d0457610d036122df565b5b60200260200101516000015160200151600085604051610d249190611f73565b908152602001604051809103902060020160008381526020019081526020016000206001019081610d559190612196565b50505b8080610d6390612297565b915050610a66565b505050565b60005b815181101561116957818181518110610d8f57610d8e6122df565b5b60200260200101516020015115610efd5760005b600084604051610db39190611f73565b908152602001604051809103902060030154811015610ef757610eb1600085604051610ddf9190611f73565b908152602001604051809103902060040160008381526020019081526020016000206000018054610e0f90611fb9565b80601f0160208091040260200160405190810160405280929190818152602001828054610e3b90611fb9565b8015610e885780601f10610e5d57610100808354040283529160200191610e88565b820191906000526020600020905b815481529060010190602001808311610e6b57829003601f168201915b5050505050848481518110610ea057610e9f6122df565b5b60200260200101516000015161116e565b15610ee457610edf8482858581518110610ece57610ecd6122df565b5b602002602001015160400151611199565b610ef7565b8080610eef90612297565b915050610da3565b50611156565b60008084604051610f0e9190611f73565b90815260200160405180910390206003016000815480929190610f3090612297565b919050559050828281518110610f4957610f486122df565b5b602002602001015160000151600085604051610f659190611f73565b908152602001604051809103902060040160008381526020019081526020016000206000019081610f969190612196565b50828281518110610faa57610fa96122df565b5b60200260200101516040015151600085604051610fc79190611f73565b908152602001604051809103902060040160008381526020019081526020016000206001018190555060005b838381518110611006576110056122df565b5b602002602001015160400151518110156111535783838151811061102d5761102c6122df565b5b602002602001015160400151818151811061104b5761104a6122df565b5b6020026020010151600001516000866040516110679190611f73565b90815260200160405180910390206004016000848152602001908152602001600020600201600083815260200190815260200160002060000190816110ac9190612196565b508383815181106110c0576110bf6122df565b5b60200260200101516040015181815181106110de576110dd6122df565b5b6020026020010151602001516000866040516110fa9190611f73565b908152602001604051809103902060040160008481526020019081526020016000206002016000838152602001908152602001600020600101908161113f9190612196565b50808061114b90612297565b915050610ff3565b50505b808061116190612297565b915050610d73565b505050565b6000818051906020012083805190602001200361118e5760019050611193565b600090505b92915050565b60005b815181101561136c5760005b6000856040516111b89190611f73565b908152602001604051809103902060010154811015611358576112ca6000866040516111e49190611f73565b908152602001604051809103902060040160008681526020019081526020016000206002016000838152602001908152602001600020600001805461122890611fb9565b80601f016020809104026020016040519081016040528092919081815260200182805461125490611fb9565b80156112a15780601f10611276576101008083540402835291602001916112a1565b820191906000526020600020905b81548152906001019060200180831161128457829003601f168201915b50505050508484815181106112b9576112b86122df565b5b60200260200101516000015161116e565b15611345578282815181106112e2576112e16122df565b5b6020026020010151602001516000866040516112fe9190611f73565b90815260200160405180910390206004016000868152602001908152602001600020600201600083815260200190815260200160002060010190816113439190612196565b505b808061135090612297565b9150506111a8565b50808061136490612297565b91505061119c565b50505050565b60405180606001604052806060815260200160608152602001606081525090565b604051806040016040528060608152602001606081525090565b604051806040016040528060608152602001606081525090565b6000604051905090565b600080fd5b600080fd5b600080fd5b600080fd5b6000601f19601f8301169050919050565b7f4e487b7100000000000000000000000000000000000000000000000000000000600052604160045260246000fd5b61142e826113e5565b810181811067ffffffffffffffff8211171561144d5761144c6113f6565b5b80604052505050565b60006114606113c7565b905061146c8282611425565b919050565b600067ffffffffffffffff82111561148c5761148b6113f6565b5b611495826113e5565b9050602081019050919050565b82818337600083830152505050565b60006114c46114bf84611471565b611456565b9050828152602081018484840111156114e0576114df6113e0565b5b6114eb8482856114a2565b509392505050565b600082601f830112611508576115076113db565b5b81356115188482602086016114b1565b91505092915050565b600060208284031215611537576115366113d1565b5b600082013567ffffffffffffffff811115611555576115546113d6565b5b611561848285016114f3565b91505092915050565b600080600060608486031215611583576115826113d1565b5b600084013567ffffffffffffffff8111156115a1576115a06113d6565b5b6115ad868287016114f3565b935050602084013567ffffffffffffffff8111156115ce576115cd6113d6565b5b6115da868287016114f3565b925050604084013567ffffffffffffffff8111156115fb576115fa6113d6565b5b611607868287016114f3565b9150509250925092565b600081519050919050565b600082825260208201905092915050565b60005b8381101561164b578082015181840152602081019050611630565b8381111561165a576000848401525b50505050565b600061166b82611611565b611675818561161c565b935061168581856020860161162d565b61168e816113e5565b840191505092915050565b600081519050919050565b600082825260208201905092915050565b6000819050602082019050919050565b600060408301600083015184820360008601526116e28282611660565b915050602083015184820360208601526116fc8282611660565b9150508091505092915050565b600061171583836116c5565b905092915050565b6000602082019050919050565b600061173582611699565b61173f81856116a4565b935083602082028501611751856116b5565b8060005b8581101561178d578484038952815161176e8582611709565b94506117798361171d565b925060208a01995050600181019050611755565b50829750879550505050505092915050565b600081519050919050565b600082825260208201905092915050565b6000819050602082019050919050565b600060408301600083015184820360008601526117e88282611660565b91505060208301518482036020860152611802828261172a565b9150508091505092915050565b600061181b83836117cb565b905092915050565b6000602082019050919050565b600061183b8261179f565b61184581856117aa565b935083602082028501611857856117bb565b8060005b858110156118935784840389528151611874858261180f565b945061187f83611823565b925060208a0199505060018101905061185b565b50829750879550505050505092915050565b600060608301600083015184820360008601526118c28282611660565b915050602083015184820360208601526118dc828261172a565b915050604083015184820360408601526118f68282611830565b9150508091505092915050565b6000602082019050818103600083015261191d81846118a5565b905092915050565b6000819050919050565b61193881611925565b811461194357600080fd5b50565b6000813590506119558161192f565b92915050565b60008060008060808587031215611975576119746113d1565b5b600085013567ffffffffffffffff811115611993576119926113d6565b5b61199f878288016114f3565b94505060206119b087828801611946565b935050604085013567ffffffffffffffff8111156119d1576119d06113d6565b5b6119dd878288016114f3565b925050606085013567ffffffffffffffff8111156119fe576119fd6113d6565b5b611a0a878288016114f3565b91505092959194509250565b600067ffffffffffffffff821115611a3157611a306113f6565b5b602082029050602081019050919050565b600080fd5b600080fd5b600080fd5b600060408284031215611a6757611a66611a47565b5b611a716040611456565b9050600082013567ffffffffffffffff811115611a9157611a90611a4c565b5b611a9d848285016114f3565b600083015250602082013567ffffffffffffffff811115611ac157611ac0611a4c565b5b611acd848285016114f3565b60208301525092915050565b60008115159050919050565b611aee81611ad9565b8114611af957600080fd5b50565b600081359050611b0b81611ae5565b92915050565b600060408284031215611b2757611b26611a47565b5b611b316040611456565b9050600082013567ffffffffffffffff811115611b5157611b50611a4c565b5b611b5d84828501611a51565b6000830152506020611b7184828501611afc565b60208301525092915050565b6000611b90611b8b84611a16565b611456565b90508083825260208201905060208402830185811115611bb357611bb2611a42565b5b835b81811015611bfa57803567ffffffffffffffff811115611bd857611bd76113db565b5b808601611be58982611b11565b85526020850194505050602081019050611bb5565b5050509392505050565b600082601f830112611c1957611c186113db565b5b8135611c29848260208601611b7d565b91505092915050565b600067ffffffffffffffff821115611c4d57611c4c6113f6565b5b602082029050602081019050919050565b600067ffffffffffffffff821115611c7957611c786113f6565b5b602082029050602081019050919050565b6000611c9d611c9884611c5e565b611456565b90508083825260208201905060208402830185811115611cc057611cbf611a42565b5b835b81811015611d0757803567ffffffffffffffff811115611ce557611ce46113db565b5b808601611cf28982611a51565b85526020850194505050602081019050611cc2565b5050509392505050565b600082601f830112611d2657611d256113db565b5b8135611d36848260208601611c8a565b91505092915050565b600060608284031215611d5557611d54611a47565b5b611d5f6060611456565b9050600082013567ffffffffffffffff811115611d7f57611d7e611a4c565b5b611d8b848285016114f3565b6000830152506020611d9f84828501611afc565b602083015250604082013567ffffffffffffffff811115611dc357611dc2611a4c565b5b611dcf84828501611d11565b60408301525092915050565b6000611dee611de984611c32565b611456565b90508083825260208201905060208402830185811115611e1157611e10611a42565b5b835b81811015611e5857803567ffffffffffffffff811115611e3657611e356113db565b5b808601611e438982611d3f565b85526020850194505050602081019050611e13565b5050509392505050565b600082601f830112611e7757611e766113db565b5b8135611e87848260208601611ddb565b91505092915050565b600080600060608486031215611ea957611ea86113d1565b5b600084013567ffffffffffffffff811115611ec757611ec66113d6565b5b611ed3868287016114f3565b935050602084013567ffffffffffffffff811115611ef457611ef36113d6565b5b611f0086828701611c04565b925050604084013567ffffffffffffffff811115611f2157611f206113d6565b5b611f2d86828701611e62565b9150509250925092565b600081905092915050565b6000611f4d82611611565b611f578185611f37565b9350611f6781856020860161162d565b80840191505092915050565b6000611f7f8284611f42565b915081905092915050565b7f4e487b7100000000000000000000000000000000000000000000000000000000600052602260045260246000fd5b60006002820490506001821680611fd157607f821691505b602082108103611fe457611fe3611f8a565b5b50919050565b60008190508160005260206000209050919050565b60006020601f8301049050919050565b600082821b905092915050565b60006008830261204c7fffffffffffffffffffffffffffffffffffffffffffffffffffffffffffffffff8261200f565b612056868361200f565b95508019841693508086168417925050509392505050565b6000819050919050565b600061209361208e61208984611925565b61206e565b611925565b9050919050565b6000819050919050565b6120ad83612078565b6120c16120b98261209a565b84845461201c565b825550505050565b600090565b6120d66120c9565b6120e18184846120a4565b505050565b5b81811015612105576120fa6000826120ce565b6001810190506120e7565b5050565b601f82111561214a5761211b81611fea565b61212484611fff565b81016020851015612133578190505b61214761213f85611fff565b8301826120e6565b50505b505050565b600082821c905092915050565b600061216d6000198460080261214f565b1980831691505092915050565b6000612186838361215c565b9150826002028217905092915050565b61219f82611611565b67ffffffffffffffff8111156121b8576121b76113f6565b5b6121c28254611fb9565b6121cd828285612109565b600060209050601f83116001811461220057600084156121ee578287015190505b6121f8858261217a565b865550612260565b601f19841661220e86611fea565b60005b8281101561223657848901518255600182019150602085019450602081019050612211565b86831015612253578489015161224f601f89168261215c565b8355505b6001600288020188555050505b505050505050565b7f4e487b7100000000000000000000000000000000000000000000000000000000600052601160045260246000fd5b60006122a282611925565b91507fffffffffffffffffffffffffffffffffffffffffffffffffffffffffffffffff82036122d4576122d3612268565b5b600182019050919050565b7f4e487b7100000000000000000000000000000000000000000000000000000000600052603260045260246000fdfea26469706673582212207baa8120c9e50cfe5b70044681b4da492f2930c7e1dc16f8763b15e6433dad4264736f6c634300080f0033",
  "immutableReferences": {},
  "source": "pragma solidity >=0.8.9;\r\n\r\n//SPDX-License-Identifier: UNLICENSED\r\n\r\ncontract UserDataContract {\r\n\r\n    /* Attributes stored in UserData and Credential. */\r\n    struct Attribute {\r\n        string name;\r\n        string value;\r\n    }\r\n\r\n    /* Credential consisting of attributes and an organization name. */\r\n    struct Credential {\r\n        string organization;\r\n        uint attributeCount;\r\n        mapping (uint => Attribute) attributes;\r\n    }\r\n\r\n    /* UserData is where the bulk of user's data will be stored using Credential and Attribute. */\r\n    struct UserData {\r\n        string id;\r\n\r\n        uint attributeCount;\r\n        mapping (uint => Attribute) attributes;\r\n\r\n        uint credentialCount;\r\n        mapping (uint => Credential) credentials;\r\n    }\r\n\r\n    /* What will be returned in place of a Credential struct. */\r\n    struct CredentialResponse {\r\n        string organization;\r\n        Attribute[] attributes;\r\n    }\r\n\r\n    /* What will be returned in place of a UserData struct. */\r\n    struct UserDataResponse{\r\n        string id;\r\n        Attribute[] attributes;\r\n        CredentialResponse[] credentials;\r\n    }\r\n\r\n    /* Received in paramets to update attributes, this improves gas usage by knowing when to insert and when to update. */\r\n    struct AttributeUpdate {\r\n        Attribute attribute;\r\n        bool isUpdate;\r\n    }\r\n\r\n    /* Received in paramets to update credentials, this improves gas usage by knowing when to insert and when to update */\r\n    struct CredentialUpdate {\r\n        string organization;\r\n        bool isUpdate;\r\n        Attribute[] attributes;\r\n    }\r\n\r\n    /* All stored user's data can be accessed through the allUserData attribute. */\r\n    mapping (string => UserData) allUserData;\r\n\r\n    /* Create and return a new user's data. */\r\n    function createUser(string memory _id) public {\r\n        allUserData[_id].id = _id;\r\n        allUserData[_id].attributeCount = 0;\r\n        allUserData[_id].credentialCount = 0;\r\n    }\r\n\r\n    function updateAttribute(string memory _id, uint index, string memory name, string memory value) public {\r\n        allUserData[_id].attributes[index].name = name;\r\n        allUserData[_id].attributes[index].value = value;\r\n    }\r\n\r\n    function createAttribute(string memory _id, string memory name, string memory value) public {\r\n        uint index = allUserData[_id].attributeCount++;\r\n        allUserData[_id].attributes[index].name = name;\r\n        allUserData[_id].attributes[index].value = value;\r\n    }\r\n\r\n    /* Add and Update UserData by id. */\r\n    function updateUser(string memory _id, AttributeUpdate[] memory attributes, CredentialUpdate[] memory credentials) public {\r\n        \r\n        //add/update all new attributes\r\n        if (attributes.length > 0) updateAttributes(_id, attributes);\r\n\r\n        //add and update all new credentials\r\n        if (credentials.length > 0) updateCredentials(_id, credentials);\r\n\r\n    }\r\n\r\n    /* Updates the relevant attributes for the appropriate credentials. */\r\n    function updateCredentials(string memory _id, CredentialUpdate[] memory credentials) private {\r\n\r\n        for (uint i=0; i<credentials.length; i++) {\r\n\r\n            //update existing credentials\r\n            if (credentials[i].isUpdate) {\r\n\r\n                //find right credential by organization\r\n                for (uint k=0; k<allUserData[_id].credentialCount; k++) {\r\n                    if (stringCompare(allUserData[_id].credentials[k].organization, credentials[i].organization)) {\r\n                        //update credential's attributes\r\n                        updateCredentialAttributes(_id, k, credentials[i].attributes);\r\n                        break;\r\n                    }  \r\n                }\r\n\r\n                continue;\r\n            }\r\n\r\n            //insert new credentials\r\n            uint index = allUserData[_id].credentialCount++;\r\n            allUserData[_id].credentials[index].organization = credentials[i].organization;\r\n            allUserData[_id].credentials[index].attributeCount = credentials[i].attributes.length;\r\n\r\n            for (uint k=0; k<credentials[i].attributes.length; k++) {\r\n                allUserData[_id].credentials[index].attributes[k].name = credentials[i].attributes[k].name;\r\n                allUserData[_id].credentials[index].attributes[k].value = credentials[i].attributes[k].value;\r\n            }\r\n        }   \r\n\r\n    }\r\n\r\n    /* Updates relevant Attributes for specified credential and organization in storage. */\r\n    function updateCredentialAttributes(string memory _id, uint org, Attribute[] memory attributes) private {\r\n        \r\n        for (uint i=0; i<attributes.length; i++) {\r\n            for (uint k=0; k<allUserData[_id].attributeCount; k++) {\r\n                if (stringCompare(allUserData[_id].credentials[org].attributes[k].name, attributes[i].name)) {\r\n                    allUserData[_id].credentials[org].attributes[k].value = attributes[i].value;\r\n                }\r\n            }\r\n        }\r\n    }\r\n\r\n    /* Updates relevant Attribute values in storage. */\r\n    function updateAttributes(string memory _id, AttributeUpdate[] memory attributes) private {\r\n        \r\n        for (uint i=0; i<attributes.length; i++) {\r\n\r\n            //update existing attribute\r\n            if (attributes[i].isUpdate) {\r\n\r\n                for (uint k=0; k<allUserData[_id].attributeCount; k++) {\r\n                    if (stringCompare(allUserData[_id].attributes[k].name, attributes[i].attribute.name)) {\r\n                        allUserData[_id].attributes[k].value = attributes[i].attribute.value;\r\n                        break;\r\n                    }\r\n                }\r\n                continue;\r\n            }\r\n\r\n            //add new attribute\r\n            uint index = allUserData[_id].attributeCount;\r\n            allUserData[_id].attributeCount++;\r\n            allUserData[_id].attributes[index].name = attributes[i].attribute.name;\r\n            allUserData[_id].attributes[index].value = attributes[i].attribute.value;\r\n        }\r\n\r\n    }\r\n\r\n    /* Returns the enitre UserData for the specified id. */\r\n    function getUserData(string memory _id) public view returns (UserDataResponse memory) {\r\n        \r\n        //Create Attribute array\r\n        uint size = allUserData[_id].attributeCount;\r\n        Attribute[] memory attrs = new Attribute[](size);\r\n        \r\n        for (uint i=0; i<allUserData[_id].attributeCount; i++) {\r\n            attrs[i].name = allUserData[_id].attributes[i].name;\r\n            attrs[i].value = allUserData[_id].attributes[i].value;\r\n        }\r\n\r\n        //Create Attribute arrays for Credential arrays\r\n        size = allUserData[_id].credentialCount;\r\n        CredentialResponse[] memory creds = new CredentialResponse[](size);\r\n\r\n        for (uint i=0; i<allUserData[_id].credentialCount; i++) {\r\n\r\n            creds[i].organization = allUserData[_id].credentials[i].organization;\r\n            creds[i].attributes = new Attribute[](allUserData[_id].credentials[i].attributeCount);\r\n\r\n            for (uint k=0; k<allUserData[_id].credentials[i].attributeCount; k++) {\r\n                creds[i].attributes[k].name = allUserData[_id].credentials[i].attributes[k].name;\r\n                creds[i].attributes[k].value = allUserData[_id].credentials[i].attributes[k].value;\r\n            }\r\n        }\r\n\r\n        //Create UserDataResponse\r\n        return (UserDataResponse({\r\n            id: _id,\r\n            attributes: attrs,\r\n            credentials: creds\r\n        }));\r\n    }\r\n\r\n    /* Compares two strings to see if they're equal or not. */\r\n    function stringCompare(string memory a, string memory b) private pure returns (bool) {\r\n        if (keccak256(bytes(a)) == keccak256(bytes(b)))\r\n            return true;\r\n        return false;\r\n    }\r\n\r\n    /* Returns a set of desired Attributes. */\r\n    /*function getAttributes(string memory _id, string[] memory attributes) public view returns (Attribute[] memory) {\r\n\r\n    }*/\r\n\r\n    /* Returns a set of desired Credentials. */\r\n    //function getCredentials(string memory _id, string memory organization) public view returns (CredentialResponse memory) {\r\n\r\n    //}\r\n}",
  "sourcePath": "C:\\Users\\bbdnet2552\\Desktop\\University\\Capstone\\Repo\\Exploring-Self-Sovereign-Identity\\LocalBlockchain\\contracts\\UserDataContract.sol",
  "compiler": {
    "name": "solc",
    "version": "0.8.15+commit.e14f2714.Emscripten.clang"
  },
  "schemaVersion": "3.4.8",
  "updatedAt": "2022-07-27T11:03:21.983Z",
  "devdoc": {
    "kind": "dev",
    "methods": {},
    "version": 1
  },
  "userdoc": {
    "kind": "user",
    "methods": {},
    "version": 1
  }
}