{
  "contractName": "UserDataContract",
  "abi": [
    {
      "inputs": [],
      "stateMutability": "nonpayable",
      "type": "constructor"
    },
    {
      "inputs": [
        {
          "internalType": "string",
          "name": "_id",
          "type": "string"
        }
      ],
      "name": "createUser",
      "outputs": [],
      "stateMutability": "nonpayable",
      "type": "function"
    },
    {
      "inputs": [
        {
          "internalType": "string",
          "name": "_id",
          "type": "string"
        },
        {
          "internalType": "uint256",
          "name": "index",
          "type": "uint256"
        },
        {
          "internalType": "string",
          "name": "name",
          "type": "string"
        },
        {
          "internalType": "string",
          "name": "value",
          "type": "string"
        }
      ],
      "name": "updateAttribute",
      "outputs": [],
      "stateMutability": "nonpayable",
      "type": "function"
    },
    {
      "inputs": [],
      "name": "createAttribute",
      "outputs": [],
      "stateMutability": "nonpayable",
      "type": "function"
    },
    {
      "inputs": [
        {
          "components": [
            {
              "internalType": "string",
              "name": "id",
              "type": "string"
            },
            {
              "components": [
                {
                  "components": [
                    {
                      "internalType": "string",
                      "name": "name",
                      "type": "string"
                    },
                    {
                      "internalType": "string",
                      "name": "value",
                      "type": "string"
                    }
                  ],
                  "internalType": "struct UserDataContract.Attribute",
                  "name": "attribute",
                  "type": "tuple"
                },
                {
                  "internalType": "bool",
                  "name": "isUpdate",
                  "type": "bool"
                }
              ],
              "internalType": "struct UserDataContract.AttributeUpdate[]",
              "name": "attributes",
              "type": "tuple[]"
            },
            {
              "components": [
                {
                  "internalType": "string",
                  "name": "organization",
                  "type": "string"
                },
                {
                  "internalType": "bool",
                  "name": "isUpdate",
                  "type": "bool"
                },
                {
                  "components": [
                    {
                      "internalType": "string",
                      "name": "name",
                      "type": "string"
                    },
                    {
                      "internalType": "string",
                      "name": "value",
                      "type": "string"
                    }
                  ],
                  "internalType": "struct UserDataContract.Attribute[]",
                  "name": "attributes",
                  "type": "tuple[]"
                }
              ],
              "internalType": "struct UserDataContract.CredentialUpdate[]",
              "name": "credentials",
              "type": "tuple[]"
            }
          ],
          "internalType": "struct UserDataContract.Update",
          "name": "update",
          "type": "tuple"
        }
      ],
      "name": "updateUser",
      "outputs": [],
      "stateMutability": "nonpayable",
      "type": "function"
    },
    {
      "inputs": [
        {
          "internalType": "string",
          "name": "_id",
          "type": "string"
        }
      ],
      "name": "getUserData",
      "outputs": [
        {
          "components": [
            {
              "internalType": "string",
              "name": "id",
              "type": "string"
            },
            {
              "components": [
                {
                  "internalType": "string",
                  "name": "name",
                  "type": "string"
                },
                {
                  "internalType": "string",
                  "name": "value",
                  "type": "string"
                }
              ],
              "internalType": "struct UserDataContract.Attribute[]",
              "name": "attributes",
              "type": "tuple[]"
            },
            {
              "components": [
                {
                  "internalType": "string",
                  "name": "organization",
                  "type": "string"
                },
                {
                  "components": [
                    {
                      "internalType": "string",
                      "name": "name",
                      "type": "string"
                    },
                    {
                      "internalType": "string",
                      "name": "value",
                      "type": "string"
                    }
                  ],
                  "internalType": "struct UserDataContract.Attribute[]",
                  "name": "attributes",
                  "type": "tuple[]"
                }
              ],
              "internalType": "struct UserDataContract.CredentialResponse[]",
              "name": "credentials",
              "type": "tuple[]"
            }
          ],
          "internalType": "struct UserDataContract.UserDataResponse",
          "name": "",
          "type": "tuple"
        }
      ],
      "stateMutability": "view",
      "type": "function",
      "constant": true
    }
  ],
  "bytecode": "0x60806040523480156200001157600080fd5b506040518060400160405280600481526020017f6e616d6500000000000000000000000000000000000000000000000000000000815250600060405162000058906200018e565b9081526020016040518091039020600201600080815260200190815260200160002060000190816200008b91906200041f565b506040518060400160405280600581526020017f4a6f68616e0000000000000000000000000000000000000000000000000000008152506000604051620000d2906200018e565b9081526020016040518091039020600201600080815260200190815260200160002060010190816200010591906200041f565b506001600060405162000118906200018e565b90815260200160405180910390206001018190555062000506565b600081905092915050565b7f6161610000000000000000000000000000000000000000000000000000000000600082015250565b60006200017660038362000133565b915062000183826200013e565b600382019050919050565b60006200019b8262000167565b9150819050919050565b600081519050919050565b7f4e487b7100000000000000000000000000000000000000000000000000000000600052604160045260246000fd5b7f4e487b7100000000000000000000000000000000000000000000000000000000600052602260045260246000fd5b600060028204905060018216806200022757607f821691505b6020821081036200023d576200023c620001df565b5b50919050565b60008190508160005260206000209050919050565b60006020601f8301049050919050565b600082821b905092915050565b600060088302620002a77fffffffffffffffffffffffffffffffffffffffffffffffffffffffffffffffff8262000268565b620002b3868362000268565b95508019841693508086168417925050509392505050565b6000819050919050565b6000819050919050565b600062000300620002fa620002f484620002cb565b620002d5565b620002cb565b9050919050565b6000819050919050565b6200031c83620002df565b620003346200032b8262000307565b84845462000275565b825550505050565b600090565b6200034b6200033c565b6200035881848462000311565b505050565b5b8181101562000380576200037460008262000341565b6001810190506200035e565b5050565b601f821115620003cf57620003998162000243565b620003a48462000258565b81016020851015620003b4578190505b620003cc620003c38562000258565b8301826200035d565b50505b505050565b600082821c905092915050565b6000620003f460001984600802620003d4565b1980831691505092915050565b60006200040f8383620003e1565b9150826002028217905092915050565b6200042a82620001a5565b67ffffffffffffffff811115620004465762000445620001b0565b5b6200045282546200020e565b6200045f82828562000384565b600060209050601f83116001811462000497576000841562000482578287015190505b6200048e858262000401565b865550620004fe565b601f198416620004a78662000243565b60005b82811015620004d157848901518255600182019150602085019450602081019050620004aa565b86831015620004f15784890151620004ed601f891682620003e1565b8355505b6001600288020188555050505b505050505050565b61223880620005166000396000f3fe608060405234801561001057600080fd5b50600436106100575760003560e01c80634ea5b2861461005c578063507ffba51461007857806354ab240314610094578063c50b04b8146100c4578063d04287a8146100ce575b600080fd5b61007660048036038101906100719190611994565b6100ea565b005b610092600480360381019061008d91906119dd565b61012f565b005b6100ae60048036038101906100a991906119dd565b6101ad565b6040516100bb9190611d18565b60405180910390f35b6100cc610916565b005b6100e860048036038101906100e39190611d70565b610918565b005b6000816020015151111561010b5761010a816000015182602001516109a4565b5b6000816040015151111561012c5761012b81600001518260400151610cb1565b5b50565b806000826040516101409190611e67565b9081526020016040518091039020600001908161015d919061208a565b506000808260405161016f9190611e67565b908152602001604051809103902060010181905550600080826040516101959190611e67565b90815260200160405180910390206003018190555050565b6101b56112b3565b600080836040516101c69190611e67565b908152602001604051809103902060010154905060008167ffffffffffffffff8111156101f6576101f5611332565b5b60405190808252806020026020018201604052801561022f57816020015b61021c6112d4565b8152602001906001900390816102145790505b50905060005b6000856040516102459190611e67565b9081526020016040518091039020600101548110156104315760008560405161026e9190611e67565b90815260200160405180910390206002016000828152602001908152602001600020600001805461029e90611ead565b80601f01602080910402602001604051908101604052809291908181526020018280546102ca90611ead565b80156103175780601f106102ec57610100808354040283529160200191610317565b820191906000526020600020905b8154815290600101906020018083116102fa57829003601f168201915b505050505082828151811061032f5761032e61215c565b5b60200260200101516000018190525060008560405161034e9190611e67565b90815260200160405180910390206002016000828152602001908152602001600020600101805461037e90611ead565b80601f01602080910402602001604051908101604052809291908181526020018280546103aa90611ead565b80156103f75780601f106103cc576101008083540402835291602001916103f7565b820191906000526020600020905b8154815290600101906020018083116103da57829003601f168201915b505050505082828151811061040f5761040e61215c565b5b6020026020010151602001819052508080610429906121ba565b915050610235565b506000846040516104429190611e67565b908152602001604051809103902060030154915060008267ffffffffffffffff81111561047257610471611332565b5b6040519080825280602002602001820160405280156104ab57816020015b6104986112ee565b8152602001906001900390816104905790505b50905060005b6000866040516104c19190611e67565b9081526020016040518091039020600301548110156108f0576000866040516104ea9190611e67565b90815260200160405180910390206004016000828152602001908152602001600020600001805461051a90611ead565b80601f016020809104026020016040519081016040528092919081815260200182805461054690611ead565b80156105935780601f1061056857610100808354040283529160200191610593565b820191906000526020600020905b81548152906001019060200180831161057657829003601f168201915b50505050508282815181106105ab576105aa61215c565b5b6020026020010151600001819052506000866040516105ca9190611e67565b908152602001604051809103902060040160008281526020019081526020016000206001015467ffffffffffffffff81111561060957610608611332565b5b60405190808252806020026020018201604052801561064257816020015b61062f6112d4565b8152602001906001900390816106275790505b508282815181106106565761065561215c565b5b60200260200101516020018190525060005b6000876040516106789190611e67565b90815260200160405180910390206004016000838152602001908152602001600020600101548110156108dc576000876040516106b59190611e67565b90815260200160405180910390206004016000838152602001908152602001600020600201600082815260200190815260200160002060000180546106f990611ead565b80601f016020809104026020016040519081016040528092919081815260200182805461072590611ead565b80156107725780601f1061074757610100808354040283529160200191610772565b820191906000526020600020905b81548152906001019060200180831161075557829003601f168201915b505050505083838151811061078a5761078961215c565b5b60200260200101516020015182815181106107a8576107a761215c565b5b6020026020010151600001819052506000876040516107c79190611e67565b908152602001604051809103902060040160008381526020019081526020016000206002016000828152602001908152602001600020600101805461080b90611ead565b80601f016020809104026020016040519081016040528092919081815260200182805461083790611ead565b80156108845780601f1061085957610100808354040283529160200191610884565b820191906000526020600020905b81548152906001019060200180831161086757829003601f168201915b505050505083838151811061089c5761089b61215c565b5b60200260200101516020015182815181106108ba576108b961215c565b5b60200260200101516020018190525080806108d4906121ba565b915050610668565b5080806108e8906121ba565b9150506104b1565b506040518060600160405280868152602001838152602001828152509350505050919050565b565b816000856040516109299190611e67565b90815260200160405180910390206002016000858152602001908152602001600020600001908161095a919061208a565b508060008560405161096c9190611e67565b90815260200160405180910390206002016000858152602001908152602001600020600101908161099d919061208a565b5050505050565b60005b8151811015610cac578181815181106109c3576109c261215c565b5b60200260200101516020015115610b715760005b6000846040516109e79190611e67565b908152602001604051809103902060010154811015610b6b57610ae9600085604051610a139190611e67565b908152602001604051809103902060020160008381526020019081526020016000206000018054610a4390611ead565b80601f0160208091040260200160405190810160405280929190818152602001828054610a6f90611ead565b8015610abc5780601f10610a9157610100808354040283529160200191610abc565b820191906000526020600020905b815481529060010190602001808311610a9f57829003601f168201915b5050505050848481518110610ad457610ad361215c565b5b602002602001015160000151600001516110af565b15610b5857828281518110610b0157610b0061215c565b5b60200260200101516000015160200151600085604051610b219190611e67565b908152602001604051809103902060020160008381526020019081526020016000206001019081610b52919061208a565b50610b6b565b8080610b63906121ba565b9150506109d7565b50610c99565b60008084604051610b829190611e67565b9081526020016040518091039020600101549050600084604051610ba69190611e67565b90815260200160405180910390206001016000815480929190610bc8906121ba565b9190505550828281518110610be057610bdf61215c565b5b60200260200101516000015160000151600085604051610c009190611e67565b908152602001604051809103902060020160008381526020019081526020016000206000019081610c31919061208a565b50828281518110610c4557610c4461215c565b5b60200260200101516000015160200151600085604051610c659190611e67565b908152602001604051809103902060020160008381526020019081526020016000206001019081610c96919061208a565b50505b8080610ca4906121ba565b9150506109a7565b505050565b60005b81518110156110aa57818181518110610cd057610ccf61215c565b5b60200260200101516020015115610e3e5760005b600084604051610cf49190611e67565b908152602001604051809103902060030154811015610e3857610df2600085604051610d209190611e67565b908152602001604051809103902060040160008381526020019081526020016000206000018054610d5090611ead565b80601f0160208091040260200160405190810160405280929190818152602001828054610d7c90611ead565b8015610dc95780601f10610d9e57610100808354040283529160200191610dc9565b820191906000526020600020905b815481529060010190602001808311610dac57829003601f168201915b5050505050848481518110610de157610de061215c565b5b6020026020010151600001516110af565b15610e2557610e208482858581518110610e0f57610e0e61215c565b5b6020026020010151604001516110da565b610e38565b8080610e30906121ba565b915050610ce4565b50611097565b60008084604051610e4f9190611e67565b90815260200160405180910390206003016000815480929190610e71906121ba565b919050559050828281518110610e8a57610e8961215c565b5b602002602001015160000151600085604051610ea69190611e67565b908152602001604051809103902060040160008381526020019081526020016000206000019081610ed7919061208a565b50828281518110610eeb57610eea61215c565b5b60200260200101516040015151600085604051610f089190611e67565b908152602001604051809103902060040160008381526020019081526020016000206001018190555060005b838381518110610f4757610f4661215c565b5b6020026020010151604001515181101561109457838381518110610f6e57610f6d61215c565b5b6020026020010151604001518181518110610f8c57610f8b61215c565b5b602002602001015160000151600086604051610fa89190611e67565b9081526020016040518091039020600401600084815260200190815260200160002060020160008381526020019081526020016000206000019081610fed919061208a565b508383815181106110015761100061215c565b5b602002602001015160400151818151811061101f5761101e61215c565b5b60200260200101516020015160008660405161103b9190611e67565b9081526020016040518091039020600401600084815260200190815260200160002060020160008381526020019081526020016000206001019081611080919061208a565b50808061108c906121ba565b915050610f34565b50505b80806110a2906121ba565b915050610cb4565b505050565b600081805190602001208380519060200120036110cf57600190506110d4565b600090505b92915050565b60005b81518110156112ad5760005b6000856040516110f99190611e67565b9081526020016040518091039020600101548110156112995761120b6000866040516111259190611e67565b908152602001604051809103902060040160008681526020019081526020016000206002016000838152602001908152602001600020600001805461116990611ead565b80601f016020809104026020016040519081016040528092919081815260200182805461119590611ead565b80156111e25780601f106111b7576101008083540402835291602001916111e2565b820191906000526020600020905b8154815290600101906020018083116111c557829003601f168201915b50505050508484815181106111fa576111f961215c565b5b6020026020010151600001516110af565b15611286578282815181106112235761122261215c565b5b60200260200101516020015160008660405161123f9190611e67565b9081526020016040518091039020600401600086815260200190815260200160002060020160008381526020019081526020016000206001019081611284919061208a565b505b8080611291906121ba565b9150506110e9565b5080806112a5906121ba565b9150506110dd565b50505050565b60405180606001604052806060815260200160608152602001606081525090565b604051806040016040528060608152602001606081525090565b604051806040016040528060608152602001606081525090565b6000604051905090565b600080fd5b600080fd5b600080fd5b6000601f19601f8301169050919050565b7f4e487b7100000000000000000000000000000000000000000000000000000000600052604160045260246000fd5b61136a82611321565b810181811067ffffffffffffffff8211171561138957611388611332565b5b80604052505050565b600061139c611308565b90506113a88282611361565b919050565b600080fd5b600080fd5b600080fd5b600067ffffffffffffffff8211156113d7576113d6611332565b5b6113e082611321565b9050602081019050919050565b82818337600083830152505050565b600061140f61140a846113bc565b611392565b90508281526020810184848401111561142b5761142a6113b7565b5b6114368482856113ed565b509392505050565b600082601f830112611453576114526113b2565b5b81356114638482602086016113fc565b91505092915050565b600067ffffffffffffffff82111561148757611486611332565b5b602082029050602081019050919050565b600080fd5b6000604082840312156114b3576114b261131c565b5b6114bd6040611392565b9050600082013567ffffffffffffffff8111156114dd576114dc6113ad565b5b6114e98482850161143e565b600083015250602082013567ffffffffffffffff81111561150d5761150c6113ad565b5b6115198482850161143e565b60208301525092915050565b60008115159050919050565b61153a81611525565b811461154557600080fd5b50565b60008135905061155781611531565b92915050565b6000604082840312156115735761157261131c565b5b61157d6040611392565b9050600082013567ffffffffffffffff81111561159d5761159c6113ad565b5b6115a98482850161149d565b60008301525060206115bd84828501611548565b60208301525092915050565b60006115dc6115d78461146c565b611392565b905080838252602082019050602084028301858111156115ff576115fe611498565b5b835b8181101561164657803567ffffffffffffffff811115611624576116236113b2565b5b808601611631898261155d565b85526020850194505050602081019050611601565b5050509392505050565b600082601f830112611665576116646113b2565b5b81356116758482602086016115c9565b91505092915050565b600067ffffffffffffffff82111561169957611698611332565b5b602082029050602081019050919050565b600067ffffffffffffffff8211156116c5576116c4611332565b5b602082029050602081019050919050565b60006116e96116e4846116aa565b611392565b9050808382526020820190506020840283018581111561170c5761170b611498565b5b835b8181101561175357803567ffffffffffffffff811115611731576117306113b2565b5b80860161173e898261149d565b8552602085019450505060208101905061170e565b5050509392505050565b600082601f830112611772576117716113b2565b5b81356117828482602086016116d6565b91505092915050565b6000606082840312156117a1576117a061131c565b5b6117ab6060611392565b9050600082013567ffffffffffffffff8111156117cb576117ca6113ad565b5b6117d78482850161143e565b60008301525060206117eb84828501611548565b602083015250604082013567ffffffffffffffff81111561180f5761180e6113ad565b5b61181b8482850161175d565b60408301525092915050565b600061183a6118358461167e565b611392565b9050808382526020820190506020840283018581111561185d5761185c611498565b5b835b818110156118a457803567ffffffffffffffff811115611882576118816113b2565b5b80860161188f898261178b565b8552602085019450505060208101905061185f565b5050509392505050565b600082601f8301126118c3576118c26113b2565b5b81356118d3848260208601611827565b91505092915050565b6000606082840312156118f2576118f161131c565b5b6118fc6060611392565b9050600082013567ffffffffffffffff81111561191c5761191b6113ad565b5b6119288482850161143e565b600083015250602082013567ffffffffffffffff81111561194c5761194b6113ad565b5b61195884828501611650565b602083015250604082013567ffffffffffffffff81111561197c5761197b6113ad565b5b611988848285016118ae565b60408301525092915050565b6000602082840312156119aa576119a9611312565b5b600082013567ffffffffffffffff8111156119c8576119c7611317565b5b6119d4848285016118dc565b91505092915050565b6000602082840312156119f3576119f2611312565b5b600082013567ffffffffffffffff811115611a1157611a10611317565b5b611a1d8482850161143e565b91505092915050565b600081519050919050565b600082825260208201905092915050565b60005b83811015611a60578082015181840152602081019050611a45565b83811115611a6f576000848401525b50505050565b6000611a8082611a26565b611a8a8185611a31565b9350611a9a818560208601611a42565b611aa381611321565b840191505092915050565b600081519050919050565b600082825260208201905092915050565b6000819050602082019050919050565b60006040830160008301518482036000860152611af78282611a75565b91505060208301518482036020860152611b118282611a75565b9150508091505092915050565b6000611b2a8383611ada565b905092915050565b6000602082019050919050565b6000611b4a82611aae565b611b548185611ab9565b935083602082028501611b6685611aca565b8060005b85811015611ba25784840389528151611b838582611b1e565b9450611b8e83611b32565b925060208a01995050600181019050611b6a565b50829750879550505050505092915050565b600081519050919050565b600082825260208201905092915050565b6000819050602082019050919050565b60006040830160008301518482036000860152611bfd8282611a75565b91505060208301518482036020860152611c178282611b3f565b9150508091505092915050565b6000611c308383611be0565b905092915050565b6000602082019050919050565b6000611c5082611bb4565b611c5a8185611bbf565b935083602082028501611c6c85611bd0565b8060005b85811015611ca85784840389528151611c898582611c24565b9450611c9483611c38565b925060208a01995050600181019050611c70565b50829750879550505050505092915050565b60006060830160008301518482036000860152611cd78282611a75565b91505060208301518482036020860152611cf18282611b3f565b91505060408301518482036040860152611d0b8282611c45565b9150508091505092915050565b60006020820190508181036000830152611d328184611cba565b905092915050565b6000819050919050565b611d4d81611d3a565b8114611d5857600080fd5b50565b600081359050611d6a81611d44565b92915050565b60008060008060808587031215611d8a57611d89611312565b5b600085013567ffffffffffffffff811115611da857611da7611317565b5b611db48782880161143e565b9450506020611dc587828801611d5b565b935050604085013567ffffffffffffffff811115611de657611de5611317565b5b611df28782880161143e565b925050606085013567ffffffffffffffff811115611e1357611e12611317565b5b611e1f8782880161143e565b91505092959194509250565b600081905092915050565b6000611e4182611a26565b611e4b8185611e2b565b9350611e5b818560208601611a42565b80840191505092915050565b6000611e738284611e36565b915081905092915050565b7f4e487b7100000000000000000000000000000000000000000000000000000000600052602260045260246000fd5b60006002820490506001821680611ec557607f821691505b602082108103611ed857611ed7611e7e565b5b50919050565b60008190508160005260206000209050919050565b60006020601f8301049050919050565b600082821b905092915050565b600060088302611f407fffffffffffffffffffffffffffffffffffffffffffffffffffffffffffffffff82611f03565b611f4a8683611f03565b95508019841693508086168417925050509392505050565b6000819050919050565b6000611f87611f82611f7d84611d3a565b611f62565b611d3a565b9050919050565b6000819050919050565b611fa183611f6c565b611fb5611fad82611f8e565b848454611f10565b825550505050565b600090565b611fca611fbd565b611fd5818484611f98565b505050565b5b81811015611ff957611fee600082611fc2565b600181019050611fdb565b5050565b601f82111561203e5761200f81611ede565b61201884611ef3565b81016020851015612027578190505b61203b61203385611ef3565b830182611fda565b50505b505050565b600082821c905092915050565b600061206160001984600802612043565b1980831691505092915050565b600061207a8383612050565b9150826002028217905092915050565b61209382611a26565b67ffffffffffffffff8111156120ac576120ab611332565b5b6120b68254611ead565b6120c1828285611ffd565b600060209050601f8311600181146120f457600084156120e2578287015190505b6120ec858261206e565b865550612154565b601f19841661210286611ede565b60005b8281101561212a57848901518255600182019150602085019450602081019050612105565b868310156121475784890151612143601f891682612050565b8355505b6001600288020188555050505b505050505050565b7f4e487b7100000000000000000000000000000000000000000000000000000000600052603260045260246000fd5b7f4e487b7100000000000000000000000000000000000000000000000000000000600052601160045260246000fd5b60006121c582611d3a565b91507fffffffffffffffffffffffffffffffffffffffffffffffffffffffffffffffff82036121f7576121f661218b565b5b60018201905091905056fea2646970667358221220bf208c88944bccecccdaede5e90ded8c4949d0501060ab761db9ac8926ad211564736f6c634300080f0033",
  "immutableReferences": {},
  "source": "pragma solidity >=0.8.9;\r\n\r\n//SPDX-License-Identifier: UNLICENSED\r\n\r\ncontract UserDataContract {\r\n\r\n    /* Attributes stored in UserData and Credential. */\r\n    struct Attribute {\r\n        string name;\r\n        string value;\r\n    }\r\n\r\n    /* Credential consisting of attributes and an organization name. */\r\n    struct Credential {\r\n        string organization;\r\n        uint attributeCount;\r\n        mapping (uint => Attribute) attributes;\r\n    }\r\n\r\n    /* UserData is where the bulk of user's data will be stored using Credential and Attribute. */\r\n    struct UserData {\r\n        string id;\r\n\r\n        uint attributeCount;\r\n        mapping (uint => Attribute) attributes;\r\n\r\n        uint credentialCount;\r\n        mapping (uint => Credential) credentials;\r\n    }\r\n\r\n    /* What will be returned in place of a Credential struct. */\r\n    struct CredentialResponse {\r\n        string organization;\r\n        Attribute[] attributes;\r\n    }\r\n\r\n    /* What will be returned in place of a UserData struct. */\r\n    struct UserDataResponse{\r\n        string id;\r\n        Attribute[] attributes;\r\n        CredentialResponse[] credentials;\r\n    }\r\n\r\n    /* Received in paramets to update attributes, this improves gas usage by knowing when to insert and when to update. */\r\n    struct AttributeUpdate {\r\n        Attribute attribute;\r\n        bool isUpdate;\r\n    }\r\n\r\n    /* Received in paramets to update credentials, this improves gas usage by knowing when to insert and when to update */\r\n    struct CredentialUpdate {\r\n        string organization;\r\n        bool isUpdate;\r\n        Attribute[] attributes;\r\n    }\r\n\r\n    struct Update {\r\n        string id;\r\n        AttributeUpdate[] attributes;\r\n        CredentialUpdate[] credentials;\r\n    }\r\n\r\n    struct UpdateAttribute {\r\n        string id;\r\n        string name;\r\n        string value;\r\n    }\r\n\r\n    /* All stored user's data can be accessed through the allUserData attribute. */\r\n    mapping (string => UserData) allUserData;\r\n\r\n    constructor() {\r\n        allUserData[\"aaa\"].attributes[0].name = \"name\";\r\n        allUserData[\"aaa\"].attributes[0].value = \"Johan\";\r\n        allUserData[\"aaa\"].attributeCount= 1;\r\n    }\r\n\r\n    /* Create and return a new user's data. */\r\n    function createUser(string memory _id) public {\r\n        allUserData[_id].id = _id;\r\n        allUserData[_id].attributeCount = 0;\r\n        allUserData[_id].credentialCount = 0;\r\n    }\r\n\r\n    function updateAttribute(string memory _id, uint index, string memory name, string memory value) public {\r\n        allUserData[_id].attributes[index].name = name;\r\n        allUserData[_id].attributes[index].value = value;\r\n    }\r\n\r\n    function createAttribute(/*UpdateAttribute memory attribute*/) public {\r\n        //uint index = allUserData[attribute.id].attributeCount++;\r\n        //allUserData[attribute.id].attributes[index].name = attribute.name;\r\n        //allUserData[attribute.id].attributes[index].value = attribute.value;\r\n    }\r\n\r\n    /* Add and Update UserData by id. */\r\n    //function updateUser(string memory _id, AttributeUpdate[] memory attributes, CredentialUpdate[] memory credentials) public {\r\n    function updateUser(Update memory update) public {\r\n        \r\n        //add/update all new attributes\r\n        if (update.attributes.length > 0) updateAttributes(update.id, update.attributes);\r\n\r\n        //add and update all new credentials\r\n        if (update.credentials.length > 0) updateCredentials(update.id, update.credentials);\r\n\r\n    }\r\n\r\n    /* Updates the relevant attributes for the appropriate credentials. */\r\n    function updateCredentials(string memory _id, CredentialUpdate[] memory credentials) private {\r\n\r\n        for (uint i=0; i<credentials.length; i++) {\r\n\r\n            //update existing credentials\r\n            if (credentials[i].isUpdate) {\r\n\r\n                //find right credential by organization\r\n                for (uint k=0; k<allUserData[_id].credentialCount; k++) {\r\n                    if (stringCompare(allUserData[_id].credentials[k].organization, credentials[i].organization)) {\r\n                        //update credential's attributes\r\n                        updateCredentialAttributes(_id, k, credentials[i].attributes);\r\n                        break;\r\n                    }  \r\n                }\r\n\r\n                continue;\r\n            }\r\n\r\n            //insert new credentials\r\n            uint index = allUserData[_id].credentialCount++;\r\n            allUserData[_id].credentials[index].organization = credentials[i].organization;\r\n            allUserData[_id].credentials[index].attributeCount = credentials[i].attributes.length;\r\n\r\n            for (uint k=0; k<credentials[i].attributes.length; k++) {\r\n                allUserData[_id].credentials[index].attributes[k].name = credentials[i].attributes[k].name;\r\n                allUserData[_id].credentials[index].attributes[k].value = credentials[i].attributes[k].value;\r\n            }\r\n        }   \r\n\r\n    }\r\n\r\n    /* Updates relevant Attributes for specified credential and organization in storage. */\r\n    function updateCredentialAttributes(string memory _id, uint org, Attribute[] memory attributes) private {\r\n        \r\n        for (uint i=0; i<attributes.length; i++) {\r\n            for (uint k=0; k<allUserData[_id].attributeCount; k++) {\r\n                if (stringCompare(allUserData[_id].credentials[org].attributes[k].name, attributes[i].name)) {\r\n                    allUserData[_id].credentials[org].attributes[k].value = attributes[i].value;\r\n                }\r\n            }\r\n        }\r\n    }\r\n\r\n    /* Updates relevant Attribute values in storage. */\r\n    function updateAttributes(string memory _id, AttributeUpdate[] memory attributes) private {\r\n        \r\n        for (uint i=0; i<attributes.length; i++) {\r\n\r\n            //update existing attribute\r\n            if (attributes[i].isUpdate) {\r\n\r\n                for (uint k=0; k<allUserData[_id].attributeCount; k++) {\r\n                    if (stringCompare(allUserData[_id].attributes[k].name, attributes[i].attribute.name)) {\r\n                        allUserData[_id].attributes[k].value = attributes[i].attribute.value;\r\n                        break;\r\n                    }\r\n                }\r\n                continue;\r\n            }\r\n\r\n            //add new attribute\r\n            uint index = allUserData[_id].attributeCount;\r\n            allUserData[_id].attributeCount++;\r\n            allUserData[_id].attributes[index].name = attributes[i].attribute.name;\r\n            allUserData[_id].attributes[index].value = attributes[i].attribute.value;\r\n        }\r\n\r\n    }\r\n\r\n    /* Returns the enitre UserData for the specified id. */\r\n    function getUserData(string memory _id) public view returns (UserDataResponse memory) {\r\n        \r\n        //Create Attribute array\r\n        uint size = allUserData[_id].attributeCount;\r\n        Attribute[] memory attrs = new Attribute[](size);\r\n        \r\n        for (uint i=0; i<allUserData[_id].attributeCount; i++) {\r\n            attrs[i].name = allUserData[_id].attributes[i].name;\r\n            attrs[i].value = allUserData[_id].attributes[i].value;\r\n        }\r\n\r\n        //Create Attribute arrays for Credential arrays\r\n        size = allUserData[_id].credentialCount;\r\n        CredentialResponse[] memory creds = new CredentialResponse[](size);\r\n\r\n        for (uint i=0; i<allUserData[_id].credentialCount; i++) {\r\n\r\n            creds[i].organization = allUserData[_id].credentials[i].organization;\r\n            creds[i].attributes = new Attribute[](allUserData[_id].credentials[i].attributeCount);\r\n\r\n            for (uint k=0; k<allUserData[_id].credentials[i].attributeCount; k++) {\r\n                creds[i].attributes[k].name = allUserData[_id].credentials[i].attributes[k].name;\r\n                creds[i].attributes[k].value = allUserData[_id].credentials[i].attributes[k].value;\r\n            }\r\n        }\r\n\r\n        //Create UserDataResponse\r\n        return (UserDataResponse({\r\n            id: _id,\r\n            attributes: attrs,\r\n            credentials: creds\r\n        }));\r\n    }\r\n\r\n    /* Compares two strings to see if they're equal or not. */\r\n    function stringCompare(string memory a, string memory b) private pure returns (bool) {\r\n        if (keccak256(bytes(a)) == keccak256(bytes(b)))\r\n            return true;\r\n        return false;\r\n    }\r\n\r\n    /* Returns a set of desired Attributes. */\r\n    /*function getAttributes(string memory _id, string[] memory attributes) public view returns (Attribute[] memory) {\r\n\r\n    }*/\r\n\r\n    /* Returns a set of desired Credentials. */\r\n    //function getCredentials(string memory _id, string memory organization) public view returns (CredentialResponse memory) {\r\n\r\n    //}\r\n}",
  "sourcePath": "C:\\Users\\bbdnet2552\\Desktop\\University\\Capstone\\Repo\\Exploring-Self-Sovereign-Identity\\LocalBlockchain\\contracts\\UserDataContract.sol",
  "compiler": {
    "name": "solc",
    "version": "0.8.15+commit.e14f2714.Emscripten.clang"
  },
  "schemaVersion": "3.4.8",
  "updatedAt": "2022-07-27T18:58:27.964Z",
  "networkType": "ethereum",
  "devdoc": {
    "kind": "dev",
    "methods": {},
    "version": 1
  },
  "userdoc": {
    "kind": "user",
    "methods": {},
    "version": 1
  }
}