{
  "contractName": "UserDataContract",
  "abi": [
    {
      "inputs": [],
      "stateMutability": "nonpayable",
      "type": "constructor"
    },
    {
      "inputs": [
        {
          "internalType": "string",
          "name": "_id",
          "type": "string"
        }
      ],
      "name": "createUser",
      "outputs": [],
      "stateMutability": "nonpayable",
      "type": "function"
    },
    {
      "inputs": [
        {
          "internalType": "string",
          "name": "_id",
          "type": "string"
        },
        {
          "internalType": "uint256",
          "name": "index",
          "type": "uint256"
        },
        {
          "internalType": "string",
          "name": "name",
          "type": "string"
        },
        {
          "internalType": "string",
          "name": "value",
          "type": "string"
        }
      ],
      "name": "updateAttribute",
      "outputs": [],
      "stateMutability": "nonpayable",
      "type": "function"
    },
    {
      "inputs": [
        {
          "components": [
            {
              "internalType": "string",
              "name": "id",
              "type": "string"
            },
            {
              "internalType": "string",
              "name": "name",
              "type": "string"
            },
            {
              "internalType": "string",
              "name": "value",
              "type": "string"
            }
          ],
          "internalType": "struct UserDataContract.UpdateAttribute",
          "name": "attribute",
          "type": "tuple"
        }
      ],
      "name": "createAttribute",
      "outputs": [],
      "stateMutability": "nonpayable",
      "type": "function"
    },
    {
      "inputs": [
        {
          "components": [
            {
              "internalType": "string",
              "name": "id",
              "type": "string"
            },
            {
              "components": [
                {
                  "components": [
                    {
                      "internalType": "string",
                      "name": "name",
                      "type": "string"
                    },
                    {
                      "internalType": "string",
                      "name": "value",
                      "type": "string"
                    }
                  ],
                  "internalType": "struct UserDataContract.Attribute",
                  "name": "attribute",
                  "type": "tuple"
                },
                {
                  "internalType": "bool",
                  "name": "isUpdate",
                  "type": "bool"
                }
              ],
              "internalType": "struct UserDataContract.AttributeUpdate[]",
              "name": "attributes",
              "type": "tuple[]"
            },
            {
              "components": [
                {
                  "internalType": "string",
                  "name": "organization",
                  "type": "string"
                },
                {
                  "internalType": "bool",
                  "name": "isUpdate",
                  "type": "bool"
                },
                {
                  "components": [
                    {
                      "internalType": "string",
                      "name": "name",
                      "type": "string"
                    },
                    {
                      "internalType": "string",
                      "name": "value",
                      "type": "string"
                    }
                  ],
                  "internalType": "struct UserDataContract.Attribute[]",
                  "name": "attributes",
                  "type": "tuple[]"
                }
              ],
              "internalType": "struct UserDataContract.CredentialUpdate[]",
              "name": "credentials",
              "type": "tuple[]"
            }
          ],
          "internalType": "struct UserDataContract.Update",
          "name": "update",
          "type": "tuple"
        }
      ],
      "name": "updateUser",
      "outputs": [],
      "stateMutability": "nonpayable",
      "type": "function"
    },
    {
      "inputs": [
        {
          "internalType": "string",
          "name": "_id",
          "type": "string"
        }
      ],
      "name": "getUserData",
      "outputs": [
        {
          "components": [
            {
              "internalType": "string",
              "name": "id",
              "type": "string"
            },
            {
              "components": [
                {
                  "internalType": "string",
                  "name": "name",
                  "type": "string"
                },
                {
                  "internalType": "string",
                  "name": "value",
                  "type": "string"
                }
              ],
              "internalType": "struct UserDataContract.Attribute[]",
              "name": "attributes",
              "type": "tuple[]"
            },
            {
              "components": [
                {
                  "internalType": "string",
                  "name": "organization",
                  "type": "string"
                },
                {
                  "components": [
                    {
                      "internalType": "string",
                      "name": "name",
                      "type": "string"
                    },
                    {
                      "internalType": "string",
                      "name": "value",
                      "type": "string"
                    }
                  ],
                  "internalType": "struct UserDataContract.Attribute[]",
                  "name": "attributes",
                  "type": "tuple[]"
                }
              ],
              "internalType": "struct UserDataContract.CredentialResponse[]",
              "name": "credentials",
              "type": "tuple[]"
            }
          ],
          "internalType": "struct UserDataContract.UserDataResponse",
          "name": "",
          "type": "tuple"
        }
      ],
      "stateMutability": "view",
      "type": "function",
      "constant": true
    }
  ],
  "bytecode": "0x60806040523480156200001157600080fd5b506040518060400160405280600481526020017f6e616d6500000000000000000000000000000000000000000000000000000000815250600060405162000058906200018e565b9081526020016040518091039020600201600080815260200190815260200160002060000190816200008b91906200041f565b506040518060400160405280600581526020017f4a6f68616e0000000000000000000000000000000000000000000000000000008152506000604051620000d2906200018e565b9081526020016040518091039020600201600080815260200190815260200160002060010190816200010591906200041f565b506001600060405162000118906200018e565b90815260200160405180910390206001018190555062000506565b600081905092915050565b7f6161610000000000000000000000000000000000000000000000000000000000600082015250565b60006200017660038362000133565b915062000183826200013e565b600382019050919050565b60006200019b8262000167565b9150819050919050565b600081519050919050565b7f4e487b7100000000000000000000000000000000000000000000000000000000600052604160045260246000fd5b7f4e487b7100000000000000000000000000000000000000000000000000000000600052602260045260246000fd5b600060028204905060018216806200022757607f821691505b6020821081036200023d576200023c620001df565b5b50919050565b60008190508160005260206000209050919050565b60006020601f8301049050919050565b600082821b905092915050565b600060088302620002a77fffffffffffffffffffffffffffffffffffffffffffffffffffffffffffffffff8262000268565b620002b3868362000268565b95508019841693508086168417925050509392505050565b6000819050919050565b6000819050919050565b600062000300620002fa620002f484620002cb565b620002d5565b620002cb565b9050919050565b6000819050919050565b6200031c83620002df565b620003346200032b8262000307565b84845462000275565b825550505050565b600090565b6200034b6200033c565b6200035881848462000311565b505050565b5b8181101562000380576200037460008262000341565b6001810190506200035e565b5050565b601f821115620003cf57620003998162000243565b620003a48462000258565b81016020851015620003b4578190505b620003cc620003c38562000258565b8301826200035d565b50505b505050565b600082821c905092915050565b6000620003f460001984600802620003d4565b1980831691505092915050565b60006200040f8383620003e1565b9150826002028217905092915050565b6200042a82620001a5565b67ffffffffffffffff811115620004465762000445620001b0565b5b6200045282546200020e565b6200045f82828562000384565b600060209050601f83116001811462000497576000841562000482578287015190505b6200048e858262000401565b865550620004fe565b601f198416620004a78662000243565b60005b82811015620004d157848901518255600182019150602085019450602081019050620004aa565b86831015620004f15784890151620004ed601f891682620003e1565b8355505b6001600288020188555050505b505050505050565b61242080620005166000396000f3fe608060405234801561001057600080fd5b50600436106100575760003560e01c80634ea5b2861461005c578063507ffba51461007857806354ab2403146100945780636cea9ba2146100c4578063d04287a8146100e0575b600080fd5b61007660048036038101906100719190611a7b565b6100fc565b005b610092600480360381019061008d9190611ac4565b610141565b005b6100ae60048036038101906100a99190611ac4565b6101bf565b6040516100bb9190611dff565b60405180910390f35b6100de60048036038101906100d99190611ed9565b610928565b005b6100fa60048036038101906100f59190611f58565b6109ff565b005b6000816020015151111561011d5761011c81600001518260200151610a8b565b5b6000816040015151111561013e5761013d81600001518260400151610d98565b5b50565b80600082604051610152919061204f565b9081526020016040518091039020600001908161016f9190612272565b5060008082604051610181919061204f565b908152602001604051809103902060010181905550600080826040516101a7919061204f565b90815260200160405180910390206003018190555050565b6101c761139a565b600080836040516101d8919061204f565b908152602001604051809103902060010154905060008167ffffffffffffffff81111561020857610207611419565b5b60405190808252806020026020018201604052801561024157816020015b61022e6113bb565b8152602001906001900390816102265790505b50905060005b600085604051610257919061204f565b90815260200160405180910390206001015481101561044357600085604051610280919061204f565b9081526020016040518091039020600201600082815260200190815260200160002060000180546102b090612095565b80601f01602080910402602001604051908101604052809291908181526020018280546102dc90612095565b80156103295780601f106102fe57610100808354040283529160200191610329565b820191906000526020600020905b81548152906001019060200180831161030c57829003601f168201915b505050505082828151811061034157610340612344565b5b602002602001015160000181905250600085604051610360919061204f565b90815260200160405180910390206002016000828152602001908152602001600020600101805461039090612095565b80601f01602080910402602001604051908101604052809291908181526020018280546103bc90612095565b80156104095780601f106103de57610100808354040283529160200191610409565b820191906000526020600020905b8154815290600101906020018083116103ec57829003601f168201915b505050505082828151811061042157610420612344565b5b602002602001015160200181905250808061043b906123a2565b915050610247565b50600084604051610454919061204f565b908152602001604051809103902060030154915060008267ffffffffffffffff81111561048457610483611419565b5b6040519080825280602002602001820160405280156104bd57816020015b6104aa6113d5565b8152602001906001900390816104a25790505b50905060005b6000866040516104d3919061204f565b908152602001604051809103902060030154811015610902576000866040516104fc919061204f565b90815260200160405180910390206004016000828152602001908152602001600020600001805461052c90612095565b80601f016020809104026020016040519081016040528092919081815260200182805461055890612095565b80156105a55780601f1061057a576101008083540402835291602001916105a5565b820191906000526020600020905b81548152906001019060200180831161058857829003601f168201915b50505050508282815181106105bd576105bc612344565b5b6020026020010151600001819052506000866040516105dc919061204f565b908152602001604051809103902060040160008281526020019081526020016000206001015467ffffffffffffffff81111561061b5761061a611419565b5b60405190808252806020026020018201604052801561065457816020015b6106416113bb565b8152602001906001900390816106395790505b5082828151811061066857610667612344565b5b60200260200101516020018190525060005b60008760405161068a919061204f565b90815260200160405180910390206004016000838152602001908152602001600020600101548110156108ee576000876040516106c7919061204f565b908152602001604051809103902060040160008381526020019081526020016000206002016000828152602001908152602001600020600001805461070b90612095565b80601f016020809104026020016040519081016040528092919081815260200182805461073790612095565b80156107845780601f1061075957610100808354040283529160200191610784565b820191906000526020600020905b81548152906001019060200180831161076757829003601f168201915b505050505083838151811061079c5761079b612344565b5b60200260200101516020015182815181106107ba576107b9612344565b5b6020026020010151600001819052506000876040516107d9919061204f565b908152602001604051809103902060040160008381526020019081526020016000206002016000828152602001908152602001600020600101805461081d90612095565b80601f016020809104026020016040519081016040528092919081815260200182805461084990612095565b80156108965780601f1061086b57610100808354040283529160200191610896565b820191906000526020600020905b81548152906001019060200180831161087957829003601f168201915b50505050508383815181106108ae576108ad612344565b5b60200260200101516020015182815181106108cc576108cb612344565b5b60200260200101516020018190525080806108e6906123a2565b91505061067a565b5080806108fa906123a2565b9150506104c3565b506040518060600160405280868152602001838152602001828152509350505050919050565b600080826000015160405161093d919061204f565b9081526020016040518091039020600101600081548092919061095f906123a2565b91905055905081602001516000836000015160405161097e919061204f565b9081526020016040518091039020600201600083815260200190815260200160002060000190816109af9190612272565b508160400151600083600001516040516109c9919061204f565b9081526020016040518091039020600201600083815260200190815260200160002060010190816109fa9190612272565b505050565b81600085604051610a10919061204f565b908152602001604051809103902060020160008581526020019081526020016000206000019081610a419190612272565b5080600085604051610a53919061204f565b908152602001604051809103902060020160008581526020019081526020016000206001019081610a849190612272565b5050505050565b60005b8151811015610d9357818181518110610aaa57610aa9612344565b5b60200260200101516020015115610c585760005b600084604051610ace919061204f565b908152602001604051809103902060010154811015610c5257610bd0600085604051610afa919061204f565b908152602001604051809103902060020160008381526020019081526020016000206000018054610b2a90612095565b80601f0160208091040260200160405190810160405280929190818152602001828054610b5690612095565b8015610ba35780601f10610b7857610100808354040283529160200191610ba3565b820191906000526020600020905b815481529060010190602001808311610b8657829003601f168201915b5050505050848481518110610bbb57610bba612344565b5b60200260200101516000015160000151611196565b15610c3f57828281518110610be857610be7612344565b5b60200260200101516000015160200151600085604051610c08919061204f565b908152602001604051809103902060020160008381526020019081526020016000206001019081610c399190612272565b50610c52565b8080610c4a906123a2565b915050610abe565b50610d80565b60008084604051610c69919061204f565b9081526020016040518091039020600101549050600084604051610c8d919061204f565b90815260200160405180910390206001016000815480929190610caf906123a2565b9190505550828281518110610cc757610cc6612344565b5b60200260200101516000015160000151600085604051610ce7919061204f565b908152602001604051809103902060020160008381526020019081526020016000206000019081610d189190612272565b50828281518110610d2c57610d2b612344565b5b60200260200101516000015160200151600085604051610d4c919061204f565b908152602001604051809103902060020160008381526020019081526020016000206001019081610d7d9190612272565b50505b8080610d8b906123a2565b915050610a8e565b505050565b60005b815181101561119157818181518110610db757610db6612344565b5b60200260200101516020015115610f255760005b600084604051610ddb919061204f565b908152602001604051809103902060030154811015610f1f57610ed9600085604051610e07919061204f565b908152602001604051809103902060040160008381526020019081526020016000206000018054610e3790612095565b80601f0160208091040260200160405190810160405280929190818152602001828054610e6390612095565b8015610eb05780601f10610e8557610100808354040283529160200191610eb0565b820191906000526020600020905b815481529060010190602001808311610e9357829003601f168201915b5050505050848481518110610ec857610ec7612344565b5b602002602001015160000151611196565b15610f0c57610f078482858581518110610ef657610ef5612344565b5b6020026020010151604001516111c1565b610f1f565b8080610f17906123a2565b915050610dcb565b5061117e565b60008084604051610f36919061204f565b90815260200160405180910390206003016000815480929190610f58906123a2565b919050559050828281518110610f7157610f70612344565b5b602002602001015160000151600085604051610f8d919061204f565b908152602001604051809103902060040160008381526020019081526020016000206000019081610fbe9190612272565b50828281518110610fd257610fd1612344565b5b60200260200101516040015151600085604051610fef919061204f565b908152602001604051809103902060040160008381526020019081526020016000206001018190555060005b83838151811061102e5761102d612344565b5b6020026020010151604001515181101561117b5783838151811061105557611054612344565b5b602002602001015160400151818151811061107357611072612344565b5b60200260200101516000015160008660405161108f919061204f565b90815260200160405180910390206004016000848152602001908152602001600020600201600083815260200190815260200160002060000190816110d49190612272565b508383815181106110e8576110e7612344565b5b602002602001015160400151818151811061110657611105612344565b5b602002602001015160200151600086604051611122919061204f565b90815260200160405180910390206004016000848152602001908152602001600020600201600083815260200190815260200160002060010190816111679190612272565b508080611173906123a2565b91505061101b565b50505b8080611189906123a2565b915050610d9b565b505050565b600081805190602001208380519060200120036111b657600190506111bb565b600090505b92915050565b60005b81518110156113945760005b6000856040516111e0919061204f565b908152602001604051809103902060010154811015611380576112f260008660405161120c919061204f565b908152602001604051809103902060040160008681526020019081526020016000206002016000838152602001908152602001600020600001805461125090612095565b80601f016020809104026020016040519081016040528092919081815260200182805461127c90612095565b80156112c95780601f1061129e576101008083540402835291602001916112c9565b820191906000526020600020905b8154815290600101906020018083116112ac57829003601f168201915b50505050508484815181106112e1576112e0612344565b5b602002602001015160000151611196565b1561136d5782828151811061130a57611309612344565b5b602002602001015160200151600086604051611326919061204f565b908152602001604051809103902060040160008681526020019081526020016000206002016000838152602001908152602001600020600101908161136b9190612272565b505b8080611378906123a2565b9150506111d0565b50808061138c906123a2565b9150506111c4565b50505050565b60405180606001604052806060815260200160608152602001606081525090565b604051806040016040528060608152602001606081525090565b604051806040016040528060608152602001606081525090565b6000604051905090565b600080fd5b600080fd5b600080fd5b6000601f19601f8301169050919050565b7f4e487b7100000000000000000000000000000000000000000000000000000000600052604160045260246000fd5b61145182611408565b810181811067ffffffffffffffff821117156114705761146f611419565b5b80604052505050565b60006114836113ef565b905061148f8282611448565b919050565b600080fd5b600080fd5b600080fd5b600067ffffffffffffffff8211156114be576114bd611419565b5b6114c782611408565b9050602081019050919050565b82818337600083830152505050565b60006114f66114f1846114a3565b611479565b9050828152602081018484840111156115125761151161149e565b5b61151d8482856114d4565b509392505050565b600082601f83011261153a57611539611499565b5b813561154a8482602086016114e3565b91505092915050565b600067ffffffffffffffff82111561156e5761156d611419565b5b602082029050602081019050919050565b600080fd5b60006040828403121561159a57611599611403565b5b6115a46040611479565b9050600082013567ffffffffffffffff8111156115c4576115c3611494565b5b6115d084828501611525565b600083015250602082013567ffffffffffffffff8111156115f4576115f3611494565b5b61160084828501611525565b60208301525092915050565b60008115159050919050565b6116218161160c565b811461162c57600080fd5b50565b60008135905061163e81611618565b92915050565b60006040828403121561165a57611659611403565b5b6116646040611479565b9050600082013567ffffffffffffffff81111561168457611683611494565b5b61169084828501611584565b60008301525060206116a48482850161162f565b60208301525092915050565b60006116c36116be84611553565b611479565b905080838252602082019050602084028301858111156116e6576116e561157f565b5b835b8181101561172d57803567ffffffffffffffff81111561170b5761170a611499565b5b8086016117188982611644565b855260208501945050506020810190506116e8565b5050509392505050565b600082601f83011261174c5761174b611499565b5b813561175c8482602086016116b0565b91505092915050565b600067ffffffffffffffff8211156117805761177f611419565b5b602082029050602081019050919050565b600067ffffffffffffffff8211156117ac576117ab611419565b5b602082029050602081019050919050565b60006117d06117cb84611791565b611479565b905080838252602082019050602084028301858111156117f3576117f261157f565b5b835b8181101561183a57803567ffffffffffffffff81111561181857611817611499565b5b8086016118258982611584565b855260208501945050506020810190506117f5565b5050509392505050565b600082601f83011261185957611858611499565b5b81356118698482602086016117bd565b91505092915050565b60006060828403121561188857611887611403565b5b6118926060611479565b9050600082013567ffffffffffffffff8111156118b2576118b1611494565b5b6118be84828501611525565b60008301525060206118d28482850161162f565b602083015250604082013567ffffffffffffffff8111156118f6576118f5611494565b5b61190284828501611844565b60408301525092915050565b600061192161191c84611765565b611479565b905080838252602082019050602084028301858111156119445761194361157f565b5b835b8181101561198b57803567ffffffffffffffff81111561196957611968611499565b5b8086016119768982611872565b85526020850194505050602081019050611946565b5050509392505050565b600082601f8301126119aa576119a9611499565b5b81356119ba84826020860161190e565b91505092915050565b6000606082840312156119d9576119d8611403565b5b6119e36060611479565b9050600082013567ffffffffffffffff811115611a0357611a02611494565b5b611a0f84828501611525565b600083015250602082013567ffffffffffffffff811115611a3357611a32611494565b5b611a3f84828501611737565b602083015250604082013567ffffffffffffffff811115611a6357611a62611494565b5b611a6f84828501611995565b60408301525092915050565b600060208284031215611a9157611a906113f9565b5b600082013567ffffffffffffffff811115611aaf57611aae6113fe565b5b611abb848285016119c3565b91505092915050565b600060208284031215611ada57611ad96113f9565b5b600082013567ffffffffffffffff811115611af857611af76113fe565b5b611b0484828501611525565b91505092915050565b600081519050919050565b600082825260208201905092915050565b60005b83811015611b47578082015181840152602081019050611b2c565b83811115611b56576000848401525b50505050565b6000611b6782611b0d565b611b718185611b18565b9350611b81818560208601611b29565b611b8a81611408565b840191505092915050565b600081519050919050565b600082825260208201905092915050565b6000819050602082019050919050565b60006040830160008301518482036000860152611bde8282611b5c565b91505060208301518482036020860152611bf88282611b5c565b9150508091505092915050565b6000611c118383611bc1565b905092915050565b6000602082019050919050565b6000611c3182611b95565b611c3b8185611ba0565b935083602082028501611c4d85611bb1565b8060005b85811015611c895784840389528151611c6a8582611c05565b9450611c7583611c19565b925060208a01995050600181019050611c51565b50829750879550505050505092915050565b600081519050919050565b600082825260208201905092915050565b6000819050602082019050919050565b60006040830160008301518482036000860152611ce48282611b5c565b91505060208301518482036020860152611cfe8282611c26565b9150508091505092915050565b6000611d178383611cc7565b905092915050565b6000602082019050919050565b6000611d3782611c9b565b611d418185611ca6565b935083602082028501611d5385611cb7565b8060005b85811015611d8f5784840389528151611d708582611d0b565b9450611d7b83611d1f565b925060208a01995050600181019050611d57565b50829750879550505050505092915050565b60006060830160008301518482036000860152611dbe8282611b5c565b91505060208301518482036020860152611dd88282611c26565b91505060408301518482036040860152611df28282611d2c565b9150508091505092915050565b60006020820190508181036000830152611e198184611da1565b905092915050565b600060608284031215611e3757611e36611403565b5b611e416060611479565b9050600082013567ffffffffffffffff811115611e6157611e60611494565b5b611e6d84828501611525565b600083015250602082013567ffffffffffffffff811115611e9157611e90611494565b5b611e9d84828501611525565b602083015250604082013567ffffffffffffffff811115611ec157611ec0611494565b5b611ecd84828501611525565b60408301525092915050565b600060208284031215611eef57611eee6113f9565b5b600082013567ffffffffffffffff811115611f0d57611f0c6113fe565b5b611f1984828501611e21565b91505092915050565b6000819050919050565b611f3581611f22565b8114611f4057600080fd5b50565b600081359050611f5281611f2c565b92915050565b60008060008060808587031215611f7257611f716113f9565b5b600085013567ffffffffffffffff811115611f9057611f8f6113fe565b5b611f9c87828801611525565b9450506020611fad87828801611f43565b935050604085013567ffffffffffffffff811115611fce57611fcd6113fe565b5b611fda87828801611525565b925050606085013567ffffffffffffffff811115611ffb57611ffa6113fe565b5b61200787828801611525565b91505092959194509250565b600081905092915050565b600061202982611b0d565b6120338185612013565b9350612043818560208601611b29565b80840191505092915050565b600061205b828461201e565b915081905092915050565b7f4e487b7100000000000000000000000000000000000000000000000000000000600052602260045260246000fd5b600060028204905060018216806120ad57607f821691505b6020821081036120c0576120bf612066565b5b50919050565b60008190508160005260206000209050919050565b60006020601f8301049050919050565b600082821b905092915050565b6000600883026121287fffffffffffffffffffffffffffffffffffffffffffffffffffffffffffffffff826120eb565b61213286836120eb565b95508019841693508086168417925050509392505050565b6000819050919050565b600061216f61216a61216584611f22565b61214a565b611f22565b9050919050565b6000819050919050565b61218983612154565b61219d61219582612176565b8484546120f8565b825550505050565b600090565b6121b26121a5565b6121bd818484612180565b505050565b5b818110156121e1576121d66000826121aa565b6001810190506121c3565b5050565b601f821115612226576121f7816120c6565b612200846120db565b8101602085101561220f578190505b61222361221b856120db565b8301826121c2565b50505b505050565b600082821c905092915050565b60006122496000198460080261222b565b1980831691505092915050565b60006122628383612238565b9150826002028217905092915050565b61227b82611b0d565b67ffffffffffffffff81111561229457612293611419565b5b61229e8254612095565b6122a98282856121e5565b600060209050601f8311600181146122dc57600084156122ca578287015190505b6122d48582612256565b86555061233c565b601f1984166122ea866120c6565b60005b82811015612312578489015182556001820191506020850194506020810190506122ed565b8683101561232f578489015161232b601f891682612238565b8355505b6001600288020188555050505b505050505050565b7f4e487b7100000000000000000000000000000000000000000000000000000000600052603260045260246000fd5b7f4e487b7100000000000000000000000000000000000000000000000000000000600052601160045260246000fd5b60006123ad82611f22565b91507fffffffffffffffffffffffffffffffffffffffffffffffffffffffffffffffff82036123df576123de612373565b5b60018201905091905056fea2646970667358221220c3e1dc3fcd196ddb00e85df8343585a3c6b7dcf3f1093648bec33efff5f4ba2364736f6c634300080f0033",
  "immutableReferences": {},
  "source": "pragma solidity >=0.8.9;\r\n\r\n//SPDX-License-Identifier: UNLICENSED\r\n\r\ncontract UserDataContract {\r\n\r\n    /* Attributes stored in UserData and Credential. */\r\n    struct Attribute {\r\n        string name;\r\n        string value;\r\n    }\r\n\r\n    /* Credential consisting of attributes and an organization name. */\r\n    struct Credential {\r\n        string organization;\r\n        uint attributeCount;\r\n        mapping (uint => Attribute) attributes;\r\n    }\r\n\r\n    /* UserData is where the bulk of user's data will be stored using Credential and Attribute. */\r\n    struct UserData {\r\n        string id;\r\n\r\n        uint attributeCount;\r\n        mapping (uint => Attribute) attributes;\r\n\r\n        uint credentialCount;\r\n        mapping (uint => Credential) credentials;\r\n    }\r\n\r\n    /* What will be returned in place of a Credential struct. */\r\n    struct CredentialResponse {\r\n        string organization;\r\n        Attribute[] attributes;\r\n    }\r\n\r\n    /* What will be returned in place of a UserData struct. */\r\n    struct UserDataResponse{\r\n        string id;\r\n        Attribute[] attributes;\r\n        CredentialResponse[] credentials;\r\n    }\r\n\r\n    /* Received in paramets to update attributes, this improves gas usage by knowing when to insert and when to update. */\r\n    struct AttributeUpdate {\r\n        Attribute attribute;\r\n        bool isUpdate;\r\n    }\r\n\r\n    /* Received in paramets to update credentials, this improves gas usage by knowing when to insert and when to update */\r\n    struct CredentialUpdate {\r\n        string organization;\r\n        bool isUpdate;\r\n        Attribute[] attributes;\r\n    }\r\n\r\n    struct Update {\r\n        string id;\r\n        AttributeUpdate[] attributes;\r\n        CredentialUpdate[] credentials;\r\n    }\r\n\r\n    struct UpdateAttribute {\r\n        string id;\r\n        string name;\r\n        string value;\r\n    }\r\n\r\n    /* All stored user's data can be accessed through the allUserData attribute. */\r\n    mapping (string => UserData) allUserData;\r\n\r\n    constructor() {\r\n        allUserData[\"aaa\"].attributes[0].name = \"name\";\r\n        allUserData[\"aaa\"].attributes[0].value = \"Johan\";\r\n        allUserData[\"aaa\"].attributeCount= 1;\r\n    }\r\n\r\n    /* Create and return a new user's data. */\r\n    function createUser(string memory _id) public {\r\n        allUserData[_id].id = _id;\r\n        allUserData[_id].attributeCount = 0;\r\n        allUserData[_id].credentialCount = 0;\r\n    }\r\n\r\n    function updateAttribute(string memory _id, uint index, string memory name, string memory value) public {\r\n        allUserData[_id].attributes[index].name = name;\r\n        allUserData[_id].attributes[index].value = value;\r\n    }\r\n\r\n    function createAttribute(UpdateAttribute memory attribute) public {\r\n        uint index = allUserData[attribute.id].attributeCount++;\r\n        allUserData[attribute.id].attributes[index].name = attribute.name;\r\n        allUserData[attribute.id].attributes[index].value = attribute.value;\r\n    }\r\n\r\n    /* Add and Update UserData by id. */\r\n    //function updateUser(string memory _id, AttributeUpdate[] memory attributes, CredentialUpdate[] memory credentials) public {\r\n    function updateUser(Update memory update) public {\r\n        \r\n        //add/update all new attributes\r\n        if (update.attributes.length > 0) updateAttributes(update.id, update.attributes);\r\n\r\n        //add and update all new credentials\r\n        if (update.credentials.length > 0) updateCredentials(update.id, update.credentials);\r\n\r\n    }\r\n\r\n    /* Updates the relevant attributes for the appropriate credentials. */\r\n    function updateCredentials(string memory _id, CredentialUpdate[] memory credentials) private {\r\n\r\n        for (uint i=0; i<credentials.length; i++) {\r\n\r\n            //update existing credentials\r\n            if (credentials[i].isUpdate) {\r\n\r\n                //find right credential by organization\r\n                for (uint k=0; k<allUserData[_id].credentialCount; k++) {\r\n                    if (stringCompare(allUserData[_id].credentials[k].organization, credentials[i].organization)) {\r\n                        //update credential's attributes\r\n                        updateCredentialAttributes(_id, k, credentials[i].attributes);\r\n                        break;\r\n                    }  \r\n                }\r\n\r\n                continue;\r\n            }\r\n\r\n            //insert new credentials\r\n            uint index = allUserData[_id].credentialCount++;\r\n            allUserData[_id].credentials[index].organization = credentials[i].organization;\r\n            allUserData[_id].credentials[index].attributeCount = credentials[i].attributes.length;\r\n\r\n            for (uint k=0; k<credentials[i].attributes.length; k++) {\r\n                allUserData[_id].credentials[index].attributes[k].name = credentials[i].attributes[k].name;\r\n                allUserData[_id].credentials[index].attributes[k].value = credentials[i].attributes[k].value;\r\n            }\r\n        }   \r\n\r\n    }\r\n\r\n    /* Updates relevant Attributes for specified credential and organization in storage. */\r\n    function updateCredentialAttributes(string memory _id, uint org, Attribute[] memory attributes) private {\r\n        \r\n        for (uint i=0; i<attributes.length; i++) {\r\n            for (uint k=0; k<allUserData[_id].attributeCount; k++) {\r\n                if (stringCompare(allUserData[_id].credentials[org].attributes[k].name, attributes[i].name)) {\r\n                    allUserData[_id].credentials[org].attributes[k].value = attributes[i].value;\r\n                }\r\n            }\r\n        }\r\n    }\r\n\r\n    /* Updates relevant Attribute values in storage. */\r\n    function updateAttributes(string memory _id, AttributeUpdate[] memory attributes) private {\r\n        \r\n        for (uint i=0; i<attributes.length; i++) {\r\n\r\n            //update existing attribute\r\n            if (attributes[i].isUpdate) {\r\n\r\n                for (uint k=0; k<allUserData[_id].attributeCount; k++) {\r\n                    if (stringCompare(allUserData[_id].attributes[k].name, attributes[i].attribute.name)) {\r\n                        allUserData[_id].attributes[k].value = attributes[i].attribute.value;\r\n                        break;\r\n                    }\r\n                }\r\n                continue;\r\n            }\r\n\r\n            //add new attribute\r\n            uint index = allUserData[_id].attributeCount;\r\n            allUserData[_id].attributeCount++;\r\n            allUserData[_id].attributes[index].name = attributes[i].attribute.name;\r\n            allUserData[_id].attributes[index].value = attributes[i].attribute.value;\r\n        }\r\n\r\n    }\r\n\r\n    /* Returns the enitre UserData for the specified id. */\r\n    function getUserData(string memory _id) public view returns (UserDataResponse memory) {\r\n        \r\n        //Create Attribute array\r\n        uint size = allUserData[_id].attributeCount;\r\n        Attribute[] memory attrs = new Attribute[](size);\r\n        \r\n        for (uint i=0; i<allUserData[_id].attributeCount; i++) {\r\n            attrs[i].name = allUserData[_id].attributes[i].name;\r\n            attrs[i].value = allUserData[_id].attributes[i].value;\r\n        }\r\n\r\n        //Create Attribute arrays for Credential arrays\r\n        size = allUserData[_id].credentialCount;\r\n        CredentialResponse[] memory creds = new CredentialResponse[](size);\r\n\r\n        for (uint i=0; i<allUserData[_id].credentialCount; i++) {\r\n\r\n            creds[i].organization = allUserData[_id].credentials[i].organization;\r\n            creds[i].attributes = new Attribute[](allUserData[_id].credentials[i].attributeCount);\r\n\r\n            for (uint k=0; k<allUserData[_id].credentials[i].attributeCount; k++) {\r\n                creds[i].attributes[k].name = allUserData[_id].credentials[i].attributes[k].name;\r\n                creds[i].attributes[k].value = allUserData[_id].credentials[i].attributes[k].value;\r\n            }\r\n        }\r\n\r\n        //Create UserDataResponse\r\n        return (UserDataResponse({\r\n            id: _id,\r\n            attributes: attrs,\r\n            credentials: creds\r\n        }));\r\n    }\r\n\r\n    /* Compares two strings to see if they're equal or not. */\r\n    function stringCompare(string memory a, string memory b) private pure returns (bool) {\r\n        if (keccak256(bytes(a)) == keccak256(bytes(b)))\r\n            return true;\r\n        return false;\r\n    }\r\n\r\n    /* Returns a set of desired Attributes. */\r\n    /*function getAttributes(string memory _id, string[] memory attributes) public view returns (Attribute[] memory) {\r\n\r\n    }*/\r\n\r\n    /* Returns a set of desired Credentials. */\r\n    //function getCredentials(string memory _id, string memory organization) public view returns (CredentialResponse memory) {\r\n\r\n    //}\r\n}",
  "sourcePath": "C:\\Users\\bbdnet2552\\Desktop\\University\\Capstone\\Repo\\Exploring-Self-Sovereign-Identity\\LocalBlockchain\\contracts\\UserDataContract.sol",
  "compiler": {
    "name": "solc",
    "version": "0.8.15+commit.e14f2714.Emscripten.clang"
  },
  "schemaVersion": "3.4.8",
  "updatedAt": "2022-07-28T12:33:09.960Z",
  "networkType": "ethereum",
  "devdoc": {
    "kind": "dev",
    "methods": {},
    "version": 1
  },
  "userdoc": {
    "kind": "user",
    "methods": {},
    "version": 1
  }
}