{
  "contractName": "UserDataContract",
  "abi": [
    {
      "inputs": [],
      "stateMutability": "nonpayable",
      "type": "constructor"
    },
    {
      "inputs": [
        {
          "internalType": "string",
          "name": "_id",
          "type": "string"
        }
      ],
      "name": "createUser",
      "outputs": [],
      "stateMutability": "nonpayable",
      "type": "function"
    },
    {
      "inputs": [
        {
          "internalType": "string",
          "name": "_id",
          "type": "string"
        },
        {
          "internalType": "uint256",
          "name": "index",
          "type": "uint256"
        },
        {
          "internalType": "string",
          "name": "name",
          "type": "string"
        },
        {
          "internalType": "string",
          "name": "value",
          "type": "string"
        }
      ],
      "name": "updateAttribute",
      "outputs": [],
      "stateMutability": "nonpayable",
      "type": "function"
    },
    {
      "inputs": [
        {
          "components": [
            {
              "internalType": "string",
              "name": "id",
              "type": "string"
            },
            {
              "internalType": "string",
              "name": "name",
              "type": "string"
            },
            {
              "internalType": "string",
              "name": "value",
              "type": "string"
            }
          ],
          "internalType": "struct UserDataContract.UpdateAttribute",
          "name": "attribute",
          "type": "tuple"
        }
      ],
      "name": "createAttribute",
      "outputs": [],
      "stateMutability": "nonpayable",
      "type": "function"
    },
    {
      "inputs": [],
      "name": "createAttributeX",
      "outputs": [],
      "stateMutability": "nonpayable",
      "type": "function"
    },
    {
      "inputs": [],
      "name": "createAttributeY",
      "outputs": [],
      "stateMutability": "nonpayable",
      "type": "function"
    },
    {
      "inputs": [
        {
          "components": [
            {
              "internalType": "string",
              "name": "id",
              "type": "string"
            },
            {
              "components": [
                {
                  "components": [
                    {
                      "internalType": "string",
                      "name": "name",
                      "type": "string"
                    },
                    {
                      "internalType": "string",
                      "name": "value",
                      "type": "string"
                    }
                  ],
                  "internalType": "struct UserDataContract.Attribute",
                  "name": "attribute",
                  "type": "tuple"
                },
                {
                  "internalType": "bool",
                  "name": "isUpdate",
                  "type": "bool"
                }
              ],
              "internalType": "struct UserDataContract.AttributeUpdate[]",
              "name": "attributes",
              "type": "tuple[]"
            },
            {
              "components": [
                {
                  "internalType": "string",
                  "name": "organization",
                  "type": "string"
                },
                {
                  "internalType": "bool",
                  "name": "isUpdate",
                  "type": "bool"
                },
                {
                  "components": [
                    {
                      "internalType": "string",
                      "name": "name",
                      "type": "string"
                    },
                    {
                      "internalType": "string",
                      "name": "value",
                      "type": "string"
                    }
                  ],
                  "internalType": "struct UserDataContract.Attribute[]",
                  "name": "attributes",
                  "type": "tuple[]"
                }
              ],
              "internalType": "struct UserDataContract.CredentialUpdate[]",
              "name": "credentials",
              "type": "tuple[]"
            }
          ],
          "internalType": "struct UserDataContract.Update",
          "name": "update",
          "type": "tuple"
        }
      ],
      "name": "updateUser",
      "outputs": [],
      "stateMutability": "nonpayable",
      "type": "function"
    },
    {
      "inputs": [
        {
          "internalType": "string",
          "name": "_id",
          "type": "string"
        }
      ],
      "name": "getUserData",
      "outputs": [
        {
          "components": [
            {
              "internalType": "string",
              "name": "id",
              "type": "string"
            },
            {
              "components": [
                {
                  "internalType": "string",
                  "name": "name",
                  "type": "string"
                },
                {
                  "internalType": "string",
                  "name": "value",
                  "type": "string"
                }
              ],
              "internalType": "struct UserDataContract.Attribute[]",
              "name": "attributes",
              "type": "tuple[]"
            },
            {
              "components": [
                {
                  "internalType": "string",
                  "name": "organization",
                  "type": "string"
                },
                {
                  "components": [
                    {
                      "internalType": "string",
                      "name": "name",
                      "type": "string"
                    },
                    {
                      "internalType": "string",
                      "name": "value",
                      "type": "string"
                    }
                  ],
                  "internalType": "struct UserDataContract.Attribute[]",
                  "name": "attributes",
                  "type": "tuple[]"
                }
              ],
              "internalType": "struct UserDataContract.CredentialResponse[]",
              "name": "credentials",
              "type": "tuple[]"
            }
          ],
          "internalType": "struct UserDataContract.UserDataResponse",
          "name": "",
          "type": "tuple"
        }
      ],
      "stateMutability": "view",
      "type": "function",
      "constant": true
    }
  ],
  "bytecode": "0x60806040523480156200001157600080fd5b506040518060400160405280600481526020017f6e616d6500000000000000000000000000000000000000000000000000000000815250600060405162000058906200018e565b9081526020016040518091039020600201600080815260200190815260200160002060000190816200008b91906200041f565b506040518060400160405280600581526020017f4a6f68616e0000000000000000000000000000000000000000000000000000008152506000604051620000d2906200018e565b9081526020016040518091039020600201600080815260200190815260200160002060010190816200010591906200041f565b506001600060405162000118906200018e565b90815260200160405180910390206001018190555062000506565b600081905092915050565b7f6161610000000000000000000000000000000000000000000000000000000000600082015250565b60006200017660038362000133565b915062000183826200013e565b600382019050919050565b60006200019b8262000167565b9150819050919050565b600081519050919050565b7f4e487b7100000000000000000000000000000000000000000000000000000000600052604160045260246000fd5b7f4e487b7100000000000000000000000000000000000000000000000000000000600052602260045260246000fd5b600060028204905060018216806200022757607f821691505b6020821081036200023d576200023c620001df565b5b50919050565b60008190508160005260206000209050919050565b60006020601f8301049050919050565b600082821b905092915050565b600060088302620002a77fffffffffffffffffffffffffffffffffffffffffffffffffffffffffffffffff8262000268565b620002b3868362000268565b95508019841693508086168417925050509392505050565b6000819050919050565b6000819050919050565b600062000300620002fa620002f484620002cb565b620002d5565b620002cb565b9050919050565b6000819050919050565b6200031c83620002df565b620003346200032b8262000307565b84845462000275565b825550505050565b600090565b6200034b6200033c565b6200035881848462000311565b505050565b5b8181101562000380576200037460008262000341565b6001810190506200035e565b5050565b601f821115620003cf57620003998162000243565b620003a48462000258565b81016020851015620003b4578190505b620003cc620003c38562000258565b8301826200035d565b50505b505050565b600082821c905092915050565b6000620003f460001984600802620003d4565b1980831691505092915050565b60006200040f8383620003e1565b9150826002028217905092915050565b6200042a82620001a5565b67ffffffffffffffff811115620004465762000445620001b0565b5b6200045282546200020e565b6200045f82828562000384565b600060209050601f83116001811462000497576000841562000482578287015190505b6200048e858262000401565b865550620004fe565b601f198416620004a78662000243565b60005b82811015620004d157848901518255600182019150602085019450602081019050620004aa565b86831015620004f15784890151620004ed601f891682620003e1565b8355505b6001600288020188555050505b505050505050565b6125ab80620005166000396000f3fe608060405234801561001057600080fd5b506004361061007d5760003560e01c8063507ffba51161005b578063507ffba5146100b257806354ab2403146100ce5780636cea9ba2146100fe578063d04287a81461011a5761007d565b80631a38bd151461008257806322fea6731461008c5780634ea5b28614610096575b600080fd5b61008a610136565b005b610094610138565b005b6100b060048036038101906100ab9190611ba5565b610226565b005b6100cc60048036038101906100c79190611bee565b61026b565b005b6100e860048036038101906100e39190611bee565b6102e9565b6040516100f59190611f29565b60405180910390f35b61011860048036038101906101139190612003565b610a52565b005b610134600480360381019061012f9190612082565b610b29565b005b565b6040518060400160405280600881526020017f746573746e616d65000000000000000000000000000000000000000000000000815250600060405161017c90612194565b9081526020016040518091039020600201600080815260200190815260200160002060000190816101ad91906123b5565b506040518060400160405280600981526020017f7465737476616c7565000000000000000000000000000000000000000000000081525060006040516101f290612194565b90815260200160405180910390206002016000808152602001908152602001600020600101908161022391906123b5565b50565b600081602001515111156102475761024681600001518260200151610bb5565b5b600081604001515111156102685761026781600001518260400151610ec2565b5b50565b8060008260405161027c91906124b8565b9081526020016040518091039020600001908161029991906123b5565b50600080826040516102ab91906124b8565b908152602001604051809103902060010181905550600080826040516102d191906124b8565b90815260200160405180910390206003018190555050565b6102f16114c4565b6000808360405161030291906124b8565b908152602001604051809103902060010154905060008167ffffffffffffffff81111561033257610331611543565b5b60405190808252806020026020018201604052801561036b57816020015b6103586114e5565b8152602001906001900390816103505790505b50905060005b60008560405161038191906124b8565b90815260200160405180910390206001015481101561056d576000856040516103aa91906124b8565b9081526020016040518091039020600201600082815260200190815260200160002060000180546103da906121d8565b80601f0160208091040260200160405190810160405280929190818152602001828054610406906121d8565b80156104535780601f1061042857610100808354040283529160200191610453565b820191906000526020600020905b81548152906001019060200180831161043657829003601f168201915b505050505082828151811061046b5761046a6124cf565b5b60200260200101516000018190525060008560405161048a91906124b8565b9081526020016040518091039020600201600082815260200190815260200160002060010180546104ba906121d8565b80601f01602080910402602001604051908101604052809291908181526020018280546104e6906121d8565b80156105335780601f1061050857610100808354040283529160200191610533565b820191906000526020600020905b81548152906001019060200180831161051657829003601f168201915b505050505082828151811061054b5761054a6124cf565b5b60200260200101516020018190525080806105659061252d565b915050610371565b5060008460405161057e91906124b8565b908152602001604051809103902060030154915060008267ffffffffffffffff8111156105ae576105ad611543565b5b6040519080825280602002602001820160405280156105e757816020015b6105d46114ff565b8152602001906001900390816105cc5790505b50905060005b6000866040516105fd91906124b8565b908152602001604051809103902060030154811015610a2c5760008660405161062691906124b8565b908152602001604051809103902060040160008281526020019081526020016000206000018054610656906121d8565b80601f0160208091040260200160405190810160405280929190818152602001828054610682906121d8565b80156106cf5780601f106106a4576101008083540402835291602001916106cf565b820191906000526020600020905b8154815290600101906020018083116106b257829003601f168201915b50505050508282815181106106e7576106e66124cf565b5b60200260200101516000018190525060008660405161070691906124b8565b908152602001604051809103902060040160008281526020019081526020016000206001015467ffffffffffffffff81111561074557610744611543565b5b60405190808252806020026020018201604052801561077e57816020015b61076b6114e5565b8152602001906001900390816107635790505b50828281518110610792576107916124cf565b5b60200260200101516020018190525060005b6000876040516107b491906124b8565b9081526020016040518091039020600401600083815260200190815260200160002060010154811015610a18576000876040516107f191906124b8565b9081526020016040518091039020600401600083815260200190815260200160002060020160008281526020019081526020016000206000018054610835906121d8565b80601f0160208091040260200160405190810160405280929190818152602001828054610861906121d8565b80156108ae5780601f10610883576101008083540402835291602001916108ae565b820191906000526020600020905b81548152906001019060200180831161089157829003601f168201915b50505050508383815181106108c6576108c56124cf565b5b60200260200101516020015182815181106108e4576108e36124cf565b5b60200260200101516000018190525060008760405161090391906124b8565b9081526020016040518091039020600401600083815260200190815260200160002060020160008281526020019081526020016000206001018054610947906121d8565b80601f0160208091040260200160405190810160405280929190818152602001828054610973906121d8565b80156109c05780601f10610995576101008083540402835291602001916109c0565b820191906000526020600020905b8154815290600101906020018083116109a357829003601f168201915b50505050508383815181106109d8576109d76124cf565b5b60200260200101516020015182815181106109f6576109f56124cf565b5b6020026020010151602001819052508080610a109061252d565b9150506107a4565b508080610a249061252d565b9150506105ed565b506040518060600160405280868152602001838152602001828152509350505050919050565b6000808260000151604051610a6791906124b8565b90815260200160405180910390206001016000815480929190610a899061252d565b919050559050816020015160008360000151604051610aa891906124b8565b908152602001604051809103902060020160008381526020019081526020016000206000019081610ad991906123b5565b50816040015160008360000151604051610af391906124b8565b908152602001604051809103902060020160008381526020019081526020016000206001019081610b2491906123b5565b505050565b81600085604051610b3a91906124b8565b908152602001604051809103902060020160008581526020019081526020016000206000019081610b6b91906123b5565b5080600085604051610b7d91906124b8565b908152602001604051809103902060020160008581526020019081526020016000206001019081610bae91906123b5565b5050505050565b60005b8151811015610ebd57818181518110610bd457610bd36124cf565b5b60200260200101516020015115610d825760005b600084604051610bf891906124b8565b908152602001604051809103902060010154811015610d7c57610cfa600085604051610c2491906124b8565b908152602001604051809103902060020160008381526020019081526020016000206000018054610c54906121d8565b80601f0160208091040260200160405190810160405280929190818152602001828054610c80906121d8565b8015610ccd5780601f10610ca257610100808354040283529160200191610ccd565b820191906000526020600020905b815481529060010190602001808311610cb057829003601f168201915b5050505050848481518110610ce557610ce46124cf565b5b602002602001015160000151600001516112c0565b15610d6957828281518110610d1257610d116124cf565b5b60200260200101516000015160200151600085604051610d3291906124b8565b908152602001604051809103902060020160008381526020019081526020016000206001019081610d6391906123b5565b50610d7c565b8080610d749061252d565b915050610be8565b50610eaa565b60008084604051610d9391906124b8565b9081526020016040518091039020600101549050600084604051610db791906124b8565b90815260200160405180910390206001016000815480929190610dd99061252d565b9190505550828281518110610df157610df06124cf565b5b60200260200101516000015160000151600085604051610e1191906124b8565b908152602001604051809103902060020160008381526020019081526020016000206000019081610e4291906123b5565b50828281518110610e5657610e556124cf565b5b60200260200101516000015160200151600085604051610e7691906124b8565b908152602001604051809103902060020160008381526020019081526020016000206001019081610ea791906123b5565b50505b8080610eb59061252d565b915050610bb8565b505050565b60005b81518110156112bb57818181518110610ee157610ee06124cf565b5b6020026020010151602001511561104f5760005b600084604051610f0591906124b8565b90815260200160405180910390206003015481101561104957611003600085604051610f3191906124b8565b908152602001604051809103902060040160008381526020019081526020016000206000018054610f61906121d8565b80601f0160208091040260200160405190810160405280929190818152602001828054610f8d906121d8565b8015610fda5780601f10610faf57610100808354040283529160200191610fda565b820191906000526020600020905b815481529060010190602001808311610fbd57829003601f168201915b5050505050848481518110610ff257610ff16124cf565b5b6020026020010151600001516112c0565b156110365761103184828585815181106110205761101f6124cf565b5b6020026020010151604001516112eb565b611049565b80806110419061252d565b915050610ef5565b506112a8565b6000808460405161106091906124b8565b908152602001604051809103902060030160008154809291906110829061252d565b91905055905082828151811061109b5761109a6124cf565b5b6020026020010151600001516000856040516110b791906124b8565b9081526020016040518091039020600401600083815260200190815260200160002060000190816110e891906123b5565b508282815181106110fc576110fb6124cf565b5b6020026020010151604001515160008560405161111991906124b8565b908152602001604051809103902060040160008381526020019081526020016000206001018190555060005b838381518110611158576111576124cf565b5b602002602001015160400151518110156112a55783838151811061117f5761117e6124cf565b5b602002602001015160400151818151811061119d5761119c6124cf565b5b6020026020010151600001516000866040516111b991906124b8565b90815260200160405180910390206004016000848152602001908152602001600020600201600083815260200190815260200160002060000190816111fe91906123b5565b50838381518110611212576112116124cf565b5b60200260200101516040015181815181106112305761122f6124cf565b5b60200260200101516020015160008660405161124c91906124b8565b908152602001604051809103902060040160008481526020019081526020016000206002016000838152602001908152602001600020600101908161129191906123b5565b50808061129d9061252d565b915050611145565b50505b80806112b39061252d565b915050610ec5565b505050565b600081805190602001208380519060200120036112e057600190506112e5565b600090505b92915050565b60005b81518110156114be5760005b60008560405161130a91906124b8565b9081526020016040518091039020600101548110156114aa5761141c60008660405161133691906124b8565b908152602001604051809103902060040160008681526020019081526020016000206002016000838152602001908152602001600020600001805461137a906121d8565b80601f01602080910402602001604051908101604052809291908181526020018280546113a6906121d8565b80156113f35780601f106113c8576101008083540402835291602001916113f3565b820191906000526020600020905b8154815290600101906020018083116113d657829003601f168201915b505050505084848151811061140b5761140a6124cf565b5b6020026020010151600001516112c0565b1561149757828281518110611434576114336124cf565b5b60200260200101516020015160008660405161145091906124b8565b908152602001604051809103902060040160008681526020019081526020016000206002016000838152602001908152602001600020600101908161149591906123b5565b505b80806114a29061252d565b9150506112fa565b5080806114b69061252d565b9150506112ee565b50505050565b60405180606001604052806060815260200160608152602001606081525090565b604051806040016040528060608152602001606081525090565b604051806040016040528060608152602001606081525090565b6000604051905090565b600080fd5b600080fd5b600080fd5b6000601f19601f8301169050919050565b7f4e487b7100000000000000000000000000000000000000000000000000000000600052604160045260246000fd5b61157b82611532565b810181811067ffffffffffffffff8211171561159a57611599611543565b5b80604052505050565b60006115ad611519565b90506115b98282611572565b919050565b600080fd5b600080fd5b600080fd5b600067ffffffffffffffff8211156115e8576115e7611543565b5b6115f182611532565b9050602081019050919050565b82818337600083830152505050565b600061162061161b846115cd565b6115a3565b90508281526020810184848401111561163c5761163b6115c8565b5b6116478482856115fe565b509392505050565b600082601f830112611664576116636115c3565b5b813561167484826020860161160d565b91505092915050565b600067ffffffffffffffff82111561169857611697611543565b5b602082029050602081019050919050565b600080fd5b6000604082840312156116c4576116c361152d565b5b6116ce60406115a3565b9050600082013567ffffffffffffffff8111156116ee576116ed6115be565b5b6116fa8482850161164f565b600083015250602082013567ffffffffffffffff81111561171e5761171d6115be565b5b61172a8482850161164f565b60208301525092915050565b60008115159050919050565b61174b81611736565b811461175657600080fd5b50565b60008135905061176881611742565b92915050565b6000604082840312156117845761178361152d565b5b61178e60406115a3565b9050600082013567ffffffffffffffff8111156117ae576117ad6115be565b5b6117ba848285016116ae565b60008301525060206117ce84828501611759565b60208301525092915050565b60006117ed6117e88461167d565b6115a3565b905080838252602082019050602084028301858111156118105761180f6116a9565b5b835b8181101561185757803567ffffffffffffffff811115611835576118346115c3565b5b808601611842898261176e565b85526020850194505050602081019050611812565b5050509392505050565b600082601f830112611876576118756115c3565b5b81356118868482602086016117da565b91505092915050565b600067ffffffffffffffff8211156118aa576118a9611543565b5b602082029050602081019050919050565b600067ffffffffffffffff8211156118d6576118d5611543565b5b602082029050602081019050919050565b60006118fa6118f5846118bb565b6115a3565b9050808382526020820190506020840283018581111561191d5761191c6116a9565b5b835b8181101561196457803567ffffffffffffffff811115611942576119416115c3565b5b80860161194f89826116ae565b8552602085019450505060208101905061191f565b5050509392505050565b600082601f830112611983576119826115c3565b5b81356119938482602086016118e7565b91505092915050565b6000606082840312156119b2576119b161152d565b5b6119bc60606115a3565b9050600082013567ffffffffffffffff8111156119dc576119db6115be565b5b6119e88482850161164f565b60008301525060206119fc84828501611759565b602083015250604082013567ffffffffffffffff811115611a2057611a1f6115be565b5b611a2c8482850161196e565b60408301525092915050565b6000611a4b611a468461188f565b6115a3565b90508083825260208201905060208402830185811115611a6e57611a6d6116a9565b5b835b81811015611ab557803567ffffffffffffffff811115611a9357611a926115c3565b5b808601611aa0898261199c565b85526020850194505050602081019050611a70565b5050509392505050565b600082601f830112611ad457611ad36115c3565b5b8135611ae4848260208601611a38565b91505092915050565b600060608284031215611b0357611b0261152d565b5b611b0d60606115a3565b9050600082013567ffffffffffffffff811115611b2d57611b2c6115be565b5b611b398482850161164f565b600083015250602082013567ffffffffffffffff811115611b5d57611b5c6115be565b5b611b6984828501611861565b602083015250604082013567ffffffffffffffff811115611b8d57611b8c6115be565b5b611b9984828501611abf565b60408301525092915050565b600060208284031215611bbb57611bba611523565b5b600082013567ffffffffffffffff811115611bd957611bd8611528565b5b611be584828501611aed565b91505092915050565b600060208284031215611c0457611c03611523565b5b600082013567ffffffffffffffff811115611c2257611c21611528565b5b611c2e8482850161164f565b91505092915050565b600081519050919050565b600082825260208201905092915050565b60005b83811015611c71578082015181840152602081019050611c56565b83811115611c80576000848401525b50505050565b6000611c9182611c37565b611c9b8185611c42565b9350611cab818560208601611c53565b611cb481611532565b840191505092915050565b600081519050919050565b600082825260208201905092915050565b6000819050602082019050919050565b60006040830160008301518482036000860152611d088282611c86565b91505060208301518482036020860152611d228282611c86565b9150508091505092915050565b6000611d3b8383611ceb565b905092915050565b6000602082019050919050565b6000611d5b82611cbf565b611d658185611cca565b935083602082028501611d7785611cdb565b8060005b85811015611db35784840389528151611d948582611d2f565b9450611d9f83611d43565b925060208a01995050600181019050611d7b565b50829750879550505050505092915050565b600081519050919050565b600082825260208201905092915050565b6000819050602082019050919050565b60006040830160008301518482036000860152611e0e8282611c86565b91505060208301518482036020860152611e288282611d50565b9150508091505092915050565b6000611e418383611df1565b905092915050565b6000602082019050919050565b6000611e6182611dc5565b611e6b8185611dd0565b935083602082028501611e7d85611de1565b8060005b85811015611eb95784840389528151611e9a8582611e35565b9450611ea583611e49565b925060208a01995050600181019050611e81565b50829750879550505050505092915050565b60006060830160008301518482036000860152611ee88282611c86565b91505060208301518482036020860152611f028282611d50565b91505060408301518482036040860152611f1c8282611e56565b9150508091505092915050565b60006020820190508181036000830152611f438184611ecb565b905092915050565b600060608284031215611f6157611f6061152d565b5b611f6b60606115a3565b9050600082013567ffffffffffffffff811115611f8b57611f8a6115be565b5b611f978482850161164f565b600083015250602082013567ffffffffffffffff811115611fbb57611fba6115be565b5b611fc78482850161164f565b602083015250604082013567ffffffffffffffff811115611feb57611fea6115be565b5b611ff78482850161164f565b60408301525092915050565b60006020828403121561201957612018611523565b5b600082013567ffffffffffffffff81111561203757612036611528565b5b61204384828501611f4b565b91505092915050565b6000819050919050565b61205f8161204c565b811461206a57600080fd5b50565b60008135905061207c81612056565b92915050565b6000806000806080858703121561209c5761209b611523565b5b600085013567ffffffffffffffff8111156120ba576120b9611528565b5b6120c68782880161164f565b94505060206120d78782880161206d565b935050604085013567ffffffffffffffff8111156120f8576120f7611528565b5b6121048782880161164f565b925050606085013567ffffffffffffffff81111561212557612124611528565b5b6121318782880161164f565b91505092959194509250565b600081905092915050565b7f7465737400000000000000000000000000000000000000000000000000000000600082015250565b600061217e60048361213d565b915061218982612148565b600482019050919050565b600061219f82612171565b9150819050919050565b7f4e487b7100000000000000000000000000000000000000000000000000000000600052602260045260246000fd5b600060028204905060018216806121f057607f821691505b602082108103612203576122026121a9565b5b50919050565b60008190508160005260206000209050919050565b60006020601f8301049050919050565b600082821b905092915050565b60006008830261226b7fffffffffffffffffffffffffffffffffffffffffffffffffffffffffffffffff8261222e565b612275868361222e565b95508019841693508086168417925050509392505050565b6000819050919050565b60006122b26122ad6122a88461204c565b61228d565b61204c565b9050919050565b6000819050919050565b6122cc83612297565b6122e06122d8826122b9565b84845461223b565b825550505050565b600090565b6122f56122e8565b6123008184846122c3565b505050565b5b81811015612324576123196000826122ed565b600181019050612306565b5050565b601f8211156123695761233a81612209565b6123438461221e565b81016020851015612352578190505b61236661235e8561221e565b830182612305565b50505b505050565b600082821c905092915050565b600061238c6000198460080261236e565b1980831691505092915050565b60006123a5838361237b565b9150826002028217905092915050565b6123be82611c37565b67ffffffffffffffff8111156123d7576123d6611543565b5b6123e182546121d8565b6123ec828285612328565b600060209050601f83116001811461241f576000841561240d578287015190505b6124178582612399565b86555061247f565b601f19841661242d86612209565b60005b8281101561245557848901518255600182019150602085019450602081019050612430565b86831015612472578489015161246e601f89168261237b565b8355505b6001600288020188555050505b505050505050565b600061249282611c37565b61249c818561213d565b93506124ac818560208601611c53565b80840191505092915050565b60006124c48284612487565b915081905092915050565b7f4e487b7100000000000000000000000000000000000000000000000000000000600052603260045260246000fd5b7f4e487b7100000000000000000000000000000000000000000000000000000000600052601160045260246000fd5b60006125388261204c565b91507fffffffffffffffffffffffffffffffffffffffffffffffffffffffffffffffff820361256a576125696124fe565b5b60018201905091905056fea2646970667358221220d3ab3737c03ffe987233233a7c401de04da44f4b7e60179d3d26d06bb97be87164736f6c634300080f0033",
  "immutableReferences": {},
  "source": "pragma solidity >=0.8.9;\r\n\r\n//SPDX-License-Identifier: UNLICENSED\r\n\r\ncontract UserDataContract {\r\n\r\n    /* Attributes stored in UserData and Credential. */\r\n    struct Attribute {\r\n        string name;\r\n        string value;\r\n    }\r\n\r\n    /* Credential consisting of attributes and an organization name. */\r\n    struct Credential {\r\n        string organization;\r\n        uint attributeCount;\r\n        mapping (uint => Attribute) attributes;\r\n    }\r\n\r\n    /* UserData is where the bulk of user's data will be stored using Credential and Attribute. */\r\n    struct UserData {\r\n        string id;\r\n\r\n        uint attributeCount;\r\n        mapping (uint => Attribute) attributes;\r\n\r\n        uint credentialCount;\r\n        mapping (uint => Credential) credentials;\r\n    }\r\n\r\n    /* What will be returned in place of a Credential struct. */\r\n    struct CredentialResponse {\r\n        string organization;\r\n        Attribute[] attributes;\r\n    }\r\n\r\n    /* What will be returned in place of a UserData struct. */\r\n    struct UserDataResponse{\r\n        string id;\r\n        Attribute[] attributes;\r\n        CredentialResponse[] credentials;\r\n    }\r\n\r\n    /* Received in paramets to update attributes, this improves gas usage by knowing when to insert and when to update. */\r\n    struct AttributeUpdate {\r\n        Attribute attribute;\r\n        bool isUpdate;\r\n    }\r\n\r\n    /* Received in paramets to update credentials, this improves gas usage by knowing when to insert and when to update */\r\n    struct CredentialUpdate {\r\n        string organization;\r\n        bool isUpdate;\r\n        Attribute[] attributes;\r\n    }\r\n\r\n    /* Single functions for update to test integration methods */\r\n    struct Update {\r\n        string id;\r\n        AttributeUpdate[] attributes;\r\n        CredentialUpdate[] credentials;\r\n    }\r\n\r\n    /* Single parameter to update an attribute */\r\n    struct UpdateAttribute {\r\n        string id;\r\n        string name;\r\n        string value;\r\n    }\r\n\r\n    /* All stored user's data can be accessed through the allUserData attribute. */\r\n    mapping (string => UserData) allUserData;\r\n\r\n    constructor() {\r\n        allUserData[\"aaa\"].attributes[0].name = \"name\";\r\n        allUserData[\"aaa\"].attributes[0].value = \"Johan\";\r\n        allUserData[\"aaa\"].attributeCount= 1;\r\n    }\r\n\r\n    /* Create and return a new user's data. */\r\n    function createUser(string memory _id) public {\r\n        allUserData[_id].id = _id;\r\n        allUserData[_id].attributeCount = 0;\r\n        allUserData[_id].credentialCount = 0;\r\n    }\r\n\r\n    function updateAttribute(string memory _id, uint index, string memory name, string memory value) public {\r\n        allUserData[_id].attributes[index].name = name;\r\n        allUserData[_id].attributes[index].value = value;\r\n    }\r\n\r\n    function createAttribute(UpdateAttribute memory attribute) public {\r\n        uint index = allUserData[attribute.id].attributeCount++;\r\n        allUserData[attribute.id].attributes[index].name = attribute.name;\r\n        allUserData[attribute.id].attributes[index].value = attribute.value;\r\n    }\r\n\r\n    function createAttributeX() public {\r\n        //uint index = allUserData[\"test\"].attributeCount++;\r\n        allUserData[\"test\"].attributes[0].name = \"testname\";\r\n        allUserData[\"test\"].attributes[0].value = \"testvalue\";\r\n    }\r\n\r\n    function createAttributeY() public {\r\n        \r\n    }\r\n\r\n    /* Add and Update UserData by id. */\r\n    //function updateUser(string memory _id, AttributeUpdate[] memory attributes, CredentialUpdate[] memory credentials) public {\r\n    function updateUser(Update memory update) public {\r\n        \r\n        //add/update all new attributes\r\n        if (update.attributes.length > 0) updateAttributes(update.id, update.attributes);\r\n\r\n        //add and update all new credentials\r\n        if (update.credentials.length > 0) updateCredentials(update.id, update.credentials);\r\n\r\n    }\r\n\r\n    /* Updates the relevant attributes for the appropriate credentials. */\r\n    function updateCredentials(string memory _id, CredentialUpdate[] memory credentials) private {\r\n\r\n        for (uint i=0; i<credentials.length; i++) {\r\n\r\n            //update existing credentials\r\n            if (credentials[i].isUpdate) {\r\n\r\n                //find right credential by organization\r\n                for (uint k=0; k<allUserData[_id].credentialCount; k++) {\r\n                    if (stringCompare(allUserData[_id].credentials[k].organization, credentials[i].organization)) {\r\n                        //update credential's attributes\r\n                        updateCredentialAttributes(_id, k, credentials[i].attributes);\r\n                        break;\r\n                    }  \r\n                }\r\n\r\n                continue;\r\n            }\r\n\r\n            //insert new credentials\r\n            uint index = allUserData[_id].credentialCount++;\r\n            allUserData[_id].credentials[index].organization = credentials[i].organization;\r\n            allUserData[_id].credentials[index].attributeCount = credentials[i].attributes.length;\r\n\r\n            for (uint k=0; k<credentials[i].attributes.length; k++) {\r\n                allUserData[_id].credentials[index].attributes[k].name = credentials[i].attributes[k].name;\r\n                allUserData[_id].credentials[index].attributes[k].value = credentials[i].attributes[k].value;\r\n            }\r\n        }   \r\n\r\n    }\r\n\r\n    /* Updates relevant Attributes for specified credential and organization in storage. */\r\n    function updateCredentialAttributes(string memory _id, uint org, Attribute[] memory attributes) private {\r\n        \r\n        for (uint i=0; i<attributes.length; i++) {\r\n            for (uint k=0; k<allUserData[_id].attributeCount; k++) {\r\n                if (stringCompare(allUserData[_id].credentials[org].attributes[k].name, attributes[i].name)) {\r\n                    allUserData[_id].credentials[org].attributes[k].value = attributes[i].value;\r\n                }\r\n            }\r\n        }\r\n    }\r\n\r\n    /* Updates relevant Attribute values in storage. */\r\n    function updateAttributes(string memory _id, AttributeUpdate[] memory attributes) private {\r\n        \r\n        for (uint i=0; i<attributes.length; i++) {\r\n\r\n            //update existing attribute\r\n            if (attributes[i].isUpdate) {\r\n\r\n                for (uint k=0; k<allUserData[_id].attributeCount; k++) {\r\n                    if (stringCompare(allUserData[_id].attributes[k].name, attributes[i].attribute.name)) {\r\n                        allUserData[_id].attributes[k].value = attributes[i].attribute.value;\r\n                        break;\r\n                    }\r\n                }\r\n                continue;\r\n            }\r\n\r\n            //add new attribute\r\n            uint index = allUserData[_id].attributeCount;\r\n            allUserData[_id].attributeCount++;\r\n            allUserData[_id].attributes[index].name = attributes[i].attribute.name;\r\n            allUserData[_id].attributes[index].value = attributes[i].attribute.value;\r\n        }\r\n\r\n    }\r\n\r\n    /* Returns the enitre UserData for the specified id. */\r\n    function getUserData(string memory _id) public view returns (UserDataResponse memory) {\r\n        \r\n        //Create Attribute array\r\n        uint size = allUserData[_id].attributeCount;\r\n        Attribute[] memory attrs = new Attribute[](size);\r\n        \r\n        for (uint i=0; i<allUserData[_id].attributeCount; i++) {\r\n            attrs[i].name = allUserData[_id].attributes[i].name;\r\n            attrs[i].value = allUserData[_id].attributes[i].value;\r\n        }\r\n\r\n        //Create Attribute arrays for Credential arrays\r\n        size = allUserData[_id].credentialCount;\r\n        CredentialResponse[] memory creds = new CredentialResponse[](size);\r\n\r\n        for (uint i=0; i<allUserData[_id].credentialCount; i++) {\r\n\r\n            creds[i].organization = allUserData[_id].credentials[i].organization;\r\n            creds[i].attributes = new Attribute[](allUserData[_id].credentials[i].attributeCount);\r\n\r\n            for (uint k=0; k<allUserData[_id].credentials[i].attributeCount; k++) {\r\n                creds[i].attributes[k].name = allUserData[_id].credentials[i].attributes[k].name;\r\n                creds[i].attributes[k].value = allUserData[_id].credentials[i].attributes[k].value;\r\n            }\r\n        }\r\n\r\n        //Create UserDataResponse\r\n        return (UserDataResponse({\r\n            id: _id,\r\n            attributes: attrs,\r\n            credentials: creds\r\n        }));\r\n    }\r\n\r\n    /* Compares two strings to see if they're equal or not. */\r\n    function stringCompare(string memory a, string memory b) private pure returns (bool) {\r\n        if (keccak256(bytes(a)) == keccak256(bytes(b)))\r\n            return true;\r\n        return false;\r\n    }\r\n\r\n    /* Returns a set of desired Attributes. */\r\n    /*function getAttributes(string memory _id, string[] memory attributes) public view returns (Attribute[] memory) {\r\n\r\n    }*/\r\n\r\n    /* Returns a set of desired Credentials. */\r\n    //function getCredentials(string memory _id, string memory organization) public view returns (CredentialResponse memory) {\r\n\r\n    //}\r\n}",
  "sourcePath": "C:\\Users\\bbdnet2552\\Desktop\\University\\Capstone\\Repo\\Exploring-Self-Sovereign-Identity\\LocalBlockchain\\contracts\\UserDataContract.sol",
  "compiler": {
    "name": "solc",
    "version": "0.8.15+commit.e14f2714.Emscripten.clang"
  },
  "schemaVersion": "3.4.8",
  "updatedAt": "2022-07-28T14:21:31.967Z",
  "networkType": "ethereum",
  "devdoc": {
    "kind": "dev",
    "methods": {},
    "version": 1
  },
  "userdoc": {
    "kind": "user",
    "methods": {},
    "version": 1
  }
}